{
	"contracts/KlaytnToken.sol": {
		"KIP7": {
			"abi": [
				{
					"inputs": [
						{
							"internalType": "string",
							"name": "name_",
							"type": "string"
						},
						{
							"internalType": "string",
							"name": "symbol_",
							"type": "string"
						}
					],
					"stateMutability": "nonpayable",
					"type": "constructor"
				},
				{
					"anonymous": false,
					"inputs": [
						{
							"indexed": true,
							"internalType": "address",
							"name": "owner",
							"type": "address"
						},
						{
							"indexed": true,
							"internalType": "address",
							"name": "spender",
							"type": "address"
						},
						{
							"indexed": false,
							"internalType": "uint256",
							"name": "value",
							"type": "uint256"
						}
					],
					"name": "Approval",
					"type": "event"
				},
				{
					"anonymous": false,
					"inputs": [
						{
							"indexed": true,
							"internalType": "address",
							"name": "from",
							"type": "address"
						},
						{
							"indexed": true,
							"internalType": "address",
							"name": "to",
							"type": "address"
						},
						{
							"indexed": false,
							"internalType": "uint256",
							"name": "value",
							"type": "uint256"
						}
					],
					"name": "Transfer",
					"type": "event"
				},
				{
					"inputs": [
						{
							"internalType": "address",
							"name": "owner",
							"type": "address"
						},
						{
							"internalType": "address",
							"name": "spender",
							"type": "address"
						}
					],
					"name": "allowance",
					"outputs": [
						{
							"internalType": "uint256",
							"name": "",
							"type": "uint256"
						}
					],
					"stateMutability": "view",
					"type": "function"
				},
				{
					"inputs": [
						{
							"internalType": "address",
							"name": "spender",
							"type": "address"
						},
						{
							"internalType": "uint256",
							"name": "amount",
							"type": "uint256"
						}
					],
					"name": "approve",
					"outputs": [
						{
							"internalType": "bool",
							"name": "",
							"type": "bool"
						}
					],
					"stateMutability": "nonpayable",
					"type": "function"
				},
				{
					"inputs": [
						{
							"internalType": "address",
							"name": "account",
							"type": "address"
						}
					],
					"name": "balanceOf",
					"outputs": [
						{
							"internalType": "uint256",
							"name": "",
							"type": "uint256"
						}
					],
					"stateMutability": "view",
					"type": "function"
				},
				{
					"inputs": [],
					"name": "decimals",
					"outputs": [
						{
							"internalType": "uint8",
							"name": "",
							"type": "uint8"
						}
					],
					"stateMutability": "view",
					"type": "function"
				},
				{
					"inputs": [
						{
							"internalType": "address",
							"name": "spender",
							"type": "address"
						},
						{
							"internalType": "uint256",
							"name": "subtractedValue",
							"type": "uint256"
						}
					],
					"name": "decreaseAllowance",
					"outputs": [
						{
							"internalType": "bool",
							"name": "",
							"type": "bool"
						}
					],
					"stateMutability": "nonpayable",
					"type": "function"
				},
				{
					"inputs": [
						{
							"internalType": "address",
							"name": "spender",
							"type": "address"
						},
						{
							"internalType": "uint256",
							"name": "addedValue",
							"type": "uint256"
						}
					],
					"name": "increaseAllowance",
					"outputs": [
						{
							"internalType": "bool",
							"name": "",
							"type": "bool"
						}
					],
					"stateMutability": "nonpayable",
					"type": "function"
				},
				{
					"inputs": [],
					"name": "name",
					"outputs": [
						{
							"internalType": "string",
							"name": "",
							"type": "string"
						}
					],
					"stateMutability": "view",
					"type": "function"
				},
				{
					"inputs": [
						{
							"internalType": "address",
							"name": "recipient",
							"type": "address"
						},
						{
							"internalType": "uint256",
							"name": "amount",
							"type": "uint256"
						}
					],
					"name": "safeTransfer",
					"outputs": [],
					"stateMutability": "nonpayable",
					"type": "function"
				},
				{
					"inputs": [
						{
							"internalType": "address",
							"name": "recipient",
							"type": "address"
						},
						{
							"internalType": "uint256",
							"name": "amount",
							"type": "uint256"
						},
						{
							"internalType": "bytes",
							"name": "_data",
							"type": "bytes"
						}
					],
					"name": "safeTransfer",
					"outputs": [],
					"stateMutability": "nonpayable",
					"type": "function"
				},
				{
					"inputs": [
						{
							"internalType": "address",
							"name": "sender",
							"type": "address"
						},
						{
							"internalType": "address",
							"name": "recipient",
							"type": "address"
						},
						{
							"internalType": "uint256",
							"name": "amount",
							"type": "uint256"
						}
					],
					"name": "safeTransferFrom",
					"outputs": [],
					"stateMutability": "nonpayable",
					"type": "function"
				},
				{
					"inputs": [
						{
							"internalType": "address",
							"name": "sender",
							"type": "address"
						},
						{
							"internalType": "address",
							"name": "recipient",
							"type": "address"
						},
						{
							"internalType": "uint256",
							"name": "amount",
							"type": "uint256"
						},
						{
							"internalType": "bytes",
							"name": "_data",
							"type": "bytes"
						}
					],
					"name": "safeTransferFrom",
					"outputs": [],
					"stateMutability": "nonpayable",
					"type": "function"
				},
				{
					"inputs": [
						{
							"internalType": "bytes4",
							"name": "interfaceId",
							"type": "bytes4"
						}
					],
					"name": "supportsInterface",
					"outputs": [
						{
							"internalType": "bool",
							"name": "",
							"type": "bool"
						}
					],
					"stateMutability": "view",
					"type": "function"
				},
				{
					"inputs": [],
					"name": "symbol",
					"outputs": [
						{
							"internalType": "string",
							"name": "",
							"type": "string"
						}
					],
					"stateMutability": "view",
					"type": "function"
				},
				{
					"inputs": [],
					"name": "totalSupply",
					"outputs": [
						{
							"internalType": "uint256",
							"name": "",
							"type": "uint256"
						}
					],
					"stateMutability": "view",
					"type": "function"
				},
				{
					"inputs": [
						{
							"internalType": "address",
							"name": "to",
							"type": "address"
						},
						{
							"internalType": "uint256",
							"name": "amount",
							"type": "uint256"
						}
					],
					"name": "transfer",
					"outputs": [
						{
							"internalType": "bool",
							"name": "",
							"type": "bool"
						}
					],
					"stateMutability": "nonpayable",
					"type": "function"
				},
				{
					"inputs": [
						{
							"internalType": "address",
							"name": "from",
							"type": "address"
						},
						{
							"internalType": "address",
							"name": "to",
							"type": "address"
						},
						{
							"internalType": "uint256",
							"name": "amount",
							"type": "uint256"
						}
					],
					"name": "transferFrom",
					"outputs": [
						{
							"internalType": "bool",
							"name": "",
							"type": "bool"
						}
					],
					"stateMutability": "nonpayable",
					"type": "function"
				}
			],
			"devdoc": {
				"details": "Implementation of the {IKIP7} interface. This implementation is agnostic to the way tokens are created. This means that a supply mechanism has to be added in a derived contract using {_mint}. For a generic mechanism see {KIP7PresetMinterPauser}. We have followed general OpenZeppelin Contracts guidelines: functions revert instead returning `false` on failure. This behavior is nonetheless conventional and does not conflict with the expectations of KIP7 applications. Additionally, an {Approval} event is emitted on calls to {transferFrom}. This allows applications to reconstruct the allowance for all accounts just by listening to said events. Other implementations of the EIP may not emit these events, as it isn't required by the specification. Finally, the non-standard {decreaseAllowance} and {increaseAllowance} functions have been added to mitigate the well-known issues around setting allowances. See {IKIP7-approve}. See http://kips.klaytn.com/KIPs/kip-7-fungible_token",
				"kind": "dev",
				"methods": {
					"allowance(address,address)": {
						"details": "See {IKIP7-allowance}."
					},
					"approve(address,uint256)": {
						"details": "See {IKIP7-approve}. NOTE: If `amount` is the maximum `uint256`, the allowance is not updated on `transferFrom`. This is semantically equivalent to an infinite approval. Requirements: - `spender` cannot be the zero address."
					},
					"balanceOf(address)": {
						"details": "See {IKIP7-balanceOf}."
					},
					"constructor": {
						"details": "Sets the values for {name} and {symbol}. The default value of {decimals} is 18. To select a different value for {decimals} you should overload it. All two of these values are immutable: they can only be set once during construction."
					},
					"decimals()": {
						"details": "Returns the number of decimals used to get its user representation. For example, if `decimals` equals `2`, a balance of `505` tokens should be displayed to a user as `5.05` (`505 / 10 ** 2`). Tokens usually opt for a value of 18, imitating the relationship between Ether and Wei. This is the value {KIP7} uses, unless this function is overridden; NOTE: This information is only used for _display_ purposes: it in no way affects any of the arithmetic of the contract, including {IKIP7-balanceOf} and {IKIP7-transfer}."
					},
					"decreaseAllowance(address,uint256)": {
						"details": "Atomically decreases the allowance granted to `spender` by the caller. This is an alternative to {approve} that can be used as a mitigation for problems described in {IKIP7-approve}. Emits an {Approval} event indicating the updated allowance. Requirements: - `spender` cannot be the zero address. - `spender` must have allowance for the caller of at least `subtractedValue`."
					},
					"increaseAllowance(address,uint256)": {
						"details": "Atomically increases the allowance granted to `spender` by the caller. This is an alternative to {approve} that can be used as a mitigation for problems described in {IKIP7-approve}. Emits an {Approval} event indicating the updated allowance. Requirements: - `spender` cannot be the zero address."
					},
					"name()": {
						"details": "Returns the name of the token."
					},
					"safeTransfer(address,uint256)": {
						"details": "See {IKIP7-safeTransfer}. Emits a {Transfer} event Requirements: - `recipient` cannot be the zero address. - the caller must have a balance of at least `amount`. - if `recipient` is a smart contract, it must implement {IKIP7Receiver}"
					},
					"safeTransfer(address,uint256,bytes)": {
						"details": "Same as {xref-KIP7-safeTransfer-address-uint256-}[`safeTransfer`], with an additional `_data` parameter which is forwarded in {IKIP7Receiver-onKIP7Received} to contract recipients. Emits a {Transfer} event"
					},
					"safeTransferFrom(address,address,uint256)": {
						"details": "See {IKIP7-safeTransferFrom}. Emits a {Transfer} event Emits an {Approval} event indicating the updated allowance. This is not required by the KIP. See the note at the beginning of {KIP7}. NOTE: Does not update the allowance if the current allowance is the maximum `uint256`. Requirements: - `sender` and `recipient` cannot be the zero address. - `sender` must have a balance of at least `amount`. - the caller must have allowance for ``sender``'s tokens of at least `amount`. - if `recipient` is a smart contract, it must implement {IKIP7Receiver}"
					},
					"safeTransferFrom(address,address,uint256,bytes)": {
						"details": "Same as {xref-KIP7-safeTransferFrom-address-uint256-}[`safeTransferFrom`], with an additional `_data` parameter which is forwarded in {IKIP7Receiver-onKIP7Received} to contract recipients. Emits a {Transfer} event Emits an {Approval} event indicating the updated allowance."
					},
					"supportsInterface(bytes4)": {
						"details": "See {IKIP13-supportsInterface}."
					},
					"symbol()": {
						"details": "Returns the symbol of the token, usually a shorter version of the name."
					},
					"totalSupply()": {
						"details": "See {IKIP7-totalSupply}."
					},
					"transfer(address,uint256)": {
						"details": "See {IKIP7-transfer}. Requirements: - `to` cannot be the zero address. - the caller must have a balance of at least `amount`."
					},
					"transferFrom(address,address,uint256)": {
						"details": "See {IKIP7-transferFrom}. Emits an {Approval} event indicating the updated allowance. This is not required by the EIP. See the note at the beginning of {KIP7}. NOTE: Does not update the allowance if the current allowance is the maximum `uint256`. Requirements: - `from` and `to` cannot be the zero address. - `from` must have a balance of at least `amount`. - the caller must have allowance for ``from``'s tokens of at least `amount`."
					}
				},
				"version": 1
			},
			"evm": {
				"assembly": "    /* \"contracts/KlaytnToken.sol\":1515:19215  contract KIP7 is KIP13, Context, IKIP7, IKIP7Metadata {... */\n  mstore(0x40, 0x80)\n    /* \"contracts/KlaytnToken.sol\":2126:2239  constructor(string memory name_, string memory symbol_) {... */\n  callvalue\n  dup1\n  iszero\n  tag_1\n  jumpi\n  0x00\n  dup1\n  revert\ntag_1:\n  pop\n  mload(0x40)\n  sub(codesize, bytecodeSize)\n  dup1\n  bytecodeSize\n  dup4\n  codecopy\n  dup2\n  dup2\n  add\n  0x40\n  mstore\n  dup2\n  add\n  swap1\n  tag_2\n  swap2\n  swap1\n  tag_3\n  jump\t// in\ntag_2:\n    /* \"contracts/KlaytnToken.sol\":2200:2205  name_ */\n  dup2\n    /* \"contracts/KlaytnToken.sol\":2192:2197  _name */\n  0x03\n    /* \"contracts/KlaytnToken.sol\":2192:2205  _name = name_ */\n  swap1\n  dup2\n  tag_6\n  swap2\n  swap1\n  tag_7\n  jump\t// in\ntag_6:\n  pop\n    /* \"contracts/KlaytnToken.sol\":2225:2232  symbol_ */\n  dup1\n    /* \"contracts/KlaytnToken.sol\":2215:2222  _symbol */\n  0x04\n    /* \"contracts/KlaytnToken.sol\":2215:2232  _symbol = symbol_ */\n  swap1\n  dup2\n  tag_8\n  swap2\n  swap1\n  tag_7\n  jump\t// in\ntag_8:\n  pop\n    /* \"contracts/KlaytnToken.sol\":2126:2239  constructor(string memory name_, string memory symbol_) {... */\n  pop\n  pop\n    /* \"contracts/KlaytnToken.sol\":1515:19215  contract KIP7 is KIP13, Context, IKIP7, IKIP7Metadata {... */\n  jump(tag_9)\n    /* \"#utility.yul\":7:82   */\ntag_10:\n    /* \"#utility.yul\":40:46   */\n  0x00\n    /* \"#utility.yul\":73:75   */\n  0x40\n    /* \"#utility.yul\":67:76   */\n  mload\n    /* \"#utility.yul\":57:76   */\n  swap1\n  pop\n    /* \"#utility.yul\":7:82   */\n  swap1\n  jump\t// out\n    /* \"#utility.yul\":88:205   */\ntag_11:\n    /* \"#utility.yul\":197:198   */\n  0x00\n    /* \"#utility.yul\":194:195   */\n  dup1\n    /* \"#utility.yul\":187:199   */\n  revert\n    /* \"#utility.yul\":211:328   */\ntag_12:\n    /* \"#utility.yul\":320:321   */\n  0x00\n    /* \"#utility.yul\":317:318   */\n  dup1\n    /* \"#utility.yul\":310:322   */\n  revert\n    /* \"#utility.yul\":334:451   */\ntag_13:\n    /* \"#utility.yul\":443:444   */\n  0x00\n    /* \"#utility.yul\":440:441   */\n  dup1\n    /* \"#utility.yul\":433:445   */\n  revert\n    /* \"#utility.yul\":457:574   */\ntag_14:\n    /* \"#utility.yul\":566:567   */\n  0x00\n    /* \"#utility.yul\":563:564   */\n  dup1\n    /* \"#utility.yul\":556:568   */\n  revert\n    /* \"#utility.yul\":580:682   */\ntag_15:\n    /* \"#utility.yul\":621:627   */\n  0x00\n    /* \"#utility.yul\":672:674   */\n  0x1f\n    /* \"#utility.yul\":668:675   */\n  not\n    /* \"#utility.yul\":663:665   */\n  0x1f\n    /* \"#utility.yul\":656:661   */\n  dup4\n    /* \"#utility.yul\":652:666   */\n  add\n    /* \"#utility.yul\":648:676   */\n  and\n    /* \"#utility.yul\":638:676   */\n  swap1\n  pop\n    /* \"#utility.yul\":580:682   */\n  swap2\n  swap1\n  pop\n  jump\t// out\n    /* \"#utility.yul\":688:868   */\ntag_16:\n    /* \"#utility.yul\":736:813   */\n  0x4e487b7100000000000000000000000000000000000000000000000000000000\n    /* \"#utility.yul\":733:734   */\n  0x00\n    /* \"#utility.yul\":726:814   */\n  mstore\n    /* \"#utility.yul\":833:837   */\n  0x41\n    /* \"#utility.yul\":830:831   */\n  0x04\n    /* \"#utility.yul\":823:838   */\n  mstore\n    /* \"#utility.yul\":857:861   */\n  0x24\n    /* \"#utility.yul\":854:855   */\n  0x00\n    /* \"#utility.yul\":847:862   */\n  revert\n    /* \"#utility.yul\":874:1155   */\ntag_17:\n    /* \"#utility.yul\":957:984   */\n  tag_51\n    /* \"#utility.yul\":979:983   */\n  dup3\n    /* \"#utility.yul\":957:984   */\n  tag_15\n  jump\t// in\ntag_51:\n    /* \"#utility.yul\":949:955   */\n  dup2\n    /* \"#utility.yul\":945:985   */\n  add\n    /* \"#utility.yul\":1087:1093   */\n  dup2\n    /* \"#utility.yul\":1075:1085   */\n  dup2\n    /* \"#utility.yul\":1072:1094   */\n  lt\n    /* \"#utility.yul\":1051:1069   */\n  0xffffffffffffffff\n    /* \"#utility.yul\":1039:1049   */\n  dup3\n    /* \"#utility.yul\":1036:1070   */\n  gt\n    /* \"#utility.yul\":1033:1095   */\n  or\n    /* \"#utility.yul\":1030:1118   */\n  iszero\n  tag_52\n  jumpi\n    /* \"#utility.yul\":1098:1116   */\n  tag_53\n  tag_16\n  jump\t// in\ntag_53:\n    /* \"#utility.yul\":1030:1118   */\ntag_52:\n    /* \"#utility.yul\":1138:1148   */\n  dup1\n    /* \"#utility.yul\":1134:1136   */\n  0x40\n    /* \"#utility.yul\":1127:1149   */\n  mstore\n    /* \"#utility.yul\":917:1155   */\n  pop\n    /* \"#utility.yul\":874:1155   */\n  pop\n  pop\n  jump\t// out\n    /* \"#utility.yul\":1161:1290   */\ntag_18:\n    /* \"#utility.yul\":1195:1201   */\n  0x00\n    /* \"#utility.yul\":1222:1242   */\n  tag_55\n  tag_10\n  jump\t// in\ntag_55:\n    /* \"#utility.yul\":1212:1242   */\n  swap1\n  pop\n    /* \"#utility.yul\":1251:1284   */\n  tag_56\n    /* \"#utility.yul\":1279:1283   */\n  dup3\n    /* \"#utility.yul\":1271:1277   */\n  dup3\n    /* \"#utility.yul\":1251:1284   */\n  tag_17\n  jump\t// in\ntag_56:\n    /* \"#utility.yul\":1161:1290   */\n  swap2\n  swap1\n  pop\n  jump\t// out\n    /* \"#utility.yul\":1296:1604   */\ntag_19:\n    /* \"#utility.yul\":1358:1362   */\n  0x00\n    /* \"#utility.yul\":1448:1466   */\n  0xffffffffffffffff\n    /* \"#utility.yul\":1440:1446   */\n  dup3\n    /* \"#utility.yul\":1437:1467   */\n  gt\n    /* \"#utility.yul\":1434:1490   */\n  iszero\n  tag_58\n  jumpi\n    /* \"#utility.yul\":1470:1488   */\n  tag_59\n  tag_16\n  jump\t// in\ntag_59:\n    /* \"#utility.yul\":1434:1490   */\ntag_58:\n    /* \"#utility.yul\":1508:1537   */\n  tag_60\n    /* \"#utility.yul\":1530:1536   */\n  dup3\n    /* \"#utility.yul\":1508:1537   */\n  tag_15\n  jump\t// in\ntag_60:\n    /* \"#utility.yul\":1500:1537   */\n  swap1\n  pop\n    /* \"#utility.yul\":1592:1596   */\n  0x20\n    /* \"#utility.yul\":1586:1590   */\n  dup2\n    /* \"#utility.yul\":1582:1597   */\n  add\n    /* \"#utility.yul\":1574:1597   */\n  swap1\n  pop\n    /* \"#utility.yul\":1296:1604   */\n  swap2\n  swap1\n  pop\n  jump\t// out\n    /* \"#utility.yul\":1610:1856   */\ntag_20:\n    /* \"#utility.yul\":1691:1692   */\n  0x00\n    /* \"#utility.yul\":1701:1814   */\ntag_62:\n    /* \"#utility.yul\":1715:1721   */\n  dup4\n    /* \"#utility.yul\":1712:1713   */\n  dup2\n    /* \"#utility.yul\":1709:1722   */\n  lt\n    /* \"#utility.yul\":1701:1814   */\n  iszero\n  tag_64\n  jumpi\n    /* \"#utility.yul\":1800:1801   */\n  dup1\n    /* \"#utility.yul\":1795:1798   */\n  dup3\n    /* \"#utility.yul\":1791:1802   */\n  add\n    /* \"#utility.yul\":1785:1803   */\n  mload\n    /* \"#utility.yul\":1781:1782   */\n  dup2\n    /* \"#utility.yul\":1776:1779   */\n  dup5\n    /* \"#utility.yul\":1772:1783   */\n  add\n    /* \"#utility.yul\":1765:1804   */\n  mstore\n    /* \"#utility.yul\":1737:1739   */\n  0x20\n    /* \"#utility.yul\":1734:1735   */\n  dup2\n    /* \"#utility.yul\":1730:1740   */\n  add\n    /* \"#utility.yul\":1725:1740   */\n  swap1\n  pop\n    /* \"#utility.yul\":1701:1814   */\n  jump(tag_62)\ntag_64:\n    /* \"#utility.yul\":1848:1849   */\n  0x00\n    /* \"#utility.yul\":1839:1845   */\n  dup5\n    /* \"#utility.yul\":1834:1837   */\n  dup5\n    /* \"#utility.yul\":1830:1846   */\n  add\n    /* \"#utility.yul\":1823:1850   */\n  mstore\n    /* \"#utility.yul\":1672:1856   */\n  pop\n    /* \"#utility.yul\":1610:1856   */\n  pop\n  pop\n  pop\n  jump\t// out\n    /* \"#utility.yul\":1862:2296   */\ntag_21:\n    /* \"#utility.yul\":1951:1956   */\n  0x00\n    /* \"#utility.yul\":1976:2042   */\n  tag_66\n    /* \"#utility.yul\":1992:2041   */\n  tag_67\n    /* \"#utility.yul\":2034:2040   */\n  dup5\n    /* \"#utility.yul\":1992:2041   */\n  tag_19\n  jump\t// in\ntag_67:\n    /* \"#utility.yul\":1976:2042   */\n  tag_18\n  jump\t// in\ntag_66:\n    /* \"#utility.yul\":1967:2042   */\n  swap1\n  pop\n    /* \"#utility.yul\":2065:2071   */\n  dup3\n    /* \"#utility.yul\":2058:2063   */\n  dup2\n    /* \"#utility.yul\":2051:2072   */\n  mstore\n    /* \"#utility.yul\":2103:2107   */\n  0x20\n    /* \"#utility.yul\":2096:2101   */\n  dup2\n    /* \"#utility.yul\":2092:2108   */\n  add\n    /* \"#utility.yul\":2141:2144   */\n  dup5\n    /* \"#utility.yul\":2132:2138   */\n  dup5\n    /* \"#utility.yul\":2127:2130   */\n  dup5\n    /* \"#utility.yul\":2123:2139   */\n  add\n    /* \"#utility.yul\":2120:2145   */\n  gt\n    /* \"#utility.yul\":2117:2229   */\n  iszero\n  tag_68\n  jumpi\n    /* \"#utility.yul\":2148:2227   */\n  tag_69\n  tag_14\n  jump\t// in\ntag_69:\n    /* \"#utility.yul\":2117:2229   */\ntag_68:\n    /* \"#utility.yul\":2238:2290   */\n  tag_70\n    /* \"#utility.yul\":2283:2289   */\n  dup5\n    /* \"#utility.yul\":2278:2281   */\n  dup3\n    /* \"#utility.yul\":2273:2276   */\n  dup6\n    /* \"#utility.yul\":2238:2290   */\n  tag_20\n  jump\t// in\ntag_70:\n    /* \"#utility.yul\":1957:2296   */\n  pop\n    /* \"#utility.yul\":1862:2296   */\n  swap4\n  swap3\n  pop\n  pop\n  pop\n  jump\t// out\n    /* \"#utility.yul\":2316:2671   */\ntag_22:\n    /* \"#utility.yul\":2383:2388   */\n  0x00\n    /* \"#utility.yul\":2432:2435   */\n  dup3\n    /* \"#utility.yul\":2425:2429   */\n  0x1f\n    /* \"#utility.yul\":2417:2423   */\n  dup4\n    /* \"#utility.yul\":2413:2430   */\n  add\n    /* \"#utility.yul\":2409:2436   */\n  slt\n    /* \"#utility.yul\":2399:2521   */\n  tag_72\n  jumpi\n    /* \"#utility.yul\":2440:2519   */\n  tag_73\n  tag_13\n  jump\t// in\ntag_73:\n    /* \"#utility.yul\":2399:2521   */\ntag_72:\n    /* \"#utility.yul\":2550:2556   */\n  dup2\n    /* \"#utility.yul\":2544:2557   */\n  mload\n    /* \"#utility.yul\":2575:2665   */\n  tag_74\n    /* \"#utility.yul\":2661:2664   */\n  dup5\n    /* \"#utility.yul\":2653:2659   */\n  dup3\n    /* \"#utility.yul\":2646:2650   */\n  0x20\n    /* \"#utility.yul\":2638:2644   */\n  dup7\n    /* \"#utility.yul\":2634:2651   */\n  add\n    /* \"#utility.yul\":2575:2665   */\n  tag_21\n  jump\t// in\ntag_74:\n    /* \"#utility.yul\":2566:2665   */\n  swap2\n  pop\n    /* \"#utility.yul\":2389:2671   */\n  pop\n    /* \"#utility.yul\":2316:2671   */\n  swap3\n  swap2\n  pop\n  pop\n  jump\t// out\n    /* \"#utility.yul\":2677:3530   */\ntag_3:\n    /* \"#utility.yul\":2776:2782   */\n  0x00\n    /* \"#utility.yul\":2784:2790   */\n  dup1\n    /* \"#utility.yul\":2833:2835   */\n  0x40\n    /* \"#utility.yul\":2821:2830   */\n  dup4\n    /* \"#utility.yul\":2812:2819   */\n  dup6\n    /* \"#utility.yul\":2808:2831   */\n  sub\n    /* \"#utility.yul\":2804:2836   */\n  slt\n    /* \"#utility.yul\":2801:2920   */\n  iszero\n  tag_76\n  jumpi\n    /* \"#utility.yul\":2839:2918   */\n  tag_77\n  tag_11\n  jump\t// in\ntag_77:\n    /* \"#utility.yul\":2801:2920   */\ntag_76:\n    /* \"#utility.yul\":2980:2981   */\n  0x00\n    /* \"#utility.yul\":2969:2978   */\n  dup4\n    /* \"#utility.yul\":2965:2982   */\n  add\n    /* \"#utility.yul\":2959:2983   */\n  mload\n    /* \"#utility.yul\":3010:3028   */\n  0xffffffffffffffff\n    /* \"#utility.yul\":3002:3008   */\n  dup2\n    /* \"#utility.yul\":2999:3029   */\n  gt\n    /* \"#utility.yul\":2996:3113   */\n  iszero\n  tag_78\n  jumpi\n    /* \"#utility.yul\":3032:3111   */\n  tag_79\n  tag_12\n  jump\t// in\ntag_79:\n    /* \"#utility.yul\":2996:3113   */\ntag_78:\n    /* \"#utility.yul\":3137:3211   */\n  tag_80\n    /* \"#utility.yul\":3203:3210   */\n  dup6\n    /* \"#utility.yul\":3194:3200   */\n  dup3\n    /* \"#utility.yul\":3183:3192   */\n  dup7\n    /* \"#utility.yul\":3179:3201   */\n  add\n    /* \"#utility.yul\":3137:3211   */\n  tag_22\n  jump\t// in\ntag_80:\n    /* \"#utility.yul\":3127:3211   */\n  swap3\n  pop\n    /* \"#utility.yul\":2930:3221   */\n  pop\n    /* \"#utility.yul\":3281:3283   */\n  0x20\n    /* \"#utility.yul\":3270:3279   */\n  dup4\n    /* \"#utility.yul\":3266:3284   */\n  add\n    /* \"#utility.yul\":3260:3285   */\n  mload\n    /* \"#utility.yul\":3312:3330   */\n  0xffffffffffffffff\n    /* \"#utility.yul\":3304:3310   */\n  dup2\n    /* \"#utility.yul\":3301:3331   */\n  gt\n    /* \"#utility.yul\":3298:3415   */\n  iszero\n  tag_81\n  jumpi\n    /* \"#utility.yul\":3334:3413   */\n  tag_82\n  tag_12\n  jump\t// in\ntag_82:\n    /* \"#utility.yul\":3298:3415   */\ntag_81:\n    /* \"#utility.yul\":3439:3513   */\n  tag_83\n    /* \"#utility.yul\":3505:3512   */\n  dup6\n    /* \"#utility.yul\":3496:3502   */\n  dup3\n    /* \"#utility.yul\":3485:3494   */\n  dup7\n    /* \"#utility.yul\":3481:3503   */\n  add\n    /* \"#utility.yul\":3439:3513   */\n  tag_22\n  jump\t// in\ntag_83:\n    /* \"#utility.yul\":3429:3513   */\n  swap2\n  pop\n    /* \"#utility.yul\":3231:3523   */\n  pop\n    /* \"#utility.yul\":2677:3530   */\n  swap3\n  pop\n  swap3\n  swap1\n  pop\n  jump\t// out\n    /* \"#utility.yul\":3536:3635   */\ntag_23:\n    /* \"#utility.yul\":3588:3594   */\n  0x00\n    /* \"#utility.yul\":3622:3627   */\n  dup2\n    /* \"#utility.yul\":3616:3628   */\n  mload\n    /* \"#utility.yul\":3606:3628   */\n  swap1\n  pop\n    /* \"#utility.yul\":3536:3635   */\n  swap2\n  swap1\n  pop\n  jump\t// out\n    /* \"#utility.yul\":3641:3821   */\ntag_24:\n    /* \"#utility.yul\":3689:3766   */\n  0x4e487b7100000000000000000000000000000000000000000000000000000000\n    /* \"#utility.yul\":3686:3687   */\n  0x00\n    /* \"#utility.yul\":3679:3767   */\n  mstore\n    /* \"#utility.yul\":3786:3790   */\n  0x22\n    /* \"#utility.yul\":3783:3784   */\n  0x04\n    /* \"#utility.yul\":3776:3791   */\n  mstore\n    /* \"#utility.yul\":3810:3814   */\n  0x24\n    /* \"#utility.yul\":3807:3808   */\n  0x00\n    /* \"#utility.yul\":3800:3815   */\n  revert\n    /* \"#utility.yul\":3827:4147   */\ntag_25:\n    /* \"#utility.yul\":3871:3877   */\n  0x00\n    /* \"#utility.yul\":3908:3909   */\n  0x02\n    /* \"#utility.yul\":3902:3906   */\n  dup3\n    /* \"#utility.yul\":3898:3910   */\n  div\n    /* \"#utility.yul\":3888:3910   */\n  swap1\n  pop\n    /* \"#utility.yul\":3955:3956   */\n  0x01\n    /* \"#utility.yul\":3949:3953   */\n  dup3\n    /* \"#utility.yul\":3945:3957   */\n  and\n    /* \"#utility.yul\":3976:3994   */\n  dup1\n    /* \"#utility.yul\":3966:4047   */\n  tag_87\n  jumpi\n    /* \"#utility.yul\":4032:4036   */\n  0x7f\n    /* \"#utility.yul\":4024:4030   */\n  dup3\n    /* \"#utility.yul\":4020:4037   */\n  and\n    /* \"#utility.yul\":4010:4037   */\n  swap2\n  pop\n    /* \"#utility.yul\":3966:4047   */\ntag_87:\n    /* \"#utility.yul\":4094:4096   */\n  0x20\n    /* \"#utility.yul\":4086:4092   */\n  dup3\n    /* \"#utility.yul\":4083:4097   */\n  lt\n    /* \"#utility.yul\":4063:4081   */\n  dup2\n    /* \"#utility.yul\":4060:4098   */\n  sub\n    /* \"#utility.yul\":4057:4141   */\n  tag_88\n  jumpi\n    /* \"#utility.yul\":4113:4131   */\n  tag_89\n  tag_24\n  jump\t// in\ntag_89:\n    /* \"#utility.yul\":4057:4141   */\ntag_88:\n    /* \"#utility.yul\":3878:4147   */\n  pop\n    /* \"#utility.yul\":3827:4147   */\n  swap2\n  swap1\n  pop\n  jump\t// out\n    /* \"#utility.yul\":4153:4294   */\ntag_26:\n    /* \"#utility.yul\":4202:4206   */\n  0x00\n    /* \"#utility.yul\":4225:4228   */\n  dup2\n    /* \"#utility.yul\":4217:4228   */\n  swap1\n  pop\n    /* \"#utility.yul\":4248:4251   */\n  dup2\n    /* \"#utility.yul\":4245:4246   */\n  0x00\n    /* \"#utility.yul\":4238:4252   */\n  mstore\n    /* \"#utility.yul\":4282:4286   */\n  0x20\n    /* \"#utility.yul\":4279:4280   */\n  0x00\n    /* \"#utility.yul\":4269:4287   */\n  keccak256\n    /* \"#utility.yul\":4261:4287   */\n  swap1\n  pop\n    /* \"#utility.yul\":4153:4294   */\n  swap2\n  swap1\n  pop\n  jump\t// out\n    /* \"#utility.yul\":4300:4393   */\ntag_27:\n    /* \"#utility.yul\":4337:4343   */\n  0x00\n    /* \"#utility.yul\":4384:4386   */\n  0x20\n    /* \"#utility.yul\":4379:4381   */\n  0x1f\n    /* \"#utility.yul\":4372:4377   */\n  dup4\n    /* \"#utility.yul\":4368:4382   */\n  add\n    /* \"#utility.yul\":4364:4387   */\n  div\n    /* \"#utility.yul\":4354:4387   */\n  swap1\n  pop\n    /* \"#utility.yul\":4300:4393   */\n  swap2\n  swap1\n  pop\n  jump\t// out\n    /* \"#utility.yul\":4399:4506   */\ntag_28:\n    /* \"#utility.yul\":4443:4451   */\n  0x00\n    /* \"#utility.yul\":4493:4498   */\n  dup3\n    /* \"#utility.yul\":4487:4491   */\n  dup3\n    /* \"#utility.yul\":4483:4499   */\n  shl\n    /* \"#utility.yul\":4462:4499   */\n  swap1\n  pop\n    /* \"#utility.yul\":4399:4506   */\n  swap3\n  swap2\n  pop\n  pop\n  jump\t// out\n    /* \"#utility.yul\":4512:4905   */\ntag_29:\n    /* \"#utility.yul\":4581:4587   */\n  0x00\n    /* \"#utility.yul\":4631:4632   */\n  0x08\n    /* \"#utility.yul\":4619:4629   */\n  dup4\n    /* \"#utility.yul\":4615:4633   */\n  mul\n    /* \"#utility.yul\":4654:4751   */\n  tag_94\n    /* \"#utility.yul\":4684:4750   */\n  0xffffffffffffffffffffffffffffffffffffffffffffffffffffffffffffffff\n    /* \"#utility.yul\":4673:4682   */\n  dup3\n    /* \"#utility.yul\":4654:4751   */\n  tag_28\n  jump\t// in\ntag_94:\n    /* \"#utility.yul\":4772:4811   */\n  tag_95\n    /* \"#utility.yul\":4802:4810   */\n  dup7\n    /* \"#utility.yul\":4791:4800   */\n  dup4\n    /* \"#utility.yul\":4772:4811   */\n  tag_28\n  jump\t// in\ntag_95:\n    /* \"#utility.yul\":4760:4811   */\n  swap6\n  pop\n    /* \"#utility.yul\":4844:4848   */\n  dup1\n    /* \"#utility.yul\":4840:4849   */\n  not\n    /* \"#utility.yul\":4833:4838   */\n  dup5\n    /* \"#utility.yul\":4829:4850   */\n  and\n    /* \"#utility.yul\":4820:4850   */\n  swap4\n  pop\n    /* \"#utility.yul\":4893:4897   */\n  dup1\n    /* \"#utility.yul\":4883:4891   */\n  dup7\n    /* \"#utility.yul\":4879:4898   */\n  and\n    /* \"#utility.yul\":4872:4877   */\n  dup5\n    /* \"#utility.yul\":4869:4899   */\n  or\n    /* \"#utility.yul\":4859:4899   */\n  swap3\n  pop\n    /* \"#utility.yul\":4588:4905   */\n  pop\n  pop\n    /* \"#utility.yul\":4512:4905   */\n  swap4\n  swap3\n  pop\n  pop\n  pop\n  jump\t// out\n    /* \"#utility.yul\":4911:4988   */\ntag_30:\n    /* \"#utility.yul\":4948:4955   */\n  0x00\n    /* \"#utility.yul\":4977:4982   */\n  dup2\n    /* \"#utility.yul\":4966:4982   */\n  swap1\n  pop\n    /* \"#utility.yul\":4911:4988   */\n  swap2\n  swap1\n  pop\n  jump\t// out\n    /* \"#utility.yul\":4994:5054   */\ntag_31:\n    /* \"#utility.yul\":5022:5025   */\n  0x00\n    /* \"#utility.yul\":5043:5048   */\n  dup2\n    /* \"#utility.yul\":5036:5048   */\n  swap1\n  pop\n    /* \"#utility.yul\":4994:5054   */\n  swap2\n  swap1\n  pop\n  jump\t// out\n    /* \"#utility.yul\":5060:5202   */\ntag_32:\n    /* \"#utility.yul\":5110:5119   */\n  0x00\n    /* \"#utility.yul\":5143:5196   */\n  tag_99\n    /* \"#utility.yul\":5161:5195   */\n  tag_100\n    /* \"#utility.yul\":5170:5194   */\n  tag_101\n    /* \"#utility.yul\":5188:5193   */\n  dup5\n    /* \"#utility.yul\":5170:5194   */\n  tag_30\n  jump\t// in\ntag_101:\n    /* \"#utility.yul\":5161:5195   */\n  tag_31\n  jump\t// in\ntag_100:\n    /* \"#utility.yul\":5143:5196   */\n  tag_30\n  jump\t// in\ntag_99:\n    /* \"#utility.yul\":5130:5196   */\n  swap1\n  pop\n    /* \"#utility.yul\":5060:5202   */\n  swap2\n  swap1\n  pop\n  jump\t// out\n    /* \"#utility.yul\":5208:5283   */\ntag_33:\n    /* \"#utility.yul\":5251:5254   */\n  0x00\n    /* \"#utility.yul\":5272:5277   */\n  dup2\n    /* \"#utility.yul\":5265:5277   */\n  swap1\n  pop\n    /* \"#utility.yul\":5208:5283   */\n  swap2\n  swap1\n  pop\n  jump\t// out\n    /* \"#utility.yul\":5289:5558   */\ntag_34:\n    /* \"#utility.yul\":5399:5438   */\n  tag_104\n    /* \"#utility.yul\":5430:5437   */\n  dup4\n    /* \"#utility.yul\":5399:5438   */\n  tag_32\n  jump\t// in\ntag_104:\n    /* \"#utility.yul\":5460:5551   */\n  tag_105\n    /* \"#utility.yul\":5509:5550   */\n  tag_106\n    /* \"#utility.yul\":5533:5549   */\n  dup3\n    /* \"#utility.yul\":5509:5550   */\n  tag_33\n  jump\t// in\ntag_106:\n    /* \"#utility.yul\":5501:5507   */\n  dup5\n    /* \"#utility.yul\":5494:5498   */\n  dup5\n    /* \"#utility.yul\":5488:5499   */\n  sload\n    /* \"#utility.yul\":5460:5551   */\n  tag_29\n  jump\t// in\ntag_105:\n    /* \"#utility.yul\":5454:5458   */\n  dup3\n    /* \"#utility.yul\":5447:5552   */\n  sstore\n    /* \"#utility.yul\":5365:5558   */\n  pop\n    /* \"#utility.yul\":5289:5558   */\n  pop\n  pop\n  pop\n  jump\t// out\n    /* \"#utility.yul\":5564:5637   */\ntag_35:\n    /* \"#utility.yul\":5609:5612   */\n  0x00\n    /* \"#utility.yul\":5564:5637   */\n  swap1\n  jump\t// out\n    /* \"#utility.yul\":5643:5832   */\ntag_36:\n    /* \"#utility.yul\":5720:5752   */\n  tag_109\n  tag_35\n  jump\t// in\ntag_109:\n    /* \"#utility.yul\":5761:5826   */\n  tag_110\n    /* \"#utility.yul\":5819:5825   */\n  dup2\n    /* \"#utility.yul\":5811:5817   */\n  dup5\n    /* \"#utility.yul\":5805:5809   */\n  dup5\n    /* \"#utility.yul\":5761:5826   */\n  tag_34\n  jump\t// in\ntag_110:\n    /* \"#utility.yul\":5696:5832   */\n  pop\n    /* \"#utility.yul\":5643:5832   */\n  pop\n  pop\n  jump\t// out\n    /* \"#utility.yul\":5838:6024   */\ntag_37:\n    /* \"#utility.yul\":5898:6018   */\ntag_112:\n    /* \"#utility.yul\":5915:5918   */\n  dup2\n    /* \"#utility.yul\":5908:5913   */\n  dup2\n    /* \"#utility.yul\":5905:5919   */\n  lt\n    /* \"#utility.yul\":5898:6018   */\n  iszero\n  tag_114\n  jumpi\n    /* \"#utility.yul\":5969:6008   */\n  tag_115\n    /* \"#utility.yul\":6006:6007   */\n  0x00\n    /* \"#utility.yul\":5999:6004   */\n  dup3\n    /* \"#utility.yul\":5969:6008   */\n  tag_36\n  jump\t// in\ntag_115:\n    /* \"#utility.yul\":5942:5943   */\n  0x01\n    /* \"#utility.yul\":5935:5940   */\n  dup2\n    /* \"#utility.yul\":5931:5944   */\n  add\n    /* \"#utility.yul\":5922:5944   */\n  swap1\n  pop\n    /* \"#utility.yul\":5898:6018   */\n  jump(tag_112)\ntag_114:\n    /* \"#utility.yul\":5838:6024   */\n  pop\n  pop\n  jump\t// out\n    /* \"#utility.yul\":6030:6573   */\ntag_38:\n    /* \"#utility.yul\":6131:6133   */\n  0x1f\n    /* \"#utility.yul\":6126:6129   */\n  dup3\n    /* \"#utility.yul\":6123:6134   */\n  gt\n    /* \"#utility.yul\":6120:6566   */\n  iszero\n  tag_117\n  jumpi\n    /* \"#utility.yul\":6165:6203   */\n  tag_118\n    /* \"#utility.yul\":6197:6202   */\n  dup2\n    /* \"#utility.yul\":6165:6203   */\n  tag_26\n  jump\t// in\ntag_118:\n    /* \"#utility.yul\":6249:6278   */\n  tag_119\n    /* \"#utility.yul\":6267:6277   */\n  dup5\n    /* \"#utility.yul\":6249:6278   */\n  tag_27\n  jump\t// in\ntag_119:\n    /* \"#utility.yul\":6239:6247   */\n  dup2\n    /* \"#utility.yul\":6235:6279   */\n  add\n    /* \"#utility.yul\":6432:6434   */\n  0x20\n    /* \"#utility.yul\":6420:6430   */\n  dup6\n    /* \"#utility.yul\":6417:6435   */\n  lt\n    /* \"#utility.yul\":6414:6463   */\n  iszero\n  tag_120\n  jumpi\n    /* \"#utility.yul\":6453:6461   */\n  dup2\n    /* \"#utility.yul\":6438:6461   */\n  swap1\n  pop\n    /* \"#utility.yul\":6414:6463   */\ntag_120:\n    /* \"#utility.yul\":6476:6556   */\n  tag_121\n    /* \"#utility.yul\":6532:6554   */\n  tag_122\n    /* \"#utility.yul\":6550:6553   */\n  dup6\n    /* \"#utility.yul\":6532:6554   */\n  tag_27\n  jump\t// in\ntag_122:\n    /* \"#utility.yul\":6522:6530   */\n  dup4\n    /* \"#utility.yul\":6518:6555   */\n  add\n    /* \"#utility.yul\":6505:6516   */\n  dup3\n    /* \"#utility.yul\":6476:6556   */\n  tag_37\n  jump\t// in\ntag_121:\n    /* \"#utility.yul\":6135:6566   */\n  pop\n  pop\n    /* \"#utility.yul\":6120:6566   */\ntag_117:\n    /* \"#utility.yul\":6030:6573   */\n  pop\n  pop\n  pop\n  jump\t// out\n    /* \"#utility.yul\":6579:6696   */\ntag_39:\n    /* \"#utility.yul\":6633:6641   */\n  0x00\n    /* \"#utility.yul\":6683:6688   */\n  dup3\n    /* \"#utility.yul\":6677:6681   */\n  dup3\n    /* \"#utility.yul\":6673:6689   */\n  shr\n    /* \"#utility.yul\":6652:6689   */\n  swap1\n  pop\n    /* \"#utility.yul\":6579:6696   */\n  swap3\n  swap2\n  pop\n  pop\n  jump\t// out\n    /* \"#utility.yul\":6702:6871   */\ntag_40:\n    /* \"#utility.yul\":6746:6752   */\n  0x00\n    /* \"#utility.yul\":6779:6830   */\n  tag_125\n    /* \"#utility.yul\":6827:6828   */\n  0x00\n    /* \"#utility.yul\":6823:6829   */\n  not\n    /* \"#utility.yul\":6815:6820   */\n  dup5\n    /* \"#utility.yul\":6812:6813   */\n  0x08\n    /* \"#utility.yul\":6808:6821   */\n  mul\n    /* \"#utility.yul\":6779:6830   */\n  tag_39\n  jump\t// in\ntag_125:\n    /* \"#utility.yul\":6775:6831   */\n  not\n    /* \"#utility.yul\":6860:6864   */\n  dup1\n    /* \"#utility.yul\":6854:6858   */\n  dup4\n    /* \"#utility.yul\":6850:6865   */\n  and\n    /* \"#utility.yul\":6840:6865   */\n  swap2\n  pop\n    /* \"#utility.yul\":6753:6871   */\n  pop\n    /* \"#utility.yul\":6702:6871   */\n  swap3\n  swap2\n  pop\n  pop\n  jump\t// out\n    /* \"#utility.yul\":6876:7171   */\ntag_41:\n    /* \"#utility.yul\":6952:6956   */\n  0x00\n    /* \"#utility.yul\":7098:7127   */\n  tag_127\n    /* \"#utility.yul\":7123:7126   */\n  dup4\n    /* \"#utility.yul\":7117:7121   */\n  dup4\n    /* \"#utility.yul\":7098:7127   */\n  tag_40\n  jump\t// in\ntag_127:\n    /* \"#utility.yul\":7090:7127   */\n  swap2\n  pop\n    /* \"#utility.yul\":7160:7163   */\n  dup3\n    /* \"#utility.yul\":7157:7158   */\n  0x02\n    /* \"#utility.yul\":7153:7164   */\n  mul\n    /* \"#utility.yul\":7147:7151   */\n  dup3\n    /* \"#utility.yul\":7144:7165   */\n  or\n    /* \"#utility.yul\":7136:7165   */\n  swap1\n  pop\n    /* \"#utility.yul\":6876:7171   */\n  swap3\n  swap2\n  pop\n  pop\n  jump\t// out\n    /* \"#utility.yul\":7176:8571   */\ntag_7:\n    /* \"#utility.yul\":7293:7330   */\n  tag_129\n    /* \"#utility.yul\":7326:7329   */\n  dup3\n    /* \"#utility.yul\":7293:7330   */\n  tag_23\n  jump\t// in\ntag_129:\n    /* \"#utility.yul\":7395:7413   */\n  0xffffffffffffffff\n    /* \"#utility.yul\":7387:7393   */\n  dup2\n    /* \"#utility.yul\":7384:7414   */\n  gt\n    /* \"#utility.yul\":7381:7437   */\n  iszero\n  tag_130\n  jumpi\n    /* \"#utility.yul\":7417:7435   */\n  tag_131\n  tag_16\n  jump\t// in\ntag_131:\n    /* \"#utility.yul\":7381:7437   */\ntag_130:\n    /* \"#utility.yul\":7461:7499   */\n  tag_132\n    /* \"#utility.yul\":7493:7497   */\n  dup3\n    /* \"#utility.yul\":7487:7498   */\n  sload\n    /* \"#utility.yul\":7461:7499   */\n  tag_25\n  jump\t// in\ntag_132:\n    /* \"#utility.yul\":7546:7613   */\n  tag_133\n    /* \"#utility.yul\":7606:7612   */\n  dup3\n    /* \"#utility.yul\":7598:7604   */\n  dup3\n    /* \"#utility.yul\":7592:7596   */\n  dup6\n    /* \"#utility.yul\":7546:7613   */\n  tag_38\n  jump\t// in\ntag_133:\n    /* \"#utility.yul\":7640:7641   */\n  0x00\n    /* \"#utility.yul\":7664:7668   */\n  0x20\n    /* \"#utility.yul\":7651:7668   */\n  swap1\n  pop\n    /* \"#utility.yul\":7696:7698   */\n  0x1f\n    /* \"#utility.yul\":7688:7694   */\n  dup4\n    /* \"#utility.yul\":7685:7699   */\n  gt\n    /* \"#utility.yul\":7713:7714   */\n  0x01\n    /* \"#utility.yul\":7708:8326   */\n  dup2\n  eq\n  tag_135\n  jumpi\n    /* \"#utility.yul\":8370:8371   */\n  0x00\n    /* \"#utility.yul\":8387:8393   */\n  dup5\n    /* \"#utility.yul\":8384:8461   */\n  iszero\n  tag_136\n  jumpi\n    /* \"#utility.yul\":8436:8445   */\n  dup3\n    /* \"#utility.yul\":8431:8434   */\n  dup8\n    /* \"#utility.yul\":8427:8446   */\n  add\n    /* \"#utility.yul\":8421:8447   */\n  mload\n    /* \"#utility.yul\":8412:8447   */\n  swap1\n  pop\n    /* \"#utility.yul\":8384:8461   */\ntag_136:\n    /* \"#utility.yul\":8487:8554   */\n  tag_137\n    /* \"#utility.yul\":8547:8553   */\n  dup6\n    /* \"#utility.yul\":8540:8545   */\n  dup3\n    /* \"#utility.yul\":8487:8554   */\n  tag_41\n  jump\t// in\ntag_137:\n    /* \"#utility.yul\":8481:8485   */\n  dup7\n    /* \"#utility.yul\":8474:8555   */\n  sstore\n    /* \"#utility.yul\":8343:8565   */\n  pop\n    /* \"#utility.yul\":7678:8565   */\n  jump(tag_134)\n    /* \"#utility.yul\":7708:8326   */\ntag_135:\n    /* \"#utility.yul\":7760:7764   */\n  0x1f\n    /* \"#utility.yul\":7756:7765   */\n  not\n    /* \"#utility.yul\":7748:7754   */\n  dup5\n    /* \"#utility.yul\":7744:7766   */\n  and\n    /* \"#utility.yul\":7794:7831   */\n  tag_138\n    /* \"#utility.yul\":7826:7830   */\n  dup7\n    /* \"#utility.yul\":7794:7831   */\n  tag_26\n  jump\t// in\ntag_138:\n    /* \"#utility.yul\":7853:7854   */\n  0x00\n    /* \"#utility.yul\":7867:8075   */\ntag_139:\n    /* \"#utility.yul\":7881:7888   */\n  dup3\n    /* \"#utility.yul\":7878:7879   */\n  dup2\n    /* \"#utility.yul\":7875:7889   */\n  lt\n    /* \"#utility.yul\":7867:8075   */\n  iszero\n  tag_141\n  jumpi\n    /* \"#utility.yul\":7960:7969   */\n  dup5\n    /* \"#utility.yul\":7955:7958   */\n  dup10\n    /* \"#utility.yul\":7951:7970   */\n  add\n    /* \"#utility.yul\":7945:7971   */\n  mload\n    /* \"#utility.yul\":7937:7943   */\n  dup3\n    /* \"#utility.yul\":7930:7972   */\n  sstore\n    /* \"#utility.yul\":8011:8012   */\n  0x01\n    /* \"#utility.yul\":8003:8009   */\n  dup3\n    /* \"#utility.yul\":7999:8013   */\n  add\n    /* \"#utility.yul\":7989:8013   */\n  swap2\n  pop\n    /* \"#utility.yul\":8058:8060   */\n  0x20\n    /* \"#utility.yul\":8047:8056   */\n  dup6\n    /* \"#utility.yul\":8043:8061   */\n  add\n    /* \"#utility.yul\":8030:8061   */\n  swap5\n  pop\n    /* \"#utility.yul\":7904:7908   */\n  0x20\n    /* \"#utility.yul\":7901:7902   */\n  dup2\n    /* \"#utility.yul\":7897:7909   */\n  add\n    /* \"#utility.yul\":7892:7909   */\n  swap1\n  pop\n    /* \"#utility.yul\":7867:8075   */\n  jump(tag_139)\ntag_141:\n    /* \"#utility.yul\":8103:8109   */\n  dup7\n    /* \"#utility.yul\":8094:8101   */\n  dup4\n    /* \"#utility.yul\":8091:8110   */\n  lt\n    /* \"#utility.yul\":8088:8267   */\n  iszero\n  tag_142\n  jumpi\n    /* \"#utility.yul\":8161:8170   */\n  dup5\n    /* \"#utility.yul\":8156:8159   */\n  dup10\n    /* \"#utility.yul\":8152:8171   */\n  add\n    /* \"#utility.yul\":8146:8172   */\n  mload\n    /* \"#utility.yul\":8204:8252   */\n  tag_143\n    /* \"#utility.yul\":8246:8250   */\n  0x1f\n    /* \"#utility.yul\":8238:8244   */\n  dup10\n    /* \"#utility.yul\":8234:8251   */\n  and\n    /* \"#utility.yul\":8223:8232   */\n  dup3\n    /* \"#utility.yul\":8204:8252   */\n  tag_40\n  jump\t// in\ntag_143:\n    /* \"#utility.yul\":8196:8202   */\n  dup4\n    /* \"#utility.yul\":8189:8253   */\n  sstore\n    /* \"#utility.yul\":8111:8267   */\n  pop\n    /* \"#utility.yul\":8088:8267   */\ntag_142:\n    /* \"#utility.yul\":8313:8314   */\n  0x01\n    /* \"#utility.yul\":8309:8310   */\n  0x02\n    /* \"#utility.yul\":8301:8307   */\n  dup9\n    /* \"#utility.yul\":8297:8311   */\n  mul\n    /* \"#utility.yul\":8293:8315   */\n  add\n    /* \"#utility.yul\":8287:8291   */\n  dup9\n    /* \"#utility.yul\":8280:8316   */\n  sstore\n    /* \"#utility.yul\":7715:8326   */\n  pop\n  pop\n  pop\n    /* \"#utility.yul\":7678:8565   */\ntag_134:\n  pop\n    /* \"#utility.yul\":7268:8571   */\n  pop\n  pop\n  pop\n    /* \"#utility.yul\":7176:8571   */\n  pop\n  pop\n  jump\t// out\n    /* \"contracts/KlaytnToken.sol\":1515:19215  contract KIP7 is KIP13, Context, IKIP7, IKIP7Metadata {... */\ntag_9:\n  dataSize(sub_0)\n  dup1\n  dataOffset(sub_0)\n  0x00\n  codecopy\n  0x00\n  return\nstop\n\nsub_0: assembly {\n        /* \"contracts/KlaytnToken.sol\":1515:19215  contract KIP7 is KIP13, Context, IKIP7, IKIP7Metadata {... */\n      mstore(0x40, 0x80)\n      callvalue\n      dup1\n      iszero\n      tag_1\n      jumpi\n      0x00\n      dup1\n      revert\n    tag_1:\n      pop\n      jumpi(tag_2, lt(calldatasize, 0x04))\n      shr(0xe0, calldataload(0x00))\n      dup1\n      0x42842e0e\n      gt\n      tag_19\n      jumpi\n      dup1\n      0xa9059cbb\n      gt\n      tag_20\n      jumpi\n      dup1\n      0xa9059cbb\n      eq\n      tag_15\n      jumpi\n      dup1\n      0xb88d4fde\n      eq\n      tag_16\n      jumpi\n      dup1\n      0xdd62ed3e\n      eq\n      tag_17\n      jumpi\n      dup1\n      0xeb795549\n      eq\n      tag_18\n      jumpi\n      jump(tag_2)\n    tag_20:\n      dup1\n      0x42842e0e\n      eq\n      tag_11\n      jumpi\n      dup1\n      0x70a08231\n      eq\n      tag_12\n      jumpi\n      dup1\n      0x95d89b41\n      eq\n      tag_13\n      jumpi\n      dup1\n      0xa457c2d7\n      eq\n      tag_14\n      jumpi\n      jump(tag_2)\n    tag_19:\n      dup1\n      0x23b872dd\n      gt\n      tag_21\n      jumpi\n      dup1\n      0x23b872dd\n      eq\n      tag_7\n      jumpi\n      dup1\n      0x313ce567\n      eq\n      tag_8\n      jumpi\n      dup1\n      0x39509351\n      eq\n      tag_9\n      jumpi\n      dup1\n      0x423f6cef\n      eq\n      tag_10\n      jumpi\n      jump(tag_2)\n    tag_21:\n      dup1\n      0x01ffc9a7\n      eq\n      tag_3\n      jumpi\n      dup1\n      0x06fdde03\n      eq\n      tag_4\n      jumpi\n      dup1\n      0x095ea7b3\n      eq\n      tag_5\n      jumpi\n      dup1\n      0x18160ddd\n      eq\n      tag_6\n      jumpi\n    tag_2:\n      0x00\n      dup1\n      revert\n        /* \"contracts/KlaytnToken.sol\":2305:2591  function supportsInterface(bytes4 interfaceId) public view virtual override(KIP13) returns (bool) {... */\n    tag_3:\n      tag_22\n      0x04\n      dup1\n      calldatasize\n      sub\n      dup2\n      add\n      swap1\n      tag_23\n      swap2\n      swap1\n      tag_24\n      jump\t// in\n    tag_23:\n      tag_25\n      jump\t// in\n    tag_22:\n      mload(0x40)\n      tag_26\n      swap2\n      swap1\n      tag_27\n      jump\t// in\n    tag_26:\n      mload(0x40)\n      dup1\n      swap2\n      sub\n      swap1\n      return\n        /* \"contracts/KlaytnToken.sol\":2656:2754  function name() public view virtual override returns (string memory) {... */\n    tag_4:\n      tag_28\n      tag_29\n      jump\t// in\n    tag_28:\n      mload(0x40)\n      tag_30\n      swap2\n      swap1\n      tag_31\n      jump\t// in\n    tag_30:\n      mload(0x40)\n      dup1\n      swap2\n      sub\n      swap1\n      return\n        /* \"contracts/KlaytnToken.sol\":4925:5122  function approve(address spender, uint256 amount) public virtual override returns (bool) {... */\n    tag_5:\n      tag_32\n      0x04\n      dup1\n      calldatasize\n      sub\n      dup2\n      add\n      swap1\n      tag_33\n      swap2\n      swap1\n      tag_34\n      jump\t// in\n    tag_33:\n      tag_35\n      jump\t// in\n    tag_32:\n      mload(0x40)\n      tag_36\n      swap2\n      swap1\n      tag_27\n      jump\t// in\n    tag_36:\n      mload(0x40)\n      dup1\n      swap2\n      sub\n      swap1\n      return\n        /* \"contracts/KlaytnToken.sol\":3740:3846  function totalSupply() public view virtual override returns (uint256) {... */\n    tag_6:\n      tag_37\n      tag_38\n      jump\t// in\n    tag_37:\n      mload(0x40)\n      tag_39\n      swap2\n      swap1\n      tag_40\n      jump\t// in\n    tag_39:\n      mload(0x40)\n      dup1\n      swap2\n      sub\n      swap1\n      return\n        /* \"contracts/KlaytnToken.sol\":5682:5968  function transferFrom(... */\n    tag_7:\n      tag_41\n      0x04\n      dup1\n      calldatasize\n      sub\n      dup2\n      add\n      swap1\n      tag_42\n      swap2\n      swap1\n      tag_43\n      jump\t// in\n    tag_42:\n      tag_44\n      jump\t// in\n    tag_41:\n      mload(0x40)\n      tag_45\n      swap2\n      swap1\n      tag_27\n      jump\t// in\n    tag_45:\n      mload(0x40)\n      dup1\n      swap2\n      sub\n      swap1\n      return\n        /* \"contracts/KlaytnToken.sol\":3590:3681  function decimals() public view virtual override returns (uint8) {... */\n    tag_8:\n      tag_46\n      tag_47\n      jump\t// in\n    tag_46:\n      mload(0x40)\n      tag_48\n      swap2\n      swap1\n      tag_49\n      jump\t// in\n    tag_48:\n      mload(0x40)\n      dup1\n      swap2\n      sub\n      swap1\n      return\n        /* \"contracts/KlaytnToken.sol\":6362:6596  function increaseAllowance(address spender, uint256 addedValue) public virtual returns (bool) {... */\n    tag_9:\n      tag_50\n      0x04\n      dup1\n      calldatasize\n      sub\n      dup2\n      add\n      swap1\n      tag_51\n      swap2\n      swap1\n      tag_34\n      jump\t// in\n    tag_51:\n      tag_52\n      jump\t// in\n    tag_50:\n      mload(0x40)\n      tag_53\n      swap2\n      swap1\n      tag_27\n      jump\t// in\n    tag_53:\n      mload(0x40)\n      dup1\n      swap2\n      sub\n      swap1\n      return\n        /* \"contracts/KlaytnToken.sol\":7832:8011  function safeTransfer(address recipient, uint256 amount) public virtual override {... */\n    tag_10:\n      tag_54\n      0x04\n      dup1\n      calldatasize\n      sub\n      dup2\n      add\n      swap1\n      tag_55\n      swap2\n      swap1\n      tag_34\n      jump\t// in\n    tag_55:\n      tag_56\n      jump\t// in\n    tag_54:\n      stop\n        /* \"contracts/KlaytnToken.sol\":9192:9474  function safeTransferFrom(... */\n    tag_11:\n      tag_57\n      0x04\n      dup1\n      calldatasize\n      sub\n      dup2\n      add\n      swap1\n      tag_58\n      swap2\n      swap1\n      tag_43\n      jump\t// in\n    tag_58:\n      tag_59\n      jump\t// in\n    tag_57:\n      stop\n        /* \"contracts/KlaytnToken.sol\":3903:4028  function balanceOf(address account) public view virtual override returns (uint256) {... */\n    tag_12:\n      tag_60\n      0x04\n      dup1\n      calldatasize\n      sub\n      dup2\n      add\n      swap1\n      tag_61\n      swap2\n      swap1\n      tag_62\n      jump\t// in\n    tag_61:\n      tag_63\n      jump\t// in\n    tag_60:\n      mload(0x40)\n      tag_64\n      swap2\n      swap1\n      tag_40\n      jump\t// in\n    tag_64:\n      mload(0x40)\n      dup1\n      swap2\n      sub\n      swap1\n      return\n        /* \"contracts/KlaytnToken.sol\":2867:2969  function symbol() public view virtual override returns (string memory) {... */\n    tag_13:\n      tag_65\n      tag_66\n      jump\t// in\n    tag_65:\n      mload(0x40)\n      tag_67\n      swap2\n      swap1\n      tag_31\n      jump\t// in\n    tag_67:\n      mload(0x40)\n      dup1\n      swap2\n      sub\n      swap1\n      return\n        /* \"contracts/KlaytnToken.sol\":7082:7508  function decreaseAllowance(address spender, uint256 subtractedValue) public virtual returns (bool) {... */\n    tag_14:\n      tag_68\n      0x04\n      dup1\n      calldatasize\n      sub\n      dup2\n      add\n      swap1\n      tag_69\n      swap2\n      swap1\n      tag_34\n      jump\t// in\n    tag_69:\n      tag_70\n      jump\t// in\n    tag_68:\n      mload(0x40)\n      tag_71\n      swap2\n      swap1\n      tag_27\n      jump\t// in\n    tag_71:\n      mload(0x40)\n      dup1\n      swap2\n      sub\n      swap1\n      return\n        /* \"contracts/KlaytnToken.sol\":4223:4412  function transfer(address to, uint256 amount) public virtual override returns (bool) {... */\n    tag_15:\n      tag_72\n      0x04\n      dup1\n      calldatasize\n      sub\n      dup2\n      add\n      swap1\n      tag_73\n      swap2\n      swap1\n      tag_34\n      jump\t// in\n    tag_73:\n      tag_74\n      jump\t// in\n    tag_72:\n      mload(0x40)\n      tag_75\n      swap2\n      swap1\n      tag_27\n      jump\t// in\n    tag_75:\n      mload(0x40)\n      dup1\n      swap2\n      sub\n      swap1\n      return\n        /* \"contracts/KlaytnToken.sol\":9817:10130  function safeTransferFrom(... */\n    tag_16:\n      tag_76\n      0x04\n      dup1\n      calldatasize\n      sub\n      dup2\n      add\n      swap1\n      tag_77\n      swap2\n      swap1\n      tag_78\n      jump\t// in\n    tag_77:\n      tag_79\n      jump\t// in\n    tag_76:\n      stop\n        /* \"contracts/KlaytnToken.sol\":4469:4618  function allowance(address owner, address spender) public view virtual override returns (uint256) {... */\n    tag_17:\n      tag_80\n      0x04\n      dup1\n      calldatasize\n      sub\n      dup2\n      add\n      swap1\n      tag_81\n      swap2\n      swap1\n      tag_82\n      jump\t// in\n    tag_81:\n      tag_83\n      jump\t// in\n    tag_80:\n      mload(0x40)\n      tag_84\n      swap2\n      swap1\n      tag_40\n      jump\t// in\n    tag_84:\n      mload(0x40)\n      dup1\n      swap2\n      sub\n      swap1\n      return\n        /* \"contracts/KlaytnToken.sol\":8272:8504  function safeTransfer(... */\n    tag_18:\n      tag_85\n      0x04\n      dup1\n      calldatasize\n      sub\n      dup2\n      add\n      swap1\n      tag_86\n      swap2\n      swap1\n      tag_87\n      jump\t// in\n    tag_86:\n      tag_88\n      jump\t// in\n    tag_85:\n      stop\n        /* \"contracts/KlaytnToken.sol\":2305:2591  function supportsInterface(bytes4 interfaceId) public view virtual override(KIP13) returns (bool) {... */\n    tag_25:\n        /* \"contracts/KlaytnToken.sol\":2397:2401  bool */\n      0x00\n        /* \"contracts/KlaytnToken.sol\":2447:2470  type(IKIP7).interfaceId */\n      0x6578737100000000000000000000000000000000000000000000000000000000\n        /* \"contracts/KlaytnToken.sol\":2432:2470  interfaceId == type(IKIP7).interfaceId */\n      not(0xffffffffffffffffffffffffffffffffffffffffffffffffffffffff)\n      and\n        /* \"contracts/KlaytnToken.sol\":2432:2443  interfaceId */\n      dup3\n        /* \"contracts/KlaytnToken.sol\":2432:2470  interfaceId == type(IKIP7).interfaceId */\n      not(0xffffffffffffffffffffffffffffffffffffffffffffffffffffffff)\n      and\n      eq\n        /* \"contracts/KlaytnToken.sol\":2432:2532  interfaceId == type(IKIP7).interfaceId ||... */\n      dup1\n      tag_90\n      jumpi\n      pop\n        /* \"contracts/KlaytnToken.sol\":2501:2532  type(IKIP7Metadata).interfaceId */\n      0xa219a02500000000000000000000000000000000000000000000000000000000\n        /* \"contracts/KlaytnToken.sol\":2486:2532  interfaceId == type(IKIP7Metadata).interfaceId */\n      not(0xffffffffffffffffffffffffffffffffffffffffffffffffffffffff)\n      and\n        /* \"contracts/KlaytnToken.sol\":2486:2497  interfaceId */\n      dup3\n        /* \"contracts/KlaytnToken.sol\":2486:2532  interfaceId == type(IKIP7Metadata).interfaceId */\n      not(0xffffffffffffffffffffffffffffffffffffffffffffffffffffffff)\n      and\n      eq\n        /* \"contracts/KlaytnToken.sol\":2432:2532  interfaceId == type(IKIP7).interfaceId ||... */\n    tag_90:\n        /* \"contracts/KlaytnToken.sol\":2432:2584  interfaceId == type(IKIP7).interfaceId ||... */\n      dup1\n      tag_91\n      jumpi\n      pop\n        /* \"contracts/KlaytnToken.sol\":2548:2584  KIP13.supportsInterface(interfaceId) */\n      tag_92\n        /* \"contracts/KlaytnToken.sol\":2572:2583  interfaceId */\n      dup3\n        /* \"contracts/KlaytnToken.sol\":2548:2571  KIP13.supportsInterface */\n      tag_93\n        /* \"contracts/KlaytnToken.sol\":2548:2584  KIP13.supportsInterface(interfaceId) */\n      jump\t// in\n    tag_92:\n        /* \"contracts/KlaytnToken.sol\":2432:2584  interfaceId == type(IKIP7).interfaceId ||... */\n    tag_91:\n        /* \"contracts/KlaytnToken.sol\":2413:2584  return... */\n      swap1\n      pop\n        /* \"contracts/KlaytnToken.sol\":2305:2591  function supportsInterface(bytes4 interfaceId) public view virtual override(KIP13) returns (bool) {... */\n      swap2\n      swap1\n      pop\n      jump\t// out\n        /* \"contracts/KlaytnToken.sol\":2656:2754  function name() public view virtual override returns (string memory) {... */\n    tag_29:\n        /* \"contracts/KlaytnToken.sol\":2710:2723  string memory */\n      0x60\n        /* \"contracts/KlaytnToken.sol\":2742:2747  _name */\n      0x03\n        /* \"contracts/KlaytnToken.sol\":2735:2747  return _name */\n      dup1\n      sload\n      tag_95\n      swap1\n      tag_96\n      jump\t// in\n    tag_95:\n      dup1\n      0x1f\n      add\n      0x20\n      dup1\n      swap2\n      div\n      mul\n      0x20\n      add\n      mload(0x40)\n      swap1\n      dup2\n      add\n      0x40\n      mstore\n      dup1\n      swap3\n      swap2\n      swap1\n      dup2\n      dup2\n      mstore\n      0x20\n      add\n      dup3\n      dup1\n      sload\n      tag_97\n      swap1\n      tag_96\n      jump\t// in\n    tag_97:\n      dup1\n      iszero\n      tag_98\n      jumpi\n      dup1\n      0x1f\n      lt\n      tag_99\n      jumpi\n      0x0100\n      dup1\n      dup4\n      sload\n      div\n      mul\n      dup4\n      mstore\n      swap2\n      0x20\n      add\n      swap2\n      jump(tag_98)\n    tag_99:\n      dup3\n      add\n      swap2\n      swap1\n      0x00\n      mstore\n      keccak256(0x00, 0x20)\n      swap1\n    tag_100:\n      dup2\n      sload\n      dup2\n      mstore\n      swap1\n      0x01\n      add\n      swap1\n      0x20\n      add\n      dup1\n      dup4\n      gt\n      tag_100\n      jumpi\n      dup3\n      swap1\n      sub\n      0x1f\n      and\n      dup3\n      add\n      swap2\n    tag_98:\n      pop\n      pop\n      pop\n      pop\n      pop\n      swap1\n      pop\n        /* \"contracts/KlaytnToken.sol\":2656:2754  function name() public view virtual override returns (string memory) {... */\n      swap1\n      jump\t// out\n        /* \"contracts/KlaytnToken.sol\":4925:5122  function approve(address spender, uint256 amount) public virtual override returns (bool) {... */\n    tag_35:\n        /* \"contracts/KlaytnToken.sol\":5008:5012  bool */\n      0x00\n        /* \"contracts/KlaytnToken.sol\":5024:5037  address owner */\n      dup1\n        /* \"contracts/KlaytnToken.sol\":5040:5052  _msgSender() */\n      tag_102\n        /* \"contracts/KlaytnToken.sol\":5040:5050  _msgSender */\n      tag_103\n        /* \"contracts/KlaytnToken.sol\":5040:5052  _msgSender() */\n      jump\t// in\n    tag_102:\n        /* \"contracts/KlaytnToken.sol\":5024:5052  address owner = _msgSender() */\n      swap1\n      pop\n        /* \"contracts/KlaytnToken.sol\":5062:5094  _approve(owner, spender, amount) */\n      tag_104\n        /* \"contracts/KlaytnToken.sol\":5071:5076  owner */\n      dup2\n        /* \"contracts/KlaytnToken.sol\":5078:5085  spender */\n      dup6\n        /* \"contracts/KlaytnToken.sol\":5087:5093  amount */\n      dup6\n        /* \"contracts/KlaytnToken.sol\":5062:5070  _approve */\n      tag_105\n        /* \"contracts/KlaytnToken.sol\":5062:5094  _approve(owner, spender, amount) */\n      jump\t// in\n    tag_104:\n        /* \"contracts/KlaytnToken.sol\":5111:5115  true */\n      0x01\n        /* \"contracts/KlaytnToken.sol\":5104:5115  return true */\n      swap2\n      pop\n      pop\n        /* \"contracts/KlaytnToken.sol\":4925:5122  function approve(address spender, uint256 amount) public virtual override returns (bool) {... */\n      swap3\n      swap2\n      pop\n      pop\n      jump\t// out\n        /* \"contracts/KlaytnToken.sol\":3740:3846  function totalSupply() public view virtual override returns (uint256) {... */\n    tag_38:\n        /* \"contracts/KlaytnToken.sol\":3801:3808  uint256 */\n      0x00\n        /* \"contracts/KlaytnToken.sol\":3827:3839  _totalSupply */\n      sload(0x02)\n        /* \"contracts/KlaytnToken.sol\":3820:3839  return _totalSupply */\n      swap1\n      pop\n        /* \"contracts/KlaytnToken.sol\":3740:3846  function totalSupply() public view virtual override returns (uint256) {... */\n      swap1\n      jump\t// out\n        /* \"contracts/KlaytnToken.sol\":5682:5968  function transferFrom(... */\n    tag_44:\n        /* \"contracts/KlaytnToken.sol\":5809:5813  bool */\n      0x00\n        /* \"contracts/KlaytnToken.sol\":5825:5840  address spender */\n      dup1\n        /* \"contracts/KlaytnToken.sol\":5843:5855  _msgSender() */\n      tag_108\n        /* \"contracts/KlaytnToken.sol\":5843:5853  _msgSender */\n      tag_103\n        /* \"contracts/KlaytnToken.sol\":5843:5855  _msgSender() */\n      jump\t// in\n    tag_108:\n        /* \"contracts/KlaytnToken.sol\":5825:5855  address spender = _msgSender() */\n      swap1\n      pop\n        /* \"contracts/KlaytnToken.sol\":5865:5903  _spendAllowance(from, spender, amount) */\n      tag_109\n        /* \"contracts/KlaytnToken.sol\":5881:5885  from */\n      dup6\n        /* \"contracts/KlaytnToken.sol\":5887:5894  spender */\n      dup3\n        /* \"contracts/KlaytnToken.sol\":5896:5902  amount */\n      dup6\n        /* \"contracts/KlaytnToken.sol\":5865:5880  _spendAllowance */\n      tag_110\n        /* \"contracts/KlaytnToken.sol\":5865:5903  _spendAllowance(from, spender, amount) */\n      jump\t// in\n    tag_109:\n        /* \"contracts/KlaytnToken.sol\":5913:5940  _transfer(from, to, amount) */\n      tag_111\n        /* \"contracts/KlaytnToken.sol\":5923:5927  from */\n      dup6\n        /* \"contracts/KlaytnToken.sol\":5929:5931  to */\n      dup6\n        /* \"contracts/KlaytnToken.sol\":5933:5939  amount */\n      dup6\n        /* \"contracts/KlaytnToken.sol\":5913:5922  _transfer */\n      tag_112\n        /* \"contracts/KlaytnToken.sol\":5913:5940  _transfer(from, to, amount) */\n      jump\t// in\n    tag_111:\n        /* \"contracts/KlaytnToken.sol\":5957:5961  true */\n      0x01\n        /* \"contracts/KlaytnToken.sol\":5950:5961  return true */\n      swap2\n      pop\n      pop\n        /* \"contracts/KlaytnToken.sol\":5682:5968  function transferFrom(... */\n      swap4\n      swap3\n      pop\n      pop\n      pop\n      jump\t// out\n        /* \"contracts/KlaytnToken.sol\":3590:3681  function decimals() public view virtual override returns (uint8) {... */\n    tag_47:\n        /* \"contracts/KlaytnToken.sol\":3648:3653  uint8 */\n      0x00\n        /* \"contracts/KlaytnToken.sol\":3672:3674  18 */\n      0x12\n        /* \"contracts/KlaytnToken.sol\":3665:3674  return 18 */\n      swap1\n      pop\n        /* \"contracts/KlaytnToken.sol\":3590:3681  function decimals() public view virtual override returns (uint8) {... */\n      swap1\n      jump\t// out\n        /* \"contracts/KlaytnToken.sol\":6362:6596  function increaseAllowance(address spender, uint256 addedValue) public virtual returns (bool) {... */\n    tag_52:\n        /* \"contracts/KlaytnToken.sol\":6450:6454  bool */\n      0x00\n        /* \"contracts/KlaytnToken.sol\":6466:6479  address owner */\n      dup1\n        /* \"contracts/KlaytnToken.sol\":6482:6494  _msgSender() */\n      tag_115\n        /* \"contracts/KlaytnToken.sol\":6482:6492  _msgSender */\n      tag_103\n        /* \"contracts/KlaytnToken.sol\":6482:6494  _msgSender() */\n      jump\t// in\n    tag_115:\n        /* \"contracts/KlaytnToken.sol\":6466:6494  address owner = _msgSender() */\n      swap1\n      pop\n        /* \"contracts/KlaytnToken.sol\":6504:6568  _approve(owner, spender, allowance(owner, spender) + addedValue) */\n      tag_116\n        /* \"contracts/KlaytnToken.sol\":6513:6518  owner */\n      dup2\n        /* \"contracts/KlaytnToken.sol\":6520:6527  spender */\n      dup6\n        /* \"contracts/KlaytnToken.sol\":6557:6567  addedValue */\n      dup6\n        /* \"contracts/KlaytnToken.sol\":6529:6554  allowance(owner, spender) */\n      tag_117\n        /* \"contracts/KlaytnToken.sol\":6539:6544  owner */\n      dup6\n        /* \"contracts/KlaytnToken.sol\":6546:6553  spender */\n      dup10\n        /* \"contracts/KlaytnToken.sol\":6529:6538  allowance */\n      tag_83\n        /* \"contracts/KlaytnToken.sol\":6529:6554  allowance(owner, spender) */\n      jump\t// in\n    tag_117:\n        /* \"contracts/KlaytnToken.sol\":6529:6567  allowance(owner, spender) + addedValue */\n      tag_118\n      swap2\n      swap1\n      tag_119\n      jump\t// in\n    tag_118:\n        /* \"contracts/KlaytnToken.sol\":6504:6512  _approve */\n      tag_105\n        /* \"contracts/KlaytnToken.sol\":6504:6568  _approve(owner, spender, allowance(owner, spender) + addedValue) */\n      jump\t// in\n    tag_116:\n        /* \"contracts/KlaytnToken.sol\":6585:6589  true */\n      0x01\n        /* \"contracts/KlaytnToken.sol\":6578:6589  return true */\n      swap2\n      pop\n      pop\n        /* \"contracts/KlaytnToken.sol\":6362:6596  function increaseAllowance(address spender, uint256 addedValue) public virtual returns (bool) {... */\n      swap3\n      swap2\n      pop\n      pop\n      jump\t// out\n        /* \"contracts/KlaytnToken.sol\":7832:8011  function safeTransfer(address recipient, uint256 amount) public virtual override {... */\n    tag_56:\n        /* \"contracts/KlaytnToken.sol\":7923:7936  address owner */\n      0x00\n        /* \"contracts/KlaytnToken.sol\":7939:7951  _msgSender() */\n      tag_121\n        /* \"contracts/KlaytnToken.sol\":7939:7949  _msgSender */\n      tag_103\n        /* \"contracts/KlaytnToken.sol\":7939:7951  _msgSender() */\n      jump\t// in\n    tag_121:\n        /* \"contracts/KlaytnToken.sol\":7923:7951  address owner = _msgSender() */\n      swap1\n      pop\n        /* \"contracts/KlaytnToken.sol\":7961:8004  _safeTransfer(owner, recipient, amount, \"\") */\n      tag_122\n        /* \"contracts/KlaytnToken.sol\":7975:7980  owner */\n      dup2\n        /* \"contracts/KlaytnToken.sol\":7982:7991  recipient */\n      dup5\n        /* \"contracts/KlaytnToken.sol\":7993:7999  amount */\n      dup5\n        /* \"contracts/KlaytnToken.sol\":7961:8004  _safeTransfer(owner, recipient, amount, \"\") */\n      mload(0x40)\n      dup1\n      0x20\n      add\n      0x40\n      mstore\n      dup1\n      0x00\n      dup2\n      mstore\n      pop\n        /* \"contracts/KlaytnToken.sol\":7961:7974  _safeTransfer */\n      tag_123\n        /* \"contracts/KlaytnToken.sol\":7961:8004  _safeTransfer(owner, recipient, amount, \"\") */\n      jump\t// in\n    tag_122:\n        /* \"contracts/KlaytnToken.sol\":7913:8011  {... */\n      pop\n        /* \"contracts/KlaytnToken.sol\":7832:8011  function safeTransfer(address recipient, uint256 amount) public virtual override {... */\n      pop\n      pop\n      jump\t// out\n        /* \"contracts/KlaytnToken.sol\":9192:9474  function safeTransferFrom(... */\n    tag_59:\n        /* \"contracts/KlaytnToken.sol\":9333:9348  address spender */\n      0x00\n        /* \"contracts/KlaytnToken.sol\":9351:9363  _msgSender() */\n      tag_125\n        /* \"contracts/KlaytnToken.sol\":9351:9361  _msgSender */\n      tag_103\n        /* \"contracts/KlaytnToken.sol\":9351:9363  _msgSender() */\n      jump\t// in\n    tag_125:\n        /* \"contracts/KlaytnToken.sol\":9333:9363  address spender = _msgSender() */\n      swap1\n      pop\n        /* \"contracts/KlaytnToken.sol\":9373:9413  _spendAllowance(sender, spender, amount) */\n      tag_126\n        /* \"contracts/KlaytnToken.sol\":9389:9395  sender */\n      dup5\n        /* \"contracts/KlaytnToken.sol\":9397:9404  spender */\n      dup3\n        /* \"contracts/KlaytnToken.sol\":9406:9412  amount */\n      dup5\n        /* \"contracts/KlaytnToken.sol\":9373:9388  _spendAllowance */\n      tag_110\n        /* \"contracts/KlaytnToken.sol\":9373:9413  _spendAllowance(sender, spender, amount) */\n      jump\t// in\n    tag_126:\n        /* \"contracts/KlaytnToken.sol\":9423:9467  _safeTransfer(sender, recipient, amount, \"\") */\n      tag_127\n        /* \"contracts/KlaytnToken.sol\":9437:9443  sender */\n      dup5\n        /* \"contracts/KlaytnToken.sol\":9445:9454  recipient */\n      dup5\n        /* \"contracts/KlaytnToken.sol\":9456:9462  amount */\n      dup5\n        /* \"contracts/KlaytnToken.sol\":9423:9467  _safeTransfer(sender, recipient, amount, \"\") */\n      mload(0x40)\n      dup1\n      0x20\n      add\n      0x40\n      mstore\n      dup1\n      0x00\n      dup2\n      mstore\n      pop\n        /* \"contracts/KlaytnToken.sol\":9423:9436  _safeTransfer */\n      tag_123\n        /* \"contracts/KlaytnToken.sol\":9423:9467  _safeTransfer(sender, recipient, amount, \"\") */\n      jump\t// in\n    tag_127:\n        /* \"contracts/KlaytnToken.sol\":9323:9474  {... */\n      pop\n        /* \"contracts/KlaytnToken.sol\":9192:9474  function safeTransferFrom(... */\n      pop\n      pop\n      pop\n      jump\t// out\n        /* \"contracts/KlaytnToken.sol\":3903:4028  function balanceOf(address account) public view virtual override returns (uint256) {... */\n    tag_63:\n        /* \"contracts/KlaytnToken.sol\":3977:3984  uint256 */\n      0x00\n        /* \"contracts/KlaytnToken.sol\":4003:4012  _balances */\n      dup1\n        /* \"contracts/KlaytnToken.sol\":4003:4021  _balances[account] */\n      0x00\n        /* \"contracts/KlaytnToken.sol\":4013:4020  account */\n      dup4\n        /* \"contracts/KlaytnToken.sol\":4003:4021  _balances[account] */\n      0xffffffffffffffffffffffffffffffffffffffff\n      and\n      0xffffffffffffffffffffffffffffffffffffffff\n      and\n      dup2\n      mstore\n      0x20\n      add\n      swap1\n      dup2\n      mstore\n      0x20\n      add\n      0x00\n      keccak256\n      sload\n        /* \"contracts/KlaytnToken.sol\":3996:4021  return _balances[account] */\n      swap1\n      pop\n        /* \"contracts/KlaytnToken.sol\":3903:4028  function balanceOf(address account) public view virtual override returns (uint256) {... */\n      swap2\n      swap1\n      pop\n      jump\t// out\n        /* \"contracts/KlaytnToken.sol\":2867:2969  function symbol() public view virtual override returns (string memory) {... */\n    tag_66:\n        /* \"contracts/KlaytnToken.sol\":2923:2936  string memory */\n      0x60\n        /* \"contracts/KlaytnToken.sol\":2955:2962  _symbol */\n      0x04\n        /* \"contracts/KlaytnToken.sol\":2948:2962  return _symbol */\n      dup1\n      sload\n      tag_130\n      swap1\n      tag_96\n      jump\t// in\n    tag_130:\n      dup1\n      0x1f\n      add\n      0x20\n      dup1\n      swap2\n      div\n      mul\n      0x20\n      add\n      mload(0x40)\n      swap1\n      dup2\n      add\n      0x40\n      mstore\n      dup1\n      swap3\n      swap2\n      swap1\n      dup2\n      dup2\n      mstore\n      0x20\n      add\n      dup3\n      dup1\n      sload\n      tag_131\n      swap1\n      tag_96\n      jump\t// in\n    tag_131:\n      dup1\n      iszero\n      tag_132\n      jumpi\n      dup1\n      0x1f\n      lt\n      tag_133\n      jumpi\n      0x0100\n      dup1\n      dup4\n      sload\n      div\n      mul\n      dup4\n      mstore\n      swap2\n      0x20\n      add\n      swap2\n      jump(tag_132)\n    tag_133:\n      dup3\n      add\n      swap2\n      swap1\n      0x00\n      mstore\n      keccak256(0x00, 0x20)\n      swap1\n    tag_134:\n      dup2\n      sload\n      dup2\n      mstore\n      swap1\n      0x01\n      add\n      swap1\n      0x20\n      add\n      dup1\n      dup4\n      gt\n      tag_134\n      jumpi\n      dup3\n      swap1\n      sub\n      0x1f\n      and\n      dup3\n      add\n      swap2\n    tag_132:\n      pop\n      pop\n      pop\n      pop\n      pop\n      swap1\n      pop\n        /* \"contracts/KlaytnToken.sol\":2867:2969  function symbol() public view virtual override returns (string memory) {... */\n      swap1\n      jump\t// out\n        /* \"contracts/KlaytnToken.sol\":7082:7508  function decreaseAllowance(address spender, uint256 subtractedValue) public virtual returns (bool) {... */\n    tag_70:\n        /* \"contracts/KlaytnToken.sol\":7175:7179  bool */\n      0x00\n        /* \"contracts/KlaytnToken.sol\":7191:7204  address owner */\n      dup1\n        /* \"contracts/KlaytnToken.sol\":7207:7219  _msgSender() */\n      tag_136\n        /* \"contracts/KlaytnToken.sol\":7207:7217  _msgSender */\n      tag_103\n        /* \"contracts/KlaytnToken.sol\":7207:7219  _msgSender() */\n      jump\t// in\n    tag_136:\n        /* \"contracts/KlaytnToken.sol\":7191:7219  address owner = _msgSender() */\n      swap1\n      pop\n        /* \"contracts/KlaytnToken.sol\":7229:7253  uint256 currentAllowance */\n      0x00\n        /* \"contracts/KlaytnToken.sol\":7256:7281  allowance(owner, spender) */\n      tag_137\n        /* \"contracts/KlaytnToken.sol\":7266:7271  owner */\n      dup3\n        /* \"contracts/KlaytnToken.sol\":7273:7280  spender */\n      dup7\n        /* \"contracts/KlaytnToken.sol\":7256:7265  allowance */\n      tag_83\n        /* \"contracts/KlaytnToken.sol\":7256:7281  allowance(owner, spender) */\n      jump\t// in\n    tag_137:\n        /* \"contracts/KlaytnToken.sol\":7229:7281  uint256 currentAllowance = allowance(owner, spender) */\n      swap1\n      pop\n        /* \"contracts/KlaytnToken.sol\":7319:7334  subtractedValue */\n      dup4\n        /* \"contracts/KlaytnToken.sol\":7299:7315  currentAllowance */\n      dup2\n        /* \"contracts/KlaytnToken.sol\":7299:7334  currentAllowance >= subtractedValue */\n      lt\n      iszero\n        /* \"contracts/KlaytnToken.sol\":7291:7375  require(currentAllowance >= subtractedValue, \"KIP7: decreased allowance below zero\") */\n      tag_138\n      jumpi\n      mload(0x40)\n      0x08c379a000000000000000000000000000000000000000000000000000000000\n      dup2\n      mstore\n      0x04\n      add\n      tag_139\n      swap1\n      tag_140\n      jump\t// in\n    tag_139:\n      mload(0x40)\n      dup1\n      swap2\n      sub\n      swap1\n      revert\n    tag_138:\n        /* \"contracts/KlaytnToken.sol\":7409:7469  _approve(owner, spender, currentAllowance - subtractedValue) */\n      tag_141\n        /* \"contracts/KlaytnToken.sol\":7418:7423  owner */\n      dup3\n        /* \"contracts/KlaytnToken.sol\":7425:7432  spender */\n      dup7\n        /* \"contracts/KlaytnToken.sol\":7453:7468  subtractedValue */\n      dup7\n        /* \"contracts/KlaytnToken.sol\":7434:7450  currentAllowance */\n      dup5\n        /* \"contracts/KlaytnToken.sol\":7434:7468  currentAllowance - subtractedValue */\n      sub\n        /* \"contracts/KlaytnToken.sol\":7409:7417  _approve */\n      tag_105\n        /* \"contracts/KlaytnToken.sol\":7409:7469  _approve(owner, spender, currentAllowance - subtractedValue) */\n      jump\t// in\n    tag_141:\n        /* \"contracts/KlaytnToken.sol\":7497:7501  true */\n      0x01\n        /* \"contracts/KlaytnToken.sol\":7490:7501  return true */\n      swap3\n      pop\n      pop\n      pop\n        /* \"contracts/KlaytnToken.sol\":7082:7508  function decreaseAllowance(address spender, uint256 subtractedValue) public virtual returns (bool) {... */\n      swap3\n      swap2\n      pop\n      pop\n      jump\t// out\n        /* \"contracts/KlaytnToken.sol\":4223:4412  function transfer(address to, uint256 amount) public virtual override returns (bool) {... */\n    tag_74:\n        /* \"contracts/KlaytnToken.sol\":4302:4306  bool */\n      0x00\n        /* \"contracts/KlaytnToken.sol\":4318:4331  address owner */\n      dup1\n        /* \"contracts/KlaytnToken.sol\":4334:4346  _msgSender() */\n      tag_143\n        /* \"contracts/KlaytnToken.sol\":4334:4344  _msgSender */\n      tag_103\n        /* \"contracts/KlaytnToken.sol\":4334:4346  _msgSender() */\n      jump\t// in\n    tag_143:\n        /* \"contracts/KlaytnToken.sol\":4318:4346  address owner = _msgSender() */\n      swap1\n      pop\n        /* \"contracts/KlaytnToken.sol\":4356:4384  _transfer(owner, to, amount) */\n      tag_144\n        /* \"contracts/KlaytnToken.sol\":4366:4371  owner */\n      dup2\n        /* \"contracts/KlaytnToken.sol\":4373:4375  to */\n      dup6\n        /* \"contracts/KlaytnToken.sol\":4377:4383  amount */\n      dup6\n        /* \"contracts/KlaytnToken.sol\":4356:4365  _transfer */\n      tag_112\n        /* \"contracts/KlaytnToken.sol\":4356:4384  _transfer(owner, to, amount) */\n      jump\t// in\n    tag_144:\n        /* \"contracts/KlaytnToken.sol\":4401:4405  true */\n      0x01\n        /* \"contracts/KlaytnToken.sol\":4394:4405  return true */\n      swap2\n      pop\n      pop\n        /* \"contracts/KlaytnToken.sol\":4223:4412  function transfer(address to, uint256 amount) public virtual override returns (bool) {... */\n      swap3\n      swap2\n      pop\n      pop\n      jump\t// out\n        /* \"contracts/KlaytnToken.sol\":9817:10130  function safeTransferFrom(... */\n    tag_79:\n        /* \"contracts/KlaytnToken.sol\":9986:10001  address spender */\n      0x00\n        /* \"contracts/KlaytnToken.sol\":10004:10016  _msgSender() */\n      tag_146\n        /* \"contracts/KlaytnToken.sol\":10004:10014  _msgSender */\n      tag_103\n        /* \"contracts/KlaytnToken.sol\":10004:10016  _msgSender() */\n      jump\t// in\n    tag_146:\n        /* \"contracts/KlaytnToken.sol\":9986:10016  address spender = _msgSender() */\n      swap1\n      pop\n        /* \"contracts/KlaytnToken.sol\":10026:10066  _spendAllowance(sender, spender, amount) */\n      tag_147\n        /* \"contracts/KlaytnToken.sol\":10042:10048  sender */\n      dup6\n        /* \"contracts/KlaytnToken.sol\":10050:10057  spender */\n      dup3\n        /* \"contracts/KlaytnToken.sol\":10059:10065  amount */\n      dup6\n        /* \"contracts/KlaytnToken.sol\":10026:10041  _spendAllowance */\n      tag_110\n        /* \"contracts/KlaytnToken.sol\":10026:10066  _spendAllowance(sender, spender, amount) */\n      jump\t// in\n    tag_147:\n        /* \"contracts/KlaytnToken.sol\":10076:10123  _safeTransfer(sender, recipient, amount, _data) */\n      tag_148\n        /* \"contracts/KlaytnToken.sol\":10090:10096  sender */\n      dup6\n        /* \"contracts/KlaytnToken.sol\":10098:10107  recipient */\n      dup6\n        /* \"contracts/KlaytnToken.sol\":10109:10115  amount */\n      dup6\n        /* \"contracts/KlaytnToken.sol\":10117:10122  _data */\n      dup6\n        /* \"contracts/KlaytnToken.sol\":10076:10089  _safeTransfer */\n      tag_123\n        /* \"contracts/KlaytnToken.sol\":10076:10123  _safeTransfer(sender, recipient, amount, _data) */\n      jump\t// in\n    tag_148:\n        /* \"contracts/KlaytnToken.sol\":9976:10130  {... */\n      pop\n        /* \"contracts/KlaytnToken.sol\":9817:10130  function safeTransferFrom(... */\n      pop\n      pop\n      pop\n      pop\n      jump\t// out\n        /* \"contracts/KlaytnToken.sol\":4469:4618  function allowance(address owner, address spender) public view virtual override returns (uint256) {... */\n    tag_83:\n        /* \"contracts/KlaytnToken.sol\":4558:4565  uint256 */\n      0x00\n        /* \"contracts/KlaytnToken.sol\":4584:4595  _allowances */\n      0x01\n        /* \"contracts/KlaytnToken.sol\":4584:4602  _allowances[owner] */\n      0x00\n        /* \"contracts/KlaytnToken.sol\":4596:4601  owner */\n      dup5\n        /* \"contracts/KlaytnToken.sol\":4584:4602  _allowances[owner] */\n      0xffffffffffffffffffffffffffffffffffffffff\n      and\n      0xffffffffffffffffffffffffffffffffffffffff\n      and\n      dup2\n      mstore\n      0x20\n      add\n      swap1\n      dup2\n      mstore\n      0x20\n      add\n      0x00\n      keccak256\n        /* \"contracts/KlaytnToken.sol\":4584:4611  _allowances[owner][spender] */\n      0x00\n        /* \"contracts/KlaytnToken.sol\":4603:4610  spender */\n      dup4\n        /* \"contracts/KlaytnToken.sol\":4584:4611  _allowances[owner][spender] */\n      0xffffffffffffffffffffffffffffffffffffffff\n      and\n      0xffffffffffffffffffffffffffffffffffffffff\n      and\n      dup2\n      mstore\n      0x20\n      add\n      swap1\n      dup2\n      mstore\n      0x20\n      add\n      0x00\n      keccak256\n      sload\n        /* \"contracts/KlaytnToken.sol\":4577:4611  return _allowances[owner][spender] */\n      swap1\n      pop\n        /* \"contracts/KlaytnToken.sol\":4469:4618  function allowance(address owner, address spender) public view virtual override returns (uint256) {... */\n      swap3\n      swap2\n      pop\n      pop\n      jump\t// out\n        /* \"contracts/KlaytnToken.sol\":8272:8504  function safeTransfer(... */\n    tag_88:\n        /* \"contracts/KlaytnToken.sol\":8413:8426  address owner */\n      0x00\n        /* \"contracts/KlaytnToken.sol\":8429:8441  _msgSender() */\n      tag_151\n        /* \"contracts/KlaytnToken.sol\":8429:8439  _msgSender */\n      tag_103\n        /* \"contracts/KlaytnToken.sol\":8429:8441  _msgSender() */\n      jump\t// in\n    tag_151:\n        /* \"contracts/KlaytnToken.sol\":8413:8441  address owner = _msgSender() */\n      swap1\n      pop\n        /* \"contracts/KlaytnToken.sol\":8451:8497  _safeTransfer(owner, recipient, amount, _data) */\n      tag_152\n        /* \"contracts/KlaytnToken.sol\":8465:8470  owner */\n      dup2\n        /* \"contracts/KlaytnToken.sol\":8472:8481  recipient */\n      dup6\n        /* \"contracts/KlaytnToken.sol\":8483:8489  amount */\n      dup6\n        /* \"contracts/KlaytnToken.sol\":8491:8496  _data */\n      dup6\n        /* \"contracts/KlaytnToken.sol\":8451:8464  _safeTransfer */\n      tag_123\n        /* \"contracts/KlaytnToken.sol\":8451:8497  _safeTransfer(owner, recipient, amount, _data) */\n      jump\t// in\n    tag_152:\n        /* \"contracts/KlaytnToken.sol\":8403:8504  {... */\n      pop\n        /* \"contracts/KlaytnToken.sol\":8272:8504  function safeTransfer(... */\n      pop\n      pop\n      pop\n      jump\t// out\n        /* \"contracts/utils/introspection/KIP13.sol\":979:1133  function supportsInterface(bytes4 interfaceId) public view virtual override returns (bool) {... */\n    tag_93:\n        /* \"contracts/utils/introspection/KIP13.sol\":1064:1068  bool */\n      0x00\n        /* \"contracts/utils/introspection/KIP13.sol\":1102:1126  type(IKIP13).interfaceId */\n      0x01ffc9a700000000000000000000000000000000000000000000000000000000\n        /* \"contracts/utils/introspection/KIP13.sol\":1087:1126  interfaceId == type(IKIP13).interfaceId */\n      not(0xffffffffffffffffffffffffffffffffffffffffffffffffffffffff)\n      and\n        /* \"contracts/utils/introspection/KIP13.sol\":1087:1098  interfaceId */\n      dup3\n        /* \"contracts/utils/introspection/KIP13.sol\":1087:1126  interfaceId == type(IKIP13).interfaceId */\n      not(0xffffffffffffffffffffffffffffffffffffffffffffffffffffffff)\n      and\n      eq\n        /* \"contracts/utils/introspection/KIP13.sol\":1080:1126  return interfaceId == type(IKIP13).interfaceId */\n      swap1\n      pop\n        /* \"contracts/utils/introspection/KIP13.sol\":979:1133  function supportsInterface(bytes4 interfaceId) public view virtual override returns (bool) {... */\n      swap2\n      swap1\n      pop\n      jump\t// out\n        /* \"contracts/utils/Context.sol\":640:736  function _msgSender() internal view virtual returns (address) {... */\n    tag_103:\n        /* \"contracts/utils/Context.sol\":693:700  address */\n      0x00\n        /* \"contracts/utils/Context.sol\":719:729  msg.sender */\n      caller\n        /* \"contracts/utils/Context.sol\":712:729  return msg.sender */\n      swap1\n      pop\n        /* \"contracts/utils/Context.sol\":640:736  function _msgSender() internal view virtual returns (address) {... */\n      swap1\n      jump\t// out\n        /* \"contracts/KlaytnToken.sol\":16705:17073  function _approve(... */\n    tag_105:\n        /* \"contracts/KlaytnToken.sol\":16853:16854  0 */\n      0x00\n        /* \"contracts/KlaytnToken.sol\":16836:16855  owner != address(0) */\n      0xffffffffffffffffffffffffffffffffffffffff\n      and\n        /* \"contracts/KlaytnToken.sol\":16836:16841  owner */\n      dup4\n        /* \"contracts/KlaytnToken.sol\":16836:16855  owner != address(0) */\n      0xffffffffffffffffffffffffffffffffffffffff\n      and\n      sub\n        /* \"contracts/KlaytnToken.sol\":16828:16895  require(owner != address(0), \"KIP7: approve from the zero address\") */\n      tag_156\n      jumpi\n      mload(0x40)\n      0x08c379a000000000000000000000000000000000000000000000000000000000\n      dup2\n      mstore\n      0x04\n      add\n      tag_157\n      swap1\n      tag_158\n      jump\t// in\n    tag_157:\n      mload(0x40)\n      dup1\n      swap2\n      sub\n      swap1\n      revert\n    tag_156:\n        /* \"contracts/KlaytnToken.sol\":16932:16933  0 */\n      0x00\n        /* \"contracts/KlaytnToken.sol\":16913:16934  spender != address(0) */\n      0xffffffffffffffffffffffffffffffffffffffff\n      and\n        /* \"contracts/KlaytnToken.sol\":16913:16920  spender */\n      dup3\n        /* \"contracts/KlaytnToken.sol\":16913:16934  spender != address(0) */\n      0xffffffffffffffffffffffffffffffffffffffff\n      and\n      sub\n        /* \"contracts/KlaytnToken.sol\":16905:16972  require(spender != address(0), \"KIP7: approve to the zero address\") */\n      tag_159\n      jumpi\n      mload(0x40)\n      0x08c379a000000000000000000000000000000000000000000000000000000000\n      dup2\n      mstore\n      0x04\n      add\n      tag_160\n      swap1\n      tag_161\n      jump\t// in\n    tag_160:\n      mload(0x40)\n      dup1\n      swap2\n      sub\n      swap1\n      revert\n    tag_159:\n        /* \"contracts/KlaytnToken.sol\":17013:17019  amount */\n      dup1\n        /* \"contracts/KlaytnToken.sol\":16983:16994  _allowances */\n      0x01\n        /* \"contracts/KlaytnToken.sol\":16983:17001  _allowances[owner] */\n      0x00\n        /* \"contracts/KlaytnToken.sol\":16995:17000  owner */\n      dup6\n        /* \"contracts/KlaytnToken.sol\":16983:17001  _allowances[owner] */\n      0xffffffffffffffffffffffffffffffffffffffff\n      and\n      0xffffffffffffffffffffffffffffffffffffffff\n      and\n      dup2\n      mstore\n      0x20\n      add\n      swap1\n      dup2\n      mstore\n      0x20\n      add\n      0x00\n      keccak256\n        /* \"contracts/KlaytnToken.sol\":16983:17010  _allowances[owner][spender] */\n      0x00\n        /* \"contracts/KlaytnToken.sol\":17002:17009  spender */\n      dup5\n        /* \"contracts/KlaytnToken.sol\":16983:17010  _allowances[owner][spender] */\n      0xffffffffffffffffffffffffffffffffffffffff\n      and\n      0xffffffffffffffffffffffffffffffffffffffff\n      and\n      dup2\n      mstore\n      0x20\n      add\n      swap1\n      dup2\n      mstore\n      0x20\n      add\n      0x00\n      keccak256\n        /* \"contracts/KlaytnToken.sol\":16983:17019  _allowances[owner][spender] = amount */\n      dup2\n      swap1\n      sstore\n      pop\n        /* \"contracts/KlaytnToken.sol\":17050:17057  spender */\n      dup2\n        /* \"contracts/KlaytnToken.sol\":17034:17066  Approval(owner, spender, amount) */\n      0xffffffffffffffffffffffffffffffffffffffff\n      and\n        /* \"contracts/KlaytnToken.sol\":17043:17048  owner */\n      dup4\n        /* \"contracts/KlaytnToken.sol\":17034:17066  Approval(owner, spender, amount) */\n      0xffffffffffffffffffffffffffffffffffffffff\n      and\n      0x8c5be1e5ebec7d5bd14f71427d1e84f3dd0314c0f7b2291e5b200ac8c7c3b925\n        /* \"contracts/KlaytnToken.sol\":17059:17065  amount */\n      dup4\n        /* \"contracts/KlaytnToken.sol\":17034:17066  Approval(owner, spender, amount) */\n      mload(0x40)\n      tag_162\n      swap2\n      swap1\n      tag_40\n      jump\t// in\n    tag_162:\n      mload(0x40)\n      dup1\n      swap2\n      sub\n      swap1\n      log3\n        /* \"contracts/KlaytnToken.sol\":16705:17073  function _approve(... */\n      pop\n      pop\n      pop\n      jump\t// out\n        /* \"contracts/KlaytnToken.sol\":17354:17794  function _spendAllowance(... */\n    tag_110:\n        /* \"contracts/KlaytnToken.sol\":17484:17508  uint256 currentAllowance */\n      0x00\n        /* \"contracts/KlaytnToken.sol\":17511:17536  allowance(owner, spender) */\n      tag_164\n        /* \"contracts/KlaytnToken.sol\":17521:17526  owner */\n      dup5\n        /* \"contracts/KlaytnToken.sol\":17528:17535  spender */\n      dup5\n        /* \"contracts/KlaytnToken.sol\":17511:17520  allowance */\n      tag_83\n        /* \"contracts/KlaytnToken.sol\":17511:17536  allowance(owner, spender) */\n      jump\t// in\n    tag_164:\n        /* \"contracts/KlaytnToken.sol\":17484:17536  uint256 currentAllowance = allowance(owner, spender) */\n      swap1\n      pop\n        /* \"contracts/KlaytnToken.sol\":17570:17587  type(uint256).max */\n      0xffffffffffffffffffffffffffffffffffffffffffffffffffffffffffffffff\n        /* \"contracts/KlaytnToken.sol\":17550:17566  currentAllowance */\n      dup2\n        /* \"contracts/KlaytnToken.sol\":17550:17587  currentAllowance != type(uint256).max */\n      eq\n        /* \"contracts/KlaytnToken.sol\":17546:17788  if (currentAllowance != type(uint256).max) {... */\n      tag_165\n      jumpi\n        /* \"contracts/KlaytnToken.sol\":17631:17637  amount */\n      dup2\n        /* \"contracts/KlaytnToken.sol\":17611:17627  currentAllowance */\n      dup2\n        /* \"contracts/KlaytnToken.sol\":17611:17637  currentAllowance >= amount */\n      lt\n      iszero\n        /* \"contracts/KlaytnToken.sol\":17603:17670  require(currentAllowance >= amount, \"KIP7: insufficient allowance\") */\n      tag_166\n      jumpi\n      mload(0x40)\n      0x08c379a000000000000000000000000000000000000000000000000000000000\n      dup2\n      mstore\n      0x04\n      add\n      tag_167\n      swap1\n      tag_168\n      jump\t// in\n    tag_167:\n      mload(0x40)\n      dup1\n      swap2\n      sub\n      swap1\n      revert\n    tag_166:\n        /* \"contracts/KlaytnToken.sol\":17712:17763  _approve(owner, spender, currentAllowance - amount) */\n      tag_169\n        /* \"contracts/KlaytnToken.sol\":17721:17726  owner */\n      dup5\n        /* \"contracts/KlaytnToken.sol\":17728:17735  spender */\n      dup5\n        /* \"contracts/KlaytnToken.sol\":17756:17762  amount */\n      dup5\n        /* \"contracts/KlaytnToken.sol\":17737:17753  currentAllowance */\n      dup5\n        /* \"contracts/KlaytnToken.sol\":17737:17762  currentAllowance - amount */\n      sub\n        /* \"contracts/KlaytnToken.sol\":17712:17720  _approve */\n      tag_105\n        /* \"contracts/KlaytnToken.sol\":17712:17763  _approve(owner, spender, currentAllowance - amount) */\n      jump\t// in\n    tag_169:\n        /* \"contracts/KlaytnToken.sol\":17546:17788  if (currentAllowance != type(uint256).max) {... */\n    tag_165:\n        /* \"contracts/KlaytnToken.sol\":17474:17794  {... */\n      pop\n        /* \"contracts/KlaytnToken.sol\":17354:17794  function _spendAllowance(... */\n      pop\n      pop\n      pop\n      jump\t// out\n        /* \"contracts/KlaytnToken.sol\":11677:12325  function _transfer(... */\n    tag_112:\n        /* \"contracts/KlaytnToken.sol\":11819:11820  0 */\n      0x00\n        /* \"contracts/KlaytnToken.sol\":11803:11821  from != address(0) */\n      0xffffffffffffffffffffffffffffffffffffffff\n      and\n        /* \"contracts/KlaytnToken.sol\":11803:11807  from */\n      dup4\n        /* \"contracts/KlaytnToken.sol\":11803:11821  from != address(0) */\n      0xffffffffffffffffffffffffffffffffffffffff\n      and\n      sub\n        /* \"contracts/KlaytnToken.sol\":11795:11862  require(from != address(0), \"KIP7: transfer from the zero address\") */\n      tag_171\n      jumpi\n      mload(0x40)\n      0x08c379a000000000000000000000000000000000000000000000000000000000\n      dup2\n      mstore\n      0x04\n      add\n      tag_172\n      swap1\n      tag_173\n      jump\t// in\n    tag_172:\n      mload(0x40)\n      dup1\n      swap2\n      sub\n      swap1\n      revert\n    tag_171:\n        /* \"contracts/KlaytnToken.sol\":11894:11895  0 */\n      0x00\n        /* \"contracts/KlaytnToken.sol\":11880:11896  to != address(0) */\n      0xffffffffffffffffffffffffffffffffffffffff\n      and\n        /* \"contracts/KlaytnToken.sol\":11880:11882  to */\n      dup3\n        /* \"contracts/KlaytnToken.sol\":11880:11896  to != address(0) */\n      0xffffffffffffffffffffffffffffffffffffffff\n      and\n      sub\n        /* \"contracts/KlaytnToken.sol\":11872:11935  require(to != address(0), \"KIP7: transfer to the zero address\") */\n      tag_174\n      jumpi\n      mload(0x40)\n      0x08c379a000000000000000000000000000000000000000000000000000000000\n      dup2\n      mstore\n      0x04\n      add\n      tag_175\n      swap1\n      tag_176\n      jump\t// in\n    tag_175:\n      mload(0x40)\n      dup1\n      swap2\n      sub\n      swap1\n      revert\n    tag_174:\n        /* \"contracts/KlaytnToken.sol\":11946:11984  _beforeTokenTransfer(from, to, amount) */\n      tag_177\n        /* \"contracts/KlaytnToken.sol\":11967:11971  from */\n      dup4\n        /* \"contracts/KlaytnToken.sol\":11973:11975  to */\n      dup4\n        /* \"contracts/KlaytnToken.sol\":11977:11983  amount */\n      dup4\n        /* \"contracts/KlaytnToken.sol\":11946:11966  _beforeTokenTransfer */\n      tag_178\n        /* \"contracts/KlaytnToken.sol\":11946:11984  _beforeTokenTransfer(from, to, amount) */\n      jump\t// in\n    tag_177:\n        /* \"contracts/KlaytnToken.sol\":11995:12014  uint256 fromBalance */\n      0x00\n        /* \"contracts/KlaytnToken.sol\":12017:12026  _balances */\n      dup1\n        /* \"contracts/KlaytnToken.sol\":12017:12032  _balances[from] */\n      0x00\n        /* \"contracts/KlaytnToken.sol\":12027:12031  from */\n      dup6\n        /* \"contracts/KlaytnToken.sol\":12017:12032  _balances[from] */\n      0xffffffffffffffffffffffffffffffffffffffff\n      and\n      0xffffffffffffffffffffffffffffffffffffffff\n      and\n      dup2\n      mstore\n      0x20\n      add\n      swap1\n      dup2\n      mstore\n      0x20\n      add\n      0x00\n      keccak256\n      sload\n        /* \"contracts/KlaytnToken.sol\":11995:12032  uint256 fromBalance = _balances[from] */\n      swap1\n      pop\n        /* \"contracts/KlaytnToken.sol\":12065:12071  amount */\n      dup2\n        /* \"contracts/KlaytnToken.sol\":12050:12061  fromBalance */\n      dup2\n        /* \"contracts/KlaytnToken.sol\":12050:12071  fromBalance >= amount */\n      lt\n      iszero\n        /* \"contracts/KlaytnToken.sol\":12042:12113  require(fromBalance >= amount, \"KIP7: transfer amount exceeds balance\") */\n      tag_179\n      jumpi\n      mload(0x40)\n      0x08c379a000000000000000000000000000000000000000000000000000000000\n      dup2\n      mstore\n      0x04\n      add\n      tag_180\n      swap1\n      tag_181\n      jump\t// in\n    tag_180:\n      mload(0x40)\n      dup1\n      swap2\n      sub\n      swap1\n      revert\n    tag_179:\n        /* \"contracts/KlaytnToken.sol\":12179:12185  amount */\n      dup2\n        /* \"contracts/KlaytnToken.sol\":12165:12176  fromBalance */\n      dup2\n        /* \"contracts/KlaytnToken.sol\":12165:12185  fromBalance - amount */\n      sub\n        /* \"contracts/KlaytnToken.sol\":12147:12156  _balances */\n      0x00\n        /* \"contracts/KlaytnToken.sol\":12147:12162  _balances[from] */\n      dup1\n        /* \"contracts/KlaytnToken.sol\":12157:12161  from */\n      dup7\n        /* \"contracts/KlaytnToken.sol\":12147:12162  _balances[from] */\n      0xffffffffffffffffffffffffffffffffffffffff\n      and\n      0xffffffffffffffffffffffffffffffffffffffff\n      and\n      dup2\n      mstore\n      0x20\n      add\n      swap1\n      dup2\n      mstore\n      0x20\n      add\n      0x00\n      keccak256\n        /* \"contracts/KlaytnToken.sol\":12147:12185  _balances[from] = fromBalance - amount */\n      dup2\n      swap1\n      sstore\n      pop\n        /* \"contracts/KlaytnToken.sol\":12222:12228  amount */\n      dup2\n        /* \"contracts/KlaytnToken.sol\":12205:12214  _balances */\n      0x00\n        /* \"contracts/KlaytnToken.sol\":12205:12218  _balances[to] */\n      dup1\n        /* \"contracts/KlaytnToken.sol\":12215:12217  to */\n      dup6\n        /* \"contracts/KlaytnToken.sol\":12205:12218  _balances[to] */\n      0xffffffffffffffffffffffffffffffffffffffff\n      and\n      0xffffffffffffffffffffffffffffffffffffffff\n      and\n      dup2\n      mstore\n      0x20\n      add\n      swap1\n      dup2\n      mstore\n      0x20\n      add\n      0x00\n      keccak256\n      0x00\n        /* \"contracts/KlaytnToken.sol\":12205:12228  _balances[to] += amount */\n      dup3\n      dup3\n      sload\n      tag_182\n      swap2\n      swap1\n      tag_119\n      jump\t// in\n    tag_182:\n      swap3\n      pop\n      pop\n      dup2\n      swap1\n      sstore\n      pop\n        /* \"contracts/KlaytnToken.sol\":12259:12261  to */\n      dup3\n        /* \"contracts/KlaytnToken.sol\":12244:12270  Transfer(from, to, amount) */\n      0xffffffffffffffffffffffffffffffffffffffff\n      and\n        /* \"contracts/KlaytnToken.sol\":12253:12257  from */\n      dup5\n        /* \"contracts/KlaytnToken.sol\":12244:12270  Transfer(from, to, amount) */\n      0xffffffffffffffffffffffffffffffffffffffff\n      and\n      0xddf252ad1be2c89b69c2b068fc378daa952ba7f163c4a11628f55a4df523b3ef\n        /* \"contracts/KlaytnToken.sol\":12263:12269  amount */\n      dup5\n        /* \"contracts/KlaytnToken.sol\":12244:12270  Transfer(from, to, amount) */\n      mload(0x40)\n      tag_183\n      swap2\n      swap1\n      tag_40\n      jump\t// in\n    tag_183:\n      mload(0x40)\n      dup1\n      swap2\n      sub\n      swap1\n      log3\n        /* \"contracts/KlaytnToken.sol\":12281:12318  _afterTokenTransfer(from, to, amount) */\n      tag_184\n        /* \"contracts/KlaytnToken.sol\":12301:12305  from */\n      dup5\n        /* \"contracts/KlaytnToken.sol\":12307:12309  to */\n      dup5\n        /* \"contracts/KlaytnToken.sol\":12311:12317  amount */\n      dup5\n        /* \"contracts/KlaytnToken.sol\":12281:12300  _afterTokenTransfer */\n      tag_185\n        /* \"contracts/KlaytnToken.sol\":12281:12318  _afterTokenTransfer(from, to, amount) */\n      jump\t// in\n    tag_184:\n        /* \"contracts/KlaytnToken.sol\":11785:12325  {... */\n      pop\n        /* \"contracts/KlaytnToken.sol\":11677:12325  function _transfer(... */\n      pop\n      pop\n      pop\n      jump\t// out\n        /* \"contracts/KlaytnToken.sol\":10915:11214  function _safeTransfer(... */\n    tag_123:\n        /* \"contracts/KlaytnToken.sol\":11065:11092  _transfer(from, to, amount) */\n      tag_187\n        /* \"contracts/KlaytnToken.sol\":11075:11079  from */\n      dup5\n        /* \"contracts/KlaytnToken.sol\":11081:11083  to */\n      dup5\n        /* \"contracts/KlaytnToken.sol\":11085:11091  amount */\n      dup5\n        /* \"contracts/KlaytnToken.sol\":11065:11074  _transfer */\n      tag_112\n        /* \"contracts/KlaytnToken.sol\":11065:11092  _transfer(from, to, amount) */\n      jump\t// in\n    tag_187:\n        /* \"contracts/KlaytnToken.sol\":11110:11155  _checkOnKIP7Received(from, to, amount, _data) */\n      tag_188\n        /* \"contracts/KlaytnToken.sol\":11131:11135  from */\n      dup5\n        /* \"contracts/KlaytnToken.sol\":11137:11139  to */\n      dup5\n        /* \"contracts/KlaytnToken.sol\":11141:11147  amount */\n      dup5\n        /* \"contracts/KlaytnToken.sol\":11149:11154  _data */\n      dup5\n        /* \"contracts/KlaytnToken.sol\":11110:11130  _checkOnKIP7Received */\n      tag_189\n        /* \"contracts/KlaytnToken.sol\":11110:11155  _checkOnKIP7Received(from, to, amount, _data) */\n      jump\t// in\n    tag_188:\n        /* \"contracts/KlaytnToken.sol\":11102:11207  require(_checkOnKIP7Received(from, to, amount, _data), \"KIP7: transfer to non IKIP7Receiver implementer\") */\n      tag_190\n      jumpi\n      mload(0x40)\n      0x08c379a000000000000000000000000000000000000000000000000000000000\n      dup2\n      mstore\n      0x04\n      add\n      tag_191\n      swap1\n      tag_192\n      jump\t// in\n    tag_191:\n      mload(0x40)\n      dup1\n      swap2\n      sub\n      swap1\n      revert\n    tag_190:\n        /* \"contracts/KlaytnToken.sol\":10915:11214  function _safeTransfer(... */\n      pop\n      pop\n      pop\n      pop\n      jump\t// out\n        /* \"contracts/KlaytnToken.sol\":18378:18499  function _beforeTokenTransfer(... */\n    tag_178:\n      pop\n      pop\n      pop\n      jump\t// out\n        /* \"contracts/KlaytnToken.sol\":19087:19207  function _afterTokenTransfer(... */\n    tag_185:\n      pop\n      pop\n      pop\n      jump\t// out\n        /* \"contracts/KlaytnToken.sol\":14626:15388  function _checkOnKIP7Received(... */\n    tag_189:\n        /* \"contracts/KlaytnToken.sol\":14773:14777  bool */\n      0x00\n        /* \"contracts/KlaytnToken.sol\":14793:14808  to.isContract() */\n      tag_196\n        /* \"contracts/KlaytnToken.sol\":14793:14795  to */\n      dup5\n        /* \"contracts/KlaytnToken.sol\":14793:14806  to.isContract */\n      0xffffffffffffffffffffffffffffffffffffffff\n      and\n      tag_197\n        /* \"contracts/KlaytnToken.sol\":14793:14808  to.isContract() */\n      jump\t// in\n    tag_196:\n        /* \"contracts/KlaytnToken.sol\":14789:15382  if (to.isContract()) {... */\n      iszero\n      tag_198\n      jumpi\n        /* \"contracts/KlaytnToken.sol\":14842:14844  to */\n      dup4\n        /* \"contracts/KlaytnToken.sol\":14828:14860  IKIP7Receiver(to).onKIP7Received */\n      0xffffffffffffffffffffffffffffffffffffffff\n      and\n      0x9d188c22\n        /* \"contracts/KlaytnToken.sol\":14861:14873  _msgSender() */\n      tag_199\n        /* \"contracts/KlaytnToken.sol\":14861:14871  _msgSender */\n      tag_103\n        /* \"contracts/KlaytnToken.sol\":14861:14873  _msgSender() */\n      jump\t// in\n    tag_199:\n        /* \"contracts/KlaytnToken.sol\":14875:14879  from */\n      dup8\n        /* \"contracts/KlaytnToken.sol\":14881:14887  amount */\n      dup7\n        /* \"contracts/KlaytnToken.sol\":14889:14894  _data */\n      dup7\n        /* \"contracts/KlaytnToken.sol\":14828:14895  IKIP7Receiver(to).onKIP7Received(_msgSender(), from, amount, _data) */\n      mload(0x40)\n      dup6\n      0xffffffff\n      and\n      0xe0\n      shl\n      dup2\n      mstore\n      0x04\n      add\n      tag_200\n      swap5\n      swap4\n      swap3\n      swap2\n      swap1\n      tag_201\n      jump\t// in\n    tag_200:\n      0x20\n      mload(0x40)\n      dup1\n      dup4\n      sub\n      dup2\n      0x00\n      dup8\n      gas\n      call\n      swap3\n      pop\n      pop\n      pop\n      dup1\n      iszero\n      tag_202\n      jumpi\n      pop\n      mload(0x40)\n      returndatasize\n      not(0x1f)\n      0x1f\n      dup3\n      add\n      and\n      dup3\n      add\n      dup1\n      0x40\n      mstore\n      pop\n      dup2\n      add\n      swap1\n      tag_203\n      swap2\n      swap1\n      tag_204\n      jump\t// in\n    tag_203:\n      0x01\n    tag_202:\n        /* \"contracts/KlaytnToken.sol\":14824:15330  try IKIP7Receiver(to).onKIP7Received(_msgSender(), from, amount, _data) returns (bytes4 retval) {... */\n      tag_205\n      jumpi\n      returndatasize\n      dup1\n      0x00\n      dup2\n      eq\n      tag_210\n      jumpi\n      mload(0x40)\n      swap2\n      pop\n      and(add(returndatasize, 0x3f), not(0x1f))\n      dup3\n      add\n      0x40\n      mstore\n      returndatasize\n      dup3\n      mstore\n      returndatasize\n      0x00\n      0x20\n      dup5\n      add\n      returndatacopy\n      jump(tag_209)\n    tag_210:\n      0x60\n      swap2\n      pop\n    tag_209:\n      pop\n        /* \"contracts/KlaytnToken.sol\":15075:15076  0 */\n      0x00\n        /* \"contracts/KlaytnToken.sol\":15058:15064  reason */\n      dup2\n        /* \"contracts/KlaytnToken.sol\":15058:15071  reason.length */\n      mload\n        /* \"contracts/KlaytnToken.sol\":15058:15076  reason.length == 0 */\n      sub\n        /* \"contracts/KlaytnToken.sol\":15054:15316  if (reason.length == 0) {... */\n      tag_211\n      jumpi\n        /* \"contracts/KlaytnToken.sol\":15100:15156  revert(\"KIP7: transfer to non KIP7Receiver implementer\") */\n      mload(0x40)\n      0x08c379a000000000000000000000000000000000000000000000000000000000\n      dup2\n      mstore\n      0x04\n      add\n      tag_212\n      swap1\n      tag_213\n      jump\t// in\n    tag_212:\n      mload(0x40)\n      dup1\n      swap2\n      sub\n      swap1\n      revert\n        /* \"contracts/KlaytnToken.sol\":15054:15316  if (reason.length == 0) {... */\n    tag_211:\n        /* \"contracts/KlaytnToken.sol\":15268:15274  reason */\n      dup1\n        /* \"contracts/KlaytnToken.sol\":15262:15275  mload(reason) */\n      mload\n        /* \"contracts/KlaytnToken.sol\":15253:15259  reason */\n      dup2\n        /* \"contracts/KlaytnToken.sol\":15249:15251  32 */\n      0x20\n        /* \"contracts/KlaytnToken.sol\":15245:15260  add(32, reason) */\n      add\n        /* \"contracts/KlaytnToken.sol\":15238:15276  revert(add(32, reason), mload(reason)) */\n      revert\n        /* \"contracts/KlaytnToken.sol\":14824:15330  try IKIP7Receiver(to).onKIP7Received(_msgSender(), from, amount, _data) returns (bytes4 retval) {... */\n    tag_205:\n        /* \"contracts/KlaytnToken.sol\":14955:14992  IKIP7Receiver.onKIP7Received.selector */\n      shl(0xe0, 0x9d188c22)\n        /* \"contracts/KlaytnToken.sol\":14945:14992  retval == IKIP7Receiver.onKIP7Received.selector */\n      not(0xffffffffffffffffffffffffffffffffffffffffffffffffffffffff)\n      and\n        /* \"contracts/KlaytnToken.sol\":14945:14951  retval */\n      dup2\n        /* \"contracts/KlaytnToken.sol\":14945:14992  retval == IKIP7Receiver.onKIP7Received.selector */\n      not(0xffffffffffffffffffffffffffffffffffffffffffffffffffffffff)\n      and\n      eq\n        /* \"contracts/KlaytnToken.sol\":14938:14992  return retval == IKIP7Receiver.onKIP7Received.selector */\n      swap2\n      pop\n      pop\n      jump(tag_195)\n        /* \"contracts/KlaytnToken.sol\":14789:15382  if (to.isContract()) {... */\n    tag_198:\n        /* \"contracts/KlaytnToken.sol\":15367:15371  true */\n      0x01\n        /* \"contracts/KlaytnToken.sol\":15360:15371  return true */\n      swap1\n      pop\n        /* \"contracts/KlaytnToken.sol\":14626:15388  function _checkOnKIP7Received(... */\n    tag_195:\n      swap5\n      swap4\n      pop\n      pop\n      pop\n      pop\n      jump\t// out\n        /* \"contracts/utils/Address.sol\":1175:1495  function isContract(address account) internal view returns (bool) {... */\n    tag_197:\n        /* \"contracts/utils/Address.sol\":1235:1239  bool */\n      0x00\n        /* \"contracts/utils/Address.sol\":1487:1488  0 */\n      dup1\n        /* \"contracts/utils/Address.sol\":1465:1472  account */\n      dup3\n        /* \"contracts/utils/Address.sol\":1465:1484  account.code.length */\n      0xffffffffffffffffffffffffffffffffffffffff\n      and\n      extcodesize\n        /* \"contracts/utils/Address.sol\":1465:1488  account.code.length > 0 */\n      gt\n        /* \"contracts/utils/Address.sol\":1458:1488  return account.code.length > 0 */\n      swap1\n      pop\n        /* \"contracts/utils/Address.sol\":1175:1495  function isContract(address account) internal view returns (bool) {... */\n      swap2\n      swap1\n      pop\n      jump\t// out\n        /* \"#utility.yul\":7:82   */\n    tag_218:\n        /* \"#utility.yul\":40:46   */\n      0x00\n        /* \"#utility.yul\":73:75   */\n      0x40\n        /* \"#utility.yul\":67:76   */\n      mload\n        /* \"#utility.yul\":57:76   */\n      swap1\n      pop\n        /* \"#utility.yul\":7:82   */\n      swap1\n      jump\t// out\n        /* \"#utility.yul\":88:205   */\n    tag_219:\n        /* \"#utility.yul\":197:198   */\n      0x00\n        /* \"#utility.yul\":194:195   */\n      dup1\n        /* \"#utility.yul\":187:199   */\n      revert\n        /* \"#utility.yul\":211:328   */\n    tag_220:\n        /* \"#utility.yul\":320:321   */\n      0x00\n        /* \"#utility.yul\":317:318   */\n      dup1\n        /* \"#utility.yul\":310:322   */\n      revert\n        /* \"#utility.yul\":334:483   */\n    tag_221:\n        /* \"#utility.yul\":370:377   */\n      0x00\n        /* \"#utility.yul\":410:476   */\n      0xffffffff00000000000000000000000000000000000000000000000000000000\n        /* \"#utility.yul\":403:408   */\n      dup3\n        /* \"#utility.yul\":399:477   */\n      and\n        /* \"#utility.yul\":388:477   */\n      swap1\n      pop\n        /* \"#utility.yul\":334:483   */\n      swap2\n      swap1\n      pop\n      jump\t// out\n        /* \"#utility.yul\":489:609   */\n    tag_222:\n        /* \"#utility.yul\":561:584   */\n      tag_281\n        /* \"#utility.yul\":578:583   */\n      dup2\n        /* \"#utility.yul\":561:584   */\n      tag_221\n      jump\t// in\n    tag_281:\n        /* \"#utility.yul\":554:559   */\n      dup2\n        /* \"#utility.yul\":551:585   */\n      eq\n        /* \"#utility.yul\":541:603   */\n      tag_282\n      jumpi\n        /* \"#utility.yul\":599:600   */\n      0x00\n        /* \"#utility.yul\":596:597   */\n      dup1\n        /* \"#utility.yul\":589:601   */\n      revert\n        /* \"#utility.yul\":541:603   */\n    tag_282:\n        /* \"#utility.yul\":489:609   */\n      pop\n      jump\t// out\n        /* \"#utility.yul\":615:752   */\n    tag_223:\n        /* \"#utility.yul\":660:665   */\n      0x00\n        /* \"#utility.yul\":698:704   */\n      dup2\n        /* \"#utility.yul\":685:705   */\n      calldataload\n        /* \"#utility.yul\":676:705   */\n      swap1\n      pop\n        /* \"#utility.yul\":714:746   */\n      tag_284\n        /* \"#utility.yul\":740:745   */\n      dup2\n        /* \"#utility.yul\":714:746   */\n      tag_222\n      jump\t// in\n    tag_284:\n        /* \"#utility.yul\":615:752   */\n      swap3\n      swap2\n      pop\n      pop\n      jump\t// out\n        /* \"#utility.yul\":758:1085   */\n    tag_24:\n        /* \"#utility.yul\":816:822   */\n      0x00\n        /* \"#utility.yul\":865:867   */\n      0x20\n        /* \"#utility.yul\":853:862   */\n      dup3\n        /* \"#utility.yul\":844:851   */\n      dup5\n        /* \"#utility.yul\":840:863   */\n      sub\n        /* \"#utility.yul\":836:868   */\n      slt\n        /* \"#utility.yul\":833:952   */\n      iszero\n      tag_286\n      jumpi\n        /* \"#utility.yul\":871:950   */\n      tag_287\n      tag_219\n      jump\t// in\n    tag_287:\n        /* \"#utility.yul\":833:952   */\n    tag_286:\n        /* \"#utility.yul\":991:992   */\n      0x00\n        /* \"#utility.yul\":1016:1068   */\n      tag_288\n        /* \"#utility.yul\":1060:1067   */\n      dup5\n        /* \"#utility.yul\":1051:1057   */\n      dup3\n        /* \"#utility.yul\":1040:1049   */\n      dup6\n        /* \"#utility.yul\":1036:1058   */\n      add\n        /* \"#utility.yul\":1016:1068   */\n      tag_223\n      jump\t// in\n    tag_288:\n        /* \"#utility.yul\":1006:1068   */\n      swap2\n      pop\n        /* \"#utility.yul\":962:1078   */\n      pop\n        /* \"#utility.yul\":758:1085   */\n      swap3\n      swap2\n      pop\n      pop\n      jump\t// out\n        /* \"#utility.yul\":1091:1181   */\n    tag_224:\n        /* \"#utility.yul\":1125:1132   */\n      0x00\n        /* \"#utility.yul\":1168:1173   */\n      dup2\n        /* \"#utility.yul\":1161:1174   */\n      iszero\n        /* \"#utility.yul\":1154:1175   */\n      iszero\n        /* \"#utility.yul\":1143:1175   */\n      swap1\n      pop\n        /* \"#utility.yul\":1091:1181   */\n      swap2\n      swap1\n      pop\n      jump\t// out\n        /* \"#utility.yul\":1187:1296   */\n    tag_225:\n        /* \"#utility.yul\":1268:1289   */\n      tag_291\n        /* \"#utility.yul\":1283:1288   */\n      dup2\n        /* \"#utility.yul\":1268:1289   */\n      tag_224\n      jump\t// in\n    tag_291:\n        /* \"#utility.yul\":1263:1266   */\n      dup3\n        /* \"#utility.yul\":1256:1290   */\n      mstore\n        /* \"#utility.yul\":1187:1296   */\n      pop\n      pop\n      jump\t// out\n        /* \"#utility.yul\":1302:1512   */\n    tag_27:\n        /* \"#utility.yul\":1389:1393   */\n      0x00\n        /* \"#utility.yul\":1427:1429   */\n      0x20\n        /* \"#utility.yul\":1416:1425   */\n      dup3\n        /* \"#utility.yul\":1412:1430   */\n      add\n        /* \"#utility.yul\":1404:1430   */\n      swap1\n      pop\n        /* \"#utility.yul\":1440:1505   */\n      tag_293\n        /* \"#utility.yul\":1502:1503   */\n      0x00\n        /* \"#utility.yul\":1491:1500   */\n      dup4\n        /* \"#utility.yul\":1487:1504   */\n      add\n        /* \"#utility.yul\":1478:1484   */\n      dup5\n        /* \"#utility.yul\":1440:1505   */\n      tag_225\n      jump\t// in\n    tag_293:\n        /* \"#utility.yul\":1302:1512   */\n      swap3\n      swap2\n      pop\n      pop\n      jump\t// out\n        /* \"#utility.yul\":1518:1617   */\n    tag_226:\n        /* \"#utility.yul\":1570:1576   */\n      0x00\n        /* \"#utility.yul\":1604:1609   */\n      dup2\n        /* \"#utility.yul\":1598:1610   */\n      mload\n        /* \"#utility.yul\":1588:1610   */\n      swap1\n      pop\n        /* \"#utility.yul\":1518:1617   */\n      swap2\n      swap1\n      pop\n      jump\t// out\n        /* \"#utility.yul\":1623:1792   */\n    tag_227:\n        /* \"#utility.yul\":1707:1718   */\n      0x00\n        /* \"#utility.yul\":1741:1747   */\n      dup3\n        /* \"#utility.yul\":1736:1739   */\n      dup3\n        /* \"#utility.yul\":1729:1748   */\n      mstore\n        /* \"#utility.yul\":1781:1785   */\n      0x20\n        /* \"#utility.yul\":1776:1779   */\n      dup3\n        /* \"#utility.yul\":1772:1786   */\n      add\n        /* \"#utility.yul\":1757:1786   */\n      swap1\n      pop\n        /* \"#utility.yul\":1623:1792   */\n      swap3\n      swap2\n      pop\n      pop\n      jump\t// out\n        /* \"#utility.yul\":1798:2044   */\n    tag_228:\n        /* \"#utility.yul\":1879:1880   */\n      0x00\n        /* \"#utility.yul\":1889:2002   */\n    tag_297:\n        /* \"#utility.yul\":1903:1909   */\n      dup4\n        /* \"#utility.yul\":1900:1901   */\n      dup2\n        /* \"#utility.yul\":1897:1910   */\n      lt\n        /* \"#utility.yul\":1889:2002   */\n      iszero\n      tag_299\n      jumpi\n        /* \"#utility.yul\":1988:1989   */\n      dup1\n        /* \"#utility.yul\":1983:1986   */\n      dup3\n        /* \"#utility.yul\":1979:1990   */\n      add\n        /* \"#utility.yul\":1973:1991   */\n      mload\n        /* \"#utility.yul\":1969:1970   */\n      dup2\n        /* \"#utility.yul\":1964:1967   */\n      dup5\n        /* \"#utility.yul\":1960:1971   */\n      add\n        /* \"#utility.yul\":1953:1992   */\n      mstore\n        /* \"#utility.yul\":1925:1927   */\n      0x20\n        /* \"#utility.yul\":1922:1923   */\n      dup2\n        /* \"#utility.yul\":1918:1928   */\n      add\n        /* \"#utility.yul\":1913:1928   */\n      swap1\n      pop\n        /* \"#utility.yul\":1889:2002   */\n      jump(tag_297)\n    tag_299:\n        /* \"#utility.yul\":2036:2037   */\n      0x00\n        /* \"#utility.yul\":2027:2033   */\n      dup5\n        /* \"#utility.yul\":2022:2025   */\n      dup5\n        /* \"#utility.yul\":2018:2034   */\n      add\n        /* \"#utility.yul\":2011:2038   */\n      mstore\n        /* \"#utility.yul\":1860:2044   */\n      pop\n        /* \"#utility.yul\":1798:2044   */\n      pop\n      pop\n      pop\n      jump\t// out\n        /* \"#utility.yul\":2050:2152   */\n    tag_229:\n        /* \"#utility.yul\":2091:2097   */\n      0x00\n        /* \"#utility.yul\":2142:2144   */\n      0x1f\n        /* \"#utility.yul\":2138:2145   */\n      not\n        /* \"#utility.yul\":2133:2135   */\n      0x1f\n        /* \"#utility.yul\":2126:2131   */\n      dup4\n        /* \"#utility.yul\":2122:2136   */\n      add\n        /* \"#utility.yul\":2118:2146   */\n      and\n        /* \"#utility.yul\":2108:2146   */\n      swap1\n      pop\n        /* \"#utility.yul\":2050:2152   */\n      swap2\n      swap1\n      pop\n      jump\t// out\n        /* \"#utility.yul\":2158:2535   */\n    tag_230:\n        /* \"#utility.yul\":2246:2249   */\n      0x00\n        /* \"#utility.yul\":2274:2313   */\n      tag_302\n        /* \"#utility.yul\":2307:2312   */\n      dup3\n        /* \"#utility.yul\":2274:2313   */\n      tag_226\n      jump\t// in\n    tag_302:\n        /* \"#utility.yul\":2329:2400   */\n      tag_303\n        /* \"#utility.yul\":2393:2399   */\n      dup2\n        /* \"#utility.yul\":2388:2391   */\n      dup6\n        /* \"#utility.yul\":2329:2400   */\n      tag_227\n      jump\t// in\n    tag_303:\n        /* \"#utility.yul\":2322:2400   */\n      swap4\n      pop\n        /* \"#utility.yul\":2409:2474   */\n      tag_304\n        /* \"#utility.yul\":2467:2473   */\n      dup2\n        /* \"#utility.yul\":2462:2465   */\n      dup6\n        /* \"#utility.yul\":2455:2459   */\n      0x20\n        /* \"#utility.yul\":2448:2453   */\n      dup7\n        /* \"#utility.yul\":2444:2460   */\n      add\n        /* \"#utility.yul\":2409:2474   */\n      tag_228\n      jump\t// in\n    tag_304:\n        /* \"#utility.yul\":2499:2528   */\n      tag_305\n        /* \"#utility.yul\":2521:2527   */\n      dup2\n        /* \"#utility.yul\":2499:2528   */\n      tag_229\n      jump\t// in\n    tag_305:\n        /* \"#utility.yul\":2494:2497   */\n      dup5\n        /* \"#utility.yul\":2490:2529   */\n      add\n        /* \"#utility.yul\":2483:2529   */\n      swap2\n      pop\n        /* \"#utility.yul\":2250:2535   */\n      pop\n        /* \"#utility.yul\":2158:2535   */\n      swap3\n      swap2\n      pop\n      pop\n      jump\t// out\n        /* \"#utility.yul\":2541:2854   */\n    tag_31:\n        /* \"#utility.yul\":2654:2658   */\n      0x00\n        /* \"#utility.yul\":2692:2694   */\n      0x20\n        /* \"#utility.yul\":2681:2690   */\n      dup3\n        /* \"#utility.yul\":2677:2695   */\n      add\n        /* \"#utility.yul\":2669:2695   */\n      swap1\n      pop\n        /* \"#utility.yul\":2741:2750   */\n      dup2\n        /* \"#utility.yul\":2735:2739   */\n      dup2\n        /* \"#utility.yul\":2731:2751   */\n      sub\n        /* \"#utility.yul\":2727:2728   */\n      0x00\n        /* \"#utility.yul\":2716:2725   */\n      dup4\n        /* \"#utility.yul\":2712:2729   */\n      add\n        /* \"#utility.yul\":2705:2752   */\n      mstore\n        /* \"#utility.yul\":2769:2847   */\n      tag_307\n        /* \"#utility.yul\":2842:2846   */\n      dup2\n        /* \"#utility.yul\":2833:2839   */\n      dup5\n        /* \"#utility.yul\":2769:2847   */\n      tag_230\n      jump\t// in\n    tag_307:\n        /* \"#utility.yul\":2761:2847   */\n      swap1\n      pop\n        /* \"#utility.yul\":2541:2854   */\n      swap3\n      swap2\n      pop\n      pop\n      jump\t// out\n        /* \"#utility.yul\":2860:2986   */\n    tag_231:\n        /* \"#utility.yul\":2897:2904   */\n      0x00\n        /* \"#utility.yul\":2937:2979   */\n      0xffffffffffffffffffffffffffffffffffffffff\n        /* \"#utility.yul\":2930:2935   */\n      dup3\n        /* \"#utility.yul\":2926:2980   */\n      and\n        /* \"#utility.yul\":2915:2980   */\n      swap1\n      pop\n        /* \"#utility.yul\":2860:2986   */\n      swap2\n      swap1\n      pop\n      jump\t// out\n        /* \"#utility.yul\":2992:3088   */\n    tag_232:\n        /* \"#utility.yul\":3029:3036   */\n      0x00\n        /* \"#utility.yul\":3058:3082   */\n      tag_310\n        /* \"#utility.yul\":3076:3081   */\n      dup3\n        /* \"#utility.yul\":3058:3082   */\n      tag_231\n      jump\t// in\n    tag_310:\n        /* \"#utility.yul\":3047:3082   */\n      swap1\n      pop\n        /* \"#utility.yul\":2992:3088   */\n      swap2\n      swap1\n      pop\n      jump\t// out\n        /* \"#utility.yul\":3094:3216   */\n    tag_233:\n        /* \"#utility.yul\":3167:3191   */\n      tag_312\n        /* \"#utility.yul\":3185:3190   */\n      dup2\n        /* \"#utility.yul\":3167:3191   */\n      tag_232\n      jump\t// in\n    tag_312:\n        /* \"#utility.yul\":3160:3165   */\n      dup2\n        /* \"#utility.yul\":3157:3192   */\n      eq\n        /* \"#utility.yul\":3147:3210   */\n      tag_313\n      jumpi\n        /* \"#utility.yul\":3206:3207   */\n      0x00\n        /* \"#utility.yul\":3203:3204   */\n      dup1\n        /* \"#utility.yul\":3196:3208   */\n      revert\n        /* \"#utility.yul\":3147:3210   */\n    tag_313:\n        /* \"#utility.yul\":3094:3216   */\n      pop\n      jump\t// out\n        /* \"#utility.yul\":3222:3361   */\n    tag_234:\n        /* \"#utility.yul\":3268:3273   */\n      0x00\n        /* \"#utility.yul\":3306:3312   */\n      dup2\n        /* \"#utility.yul\":3293:3313   */\n      calldataload\n        /* \"#utility.yul\":3284:3313   */\n      swap1\n      pop\n        /* \"#utility.yul\":3322:3355   */\n      tag_315\n        /* \"#utility.yul\":3349:3354   */\n      dup2\n        /* \"#utility.yul\":3322:3355   */\n      tag_233\n      jump\t// in\n    tag_315:\n        /* \"#utility.yul\":3222:3361   */\n      swap3\n      swap2\n      pop\n      pop\n      jump\t// out\n        /* \"#utility.yul\":3367:3444   */\n    tag_235:\n        /* \"#utility.yul\":3404:3411   */\n      0x00\n        /* \"#utility.yul\":3433:3438   */\n      dup2\n        /* \"#utility.yul\":3422:3438   */\n      swap1\n      pop\n        /* \"#utility.yul\":3367:3444   */\n      swap2\n      swap1\n      pop\n      jump\t// out\n        /* \"#utility.yul\":3450:3572   */\n    tag_236:\n        /* \"#utility.yul\":3523:3547   */\n      tag_318\n        /* \"#utility.yul\":3541:3546   */\n      dup2\n        /* \"#utility.yul\":3523:3547   */\n      tag_235\n      jump\t// in\n    tag_318:\n        /* \"#utility.yul\":3516:3521   */\n      dup2\n        /* \"#utility.yul\":3513:3548   */\n      eq\n        /* \"#utility.yul\":3503:3566   */\n      tag_319\n      jumpi\n        /* \"#utility.yul\":3562:3563   */\n      0x00\n        /* \"#utility.yul\":3559:3560   */\n      dup1\n        /* \"#utility.yul\":3552:3564   */\n      revert\n        /* \"#utility.yul\":3503:3566   */\n    tag_319:\n        /* \"#utility.yul\":3450:3572   */\n      pop\n      jump\t// out\n        /* \"#utility.yul\":3578:3717   */\n    tag_237:\n        /* \"#utility.yul\":3624:3629   */\n      0x00\n        /* \"#utility.yul\":3662:3668   */\n      dup2\n        /* \"#utility.yul\":3649:3669   */\n      calldataload\n        /* \"#utility.yul\":3640:3669   */\n      swap1\n      pop\n        /* \"#utility.yul\":3678:3711   */\n      tag_321\n        /* \"#utility.yul\":3705:3710   */\n      dup2\n        /* \"#utility.yul\":3678:3711   */\n      tag_236\n      jump\t// in\n    tag_321:\n        /* \"#utility.yul\":3578:3717   */\n      swap3\n      swap2\n      pop\n      pop\n      jump\t// out\n        /* \"#utility.yul\":3723:4197   */\n    tag_34:\n        /* \"#utility.yul\":3791:3797   */\n      0x00\n        /* \"#utility.yul\":3799:3805   */\n      dup1\n        /* \"#utility.yul\":3848:3850   */\n      0x40\n        /* \"#utility.yul\":3836:3845   */\n      dup4\n        /* \"#utility.yul\":3827:3834   */\n      dup6\n        /* \"#utility.yul\":3823:3846   */\n      sub\n        /* \"#utility.yul\":3819:3851   */\n      slt\n        /* \"#utility.yul\":3816:3935   */\n      iszero\n      tag_323\n      jumpi\n        /* \"#utility.yul\":3854:3933   */\n      tag_324\n      tag_219\n      jump\t// in\n    tag_324:\n        /* \"#utility.yul\":3816:3935   */\n    tag_323:\n        /* \"#utility.yul\":3974:3975   */\n      0x00\n        /* \"#utility.yul\":3999:4052   */\n      tag_325\n        /* \"#utility.yul\":4044:4051   */\n      dup6\n        /* \"#utility.yul\":4035:4041   */\n      dup3\n        /* \"#utility.yul\":4024:4033   */\n      dup7\n        /* \"#utility.yul\":4020:4042   */\n      add\n        /* \"#utility.yul\":3999:4052   */\n      tag_234\n      jump\t// in\n    tag_325:\n        /* \"#utility.yul\":3989:4052   */\n      swap3\n      pop\n        /* \"#utility.yul\":3945:4062   */\n      pop\n        /* \"#utility.yul\":4101:4103   */\n      0x20\n        /* \"#utility.yul\":4127:4180   */\n      tag_326\n        /* \"#utility.yul\":4172:4179   */\n      dup6\n        /* \"#utility.yul\":4163:4169   */\n      dup3\n        /* \"#utility.yul\":4152:4161   */\n      dup7\n        /* \"#utility.yul\":4148:4170   */\n      add\n        /* \"#utility.yul\":4127:4180   */\n      tag_237\n      jump\t// in\n    tag_326:\n        /* \"#utility.yul\":4117:4180   */\n      swap2\n      pop\n        /* \"#utility.yul\":4072:4190   */\n      pop\n        /* \"#utility.yul\":3723:4197   */\n      swap3\n      pop\n      swap3\n      swap1\n      pop\n      jump\t// out\n        /* \"#utility.yul\":4203:4321   */\n    tag_238:\n        /* \"#utility.yul\":4290:4314   */\n      tag_328\n        /* \"#utility.yul\":4308:4313   */\n      dup2\n        /* \"#utility.yul\":4290:4314   */\n      tag_235\n      jump\t// in\n    tag_328:\n        /* \"#utility.yul\":4285:4288   */\n      dup3\n        /* \"#utility.yul\":4278:4315   */\n      mstore\n        /* \"#utility.yul\":4203:4321   */\n      pop\n      pop\n      jump\t// out\n        /* \"#utility.yul\":4327:4549   */\n    tag_40:\n        /* \"#utility.yul\":4420:4424   */\n      0x00\n        /* \"#utility.yul\":4458:4460   */\n      0x20\n        /* \"#utility.yul\":4447:4456   */\n      dup3\n        /* \"#utility.yul\":4443:4461   */\n      add\n        /* \"#utility.yul\":4435:4461   */\n      swap1\n      pop\n        /* \"#utility.yul\":4471:4542   */\n      tag_330\n        /* \"#utility.yul\":4539:4540   */\n      0x00\n        /* \"#utility.yul\":4528:4537   */\n      dup4\n        /* \"#utility.yul\":4524:4541   */\n      add\n        /* \"#utility.yul\":4515:4521   */\n      dup5\n        /* \"#utility.yul\":4471:4542   */\n      tag_238\n      jump\t// in\n    tag_330:\n        /* \"#utility.yul\":4327:4549   */\n      swap3\n      swap2\n      pop\n      pop\n      jump\t// out\n        /* \"#utility.yul\":4555:5174   */\n    tag_43:\n        /* \"#utility.yul\":4632:4638   */\n      0x00\n        /* \"#utility.yul\":4640:4646   */\n      dup1\n        /* \"#utility.yul\":4648:4654   */\n      0x00\n        /* \"#utility.yul\":4697:4699   */\n      0x60\n        /* \"#utility.yul\":4685:4694   */\n      dup5\n        /* \"#utility.yul\":4676:4683   */\n      dup7\n        /* \"#utility.yul\":4672:4695   */\n      sub\n        /* \"#utility.yul\":4668:4700   */\n      slt\n        /* \"#utility.yul\":4665:4784   */\n      iszero\n      tag_332\n      jumpi\n        /* \"#utility.yul\":4703:4782   */\n      tag_333\n      tag_219\n      jump\t// in\n    tag_333:\n        /* \"#utility.yul\":4665:4784   */\n    tag_332:\n        /* \"#utility.yul\":4823:4824   */\n      0x00\n        /* \"#utility.yul\":4848:4901   */\n      tag_334\n        /* \"#utility.yul\":4893:4900   */\n      dup7\n        /* \"#utility.yul\":4884:4890   */\n      dup3\n        /* \"#utility.yul\":4873:4882   */\n      dup8\n        /* \"#utility.yul\":4869:4891   */\n      add\n        /* \"#utility.yul\":4848:4901   */\n      tag_234\n      jump\t// in\n    tag_334:\n        /* \"#utility.yul\":4838:4901   */\n      swap4\n      pop\n        /* \"#utility.yul\":4794:4911   */\n      pop\n        /* \"#utility.yul\":4950:4952   */\n      0x20\n        /* \"#utility.yul\":4976:5029   */\n      tag_335\n        /* \"#utility.yul\":5021:5028   */\n      dup7\n        /* \"#utility.yul\":5012:5018   */\n      dup3\n        /* \"#utility.yul\":5001:5010   */\n      dup8\n        /* \"#utility.yul\":4997:5019   */\n      add\n        /* \"#utility.yul\":4976:5029   */\n      tag_234\n      jump\t// in\n    tag_335:\n        /* \"#utility.yul\":4966:5029   */\n      swap3\n      pop\n        /* \"#utility.yul\":4921:5039   */\n      pop\n        /* \"#utility.yul\":5078:5080   */\n      0x40\n        /* \"#utility.yul\":5104:5157   */\n      tag_336\n        /* \"#utility.yul\":5149:5156   */\n      dup7\n        /* \"#utility.yul\":5140:5146   */\n      dup3\n        /* \"#utility.yul\":5129:5138   */\n      dup8\n        /* \"#utility.yul\":5125:5147   */\n      add\n        /* \"#utility.yul\":5104:5157   */\n      tag_237\n      jump\t// in\n    tag_336:\n        /* \"#utility.yul\":5094:5157   */\n      swap2\n      pop\n        /* \"#utility.yul\":5049:5167   */\n      pop\n        /* \"#utility.yul\":4555:5174   */\n      swap3\n      pop\n      swap3\n      pop\n      swap3\n      jump\t// out\n        /* \"#utility.yul\":5180:5266   */\n    tag_239:\n        /* \"#utility.yul\":5215:5222   */\n      0x00\n        /* \"#utility.yul\":5255:5259   */\n      0xff\n        /* \"#utility.yul\":5248:5253   */\n      dup3\n        /* \"#utility.yul\":5244:5260   */\n      and\n        /* \"#utility.yul\":5233:5260   */\n      swap1\n      pop\n        /* \"#utility.yul\":5180:5266   */\n      swap2\n      swap1\n      pop\n      jump\t// out\n        /* \"#utility.yul\":5272:5384   */\n    tag_240:\n        /* \"#utility.yul\":5355:5377   */\n      tag_339\n        /* \"#utility.yul\":5371:5376   */\n      dup2\n        /* \"#utility.yul\":5355:5377   */\n      tag_239\n      jump\t// in\n    tag_339:\n        /* \"#utility.yul\":5350:5353   */\n      dup3\n        /* \"#utility.yul\":5343:5378   */\n      mstore\n        /* \"#utility.yul\":5272:5384   */\n      pop\n      pop\n      jump\t// out\n        /* \"#utility.yul\":5390:5604   */\n    tag_49:\n        /* \"#utility.yul\":5479:5483   */\n      0x00\n        /* \"#utility.yul\":5517:5519   */\n      0x20\n        /* \"#utility.yul\":5506:5515   */\n      dup3\n        /* \"#utility.yul\":5502:5520   */\n      add\n        /* \"#utility.yul\":5494:5520   */\n      swap1\n      pop\n        /* \"#utility.yul\":5530:5597   */\n      tag_341\n        /* \"#utility.yul\":5594:5595   */\n      0x00\n        /* \"#utility.yul\":5583:5592   */\n      dup4\n        /* \"#utility.yul\":5579:5596   */\n      add\n        /* \"#utility.yul\":5570:5576   */\n      dup5\n        /* \"#utility.yul\":5530:5597   */\n      tag_240\n      jump\t// in\n    tag_341:\n        /* \"#utility.yul\":5390:5604   */\n      swap3\n      swap2\n      pop\n      pop\n      jump\t// out\n        /* \"#utility.yul\":5610:5939   */\n    tag_62:\n        /* \"#utility.yul\":5669:5675   */\n      0x00\n        /* \"#utility.yul\":5718:5720   */\n      0x20\n        /* \"#utility.yul\":5706:5715   */\n      dup3\n        /* \"#utility.yul\":5697:5704   */\n      dup5\n        /* \"#utility.yul\":5693:5716   */\n      sub\n        /* \"#utility.yul\":5689:5721   */\n      slt\n        /* \"#utility.yul\":5686:5805   */\n      iszero\n      tag_343\n      jumpi\n        /* \"#utility.yul\":5724:5803   */\n      tag_344\n      tag_219\n      jump\t// in\n    tag_344:\n        /* \"#utility.yul\":5686:5805   */\n    tag_343:\n        /* \"#utility.yul\":5844:5845   */\n      0x00\n        /* \"#utility.yul\":5869:5922   */\n      tag_345\n        /* \"#utility.yul\":5914:5921   */\n      dup5\n        /* \"#utility.yul\":5905:5911   */\n      dup3\n        /* \"#utility.yul\":5894:5903   */\n      dup6\n        /* \"#utility.yul\":5890:5912   */\n      add\n        /* \"#utility.yul\":5869:5922   */\n      tag_234\n      jump\t// in\n    tag_345:\n        /* \"#utility.yul\":5859:5922   */\n      swap2\n      pop\n        /* \"#utility.yul\":5815:5932   */\n      pop\n        /* \"#utility.yul\":5610:5939   */\n      swap3\n      swap2\n      pop\n      pop\n      jump\t// out\n        /* \"#utility.yul\":5945:6062   */\n    tag_241:\n        /* \"#utility.yul\":6054:6055   */\n      0x00\n        /* \"#utility.yul\":6051:6052   */\n      dup1\n        /* \"#utility.yul\":6044:6056   */\n      revert\n        /* \"#utility.yul\":6068:6185   */\n    tag_242:\n        /* \"#utility.yul\":6177:6178   */\n      0x00\n        /* \"#utility.yul\":6174:6175   */\n      dup1\n        /* \"#utility.yul\":6167:6179   */\n      revert\n        /* \"#utility.yul\":6191:6371   */\n    tag_243:\n        /* \"#utility.yul\":6239:6316   */\n      0x4e487b7100000000000000000000000000000000000000000000000000000000\n        /* \"#utility.yul\":6236:6237   */\n      0x00\n        /* \"#utility.yul\":6229:6317   */\n      mstore\n        /* \"#utility.yul\":6336:6340   */\n      0x41\n        /* \"#utility.yul\":6333:6334   */\n      0x04\n        /* \"#utility.yul\":6326:6341   */\n      mstore\n        /* \"#utility.yul\":6360:6364   */\n      0x24\n        /* \"#utility.yul\":6357:6358   */\n      0x00\n        /* \"#utility.yul\":6350:6365   */\n      revert\n        /* \"#utility.yul\":6377:6658   */\n    tag_244:\n        /* \"#utility.yul\":6460:6487   */\n      tag_350\n        /* \"#utility.yul\":6482:6486   */\n      dup3\n        /* \"#utility.yul\":6460:6487   */\n      tag_229\n      jump\t// in\n    tag_350:\n        /* \"#utility.yul\":6452:6458   */\n      dup2\n        /* \"#utility.yul\":6448:6488   */\n      add\n        /* \"#utility.yul\":6590:6596   */\n      dup2\n        /* \"#utility.yul\":6578:6588   */\n      dup2\n        /* \"#utility.yul\":6575:6597   */\n      lt\n        /* \"#utility.yul\":6554:6572   */\n      0xffffffffffffffff\n        /* \"#utility.yul\":6542:6552   */\n      dup3\n        /* \"#utility.yul\":6539:6573   */\n      gt\n        /* \"#utility.yul\":6536:6598   */\n      or\n        /* \"#utility.yul\":6533:6621   */\n      iszero\n      tag_351\n      jumpi\n        /* \"#utility.yul\":6601:6619   */\n      tag_352\n      tag_243\n      jump\t// in\n    tag_352:\n        /* \"#utility.yul\":6533:6621   */\n    tag_351:\n        /* \"#utility.yul\":6641:6651   */\n      dup1\n        /* \"#utility.yul\":6637:6639   */\n      0x40\n        /* \"#utility.yul\":6630:6652   */\n      mstore\n        /* \"#utility.yul\":6420:6658   */\n      pop\n        /* \"#utility.yul\":6377:6658   */\n      pop\n      pop\n      jump\t// out\n        /* \"#utility.yul\":6664:6793   */\n    tag_245:\n        /* \"#utility.yul\":6698:6704   */\n      0x00\n        /* \"#utility.yul\":6725:6745   */\n      tag_354\n      tag_218\n      jump\t// in\n    tag_354:\n        /* \"#utility.yul\":6715:6745   */\n      swap1\n      pop\n        /* \"#utility.yul\":6754:6787   */\n      tag_355\n        /* \"#utility.yul\":6782:6786   */\n      dup3\n        /* \"#utility.yul\":6774:6780   */\n      dup3\n        /* \"#utility.yul\":6754:6787   */\n      tag_244\n      jump\t// in\n    tag_355:\n        /* \"#utility.yul\":6664:6793   */\n      swap2\n      swap1\n      pop\n      jump\t// out\n        /* \"#utility.yul\":6799:7106   */\n    tag_246:\n        /* \"#utility.yul\":6860:6864   */\n      0x00\n        /* \"#utility.yul\":6950:6968   */\n      0xffffffffffffffff\n        /* \"#utility.yul\":6942:6948   */\n      dup3\n        /* \"#utility.yul\":6939:6969   */\n      gt\n        /* \"#utility.yul\":6936:6992   */\n      iszero\n      tag_357\n      jumpi\n        /* \"#utility.yul\":6972:6990   */\n      tag_358\n      tag_243\n      jump\t// in\n    tag_358:\n        /* \"#utility.yul\":6936:6992   */\n    tag_357:\n        /* \"#utility.yul\":7010:7039   */\n      tag_359\n        /* \"#utility.yul\":7032:7038   */\n      dup3\n        /* \"#utility.yul\":7010:7039   */\n      tag_229\n      jump\t// in\n    tag_359:\n        /* \"#utility.yul\":7002:7039   */\n      swap1\n      pop\n        /* \"#utility.yul\":7094:7098   */\n      0x20\n        /* \"#utility.yul\":7088:7092   */\n      dup2\n        /* \"#utility.yul\":7084:7099   */\n      add\n        /* \"#utility.yul\":7076:7099   */\n      swap1\n      pop\n        /* \"#utility.yul\":6799:7106   */\n      swap2\n      swap1\n      pop\n      jump\t// out\n        /* \"#utility.yul\":7112:7258   */\n    tag_247:\n        /* \"#utility.yul\":7209:7215   */\n      dup3\n        /* \"#utility.yul\":7204:7207   */\n      dup2\n        /* \"#utility.yul\":7199:7202   */\n      dup4\n        /* \"#utility.yul\":7186:7216   */\n      calldatacopy\n        /* \"#utility.yul\":7250:7251   */\n      0x00\n        /* \"#utility.yul\":7241:7247   */\n      dup4\n        /* \"#utility.yul\":7236:7239   */\n      dup4\n        /* \"#utility.yul\":7232:7248   */\n      add\n        /* \"#utility.yul\":7225:7252   */\n      mstore\n        /* \"#utility.yul\":7112:7258   */\n      pop\n      pop\n      pop\n      jump\t// out\n        /* \"#utility.yul\":7264:7687   */\n    tag_248:\n        /* \"#utility.yul\":7341:7346   */\n      0x00\n        /* \"#utility.yul\":7366:7431   */\n      tag_362\n        /* \"#utility.yul\":7382:7430   */\n      tag_363\n        /* \"#utility.yul\":7423:7429   */\n      dup5\n        /* \"#utility.yul\":7382:7430   */\n      tag_246\n      jump\t// in\n    tag_363:\n        /* \"#utility.yul\":7366:7431   */\n      tag_245\n      jump\t// in\n    tag_362:\n        /* \"#utility.yul\":7357:7431   */\n      swap1\n      pop\n        /* \"#utility.yul\":7454:7460   */\n      dup3\n        /* \"#utility.yul\":7447:7452   */\n      dup2\n        /* \"#utility.yul\":7440:7461   */\n      mstore\n        /* \"#utility.yul\":7492:7496   */\n      0x20\n        /* \"#utility.yul\":7485:7490   */\n      dup2\n        /* \"#utility.yul\":7481:7497   */\n      add\n        /* \"#utility.yul\":7530:7533   */\n      dup5\n        /* \"#utility.yul\":7521:7527   */\n      dup5\n        /* \"#utility.yul\":7516:7519   */\n      dup5\n        /* \"#utility.yul\":7512:7528   */\n      add\n        /* \"#utility.yul\":7509:7534   */\n      gt\n        /* \"#utility.yul\":7506:7618   */\n      iszero\n      tag_364\n      jumpi\n        /* \"#utility.yul\":7537:7616   */\n      tag_365\n      tag_242\n      jump\t// in\n    tag_365:\n        /* \"#utility.yul\":7506:7618   */\n    tag_364:\n        /* \"#utility.yul\":7627:7681   */\n      tag_366\n        /* \"#utility.yul\":7674:7680   */\n      dup5\n        /* \"#utility.yul\":7669:7672   */\n      dup3\n        /* \"#utility.yul\":7664:7667   */\n      dup6\n        /* \"#utility.yul\":7627:7681   */\n      tag_247\n      jump\t// in\n    tag_366:\n        /* \"#utility.yul\":7347:7687   */\n      pop\n        /* \"#utility.yul\":7264:7687   */\n      swap4\n      swap3\n      pop\n      pop\n      pop\n      jump\t// out\n        /* \"#utility.yul\":7706:8044   */\n    tag_249:\n        /* \"#utility.yul\":7761:7766   */\n      0x00\n        /* \"#utility.yul\":7810:7813   */\n      dup3\n        /* \"#utility.yul\":7803:7807   */\n      0x1f\n        /* \"#utility.yul\":7795:7801   */\n      dup4\n        /* \"#utility.yul\":7791:7808   */\n      add\n        /* \"#utility.yul\":7787:7814   */\n      slt\n        /* \"#utility.yul\":7777:7899   */\n      tag_368\n      jumpi\n        /* \"#utility.yul\":7818:7897   */\n      tag_369\n      tag_241\n      jump\t// in\n    tag_369:\n        /* \"#utility.yul\":7777:7899   */\n    tag_368:\n        /* \"#utility.yul\":7935:7941   */\n      dup2\n        /* \"#utility.yul\":7922:7942   */\n      calldataload\n        /* \"#utility.yul\":7960:8038   */\n      tag_370\n        /* \"#utility.yul\":8034:8037   */\n      dup5\n        /* \"#utility.yul\":8026:8032   */\n      dup3\n        /* \"#utility.yul\":8019:8023   */\n      0x20\n        /* \"#utility.yul\":8011:8017   */\n      dup7\n        /* \"#utility.yul\":8007:8024   */\n      add\n        /* \"#utility.yul\":7960:8038   */\n      tag_248\n      jump\t// in\n    tag_370:\n        /* \"#utility.yul\":7951:8038   */\n      swap2\n      pop\n        /* \"#utility.yul\":7767:8044   */\n      pop\n        /* \"#utility.yul\":7706:8044   */\n      swap3\n      swap2\n      pop\n      pop\n      jump\t// out\n        /* \"#utility.yul\":8050:8993   */\n    tag_78:\n        /* \"#utility.yul\":8145:8151   */\n      0x00\n        /* \"#utility.yul\":8153:8159   */\n      dup1\n        /* \"#utility.yul\":8161:8167   */\n      0x00\n        /* \"#utility.yul\":8169:8175   */\n      dup1\n        /* \"#utility.yul\":8218:8221   */\n      0x80\n        /* \"#utility.yul\":8206:8215   */\n      dup6\n        /* \"#utility.yul\":8197:8204   */\n      dup8\n        /* \"#utility.yul\":8193:8216   */\n      sub\n        /* \"#utility.yul\":8189:8222   */\n      slt\n        /* \"#utility.yul\":8186:8306   */\n      iszero\n      tag_372\n      jumpi\n        /* \"#utility.yul\":8225:8304   */\n      tag_373\n      tag_219\n      jump\t// in\n    tag_373:\n        /* \"#utility.yul\":8186:8306   */\n    tag_372:\n        /* \"#utility.yul\":8345:8346   */\n      0x00\n        /* \"#utility.yul\":8370:8423   */\n      tag_374\n        /* \"#utility.yul\":8415:8422   */\n      dup8\n        /* \"#utility.yul\":8406:8412   */\n      dup3\n        /* \"#utility.yul\":8395:8404   */\n      dup9\n        /* \"#utility.yul\":8391:8413   */\n      add\n        /* \"#utility.yul\":8370:8423   */\n      tag_234\n      jump\t// in\n    tag_374:\n        /* \"#utility.yul\":8360:8423   */\n      swap5\n      pop\n        /* \"#utility.yul\":8316:8433   */\n      pop\n        /* \"#utility.yul\":8472:8474   */\n      0x20\n        /* \"#utility.yul\":8498:8551   */\n      tag_375\n        /* \"#utility.yul\":8543:8550   */\n      dup8\n        /* \"#utility.yul\":8534:8540   */\n      dup3\n        /* \"#utility.yul\":8523:8532   */\n      dup9\n        /* \"#utility.yul\":8519:8541   */\n      add\n        /* \"#utility.yul\":8498:8551   */\n      tag_234\n      jump\t// in\n    tag_375:\n        /* \"#utility.yul\":8488:8551   */\n      swap4\n      pop\n        /* \"#utility.yul\":8443:8561   */\n      pop\n        /* \"#utility.yul\":8600:8602   */\n      0x40\n        /* \"#utility.yul\":8626:8679   */\n      tag_376\n        /* \"#utility.yul\":8671:8678   */\n      dup8\n        /* \"#utility.yul\":8662:8668   */\n      dup3\n        /* \"#utility.yul\":8651:8660   */\n      dup9\n        /* \"#utility.yul\":8647:8669   */\n      add\n        /* \"#utility.yul\":8626:8679   */\n      tag_237\n      jump\t// in\n    tag_376:\n        /* \"#utility.yul\":8616:8679   */\n      swap3\n      pop\n        /* \"#utility.yul\":8571:8689   */\n      pop\n        /* \"#utility.yul\":8756:8758   */\n      0x60\n        /* \"#utility.yul\":8745:8754   */\n      dup6\n        /* \"#utility.yul\":8741:8759   */\n      add\n        /* \"#utility.yul\":8728:8760   */\n      calldataload\n        /* \"#utility.yul\":8787:8805   */\n      0xffffffffffffffff\n        /* \"#utility.yul\":8779:8785   */\n      dup2\n        /* \"#utility.yul\":8776:8806   */\n      gt\n        /* \"#utility.yul\":8773:8890   */\n      iszero\n      tag_377\n      jumpi\n        /* \"#utility.yul\":8809:8888   */\n      tag_378\n      tag_220\n      jump\t// in\n    tag_378:\n        /* \"#utility.yul\":8773:8890   */\n    tag_377:\n        /* \"#utility.yul\":8914:8976   */\n      tag_379\n        /* \"#utility.yul\":8968:8975   */\n      dup8\n        /* \"#utility.yul\":8959:8965   */\n      dup3\n        /* \"#utility.yul\":8948:8957   */\n      dup9\n        /* \"#utility.yul\":8944:8966   */\n      add\n        /* \"#utility.yul\":8914:8976   */\n      tag_249\n      jump\t// in\n    tag_379:\n        /* \"#utility.yul\":8904:8976   */\n      swap2\n      pop\n        /* \"#utility.yul\":8699:8986   */\n      pop\n        /* \"#utility.yul\":8050:8993   */\n      swap3\n      swap6\n      swap2\n      swap5\n      pop\n      swap3\n      pop\n      jump\t// out\n        /* \"#utility.yul\":8999:9473   */\n    tag_82:\n        /* \"#utility.yul\":9067:9073   */\n      0x00\n        /* \"#utility.yul\":9075:9081   */\n      dup1\n        /* \"#utility.yul\":9124:9126   */\n      0x40\n        /* \"#utility.yul\":9112:9121   */\n      dup4\n        /* \"#utility.yul\":9103:9110   */\n      dup6\n        /* \"#utility.yul\":9099:9122   */\n      sub\n        /* \"#utility.yul\":9095:9127   */\n      slt\n        /* \"#utility.yul\":9092:9211   */\n      iszero\n      tag_381\n      jumpi\n        /* \"#utility.yul\":9130:9209   */\n      tag_382\n      tag_219\n      jump\t// in\n    tag_382:\n        /* \"#utility.yul\":9092:9211   */\n    tag_381:\n        /* \"#utility.yul\":9250:9251   */\n      0x00\n        /* \"#utility.yul\":9275:9328   */\n      tag_383\n        /* \"#utility.yul\":9320:9327   */\n      dup6\n        /* \"#utility.yul\":9311:9317   */\n      dup3\n        /* \"#utility.yul\":9300:9309   */\n      dup7\n        /* \"#utility.yul\":9296:9318   */\n      add\n        /* \"#utility.yul\":9275:9328   */\n      tag_234\n      jump\t// in\n    tag_383:\n        /* \"#utility.yul\":9265:9328   */\n      swap3\n      pop\n        /* \"#utility.yul\":9221:9338   */\n      pop\n        /* \"#utility.yul\":9377:9379   */\n      0x20\n        /* \"#utility.yul\":9403:9456   */\n      tag_384\n        /* \"#utility.yul\":9448:9455   */\n      dup6\n        /* \"#utility.yul\":9439:9445   */\n      dup3\n        /* \"#utility.yul\":9428:9437   */\n      dup7\n        /* \"#utility.yul\":9424:9446   */\n      add\n        /* \"#utility.yul\":9403:9456   */\n      tag_234\n      jump\t// in\n    tag_384:\n        /* \"#utility.yul\":9393:9456   */\n      swap2\n      pop\n        /* \"#utility.yul\":9348:9466   */\n      pop\n        /* \"#utility.yul\":8999:9473   */\n      swap3\n      pop\n      swap3\n      swap1\n      pop\n      jump\t// out\n        /* \"#utility.yul\":9479:10276   */\n    tag_87:\n        /* \"#utility.yul\":9565:9571   */\n      0x00\n        /* \"#utility.yul\":9573:9579   */\n      dup1\n        /* \"#utility.yul\":9581:9587   */\n      0x00\n        /* \"#utility.yul\":9630:9632   */\n      0x60\n        /* \"#utility.yul\":9618:9627   */\n      dup5\n        /* \"#utility.yul\":9609:9616   */\n      dup7\n        /* \"#utility.yul\":9605:9628   */\n      sub\n        /* \"#utility.yul\":9601:9633   */\n      slt\n        /* \"#utility.yul\":9598:9717   */\n      iszero\n      tag_386\n      jumpi\n        /* \"#utility.yul\":9636:9715   */\n      tag_387\n      tag_219\n      jump\t// in\n    tag_387:\n        /* \"#utility.yul\":9598:9717   */\n    tag_386:\n        /* \"#utility.yul\":9756:9757   */\n      0x00\n        /* \"#utility.yul\":9781:9834   */\n      tag_388\n        /* \"#utility.yul\":9826:9833   */\n      dup7\n        /* \"#utility.yul\":9817:9823   */\n      dup3\n        /* \"#utility.yul\":9806:9815   */\n      dup8\n        /* \"#utility.yul\":9802:9824   */\n      add\n        /* \"#utility.yul\":9781:9834   */\n      tag_234\n      jump\t// in\n    tag_388:\n        /* \"#utility.yul\":9771:9834   */\n      swap4\n      pop\n        /* \"#utility.yul\":9727:9844   */\n      pop\n        /* \"#utility.yul\":9883:9885   */\n      0x20\n        /* \"#utility.yul\":9909:9962   */\n      tag_389\n        /* \"#utility.yul\":9954:9961   */\n      dup7\n        /* \"#utility.yul\":9945:9951   */\n      dup3\n        /* \"#utility.yul\":9934:9943   */\n      dup8\n        /* \"#utility.yul\":9930:9952   */\n      add\n        /* \"#utility.yul\":9909:9962   */\n      tag_237\n      jump\t// in\n    tag_389:\n        /* \"#utility.yul\":9899:9962   */\n      swap3\n      pop\n        /* \"#utility.yul\":9854:9972   */\n      pop\n        /* \"#utility.yul\":10039:10041   */\n      0x40\n        /* \"#utility.yul\":10028:10037   */\n      dup5\n        /* \"#utility.yul\":10024:10042   */\n      add\n        /* \"#utility.yul\":10011:10043   */\n      calldataload\n        /* \"#utility.yul\":10070:10088   */\n      0xffffffffffffffff\n        /* \"#utility.yul\":10062:10068   */\n      dup2\n        /* \"#utility.yul\":10059:10089   */\n      gt\n        /* \"#utility.yul\":10056:10173   */\n      iszero\n      tag_390\n      jumpi\n        /* \"#utility.yul\":10092:10171   */\n      tag_391\n      tag_220\n      jump\t// in\n    tag_391:\n        /* \"#utility.yul\":10056:10173   */\n    tag_390:\n        /* \"#utility.yul\":10197:10259   */\n      tag_392\n        /* \"#utility.yul\":10251:10258   */\n      dup7\n        /* \"#utility.yul\":10242:10248   */\n      dup3\n        /* \"#utility.yul\":10231:10240   */\n      dup8\n        /* \"#utility.yul\":10227:10249   */\n      add\n        /* \"#utility.yul\":10197:10259   */\n      tag_249\n      jump\t// in\n    tag_392:\n        /* \"#utility.yul\":10187:10259   */\n      swap2\n      pop\n        /* \"#utility.yul\":9982:10269   */\n      pop\n        /* \"#utility.yul\":9479:10276   */\n      swap3\n      pop\n      swap3\n      pop\n      swap3\n      jump\t// out\n        /* \"#utility.yul\":10282:10462   */\n    tag_250:\n        /* \"#utility.yul\":10330:10407   */\n      0x4e487b7100000000000000000000000000000000000000000000000000000000\n        /* \"#utility.yul\":10327:10328   */\n      0x00\n        /* \"#utility.yul\":10320:10408   */\n      mstore\n        /* \"#utility.yul\":10427:10431   */\n      0x22\n        /* \"#utility.yul\":10424:10425   */\n      0x04\n        /* \"#utility.yul\":10417:10432   */\n      mstore\n        /* \"#utility.yul\":10451:10455   */\n      0x24\n        /* \"#utility.yul\":10448:10449   */\n      0x00\n        /* \"#utility.yul\":10441:10456   */\n      revert\n        /* \"#utility.yul\":10468:10788   */\n    tag_96:\n        /* \"#utility.yul\":10512:10518   */\n      0x00\n        /* \"#utility.yul\":10549:10550   */\n      0x02\n        /* \"#utility.yul\":10543:10547   */\n      dup3\n        /* \"#utility.yul\":10539:10551   */\n      div\n        /* \"#utility.yul\":10529:10551   */\n      swap1\n      pop\n        /* \"#utility.yul\":10596:10597   */\n      0x01\n        /* \"#utility.yul\":10590:10594   */\n      dup3\n        /* \"#utility.yul\":10586:10598   */\n      and\n        /* \"#utility.yul\":10617:10635   */\n      dup1\n        /* \"#utility.yul\":10607:10688   */\n      tag_395\n      jumpi\n        /* \"#utility.yul\":10673:10677   */\n      0x7f\n        /* \"#utility.yul\":10665:10671   */\n      dup3\n        /* \"#utility.yul\":10661:10678   */\n      and\n        /* \"#utility.yul\":10651:10678   */\n      swap2\n      pop\n        /* \"#utility.yul\":10607:10688   */\n    tag_395:\n        /* \"#utility.yul\":10735:10737   */\n      0x20\n        /* \"#utility.yul\":10727:10733   */\n      dup3\n        /* \"#utility.yul\":10724:10738   */\n      lt\n        /* \"#utility.yul\":10704:10722   */\n      dup2\n        /* \"#utility.yul\":10701:10739   */\n      sub\n        /* \"#utility.yul\":10698:10782   */\n      tag_396\n      jumpi\n        /* \"#utility.yul\":10754:10772   */\n      tag_397\n      tag_250\n      jump\t// in\n    tag_397:\n        /* \"#utility.yul\":10698:10782   */\n    tag_396:\n        /* \"#utility.yul\":10519:10788   */\n      pop\n        /* \"#utility.yul\":10468:10788   */\n      swap2\n      swap1\n      pop\n      jump\t// out\n        /* \"#utility.yul\":10794:10974   */\n    tag_251:\n        /* \"#utility.yul\":10842:10919   */\n      0x4e487b7100000000000000000000000000000000000000000000000000000000\n        /* \"#utility.yul\":10839:10840   */\n      0x00\n        /* \"#utility.yul\":10832:10920   */\n      mstore\n        /* \"#utility.yul\":10939:10943   */\n      0x11\n        /* \"#utility.yul\":10936:10937   */\n      0x04\n        /* \"#utility.yul\":10929:10944   */\n      mstore\n        /* \"#utility.yul\":10963:10967   */\n      0x24\n        /* \"#utility.yul\":10960:10961   */\n      0x00\n        /* \"#utility.yul\":10953:10968   */\n      revert\n        /* \"#utility.yul\":10980:11171   */\n    tag_119:\n        /* \"#utility.yul\":11020:11023   */\n      0x00\n        /* \"#utility.yul\":11039:11059   */\n      tag_400\n        /* \"#utility.yul\":11057:11058   */\n      dup3\n        /* \"#utility.yul\":11039:11059   */\n      tag_235\n      jump\t// in\n    tag_400:\n        /* \"#utility.yul\":11034:11059   */\n      swap2\n      pop\n        /* \"#utility.yul\":11073:11093   */\n      tag_401\n        /* \"#utility.yul\":11091:11092   */\n      dup4\n        /* \"#utility.yul\":11073:11093   */\n      tag_235\n      jump\t// in\n    tag_401:\n        /* \"#utility.yul\":11068:11093   */\n      swap3\n      pop\n        /* \"#utility.yul\":11116:11117   */\n      dup3\n        /* \"#utility.yul\":11113:11114   */\n      dup3\n        /* \"#utility.yul\":11109:11118   */\n      add\n        /* \"#utility.yul\":11102:11118   */\n      swap1\n      pop\n        /* \"#utility.yul\":11137:11140   */\n      dup1\n        /* \"#utility.yul\":11134:11135   */\n      dup3\n        /* \"#utility.yul\":11131:11141   */\n      gt\n        /* \"#utility.yul\":11128:11164   */\n      iszero\n      tag_402\n      jumpi\n        /* \"#utility.yul\":11144:11162   */\n      tag_403\n      tag_251\n      jump\t// in\n    tag_403:\n        /* \"#utility.yul\":11128:11164   */\n    tag_402:\n        /* \"#utility.yul\":10980:11171   */\n      swap3\n      swap2\n      pop\n      pop\n      jump\t// out\n        /* \"#utility.yul\":11177:11400   */\n    tag_252:\n        /* \"#utility.yul\":11317:11351   */\n      0x4b4950373a2064656372656173656420616c6c6f77616e63652062656c6f7720\n        /* \"#utility.yul\":11313:11314   */\n      0x00\n        /* \"#utility.yul\":11305:11311   */\n      dup3\n        /* \"#utility.yul\":11301:11315   */\n      add\n        /* \"#utility.yul\":11294:11352   */\n      mstore\n        /* \"#utility.yul\":11386:11392   */\n      0x7a65726f00000000000000000000000000000000000000000000000000000000\n        /* \"#utility.yul\":11381:11383   */\n      0x20\n        /* \"#utility.yul\":11373:11379   */\n      dup3\n        /* \"#utility.yul\":11369:11384   */\n      add\n        /* \"#utility.yul\":11362:11393   */\n      mstore\n        /* \"#utility.yul\":11177:11400   */\n      pop\n      jump\t// out\n        /* \"#utility.yul\":11406:11772   */\n    tag_253:\n        /* \"#utility.yul\":11548:11551   */\n      0x00\n        /* \"#utility.yul\":11569:11636   */\n      tag_406\n        /* \"#utility.yul\":11633:11635   */\n      0x24\n        /* \"#utility.yul\":11628:11631   */\n      dup4\n        /* \"#utility.yul\":11569:11636   */\n      tag_227\n      jump\t// in\n    tag_406:\n        /* \"#utility.yul\":11562:11636   */\n      swap2\n      pop\n        /* \"#utility.yul\":11645:11738   */\n      tag_407\n        /* \"#utility.yul\":11734:11737   */\n      dup3\n        /* \"#utility.yul\":11645:11738   */\n      tag_252\n      jump\t// in\n    tag_407:\n        /* \"#utility.yul\":11763:11765   */\n      0x40\n        /* \"#utility.yul\":11758:11761   */\n      dup3\n        /* \"#utility.yul\":11754:11766   */\n      add\n        /* \"#utility.yul\":11747:11766   */\n      swap1\n      pop\n        /* \"#utility.yul\":11406:11772   */\n      swap2\n      swap1\n      pop\n      jump\t// out\n        /* \"#utility.yul\":11778:12197   */\n    tag_140:\n        /* \"#utility.yul\":11944:11948   */\n      0x00\n        /* \"#utility.yul\":11982:11984   */\n      0x20\n        /* \"#utility.yul\":11971:11980   */\n      dup3\n        /* \"#utility.yul\":11967:11985   */\n      add\n        /* \"#utility.yul\":11959:11985   */\n      swap1\n      pop\n        /* \"#utility.yul\":12031:12040   */\n      dup2\n        /* \"#utility.yul\":12025:12029   */\n      dup2\n        /* \"#utility.yul\":12021:12041   */\n      sub\n        /* \"#utility.yul\":12017:12018   */\n      0x00\n        /* \"#utility.yul\":12006:12015   */\n      dup4\n        /* \"#utility.yul\":12002:12019   */\n      add\n        /* \"#utility.yul\":11995:12042   */\n      mstore\n        /* \"#utility.yul\":12059:12190   */\n      tag_409\n        /* \"#utility.yul\":12185:12189   */\n      dup2\n        /* \"#utility.yul\":12059:12190   */\n      tag_253\n      jump\t// in\n    tag_409:\n        /* \"#utility.yul\":12051:12190   */\n      swap1\n      pop\n        /* \"#utility.yul\":11778:12197   */\n      swap2\n      swap1\n      pop\n      jump\t// out\n        /* \"#utility.yul\":12203:12425   */\n    tag_254:\n        /* \"#utility.yul\":12343:12377   */\n      0x4b4950373a20617070726f76652066726f6d20746865207a65726f2061646472\n        /* \"#utility.yul\":12339:12340   */\n      0x00\n        /* \"#utility.yul\":12331:12337   */\n      dup3\n        /* \"#utility.yul\":12327:12341   */\n      add\n        /* \"#utility.yul\":12320:12378   */\n      mstore\n        /* \"#utility.yul\":12412:12417   */\n      0x6573730000000000000000000000000000000000000000000000000000000000\n        /* \"#utility.yul\":12407:12409   */\n      0x20\n        /* \"#utility.yul\":12399:12405   */\n      dup3\n        /* \"#utility.yul\":12395:12410   */\n      add\n        /* \"#utility.yul\":12388:12418   */\n      mstore\n        /* \"#utility.yul\":12203:12425   */\n      pop\n      jump\t// out\n        /* \"#utility.yul\":12431:12797   */\n    tag_255:\n        /* \"#utility.yul\":12573:12576   */\n      0x00\n        /* \"#utility.yul\":12594:12661   */\n      tag_412\n        /* \"#utility.yul\":12658:12660   */\n      0x23\n        /* \"#utility.yul\":12653:12656   */\n      dup4\n        /* \"#utility.yul\":12594:12661   */\n      tag_227\n      jump\t// in\n    tag_412:\n        /* \"#utility.yul\":12587:12661   */\n      swap2\n      pop\n        /* \"#utility.yul\":12670:12763   */\n      tag_413\n        /* \"#utility.yul\":12759:12762   */\n      dup3\n        /* \"#utility.yul\":12670:12763   */\n      tag_254\n      jump\t// in\n    tag_413:\n        /* \"#utility.yul\":12788:12790   */\n      0x40\n        /* \"#utility.yul\":12783:12786   */\n      dup3\n        /* \"#utility.yul\":12779:12791   */\n      add\n        /* \"#utility.yul\":12772:12791   */\n      swap1\n      pop\n        /* \"#utility.yul\":12431:12797   */\n      swap2\n      swap1\n      pop\n      jump\t// out\n        /* \"#utility.yul\":12803:13222   */\n    tag_158:\n        /* \"#utility.yul\":12969:12973   */\n      0x00\n        /* \"#utility.yul\":13007:13009   */\n      0x20\n        /* \"#utility.yul\":12996:13005   */\n      dup3\n        /* \"#utility.yul\":12992:13010   */\n      add\n        /* \"#utility.yul\":12984:13010   */\n      swap1\n      pop\n        /* \"#utility.yul\":13056:13065   */\n      dup2\n        /* \"#utility.yul\":13050:13054   */\n      dup2\n        /* \"#utility.yul\":13046:13066   */\n      sub\n        /* \"#utility.yul\":13042:13043   */\n      0x00\n        /* \"#utility.yul\":13031:13040   */\n      dup4\n        /* \"#utility.yul\":13027:13044   */\n      add\n        /* \"#utility.yul\":13020:13067   */\n      mstore\n        /* \"#utility.yul\":13084:13215   */\n      tag_415\n        /* \"#utility.yul\":13210:13214   */\n      dup2\n        /* \"#utility.yul\":13084:13215   */\n      tag_255\n      jump\t// in\n    tag_415:\n        /* \"#utility.yul\":13076:13215   */\n      swap1\n      pop\n        /* \"#utility.yul\":12803:13222   */\n      swap2\n      swap1\n      pop\n      jump\t// out\n        /* \"#utility.yul\":13228:13448   */\n    tag_256:\n        /* \"#utility.yul\":13368:13402   */\n      0x4b4950373a20617070726f766520746f20746865207a65726f20616464726573\n        /* \"#utility.yul\":13364:13365   */\n      0x00\n        /* \"#utility.yul\":13356:13362   */\n      dup3\n        /* \"#utility.yul\":13352:13366   */\n      add\n        /* \"#utility.yul\":13345:13403   */\n      mstore\n        /* \"#utility.yul\":13437:13440   */\n      0x7300000000000000000000000000000000000000000000000000000000000000\n        /* \"#utility.yul\":13432:13434   */\n      0x20\n        /* \"#utility.yul\":13424:13430   */\n      dup3\n        /* \"#utility.yul\":13420:13435   */\n      add\n        /* \"#utility.yul\":13413:13441   */\n      mstore\n        /* \"#utility.yul\":13228:13448   */\n      pop\n      jump\t// out\n        /* \"#utility.yul\":13454:13820   */\n    tag_257:\n        /* \"#utility.yul\":13596:13599   */\n      0x00\n        /* \"#utility.yul\":13617:13684   */\n      tag_418\n        /* \"#utility.yul\":13681:13683   */\n      0x21\n        /* \"#utility.yul\":13676:13679   */\n      dup4\n        /* \"#utility.yul\":13617:13684   */\n      tag_227\n      jump\t// in\n    tag_418:\n        /* \"#utility.yul\":13610:13684   */\n      swap2\n      pop\n        /* \"#utility.yul\":13693:13786   */\n      tag_419\n        /* \"#utility.yul\":13782:13785   */\n      dup3\n        /* \"#utility.yul\":13693:13786   */\n      tag_256\n      jump\t// in\n    tag_419:\n        /* \"#utility.yul\":13811:13813   */\n      0x40\n        /* \"#utility.yul\":13806:13809   */\n      dup3\n        /* \"#utility.yul\":13802:13814   */\n      add\n        /* \"#utility.yul\":13795:13814   */\n      swap1\n      pop\n        /* \"#utility.yul\":13454:13820   */\n      swap2\n      swap1\n      pop\n      jump\t// out\n        /* \"#utility.yul\":13826:14245   */\n    tag_161:\n        /* \"#utility.yul\":13992:13996   */\n      0x00\n        /* \"#utility.yul\":14030:14032   */\n      0x20\n        /* \"#utility.yul\":14019:14028   */\n      dup3\n        /* \"#utility.yul\":14015:14033   */\n      add\n        /* \"#utility.yul\":14007:14033   */\n      swap1\n      pop\n        /* \"#utility.yul\":14079:14088   */\n      dup2\n        /* \"#utility.yul\":14073:14077   */\n      dup2\n        /* \"#utility.yul\":14069:14089   */\n      sub\n        /* \"#utility.yul\":14065:14066   */\n      0x00\n        /* \"#utility.yul\":14054:14063   */\n      dup4\n        /* \"#utility.yul\":14050:14067   */\n      add\n        /* \"#utility.yul\":14043:14090   */\n      mstore\n        /* \"#utility.yul\":14107:14238   */\n      tag_421\n        /* \"#utility.yul\":14233:14237   */\n      dup2\n        /* \"#utility.yul\":14107:14238   */\n      tag_257\n      jump\t// in\n    tag_421:\n        /* \"#utility.yul\":14099:14238   */\n      swap1\n      pop\n        /* \"#utility.yul\":13826:14245   */\n      swap2\n      swap1\n      pop\n      jump\t// out\n        /* \"#utility.yul\":14251:14429   */\n    tag_258:\n        /* \"#utility.yul\":14391:14421   */\n      0x4b4950373a20696e73756666696369656e7420616c6c6f77616e636500000000\n        /* \"#utility.yul\":14387:14388   */\n      0x00\n        /* \"#utility.yul\":14379:14385   */\n      dup3\n        /* \"#utility.yul\":14375:14389   */\n      add\n        /* \"#utility.yul\":14368:14422   */\n      mstore\n        /* \"#utility.yul\":14251:14429   */\n      pop\n      jump\t// out\n        /* \"#utility.yul\":14435:14801   */\n    tag_259:\n        /* \"#utility.yul\":14577:14580   */\n      0x00\n        /* \"#utility.yul\":14598:14665   */\n      tag_424\n        /* \"#utility.yul\":14662:14664   */\n      0x1c\n        /* \"#utility.yul\":14657:14660   */\n      dup4\n        /* \"#utility.yul\":14598:14665   */\n      tag_227\n      jump\t// in\n    tag_424:\n        /* \"#utility.yul\":14591:14665   */\n      swap2\n      pop\n        /* \"#utility.yul\":14674:14767   */\n      tag_425\n        /* \"#utility.yul\":14763:14766   */\n      dup3\n        /* \"#utility.yul\":14674:14767   */\n      tag_258\n      jump\t// in\n    tag_425:\n        /* \"#utility.yul\":14792:14794   */\n      0x20\n        /* \"#utility.yul\":14787:14790   */\n      dup3\n        /* \"#utility.yul\":14783:14795   */\n      add\n        /* \"#utility.yul\":14776:14795   */\n      swap1\n      pop\n        /* \"#utility.yul\":14435:14801   */\n      swap2\n      swap1\n      pop\n      jump\t// out\n        /* \"#utility.yul\":14807:15226   */\n    tag_168:\n        /* \"#utility.yul\":14973:14977   */\n      0x00\n        /* \"#utility.yul\":15011:15013   */\n      0x20\n        /* \"#utility.yul\":15000:15009   */\n      dup3\n        /* \"#utility.yul\":14996:15014   */\n      add\n        /* \"#utility.yul\":14988:15014   */\n      swap1\n      pop\n        /* \"#utility.yul\":15060:15069   */\n      dup2\n        /* \"#utility.yul\":15054:15058   */\n      dup2\n        /* \"#utility.yul\":15050:15070   */\n      sub\n        /* \"#utility.yul\":15046:15047   */\n      0x00\n        /* \"#utility.yul\":15035:15044   */\n      dup4\n        /* \"#utility.yul\":15031:15048   */\n      add\n        /* \"#utility.yul\":15024:15071   */\n      mstore\n        /* \"#utility.yul\":15088:15219   */\n      tag_427\n        /* \"#utility.yul\":15214:15218   */\n      dup2\n        /* \"#utility.yul\":15088:15219   */\n      tag_259\n      jump\t// in\n    tag_427:\n        /* \"#utility.yul\":15080:15219   */\n      swap1\n      pop\n        /* \"#utility.yul\":14807:15226   */\n      swap2\n      swap1\n      pop\n      jump\t// out\n        /* \"#utility.yul\":15232:15455   */\n    tag_260:\n        /* \"#utility.yul\":15372:15406   */\n      0x4b4950373a207472616e736665722066726f6d20746865207a65726f20616464\n        /* \"#utility.yul\":15368:15369   */\n      0x00\n        /* \"#utility.yul\":15360:15366   */\n      dup3\n        /* \"#utility.yul\":15356:15370   */\n      add\n        /* \"#utility.yul\":15349:15407   */\n      mstore\n        /* \"#utility.yul\":15441:15447   */\n      0x7265737300000000000000000000000000000000000000000000000000000000\n        /* \"#utility.yul\":15436:15438   */\n      0x20\n        /* \"#utility.yul\":15428:15434   */\n      dup3\n        /* \"#utility.yul\":15424:15439   */\n      add\n        /* \"#utility.yul\":15417:15448   */\n      mstore\n        /* \"#utility.yul\":15232:15455   */\n      pop\n      jump\t// out\n        /* \"#utility.yul\":15461:15827   */\n    tag_261:\n        /* \"#utility.yul\":15603:15606   */\n      0x00\n        /* \"#utility.yul\":15624:15691   */\n      tag_430\n        /* \"#utility.yul\":15688:15690   */\n      0x24\n        /* \"#utility.yul\":15683:15686   */\n      dup4\n        /* \"#utility.yul\":15624:15691   */\n      tag_227\n      jump\t// in\n    tag_430:\n        /* \"#utility.yul\":15617:15691   */\n      swap2\n      pop\n        /* \"#utility.yul\":15700:15793   */\n      tag_431\n        /* \"#utility.yul\":15789:15792   */\n      dup3\n        /* \"#utility.yul\":15700:15793   */\n      tag_260\n      jump\t// in\n    tag_431:\n        /* \"#utility.yul\":15818:15820   */\n      0x40\n        /* \"#utility.yul\":15813:15816   */\n      dup3\n        /* \"#utility.yul\":15809:15821   */\n      add\n        /* \"#utility.yul\":15802:15821   */\n      swap1\n      pop\n        /* \"#utility.yul\":15461:15827   */\n      swap2\n      swap1\n      pop\n      jump\t// out\n        /* \"#utility.yul\":15833:16252   */\n    tag_173:\n        /* \"#utility.yul\":15999:16003   */\n      0x00\n        /* \"#utility.yul\":16037:16039   */\n      0x20\n        /* \"#utility.yul\":16026:16035   */\n      dup3\n        /* \"#utility.yul\":16022:16040   */\n      add\n        /* \"#utility.yul\":16014:16040   */\n      swap1\n      pop\n        /* \"#utility.yul\":16086:16095   */\n      dup2\n        /* \"#utility.yul\":16080:16084   */\n      dup2\n        /* \"#utility.yul\":16076:16096   */\n      sub\n        /* \"#utility.yul\":16072:16073   */\n      0x00\n        /* \"#utility.yul\":16061:16070   */\n      dup4\n        /* \"#utility.yul\":16057:16074   */\n      add\n        /* \"#utility.yul\":16050:16097   */\n      mstore\n        /* \"#utility.yul\":16114:16245   */\n      tag_433\n        /* \"#utility.yul\":16240:16244   */\n      dup2\n        /* \"#utility.yul\":16114:16245   */\n      tag_261\n      jump\t// in\n    tag_433:\n        /* \"#utility.yul\":16106:16245   */\n      swap1\n      pop\n        /* \"#utility.yul\":15833:16252   */\n      swap2\n      swap1\n      pop\n      jump\t// out\n        /* \"#utility.yul\":16258:16479   */\n    tag_262:\n        /* \"#utility.yul\":16398:16432   */\n      0x4b4950373a207472616e7366657220746f20746865207a65726f206164647265\n        /* \"#utility.yul\":16394:16395   */\n      0x00\n        /* \"#utility.yul\":16386:16392   */\n      dup3\n        /* \"#utility.yul\":16382:16396   */\n      add\n        /* \"#utility.yul\":16375:16433   */\n      mstore\n        /* \"#utility.yul\":16467:16471   */\n      0x7373000000000000000000000000000000000000000000000000000000000000\n        /* \"#utility.yul\":16462:16464   */\n      0x20\n        /* \"#utility.yul\":16454:16460   */\n      dup3\n        /* \"#utility.yul\":16450:16465   */\n      add\n        /* \"#utility.yul\":16443:16472   */\n      mstore\n        /* \"#utility.yul\":16258:16479   */\n      pop\n      jump\t// out\n        /* \"#utility.yul\":16485:16851   */\n    tag_263:\n        /* \"#utility.yul\":16627:16630   */\n      0x00\n        /* \"#utility.yul\":16648:16715   */\n      tag_436\n        /* \"#utility.yul\":16712:16714   */\n      0x22\n        /* \"#utility.yul\":16707:16710   */\n      dup4\n        /* \"#utility.yul\":16648:16715   */\n      tag_227\n      jump\t// in\n    tag_436:\n        /* \"#utility.yul\":16641:16715   */\n      swap2\n      pop\n        /* \"#utility.yul\":16724:16817   */\n      tag_437\n        /* \"#utility.yul\":16813:16816   */\n      dup3\n        /* \"#utility.yul\":16724:16817   */\n      tag_262\n      jump\t// in\n    tag_437:\n        /* \"#utility.yul\":16842:16844   */\n      0x40\n        /* \"#utility.yul\":16837:16840   */\n      dup3\n        /* \"#utility.yul\":16833:16845   */\n      add\n        /* \"#utility.yul\":16826:16845   */\n      swap1\n      pop\n        /* \"#utility.yul\":16485:16851   */\n      swap2\n      swap1\n      pop\n      jump\t// out\n        /* \"#utility.yul\":16857:17276   */\n    tag_176:\n        /* \"#utility.yul\":17023:17027   */\n      0x00\n        /* \"#utility.yul\":17061:17063   */\n      0x20\n        /* \"#utility.yul\":17050:17059   */\n      dup3\n        /* \"#utility.yul\":17046:17064   */\n      add\n        /* \"#utility.yul\":17038:17064   */\n      swap1\n      pop\n        /* \"#utility.yul\":17110:17119   */\n      dup2\n        /* \"#utility.yul\":17104:17108   */\n      dup2\n        /* \"#utility.yul\":17100:17120   */\n      sub\n        /* \"#utility.yul\":17096:17097   */\n      0x00\n        /* \"#utility.yul\":17085:17094   */\n      dup4\n        /* \"#utility.yul\":17081:17098   */\n      add\n        /* \"#utility.yul\":17074:17121   */\n      mstore\n        /* \"#utility.yul\":17138:17269   */\n      tag_439\n        /* \"#utility.yul\":17264:17268   */\n      dup2\n        /* \"#utility.yul\":17138:17269   */\n      tag_263\n      jump\t// in\n    tag_439:\n        /* \"#utility.yul\":17130:17269   */\n      swap1\n      pop\n        /* \"#utility.yul\":16857:17276   */\n      swap2\n      swap1\n      pop\n      jump\t// out\n        /* \"#utility.yul\":17282:17506   */\n    tag_264:\n        /* \"#utility.yul\":17422:17456   */\n      0x4b4950373a207472616e7366657220616d6f756e742065786365656473206261\n        /* \"#utility.yul\":17418:17419   */\n      0x00\n        /* \"#utility.yul\":17410:17416   */\n      dup3\n        /* \"#utility.yul\":17406:17420   */\n      add\n        /* \"#utility.yul\":17399:17457   */\n      mstore\n        /* \"#utility.yul\":17491:17498   */\n      0x6c616e6365000000000000000000000000000000000000000000000000000000\n        /* \"#utility.yul\":17486:17488   */\n      0x20\n        /* \"#utility.yul\":17478:17484   */\n      dup3\n        /* \"#utility.yul\":17474:17489   */\n      add\n        /* \"#utility.yul\":17467:17499   */\n      mstore\n        /* \"#utility.yul\":17282:17506   */\n      pop\n      jump\t// out\n        /* \"#utility.yul\":17512:17878   */\n    tag_265:\n        /* \"#utility.yul\":17654:17657   */\n      0x00\n        /* \"#utility.yul\":17675:17742   */\n      tag_442\n        /* \"#utility.yul\":17739:17741   */\n      0x25\n        /* \"#utility.yul\":17734:17737   */\n      dup4\n        /* \"#utility.yul\":17675:17742   */\n      tag_227\n      jump\t// in\n    tag_442:\n        /* \"#utility.yul\":17668:17742   */\n      swap2\n      pop\n        /* \"#utility.yul\":17751:17844   */\n      tag_443\n        /* \"#utility.yul\":17840:17843   */\n      dup3\n        /* \"#utility.yul\":17751:17844   */\n      tag_264\n      jump\t// in\n    tag_443:\n        /* \"#utility.yul\":17869:17871   */\n      0x40\n        /* \"#utility.yul\":17864:17867   */\n      dup3\n        /* \"#utility.yul\":17860:17872   */\n      add\n        /* \"#utility.yul\":17853:17872   */\n      swap1\n      pop\n        /* \"#utility.yul\":17512:17878   */\n      swap2\n      swap1\n      pop\n      jump\t// out\n        /* \"#utility.yul\":17884:18303   */\n    tag_181:\n        /* \"#utility.yul\":18050:18054   */\n      0x00\n        /* \"#utility.yul\":18088:18090   */\n      0x20\n        /* \"#utility.yul\":18077:18086   */\n      dup3\n        /* \"#utility.yul\":18073:18091   */\n      add\n        /* \"#utility.yul\":18065:18091   */\n      swap1\n      pop\n        /* \"#utility.yul\":18137:18146   */\n      dup2\n        /* \"#utility.yul\":18131:18135   */\n      dup2\n        /* \"#utility.yul\":18127:18147   */\n      sub\n        /* \"#utility.yul\":18123:18124   */\n      0x00\n        /* \"#utility.yul\":18112:18121   */\n      dup4\n        /* \"#utility.yul\":18108:18125   */\n      add\n        /* \"#utility.yul\":18101:18148   */\n      mstore\n        /* \"#utility.yul\":18165:18296   */\n      tag_445\n        /* \"#utility.yul\":18291:18295   */\n      dup2\n        /* \"#utility.yul\":18165:18296   */\n      tag_265\n      jump\t// in\n    tag_445:\n        /* \"#utility.yul\":18157:18296   */\n      swap1\n      pop\n        /* \"#utility.yul\":17884:18303   */\n      swap2\n      swap1\n      pop\n      jump\t// out\n        /* \"#utility.yul\":18309:18543   */\n    tag_266:\n        /* \"#utility.yul\":18449:18483   */\n      0x4b4950373a207472616e7366657220746f206e6f6e20494b4950375265636569\n        /* \"#utility.yul\":18445:18446   */\n      0x00\n        /* \"#utility.yul\":18437:18443   */\n      dup3\n        /* \"#utility.yul\":18433:18447   */\n      add\n        /* \"#utility.yul\":18426:18484   */\n      mstore\n        /* \"#utility.yul\":18518:18535   */\n      0x76657220696d706c656d656e7465720000000000000000000000000000000000\n        /* \"#utility.yul\":18513:18515   */\n      0x20\n        /* \"#utility.yul\":18505:18511   */\n      dup3\n        /* \"#utility.yul\":18501:18516   */\n      add\n        /* \"#utility.yul\":18494:18536   */\n      mstore\n        /* \"#utility.yul\":18309:18543   */\n      pop\n      jump\t// out\n        /* \"#utility.yul\":18549:18915   */\n    tag_267:\n        /* \"#utility.yul\":18691:18694   */\n      0x00\n        /* \"#utility.yul\":18712:18779   */\n      tag_448\n        /* \"#utility.yul\":18776:18778   */\n      0x2f\n        /* \"#utility.yul\":18771:18774   */\n      dup4\n        /* \"#utility.yul\":18712:18779   */\n      tag_227\n      jump\t// in\n    tag_448:\n        /* \"#utility.yul\":18705:18779   */\n      swap2\n      pop\n        /* \"#utility.yul\":18788:18881   */\n      tag_449\n        /* \"#utility.yul\":18877:18880   */\n      dup3\n        /* \"#utility.yul\":18788:18881   */\n      tag_266\n      jump\t// in\n    tag_449:\n        /* \"#utility.yul\":18906:18908   */\n      0x40\n        /* \"#utility.yul\":18901:18904   */\n      dup3\n        /* \"#utility.yul\":18897:18909   */\n      add\n        /* \"#utility.yul\":18890:18909   */\n      swap1\n      pop\n        /* \"#utility.yul\":18549:18915   */\n      swap2\n      swap1\n      pop\n      jump\t// out\n        /* \"#utility.yul\":18921:19340   */\n    tag_192:\n        /* \"#utility.yul\":19087:19091   */\n      0x00\n        /* \"#utility.yul\":19125:19127   */\n      0x20\n        /* \"#utility.yul\":19114:19123   */\n      dup3\n        /* \"#utility.yul\":19110:19128   */\n      add\n        /* \"#utility.yul\":19102:19128   */\n      swap1\n      pop\n        /* \"#utility.yul\":19174:19183   */\n      dup2\n        /* \"#utility.yul\":19168:19172   */\n      dup2\n        /* \"#utility.yul\":19164:19184   */\n      sub\n        /* \"#utility.yul\":19160:19161   */\n      0x00\n        /* \"#utility.yul\":19149:19158   */\n      dup4\n        /* \"#utility.yul\":19145:19162   */\n      add\n        /* \"#utility.yul\":19138:19185   */\n      mstore\n        /* \"#utility.yul\":19202:19333   */\n      tag_451\n        /* \"#utility.yul\":19328:19332   */\n      dup2\n        /* \"#utility.yul\":19202:19333   */\n      tag_267\n      jump\t// in\n    tag_451:\n        /* \"#utility.yul\":19194:19333   */\n      swap1\n      pop\n        /* \"#utility.yul\":18921:19340   */\n      swap2\n      swap1\n      pop\n      jump\t// out\n        /* \"#utility.yul\":19346:19464   */\n    tag_268:\n        /* \"#utility.yul\":19433:19457   */\n      tag_453\n        /* \"#utility.yul\":19451:19456   */\n      dup2\n        /* \"#utility.yul\":19433:19457   */\n      tag_232\n      jump\t// in\n    tag_453:\n        /* \"#utility.yul\":19428:19431   */\n      dup3\n        /* \"#utility.yul\":19421:19458   */\n      mstore\n        /* \"#utility.yul\":19346:19464   */\n      pop\n      pop\n      jump\t// out\n        /* \"#utility.yul\":19470:19568   */\n    tag_269:\n        /* \"#utility.yul\":19521:19527   */\n      0x00\n        /* \"#utility.yul\":19555:19560   */\n      dup2\n        /* \"#utility.yul\":19549:19561   */\n      mload\n        /* \"#utility.yul\":19539:19561   */\n      swap1\n      pop\n        /* \"#utility.yul\":19470:19568   */\n      swap2\n      swap1\n      pop\n      jump\t// out\n        /* \"#utility.yul\":19574:19742   */\n    tag_270:\n        /* \"#utility.yul\":19657:19668   */\n      0x00\n        /* \"#utility.yul\":19691:19697   */\n      dup3\n        /* \"#utility.yul\":19686:19689   */\n      dup3\n        /* \"#utility.yul\":19679:19698   */\n      mstore\n        /* \"#utility.yul\":19731:19735   */\n      0x20\n        /* \"#utility.yul\":19726:19729   */\n      dup3\n        /* \"#utility.yul\":19722:19736   */\n      add\n        /* \"#utility.yul\":19707:19736   */\n      swap1\n      pop\n        /* \"#utility.yul\":19574:19742   */\n      swap3\n      swap2\n      pop\n      pop\n      jump\t// out\n        /* \"#utility.yul\":19748:20121   */\n    tag_271:\n        /* \"#utility.yul\":19834:19837   */\n      0x00\n        /* \"#utility.yul\":19862:19900   */\n      tag_457\n        /* \"#utility.yul\":19894:19899   */\n      dup3\n        /* \"#utility.yul\":19862:19900   */\n      tag_269\n      jump\t// in\n    tag_457:\n        /* \"#utility.yul\":19916:19986   */\n      tag_458\n        /* \"#utility.yul\":19979:19985   */\n      dup2\n        /* \"#utility.yul\":19974:19977   */\n      dup6\n        /* \"#utility.yul\":19916:19986   */\n      tag_270\n      jump\t// in\n    tag_458:\n        /* \"#utility.yul\":19909:19986   */\n      swap4\n      pop\n        /* \"#utility.yul\":19995:20060   */\n      tag_459\n        /* \"#utility.yul\":20053:20059   */\n      dup2\n        /* \"#utility.yul\":20048:20051   */\n      dup6\n        /* \"#utility.yul\":20041:20045   */\n      0x20\n        /* \"#utility.yul\":20034:20039   */\n      dup7\n        /* \"#utility.yul\":20030:20046   */\n      add\n        /* \"#utility.yul\":19995:20060   */\n      tag_228\n      jump\t// in\n    tag_459:\n        /* \"#utility.yul\":20085:20114   */\n      tag_460\n        /* \"#utility.yul\":20107:20113   */\n      dup2\n        /* \"#utility.yul\":20085:20114   */\n      tag_229\n      jump\t// in\n    tag_460:\n        /* \"#utility.yul\":20080:20083   */\n      dup5\n        /* \"#utility.yul\":20076:20115   */\n      add\n        /* \"#utility.yul\":20069:20115   */\n      swap2\n      pop\n        /* \"#utility.yul\":19838:20121   */\n      pop\n        /* \"#utility.yul\":19748:20121   */\n      swap3\n      swap2\n      pop\n      pop\n      jump\t// out\n        /* \"#utility.yul\":20127:20767   */\n    tag_201:\n        /* \"#utility.yul\":20322:20326   */\n      0x00\n        /* \"#utility.yul\":20360:20363   */\n      0x80\n        /* \"#utility.yul\":20349:20358   */\n      dup3\n        /* \"#utility.yul\":20345:20364   */\n      add\n        /* \"#utility.yul\":20337:20364   */\n      swap1\n      pop\n        /* \"#utility.yul\":20374:20445   */\n      tag_462\n        /* \"#utility.yul\":20442:20443   */\n      0x00\n        /* \"#utility.yul\":20431:20440   */\n      dup4\n        /* \"#utility.yul\":20427:20444   */\n      add\n        /* \"#utility.yul\":20418:20424   */\n      dup8\n        /* \"#utility.yul\":20374:20445   */\n      tag_268\n      jump\t// in\n    tag_462:\n        /* \"#utility.yul\":20455:20527   */\n      tag_463\n        /* \"#utility.yul\":20523:20525   */\n      0x20\n        /* \"#utility.yul\":20512:20521   */\n      dup4\n        /* \"#utility.yul\":20508:20526   */\n      add\n        /* \"#utility.yul\":20499:20505   */\n      dup7\n        /* \"#utility.yul\":20455:20527   */\n      tag_268\n      jump\t// in\n    tag_463:\n        /* \"#utility.yul\":20537:20609   */\n      tag_464\n        /* \"#utility.yul\":20605:20607   */\n      0x40\n        /* \"#utility.yul\":20594:20603   */\n      dup4\n        /* \"#utility.yul\":20590:20608   */\n      add\n        /* \"#utility.yul\":20581:20587   */\n      dup6\n        /* \"#utility.yul\":20537:20609   */\n      tag_238\n      jump\t// in\n    tag_464:\n        /* \"#utility.yul\":20656:20665   */\n      dup2\n        /* \"#utility.yul\":20650:20654   */\n      dup2\n        /* \"#utility.yul\":20646:20666   */\n      sub\n        /* \"#utility.yul\":20641:20643   */\n      0x60\n        /* \"#utility.yul\":20630:20639   */\n      dup4\n        /* \"#utility.yul\":20626:20644   */\n      add\n        /* \"#utility.yul\":20619:20667   */\n      mstore\n        /* \"#utility.yul\":20684:20760   */\n      tag_465\n        /* \"#utility.yul\":20755:20759   */\n      dup2\n        /* \"#utility.yul\":20746:20752   */\n      dup5\n        /* \"#utility.yul\":20684:20760   */\n      tag_271\n      jump\t// in\n    tag_465:\n        /* \"#utility.yul\":20676:20760   */\n      swap1\n      pop\n        /* \"#utility.yul\":20127:20767   */\n      swap6\n      swap5\n      pop\n      pop\n      pop\n      pop\n      pop\n      jump\t// out\n        /* \"#utility.yul\":20773:20914   */\n    tag_272:\n        /* \"#utility.yul\":20829:20834   */\n      0x00\n        /* \"#utility.yul\":20860:20866   */\n      dup2\n        /* \"#utility.yul\":20854:20867   */\n      mload\n        /* \"#utility.yul\":20845:20867   */\n      swap1\n      pop\n        /* \"#utility.yul\":20876:20908   */\n      tag_467\n        /* \"#utility.yul\":20902:20907   */\n      dup2\n        /* \"#utility.yul\":20876:20908   */\n      tag_222\n      jump\t// in\n    tag_467:\n        /* \"#utility.yul\":20773:20914   */\n      swap3\n      swap2\n      pop\n      pop\n      jump\t// out\n        /* \"#utility.yul\":20920:21269   */\n    tag_204:\n        /* \"#utility.yul\":20989:20995   */\n      0x00\n        /* \"#utility.yul\":21038:21040   */\n      0x20\n        /* \"#utility.yul\":21026:21035   */\n      dup3\n        /* \"#utility.yul\":21017:21024   */\n      dup5\n        /* \"#utility.yul\":21013:21036   */\n      sub\n        /* \"#utility.yul\":21009:21041   */\n      slt\n        /* \"#utility.yul\":21006:21125   */\n      iszero\n      tag_469\n      jumpi\n        /* \"#utility.yul\":21044:21123   */\n      tag_470\n      tag_219\n      jump\t// in\n    tag_470:\n        /* \"#utility.yul\":21006:21125   */\n    tag_469:\n        /* \"#utility.yul\":21164:21165   */\n      0x00\n        /* \"#utility.yul\":21189:21252   */\n      tag_471\n        /* \"#utility.yul\":21244:21251   */\n      dup5\n        /* \"#utility.yul\":21235:21241   */\n      dup3\n        /* \"#utility.yul\":21224:21233   */\n      dup6\n        /* \"#utility.yul\":21220:21242   */\n      add\n        /* \"#utility.yul\":21189:21252   */\n      tag_272\n      jump\t// in\n    tag_471:\n        /* \"#utility.yul\":21179:21252   */\n      swap2\n      pop\n        /* \"#utility.yul\":21135:21262   */\n      pop\n        /* \"#utility.yul\":20920:21269   */\n      swap3\n      swap2\n      pop\n      pop\n      jump\t// out\n        /* \"#utility.yul\":21275:21508   */\n    tag_273:\n        /* \"#utility.yul\":21415:21449   */\n      0x4b4950373a207472616e7366657220746f206e6f6e204b495037526563656976\n        /* \"#utility.yul\":21411:21412   */\n      0x00\n        /* \"#utility.yul\":21403:21409   */\n      dup3\n        /* \"#utility.yul\":21399:21413   */\n      add\n        /* \"#utility.yul\":21392:21450   */\n      mstore\n        /* \"#utility.yul\":21484:21500   */\n      0x657220696d706c656d656e746572000000000000000000000000000000000000\n        /* \"#utility.yul\":21479:21481   */\n      0x20\n        /* \"#utility.yul\":21471:21477   */\n      dup3\n        /* \"#utility.yul\":21467:21482   */\n      add\n        /* \"#utility.yul\":21460:21501   */\n      mstore\n        /* \"#utility.yul\":21275:21508   */\n      pop\n      jump\t// out\n        /* \"#utility.yul\":21514:21880   */\n    tag_274:\n        /* \"#utility.yul\":21656:21659   */\n      0x00\n        /* \"#utility.yul\":21677:21744   */\n      tag_474\n        /* \"#utility.yul\":21741:21743   */\n      0x2e\n        /* \"#utility.yul\":21736:21739   */\n      dup4\n        /* \"#utility.yul\":21677:21744   */\n      tag_227\n      jump\t// in\n    tag_474:\n        /* \"#utility.yul\":21670:21744   */\n      swap2\n      pop\n        /* \"#utility.yul\":21753:21846   */\n      tag_475\n        /* \"#utility.yul\":21842:21845   */\n      dup3\n        /* \"#utility.yul\":21753:21846   */\n      tag_273\n      jump\t// in\n    tag_475:\n        /* \"#utility.yul\":21871:21873   */\n      0x40\n        /* \"#utility.yul\":21866:21869   */\n      dup3\n        /* \"#utility.yul\":21862:21874   */\n      add\n        /* \"#utility.yul\":21855:21874   */\n      swap1\n      pop\n        /* \"#utility.yul\":21514:21880   */\n      swap2\n      swap1\n      pop\n      jump\t// out\n        /* \"#utility.yul\":21886:22305   */\n    tag_213:\n        /* \"#utility.yul\":22052:22056   */\n      0x00\n        /* \"#utility.yul\":22090:22092   */\n      0x20\n        /* \"#utility.yul\":22079:22088   */\n      dup3\n        /* \"#utility.yul\":22075:22093   */\n      add\n        /* \"#utility.yul\":22067:22093   */\n      swap1\n      pop\n        /* \"#utility.yul\":22139:22148   */\n      dup2\n        /* \"#utility.yul\":22133:22137   */\n      dup2\n        /* \"#utility.yul\":22129:22149   */\n      sub\n        /* \"#utility.yul\":22125:22126   */\n      0x00\n        /* \"#utility.yul\":22114:22123   */\n      dup4\n        /* \"#utility.yul\":22110:22127   */\n      add\n        /* \"#utility.yul\":22103:22150   */\n      mstore\n        /* \"#utility.yul\":22167:22298   */\n      tag_477\n        /* \"#utility.yul\":22293:22297   */\n      dup2\n        /* \"#utility.yul\":22167:22298   */\n      tag_274\n      jump\t// in\n    tag_477:\n        /* \"#utility.yul\":22159:22298   */\n      swap1\n      pop\n        /* \"#utility.yul\":21886:22305   */\n      swap2\n      swap1\n      pop\n      jump\t// out\n\n    auxdata: 0xa2646970667358221220b0f93a950858e121d9f2d10bf645971a71e6a0898a031eabd948544fe697ffc864736f6c63430008110033\n}\n",
				"bytecode": {
					"linkReferences": {},
					"object": "60806040523480156200001157600080fd5b50604051620021bb380380620021bb8339818101604052810190620000379190620001f6565b8160039081620000489190620004c6565b5080600490816200005a9190620004c6565b505050620005ad565b6000604051905090565b600080fd5b600080fd5b600080fd5b600080fd5b6000601f19601f8301169050919050565b7f4e487b7100000000000000000000000000000000000000000000000000000000600052604160045260246000fd5b620000cc8262000081565b810181811067ffffffffffffffff82111715620000ee57620000ed62000092565b5b80604052505050565b60006200010362000063565b9050620001118282620000c1565b919050565b600067ffffffffffffffff82111562000134576200013362000092565b5b6200013f8262000081565b9050602081019050919050565b60005b838110156200016c5780820151818401526020810190506200014f565b60008484015250505050565b60006200018f620001898462000116565b620000f7565b905082815260208101848484011115620001ae57620001ad6200007c565b5b620001bb8482856200014c565b509392505050565b600082601f830112620001db57620001da62000077565b5b8151620001ed84826020860162000178565b91505092915050565b6000806040838503121562000210576200020f6200006d565b5b600083015167ffffffffffffffff81111562000231576200023062000072565b5b6200023f85828601620001c3565b925050602083015167ffffffffffffffff81111562000263576200026262000072565b5b6200027185828601620001c3565b9150509250929050565b600081519050919050565b7f4e487b7100000000000000000000000000000000000000000000000000000000600052602260045260246000fd5b60006002820490506001821680620002ce57607f821691505b602082108103620002e457620002e362000286565b5b50919050565b60008190508160005260206000209050919050565b60006020601f8301049050919050565b600082821b905092915050565b6000600883026200034e7fffffffffffffffffffffffffffffffffffffffffffffffffffffffffffffffff826200030f565b6200035a86836200030f565b95508019841693508086168417925050509392505050565b6000819050919050565b6000819050919050565b6000620003a7620003a16200039b8462000372565b6200037c565b62000372565b9050919050565b6000819050919050565b620003c38362000386565b620003db620003d282620003ae565b8484546200031c565b825550505050565b600090565b620003f2620003e3565b620003ff818484620003b8565b505050565b5b8181101562000427576200041b600082620003e8565b60018101905062000405565b5050565b601f82111562000476576200044081620002ea565b6200044b84620002ff565b810160208510156200045b578190505b620004736200046a85620002ff565b83018262000404565b50505b505050565b600082821c905092915050565b60006200049b600019846008026200047b565b1980831691505092915050565b6000620004b6838362000488565b9150826002028217905092915050565b620004d1826200027b565b67ffffffffffffffff811115620004ed57620004ec62000092565b5b620004f98254620002b5565b620005068282856200042b565b600060209050601f8311600181146200053e576000841562000529578287015190505b620005358582620004a8565b865550620005a5565b601f1984166200054e86620002ea565b60005b82811015620005785784890151825560018201915060208501945060208101905062000551565b8683101562000598578489015162000594601f89168262000488565b8355505b6001600288020188555050505b505050505050565b611bfe80620005bd6000396000f3fe608060405234801561001057600080fd5b50600436106101005760003560e01c806342842e0e11610097578063a9059cbb11610066578063a9059cbb146102d5578063b88d4fde14610305578063dd62ed3e14610321578063eb7955491461035157610100565b806342842e0e1461023b57806370a082311461025757806395d89b4114610287578063a457c2d7146102a557610100565b806323b872dd116100d357806323b872dd146101a1578063313ce567146101d157806339509351146101ef578063423f6cef1461021f57610100565b806301ffc9a71461010557806306fdde0314610135578063095ea7b31461015357806318160ddd14610183575b600080fd5b61011f600480360381019061011a9190610fe6565b61036d565b60405161012c919061102e565b60405180910390f35b61013d61044f565b60405161014a91906110d9565b60405180910390f35b61016d6004803603810190610168919061118f565b6104e1565b60405161017a919061102e565b60405180910390f35b61018b610504565b60405161019891906111de565b60405180910390f35b6101bb60048036038101906101b691906111f9565b61050e565b6040516101c8919061102e565b60405180910390f35b6101d961053d565b6040516101e69190611268565b60405180910390f35b6102096004803603810190610204919061118f565b610546565b604051610216919061102e565b60405180910390f35b6102396004803603810190610234919061118f565b61057d565b005b610255600480360381019061025091906111f9565b6105a9565b005b610271600480360381019061026c9190611283565b6105e1565b60405161027e91906111de565b60405180910390f35b61028f610629565b60405161029c91906110d9565b60405180910390f35b6102bf60048036038101906102ba919061118f565b6106bb565b6040516102cc919061102e565b60405180910390f35b6102ef60048036038101906102ea919061118f565b610732565b6040516102fc919061102e565b60405180910390f35b61031f600480360381019061031a91906113e5565b610755565b005b61033b60048036038101906103369190611468565b61077f565b60405161034891906111de565b60405180910390f35b61036b600480360381019061036691906114a8565b610806565b005b60007f65787371000000000000000000000000000000000000000000000000000000007bffffffffffffffffffffffffffffffffffffffffffffffffffffffff1916827bffffffffffffffffffffffffffffffffffffffffffffffffffffffff1916148061043857507fa219a025000000000000000000000000000000000000000000000000000000007bffffffffffffffffffffffffffffffffffffffffffffffffffffffff1916827bffffffffffffffffffffffffffffffffffffffffffffffffffffffff1916145b80610448575061044782610824565b5b9050919050565b60606003805461045e90611546565b80601f016020809104026020016040519081016040528092919081815260200182805461048a90611546565b80156104d75780601f106104ac576101008083540402835291602001916104d7565b820191906000526020600020905b8154815290600101906020018083116104ba57829003601f168201915b5050505050905090565b6000806104ec61088e565b90506104f9818585610896565b600191505092915050565b6000600254905090565b60008061051961088e565b9050610526858285610a5f565b610531858585610aeb565b60019150509392505050565b60006012905090565b60008061055161088e565b9050610572818585610563858961077f565b61056d91906115a6565b610896565b600191505092915050565b600061058761088e565b90506105a481848460405180602001604052806000815250610d6a565b505050565b60006105b361088e565b90506105c0848284610a5f565b6105db84848460405180602001604052806000815250610d6a565b50505050565b60008060008373ffffffffffffffffffffffffffffffffffffffff1673ffffffffffffffffffffffffffffffffffffffff168152602001908152602001600020549050919050565b60606004805461063890611546565b80601f016020809104026020016040519081016040528092919081815260200182805461066490611546565b80156106b15780601f10610686576101008083540402835291602001916106b1565b820191906000526020600020905b81548152906001019060200180831161069457829003601f168201915b5050505050905090565b6000806106c661088e565b905060006106d4828661077f565b905083811015610719576040517f08c379a00000000000000000000000000000000000000000000000000000000081526004016107109061164c565b60405180910390fd5b6107268286868403610896565b60019250505092915050565b60008061073d61088e565b905061074a818585610aeb565b600191505092915050565b600061075f61088e565b905061076c858285610a5f565b61077885858585610d6a565b5050505050565b6000600160008473ffffffffffffffffffffffffffffffffffffffff1673ffffffffffffffffffffffffffffffffffffffff16815260200190815260200160002060008373ffffffffffffffffffffffffffffffffffffffff1673ffffffffffffffffffffffffffffffffffffffff16815260200190815260200160002054905092915050565b600061081061088e565b905061081e81858585610d6a565b50505050565b60007f01ffc9a7000000000000000000000000000000000000000000000000000000007bffffffffffffffffffffffffffffffffffffffffffffffffffffffff1916827bffffffffffffffffffffffffffffffffffffffffffffffffffffffff1916149050919050565b600033905090565b600073ffffffffffffffffffffffffffffffffffffffff168373ffffffffffffffffffffffffffffffffffffffff1603610905576040517f08c379a00000000000000000000000000000000000000000000000000000000081526004016108fc906116de565b60405180910390fd5b600073ffffffffffffffffffffffffffffffffffffffff168273ffffffffffffffffffffffffffffffffffffffff1603610974576040517f08c379a000000000000000000000000000000000000000000000000000000000815260040161096b90611770565b60405180910390fd5b80600160008573ffffffffffffffffffffffffffffffffffffffff1673ffffffffffffffffffffffffffffffffffffffff16815260200190815260200160002060008473ffffffffffffffffffffffffffffffffffffffff1673ffffffffffffffffffffffffffffffffffffffff168152602001908152602001600020819055508173ffffffffffffffffffffffffffffffffffffffff168373ffffffffffffffffffffffffffffffffffffffff167f8c5be1e5ebec7d5bd14f71427d1e84f3dd0314c0f7b2291e5b200ac8c7c3b92583604051610a5291906111de565b60405180910390a3505050565b6000610a6b848461077f565b90507fffffffffffffffffffffffffffffffffffffffffffffffffffffffffffffffff8114610ae55781811015610ad7576040517f08c379a0000000000000000000000000000000000000000000000000000000008152600401610ace906117dc565b60405180910390fd5b610ae48484848403610896565b5b50505050565b600073ffffffffffffffffffffffffffffffffffffffff168373ffffffffffffffffffffffffffffffffffffffff1603610b5a576040517f08c379a0000000000000000000000000000000000000000000000000000000008152600401610b519061186e565b60405180910390fd5b600073ffffffffffffffffffffffffffffffffffffffff168273ffffffffffffffffffffffffffffffffffffffff1603610bc9576040517f08c379a0000000000000000000000000000000000000000000000000000000008152600401610bc090611900565b60405180910390fd5b610bd4838383610dc6565b60008060008573ffffffffffffffffffffffffffffffffffffffff1673ffffffffffffffffffffffffffffffffffffffff16815260200190815260200160002054905081811015610c5a576040517f08c379a0000000000000000000000000000000000000000000000000000000008152600401610c5190611992565b60405180910390fd5b8181036000808673ffffffffffffffffffffffffffffffffffffffff1673ffffffffffffffffffffffffffffffffffffffff16815260200190815260200160002081905550816000808573ffffffffffffffffffffffffffffffffffffffff1673ffffffffffffffffffffffffffffffffffffffff1681526020019081526020016000206000828254610ced91906115a6565b925050819055508273ffffffffffffffffffffffffffffffffffffffff168473ffffffffffffffffffffffffffffffffffffffff167fddf252ad1be2c89b69c2b068fc378daa952ba7f163c4a11628f55a4df523b3ef84604051610d5191906111de565b60405180910390a3610d64848484610dcb565b50505050565b610d75848484610aeb565b610d8184848484610dd0565b610dc0576040517f08c379a0000000000000000000000000000000000000000000000000000000008152600401610db790611a24565b60405180910390fd5b50505050565b505050565b505050565b6000610df18473ffffffffffffffffffffffffffffffffffffffff16610f57565b15610f4a578373ffffffffffffffffffffffffffffffffffffffff16639d188c22610e1a61088e565b8786866040518563ffffffff1660e01b8152600401610e3c9493929190611aa8565b6020604051808303816000875af1925050508015610e7857506040513d601f19601f82011682018060405250810190610e759190611b09565b60015b610efa573d8060008114610ea8576040519150601f19603f3d011682016040523d82523d6000602084013e610ead565b606091505b506000815103610ef2576040517f08c379a0000000000000000000000000000000000000000000000000000000008152600401610ee990611ba8565b60405180910390fd5b805181602001fd5b639d188c2260e01b7bffffffffffffffffffffffffffffffffffffffffffffffffffffffff1916817bffffffffffffffffffffffffffffffffffffffffffffffffffffffff191614915050610f4f565b600190505b949350505050565b6000808273ffffffffffffffffffffffffffffffffffffffff163b119050919050565b6000604051905090565b600080fd5b600080fd5b60007fffffffff0000000000000000000000000000000000000000000000000000000082169050919050565b610fc381610f8e565b8114610fce57600080fd5b50565b600081359050610fe081610fba565b92915050565b600060208284031215610ffc57610ffb610f84565b5b600061100a84828501610fd1565b91505092915050565b60008115159050919050565b61102881611013565b82525050565b6000602082019050611043600083018461101f565b92915050565b600081519050919050565b600082825260208201905092915050565b60005b83811015611083578082015181840152602081019050611068565b60008484015250505050565b6000601f19601f8301169050919050565b60006110ab82611049565b6110b58185611054565b93506110c5818560208601611065565b6110ce8161108f565b840191505092915050565b600060208201905081810360008301526110f381846110a0565b905092915050565b600073ffffffffffffffffffffffffffffffffffffffff82169050919050565b6000611126826110fb565b9050919050565b6111368161111b565b811461114157600080fd5b50565b6000813590506111538161112d565b92915050565b6000819050919050565b61116c81611159565b811461117757600080fd5b50565b60008135905061118981611163565b92915050565b600080604083850312156111a6576111a5610f84565b5b60006111b485828601611144565b92505060206111c58582860161117a565b9150509250929050565b6111d881611159565b82525050565b60006020820190506111f360008301846111cf565b92915050565b60008060006060848603121561121257611211610f84565b5b600061122086828701611144565b935050602061123186828701611144565b92505060406112428682870161117a565b9150509250925092565b600060ff82169050919050565b6112628161124c565b82525050565b600060208201905061127d6000830184611259565b92915050565b60006020828403121561129957611298610f84565b5b60006112a784828501611144565b91505092915050565b600080fd5b600080fd5b7f4e487b7100000000000000000000000000000000000000000000000000000000600052604160045260246000fd5b6112f28261108f565b810181811067ffffffffffffffff82111715611311576113106112ba565b5b80604052505050565b6000611324610f7a565b905061133082826112e9565b919050565b600067ffffffffffffffff8211156113505761134f6112ba565b5b6113598261108f565b9050602081019050919050565b82818337600083830152505050565b600061138861138384611335565b61131a565b9050828152602081018484840111156113a4576113a36112b5565b5b6113af848285611366565b509392505050565b600082601f8301126113cc576113cb6112b0565b5b81356113dc848260208601611375565b91505092915050565b600080600080608085870312156113ff576113fe610f84565b5b600061140d87828801611144565b945050602061141e87828801611144565b935050604061142f8782880161117a565b925050606085013567ffffffffffffffff8111156114505761144f610f89565b5b61145c878288016113b7565b91505092959194509250565b6000806040838503121561147f5761147e610f84565b5b600061148d85828601611144565b925050602061149e85828601611144565b9150509250929050565b6000806000606084860312156114c1576114c0610f84565b5b60006114cf86828701611144565b93505060206114e08682870161117a565b925050604084013567ffffffffffffffff81111561150157611500610f89565b5b61150d868287016113b7565b9150509250925092565b7f4e487b7100000000000000000000000000000000000000000000000000000000600052602260045260246000fd5b6000600282049050600182168061155e57607f821691505b60208210810361157157611570611517565b5b50919050565b7f4e487b7100000000000000000000000000000000000000000000000000000000600052601160045260246000fd5b60006115b182611159565b91506115bc83611159565b92508282019050808211156115d4576115d3611577565b5b92915050565b7f4b4950373a2064656372656173656420616c6c6f77616e63652062656c6f772060008201527f7a65726f00000000000000000000000000000000000000000000000000000000602082015250565b6000611636602483611054565b9150611641826115da565b604082019050919050565b6000602082019050818103600083015261166581611629565b9050919050565b7f4b4950373a20617070726f76652066726f6d20746865207a65726f206164647260008201527f6573730000000000000000000000000000000000000000000000000000000000602082015250565b60006116c8602383611054565b91506116d38261166c565b604082019050919050565b600060208201905081810360008301526116f7816116bb565b9050919050565b7f4b4950373a20617070726f766520746f20746865207a65726f2061646472657360008201527f7300000000000000000000000000000000000000000000000000000000000000602082015250565b600061175a602183611054565b9150611765826116fe565b604082019050919050565b600060208201905081810360008301526117898161174d565b9050919050565b7f4b4950373a20696e73756666696369656e7420616c6c6f77616e636500000000600082015250565b60006117c6601c83611054565b91506117d182611790565b602082019050919050565b600060208201905081810360008301526117f5816117b9565b9050919050565b7f4b4950373a207472616e736665722066726f6d20746865207a65726f2061646460008201527f7265737300000000000000000000000000000000000000000000000000000000602082015250565b6000611858602483611054565b9150611863826117fc565b604082019050919050565b600060208201905081810360008301526118878161184b565b9050919050565b7f4b4950373a207472616e7366657220746f20746865207a65726f20616464726560008201527f7373000000000000000000000000000000000000000000000000000000000000602082015250565b60006118ea602283611054565b91506118f58261188e565b604082019050919050565b60006020820190508181036000830152611919816118dd565b9050919050565b7f4b4950373a207472616e7366657220616d6f756e74206578636565647320626160008201527f6c616e6365000000000000000000000000000000000000000000000000000000602082015250565b600061197c602583611054565b915061198782611920565b604082019050919050565b600060208201905081810360008301526119ab8161196f565b9050919050565b7f4b4950373a207472616e7366657220746f206e6f6e20494b495037526563656960008201527f76657220696d706c656d656e7465720000000000000000000000000000000000602082015250565b6000611a0e602f83611054565b9150611a19826119b2565b604082019050919050565b60006020820190508181036000830152611a3d81611a01565b9050919050565b611a4d8161111b565b82525050565b600081519050919050565b600082825260208201905092915050565b6000611a7a82611a53565b611a848185611a5e565b9350611a94818560208601611065565b611a9d8161108f565b840191505092915050565b6000608082019050611abd6000830187611a44565b611aca6020830186611a44565b611ad760408301856111cf565b8181036060830152611ae98184611a6f565b905095945050505050565b600081519050611b0381610fba565b92915050565b600060208284031215611b1f57611b1e610f84565b5b6000611b2d84828501611af4565b91505092915050565b7f4b4950373a207472616e7366657220746f206e6f6e204b49503752656365697660008201527f657220696d706c656d656e746572000000000000000000000000000000000000602082015250565b6000611b92602e83611054565b9150611b9d82611b36565b604082019050919050565b60006020820190508181036000830152611bc181611b85565b905091905056fea2646970667358221220b0f93a950858e121d9f2d10bf645971a71e6a0898a031eabd948544fe697ffc864736f6c63430008110033",
					"opcodes": "PUSH1 0x80 PUSH1 0x40 MSTORE CALLVALUE DUP1 ISZERO PUSH3 0x11 JUMPI PUSH1 0x0 DUP1 REVERT JUMPDEST POP PUSH1 0x40 MLOAD PUSH3 0x21BB CODESIZE SUB DUP1 PUSH3 0x21BB DUP4 CODECOPY DUP2 DUP2 ADD PUSH1 0x40 MSTORE DUP2 ADD SWAP1 PUSH3 0x37 SWAP2 SWAP1 PUSH3 0x1F6 JUMP JUMPDEST DUP2 PUSH1 0x3 SWAP1 DUP2 PUSH3 0x48 SWAP2 SWAP1 PUSH3 0x4C6 JUMP JUMPDEST POP DUP1 PUSH1 0x4 SWAP1 DUP2 PUSH3 0x5A SWAP2 SWAP1 PUSH3 0x4C6 JUMP JUMPDEST POP POP POP PUSH3 0x5AD JUMP JUMPDEST PUSH1 0x0 PUSH1 0x40 MLOAD SWAP1 POP SWAP1 JUMP JUMPDEST PUSH1 0x0 DUP1 REVERT JUMPDEST PUSH1 0x0 DUP1 REVERT JUMPDEST PUSH1 0x0 DUP1 REVERT JUMPDEST PUSH1 0x0 DUP1 REVERT JUMPDEST PUSH1 0x0 PUSH1 0x1F NOT PUSH1 0x1F DUP4 ADD AND SWAP1 POP SWAP2 SWAP1 POP JUMP JUMPDEST PUSH32 0x4E487B7100000000000000000000000000000000000000000000000000000000 PUSH1 0x0 MSTORE PUSH1 0x41 PUSH1 0x4 MSTORE PUSH1 0x24 PUSH1 0x0 REVERT JUMPDEST PUSH3 0xCC DUP3 PUSH3 0x81 JUMP JUMPDEST DUP2 ADD DUP2 DUP2 LT PUSH8 0xFFFFFFFFFFFFFFFF DUP3 GT OR ISZERO PUSH3 0xEE JUMPI PUSH3 0xED PUSH3 0x92 JUMP JUMPDEST JUMPDEST DUP1 PUSH1 0x40 MSTORE POP POP POP JUMP JUMPDEST PUSH1 0x0 PUSH3 0x103 PUSH3 0x63 JUMP JUMPDEST SWAP1 POP PUSH3 0x111 DUP3 DUP3 PUSH3 0xC1 JUMP JUMPDEST SWAP2 SWAP1 POP JUMP JUMPDEST PUSH1 0x0 PUSH8 0xFFFFFFFFFFFFFFFF DUP3 GT ISZERO PUSH3 0x134 JUMPI PUSH3 0x133 PUSH3 0x92 JUMP JUMPDEST JUMPDEST PUSH3 0x13F DUP3 PUSH3 0x81 JUMP JUMPDEST SWAP1 POP PUSH1 0x20 DUP2 ADD SWAP1 POP SWAP2 SWAP1 POP JUMP JUMPDEST PUSH1 0x0 JUMPDEST DUP4 DUP2 LT ISZERO PUSH3 0x16C JUMPI DUP1 DUP3 ADD MLOAD DUP2 DUP5 ADD MSTORE PUSH1 0x20 DUP2 ADD SWAP1 POP PUSH3 0x14F JUMP JUMPDEST PUSH1 0x0 DUP5 DUP5 ADD MSTORE POP POP POP POP JUMP JUMPDEST PUSH1 0x0 PUSH3 0x18F PUSH3 0x189 DUP5 PUSH3 0x116 JUMP JUMPDEST PUSH3 0xF7 JUMP JUMPDEST SWAP1 POP DUP3 DUP2 MSTORE PUSH1 0x20 DUP2 ADD DUP5 DUP5 DUP5 ADD GT ISZERO PUSH3 0x1AE JUMPI PUSH3 0x1AD PUSH3 0x7C JUMP JUMPDEST JUMPDEST PUSH3 0x1BB DUP5 DUP3 DUP6 PUSH3 0x14C JUMP JUMPDEST POP SWAP4 SWAP3 POP POP POP JUMP JUMPDEST PUSH1 0x0 DUP3 PUSH1 0x1F DUP4 ADD SLT PUSH3 0x1DB JUMPI PUSH3 0x1DA PUSH3 0x77 JUMP JUMPDEST JUMPDEST DUP2 MLOAD PUSH3 0x1ED DUP5 DUP3 PUSH1 0x20 DUP7 ADD PUSH3 0x178 JUMP JUMPDEST SWAP2 POP POP SWAP3 SWAP2 POP POP JUMP JUMPDEST PUSH1 0x0 DUP1 PUSH1 0x40 DUP4 DUP6 SUB SLT ISZERO PUSH3 0x210 JUMPI PUSH3 0x20F PUSH3 0x6D JUMP JUMPDEST JUMPDEST PUSH1 0x0 DUP4 ADD MLOAD PUSH8 0xFFFFFFFFFFFFFFFF DUP2 GT ISZERO PUSH3 0x231 JUMPI PUSH3 0x230 PUSH3 0x72 JUMP JUMPDEST JUMPDEST PUSH3 0x23F DUP6 DUP3 DUP7 ADD PUSH3 0x1C3 JUMP JUMPDEST SWAP3 POP POP PUSH1 0x20 DUP4 ADD MLOAD PUSH8 0xFFFFFFFFFFFFFFFF DUP2 GT ISZERO PUSH3 0x263 JUMPI PUSH3 0x262 PUSH3 0x72 JUMP JUMPDEST JUMPDEST PUSH3 0x271 DUP6 DUP3 DUP7 ADD PUSH3 0x1C3 JUMP JUMPDEST SWAP2 POP POP SWAP3 POP SWAP3 SWAP1 POP JUMP JUMPDEST PUSH1 0x0 DUP2 MLOAD SWAP1 POP SWAP2 SWAP1 POP JUMP JUMPDEST PUSH32 0x4E487B7100000000000000000000000000000000000000000000000000000000 PUSH1 0x0 MSTORE PUSH1 0x22 PUSH1 0x4 MSTORE PUSH1 0x24 PUSH1 0x0 REVERT JUMPDEST PUSH1 0x0 PUSH1 0x2 DUP3 DIV SWAP1 POP PUSH1 0x1 DUP3 AND DUP1 PUSH3 0x2CE JUMPI PUSH1 0x7F DUP3 AND SWAP2 POP JUMPDEST PUSH1 0x20 DUP3 LT DUP2 SUB PUSH3 0x2E4 JUMPI PUSH3 0x2E3 PUSH3 0x286 JUMP JUMPDEST JUMPDEST POP SWAP2 SWAP1 POP JUMP JUMPDEST PUSH1 0x0 DUP2 SWAP1 POP DUP2 PUSH1 0x0 MSTORE PUSH1 0x20 PUSH1 0x0 KECCAK256 SWAP1 POP SWAP2 SWAP1 POP JUMP JUMPDEST PUSH1 0x0 PUSH1 0x20 PUSH1 0x1F DUP4 ADD DIV SWAP1 POP SWAP2 SWAP1 POP JUMP JUMPDEST PUSH1 0x0 DUP3 DUP3 SHL SWAP1 POP SWAP3 SWAP2 POP POP JUMP JUMPDEST PUSH1 0x0 PUSH1 0x8 DUP4 MUL PUSH3 0x34E PUSH32 0xFFFFFFFFFFFFFFFFFFFFFFFFFFFFFFFFFFFFFFFFFFFFFFFFFFFFFFFFFFFFFFFF DUP3 PUSH3 0x30F JUMP JUMPDEST PUSH3 0x35A DUP7 DUP4 PUSH3 0x30F JUMP JUMPDEST SWAP6 POP DUP1 NOT DUP5 AND SWAP4 POP DUP1 DUP7 AND DUP5 OR SWAP3 POP POP POP SWAP4 SWAP3 POP POP POP JUMP JUMPDEST PUSH1 0x0 DUP2 SWAP1 POP SWAP2 SWAP1 POP JUMP JUMPDEST PUSH1 0x0 DUP2 SWAP1 POP SWAP2 SWAP1 POP JUMP JUMPDEST PUSH1 0x0 PUSH3 0x3A7 PUSH3 0x3A1 PUSH3 0x39B DUP5 PUSH3 0x372 JUMP JUMPDEST PUSH3 0x37C JUMP JUMPDEST PUSH3 0x372 JUMP JUMPDEST SWAP1 POP SWAP2 SWAP1 POP JUMP JUMPDEST PUSH1 0x0 DUP2 SWAP1 POP SWAP2 SWAP1 POP JUMP JUMPDEST PUSH3 0x3C3 DUP4 PUSH3 0x386 JUMP JUMPDEST PUSH3 0x3DB PUSH3 0x3D2 DUP3 PUSH3 0x3AE JUMP JUMPDEST DUP5 DUP5 SLOAD PUSH3 0x31C JUMP JUMPDEST DUP3 SSTORE POP POP POP POP JUMP JUMPDEST PUSH1 0x0 SWAP1 JUMP JUMPDEST PUSH3 0x3F2 PUSH3 0x3E3 JUMP JUMPDEST PUSH3 0x3FF DUP2 DUP5 DUP5 PUSH3 0x3B8 JUMP JUMPDEST POP POP POP JUMP JUMPDEST JUMPDEST DUP2 DUP2 LT ISZERO PUSH3 0x427 JUMPI PUSH3 0x41B PUSH1 0x0 DUP3 PUSH3 0x3E8 JUMP JUMPDEST PUSH1 0x1 DUP2 ADD SWAP1 POP PUSH3 0x405 JUMP JUMPDEST POP POP JUMP JUMPDEST PUSH1 0x1F DUP3 GT ISZERO PUSH3 0x476 JUMPI PUSH3 0x440 DUP2 PUSH3 0x2EA JUMP JUMPDEST PUSH3 0x44B DUP5 PUSH3 0x2FF JUMP JUMPDEST DUP2 ADD PUSH1 0x20 DUP6 LT ISZERO PUSH3 0x45B JUMPI DUP2 SWAP1 POP JUMPDEST PUSH3 0x473 PUSH3 0x46A DUP6 PUSH3 0x2FF JUMP JUMPDEST DUP4 ADD DUP3 PUSH3 0x404 JUMP JUMPDEST POP POP JUMPDEST POP POP POP JUMP JUMPDEST PUSH1 0x0 DUP3 DUP3 SHR SWAP1 POP SWAP3 SWAP2 POP POP JUMP JUMPDEST PUSH1 0x0 PUSH3 0x49B PUSH1 0x0 NOT DUP5 PUSH1 0x8 MUL PUSH3 0x47B JUMP JUMPDEST NOT DUP1 DUP4 AND SWAP2 POP POP SWAP3 SWAP2 POP POP JUMP JUMPDEST PUSH1 0x0 PUSH3 0x4B6 DUP4 DUP4 PUSH3 0x488 JUMP JUMPDEST SWAP2 POP DUP3 PUSH1 0x2 MUL DUP3 OR SWAP1 POP SWAP3 SWAP2 POP POP JUMP JUMPDEST PUSH3 0x4D1 DUP3 PUSH3 0x27B JUMP JUMPDEST PUSH8 0xFFFFFFFFFFFFFFFF DUP2 GT ISZERO PUSH3 0x4ED JUMPI PUSH3 0x4EC PUSH3 0x92 JUMP JUMPDEST JUMPDEST PUSH3 0x4F9 DUP3 SLOAD PUSH3 0x2B5 JUMP JUMPDEST PUSH3 0x506 DUP3 DUP3 DUP6 PUSH3 0x42B JUMP JUMPDEST PUSH1 0x0 PUSH1 0x20 SWAP1 POP PUSH1 0x1F DUP4 GT PUSH1 0x1 DUP2 EQ PUSH3 0x53E JUMPI PUSH1 0x0 DUP5 ISZERO PUSH3 0x529 JUMPI DUP3 DUP8 ADD MLOAD SWAP1 POP JUMPDEST PUSH3 0x535 DUP6 DUP3 PUSH3 0x4A8 JUMP JUMPDEST DUP7 SSTORE POP PUSH3 0x5A5 JUMP JUMPDEST PUSH1 0x1F NOT DUP5 AND PUSH3 0x54E DUP7 PUSH3 0x2EA JUMP JUMPDEST PUSH1 0x0 JUMPDEST DUP3 DUP2 LT ISZERO PUSH3 0x578 JUMPI DUP5 DUP10 ADD MLOAD DUP3 SSTORE PUSH1 0x1 DUP3 ADD SWAP2 POP PUSH1 0x20 DUP6 ADD SWAP5 POP PUSH1 0x20 DUP2 ADD SWAP1 POP PUSH3 0x551 JUMP JUMPDEST DUP7 DUP4 LT ISZERO PUSH3 0x598 JUMPI DUP5 DUP10 ADD MLOAD PUSH3 0x594 PUSH1 0x1F DUP10 AND DUP3 PUSH3 0x488 JUMP JUMPDEST DUP4 SSTORE POP JUMPDEST PUSH1 0x1 PUSH1 0x2 DUP9 MUL ADD DUP9 SSTORE POP POP POP JUMPDEST POP POP POP POP POP POP JUMP JUMPDEST PUSH2 0x1BFE DUP1 PUSH3 0x5BD PUSH1 0x0 CODECOPY PUSH1 0x0 RETURN INVALID PUSH1 0x80 PUSH1 0x40 MSTORE CALLVALUE DUP1 ISZERO PUSH2 0x10 JUMPI PUSH1 0x0 DUP1 REVERT JUMPDEST POP PUSH1 0x4 CALLDATASIZE LT PUSH2 0x100 JUMPI PUSH1 0x0 CALLDATALOAD PUSH1 0xE0 SHR DUP1 PUSH4 0x42842E0E GT PUSH2 0x97 JUMPI DUP1 PUSH4 0xA9059CBB GT PUSH2 0x66 JUMPI DUP1 PUSH4 0xA9059CBB EQ PUSH2 0x2D5 JUMPI DUP1 PUSH4 0xB88D4FDE EQ PUSH2 0x305 JUMPI DUP1 PUSH4 0xDD62ED3E EQ PUSH2 0x321 JUMPI DUP1 PUSH4 0xEB795549 EQ PUSH2 0x351 JUMPI PUSH2 0x100 JUMP JUMPDEST DUP1 PUSH4 0x42842E0E EQ PUSH2 0x23B JUMPI DUP1 PUSH4 0x70A08231 EQ PUSH2 0x257 JUMPI DUP1 PUSH4 0x95D89B41 EQ PUSH2 0x287 JUMPI DUP1 PUSH4 0xA457C2D7 EQ PUSH2 0x2A5 JUMPI PUSH2 0x100 JUMP JUMPDEST DUP1 PUSH4 0x23B872DD GT PUSH2 0xD3 JUMPI DUP1 PUSH4 0x23B872DD EQ PUSH2 0x1A1 JUMPI DUP1 PUSH4 0x313CE567 EQ PUSH2 0x1D1 JUMPI DUP1 PUSH4 0x39509351 EQ PUSH2 0x1EF JUMPI DUP1 PUSH4 0x423F6CEF EQ PUSH2 0x21F JUMPI PUSH2 0x100 JUMP JUMPDEST DUP1 PUSH4 0x1FFC9A7 EQ PUSH2 0x105 JUMPI DUP1 PUSH4 0x6FDDE03 EQ PUSH2 0x135 JUMPI DUP1 PUSH4 0x95EA7B3 EQ PUSH2 0x153 JUMPI DUP1 PUSH4 0x18160DDD EQ PUSH2 0x183 JUMPI JUMPDEST PUSH1 0x0 DUP1 REVERT JUMPDEST PUSH2 0x11F PUSH1 0x4 DUP1 CALLDATASIZE SUB DUP2 ADD SWAP1 PUSH2 0x11A SWAP2 SWAP1 PUSH2 0xFE6 JUMP JUMPDEST PUSH2 0x36D JUMP JUMPDEST PUSH1 0x40 MLOAD PUSH2 0x12C SWAP2 SWAP1 PUSH2 0x102E JUMP JUMPDEST PUSH1 0x40 MLOAD DUP1 SWAP2 SUB SWAP1 RETURN JUMPDEST PUSH2 0x13D PUSH2 0x44F JUMP JUMPDEST PUSH1 0x40 MLOAD PUSH2 0x14A SWAP2 SWAP1 PUSH2 0x10D9 JUMP JUMPDEST PUSH1 0x40 MLOAD DUP1 SWAP2 SUB SWAP1 RETURN JUMPDEST PUSH2 0x16D PUSH1 0x4 DUP1 CALLDATASIZE SUB DUP2 ADD SWAP1 PUSH2 0x168 SWAP2 SWAP1 PUSH2 0x118F JUMP JUMPDEST PUSH2 0x4E1 JUMP JUMPDEST PUSH1 0x40 MLOAD PUSH2 0x17A SWAP2 SWAP1 PUSH2 0x102E JUMP JUMPDEST PUSH1 0x40 MLOAD DUP1 SWAP2 SUB SWAP1 RETURN JUMPDEST PUSH2 0x18B PUSH2 0x504 JUMP JUMPDEST PUSH1 0x40 MLOAD PUSH2 0x198 SWAP2 SWAP1 PUSH2 0x11DE JUMP JUMPDEST PUSH1 0x40 MLOAD DUP1 SWAP2 SUB SWAP1 RETURN JUMPDEST PUSH2 0x1BB PUSH1 0x4 DUP1 CALLDATASIZE SUB DUP2 ADD SWAP1 PUSH2 0x1B6 SWAP2 SWAP1 PUSH2 0x11F9 JUMP JUMPDEST PUSH2 0x50E JUMP JUMPDEST PUSH1 0x40 MLOAD PUSH2 0x1C8 SWAP2 SWAP1 PUSH2 0x102E JUMP JUMPDEST PUSH1 0x40 MLOAD DUP1 SWAP2 SUB SWAP1 RETURN JUMPDEST PUSH2 0x1D9 PUSH2 0x53D JUMP JUMPDEST PUSH1 0x40 MLOAD PUSH2 0x1E6 SWAP2 SWAP1 PUSH2 0x1268 JUMP JUMPDEST PUSH1 0x40 MLOAD DUP1 SWAP2 SUB SWAP1 RETURN JUMPDEST PUSH2 0x209 PUSH1 0x4 DUP1 CALLDATASIZE SUB DUP2 ADD SWAP1 PUSH2 0x204 SWAP2 SWAP1 PUSH2 0x118F JUMP JUMPDEST PUSH2 0x546 JUMP JUMPDEST PUSH1 0x40 MLOAD PUSH2 0x216 SWAP2 SWAP1 PUSH2 0x102E JUMP JUMPDEST PUSH1 0x40 MLOAD DUP1 SWAP2 SUB SWAP1 RETURN JUMPDEST PUSH2 0x239 PUSH1 0x4 DUP1 CALLDATASIZE SUB DUP2 ADD SWAP1 PUSH2 0x234 SWAP2 SWAP1 PUSH2 0x118F JUMP JUMPDEST PUSH2 0x57D JUMP JUMPDEST STOP JUMPDEST PUSH2 0x255 PUSH1 0x4 DUP1 CALLDATASIZE SUB DUP2 ADD SWAP1 PUSH2 0x250 SWAP2 SWAP1 PUSH2 0x11F9 JUMP JUMPDEST PUSH2 0x5A9 JUMP JUMPDEST STOP JUMPDEST PUSH2 0x271 PUSH1 0x4 DUP1 CALLDATASIZE SUB DUP2 ADD SWAP1 PUSH2 0x26C SWAP2 SWAP1 PUSH2 0x1283 JUMP JUMPDEST PUSH2 0x5E1 JUMP JUMPDEST PUSH1 0x40 MLOAD PUSH2 0x27E SWAP2 SWAP1 PUSH2 0x11DE JUMP JUMPDEST PUSH1 0x40 MLOAD DUP1 SWAP2 SUB SWAP1 RETURN JUMPDEST PUSH2 0x28F PUSH2 0x629 JUMP JUMPDEST PUSH1 0x40 MLOAD PUSH2 0x29C SWAP2 SWAP1 PUSH2 0x10D9 JUMP JUMPDEST PUSH1 0x40 MLOAD DUP1 SWAP2 SUB SWAP1 RETURN JUMPDEST PUSH2 0x2BF PUSH1 0x4 DUP1 CALLDATASIZE SUB DUP2 ADD SWAP1 PUSH2 0x2BA SWAP2 SWAP1 PUSH2 0x118F JUMP JUMPDEST PUSH2 0x6BB JUMP JUMPDEST PUSH1 0x40 MLOAD PUSH2 0x2CC SWAP2 SWAP1 PUSH2 0x102E JUMP JUMPDEST PUSH1 0x40 MLOAD DUP1 SWAP2 SUB SWAP1 RETURN JUMPDEST PUSH2 0x2EF PUSH1 0x4 DUP1 CALLDATASIZE SUB DUP2 ADD SWAP1 PUSH2 0x2EA SWAP2 SWAP1 PUSH2 0x118F JUMP JUMPDEST PUSH2 0x732 JUMP JUMPDEST PUSH1 0x40 MLOAD PUSH2 0x2FC SWAP2 SWAP1 PUSH2 0x102E JUMP JUMPDEST PUSH1 0x40 MLOAD DUP1 SWAP2 SUB SWAP1 RETURN JUMPDEST PUSH2 0x31F PUSH1 0x4 DUP1 CALLDATASIZE SUB DUP2 ADD SWAP1 PUSH2 0x31A SWAP2 SWAP1 PUSH2 0x13E5 JUMP JUMPDEST PUSH2 0x755 JUMP JUMPDEST STOP JUMPDEST PUSH2 0x33B PUSH1 0x4 DUP1 CALLDATASIZE SUB DUP2 ADD SWAP1 PUSH2 0x336 SWAP2 SWAP1 PUSH2 0x1468 JUMP JUMPDEST PUSH2 0x77F JUMP JUMPDEST PUSH1 0x40 MLOAD PUSH2 0x348 SWAP2 SWAP1 PUSH2 0x11DE JUMP JUMPDEST PUSH1 0x40 MLOAD DUP1 SWAP2 SUB SWAP1 RETURN JUMPDEST PUSH2 0x36B PUSH1 0x4 DUP1 CALLDATASIZE SUB DUP2 ADD SWAP1 PUSH2 0x366 SWAP2 SWAP1 PUSH2 0x14A8 JUMP JUMPDEST PUSH2 0x806 JUMP JUMPDEST STOP JUMPDEST PUSH1 0x0 PUSH32 0x6578737100000000000000000000000000000000000000000000000000000000 PUSH28 0xFFFFFFFFFFFFFFFFFFFFFFFFFFFFFFFFFFFFFFFFFFFFFFFFFFFFFFFF NOT AND DUP3 PUSH28 0xFFFFFFFFFFFFFFFFFFFFFFFFFFFFFFFFFFFFFFFFFFFFFFFFFFFFFFFF NOT AND EQ DUP1 PUSH2 0x438 JUMPI POP PUSH32 0xA219A02500000000000000000000000000000000000000000000000000000000 PUSH28 0xFFFFFFFFFFFFFFFFFFFFFFFFFFFFFFFFFFFFFFFFFFFFFFFFFFFFFFFF NOT AND DUP3 PUSH28 0xFFFFFFFFFFFFFFFFFFFFFFFFFFFFFFFFFFFFFFFFFFFFFFFFFFFFFFFF NOT AND EQ JUMPDEST DUP1 PUSH2 0x448 JUMPI POP PUSH2 0x447 DUP3 PUSH2 0x824 JUMP JUMPDEST JUMPDEST SWAP1 POP SWAP2 SWAP1 POP JUMP JUMPDEST PUSH1 0x60 PUSH1 0x3 DUP1 SLOAD PUSH2 0x45E SWAP1 PUSH2 0x1546 JUMP JUMPDEST DUP1 PUSH1 0x1F ADD PUSH1 0x20 DUP1 SWAP2 DIV MUL PUSH1 0x20 ADD PUSH1 0x40 MLOAD SWAP1 DUP2 ADD PUSH1 0x40 MSTORE DUP1 SWAP3 SWAP2 SWAP1 DUP2 DUP2 MSTORE PUSH1 0x20 ADD DUP3 DUP1 SLOAD PUSH2 0x48A SWAP1 PUSH2 0x1546 JUMP JUMPDEST DUP1 ISZERO PUSH2 0x4D7 JUMPI DUP1 PUSH1 0x1F LT PUSH2 0x4AC JUMPI PUSH2 0x100 DUP1 DUP4 SLOAD DIV MUL DUP4 MSTORE SWAP2 PUSH1 0x20 ADD SWAP2 PUSH2 0x4D7 JUMP JUMPDEST DUP3 ADD SWAP2 SWAP1 PUSH1 0x0 MSTORE PUSH1 0x20 PUSH1 0x0 KECCAK256 SWAP1 JUMPDEST DUP2 SLOAD DUP2 MSTORE SWAP1 PUSH1 0x1 ADD SWAP1 PUSH1 0x20 ADD DUP1 DUP4 GT PUSH2 0x4BA JUMPI DUP3 SWAP1 SUB PUSH1 0x1F AND DUP3 ADD SWAP2 JUMPDEST POP POP POP POP POP SWAP1 POP SWAP1 JUMP JUMPDEST PUSH1 0x0 DUP1 PUSH2 0x4EC PUSH2 0x88E JUMP JUMPDEST SWAP1 POP PUSH2 0x4F9 DUP2 DUP6 DUP6 PUSH2 0x896 JUMP JUMPDEST PUSH1 0x1 SWAP2 POP POP SWAP3 SWAP2 POP POP JUMP JUMPDEST PUSH1 0x0 PUSH1 0x2 SLOAD SWAP1 POP SWAP1 JUMP JUMPDEST PUSH1 0x0 DUP1 PUSH2 0x519 PUSH2 0x88E JUMP JUMPDEST SWAP1 POP PUSH2 0x526 DUP6 DUP3 DUP6 PUSH2 0xA5F JUMP JUMPDEST PUSH2 0x531 DUP6 DUP6 DUP6 PUSH2 0xAEB JUMP JUMPDEST PUSH1 0x1 SWAP2 POP POP SWAP4 SWAP3 POP POP POP JUMP JUMPDEST PUSH1 0x0 PUSH1 0x12 SWAP1 POP SWAP1 JUMP JUMPDEST PUSH1 0x0 DUP1 PUSH2 0x551 PUSH2 0x88E JUMP JUMPDEST SWAP1 POP PUSH2 0x572 DUP2 DUP6 DUP6 PUSH2 0x563 DUP6 DUP10 PUSH2 0x77F JUMP JUMPDEST PUSH2 0x56D SWAP2 SWAP1 PUSH2 0x15A6 JUMP JUMPDEST PUSH2 0x896 JUMP JUMPDEST PUSH1 0x1 SWAP2 POP POP SWAP3 SWAP2 POP POP JUMP JUMPDEST PUSH1 0x0 PUSH2 0x587 PUSH2 0x88E JUMP JUMPDEST SWAP1 POP PUSH2 0x5A4 DUP2 DUP5 DUP5 PUSH1 0x40 MLOAD DUP1 PUSH1 0x20 ADD PUSH1 0x40 MSTORE DUP1 PUSH1 0x0 DUP2 MSTORE POP PUSH2 0xD6A JUMP JUMPDEST POP POP POP JUMP JUMPDEST PUSH1 0x0 PUSH2 0x5B3 PUSH2 0x88E JUMP JUMPDEST SWAP1 POP PUSH2 0x5C0 DUP5 DUP3 DUP5 PUSH2 0xA5F JUMP JUMPDEST PUSH2 0x5DB DUP5 DUP5 DUP5 PUSH1 0x40 MLOAD DUP1 PUSH1 0x20 ADD PUSH1 0x40 MSTORE DUP1 PUSH1 0x0 DUP2 MSTORE POP PUSH2 0xD6A JUMP JUMPDEST POP POP POP POP JUMP JUMPDEST PUSH1 0x0 DUP1 PUSH1 0x0 DUP4 PUSH20 0xFFFFFFFFFFFFFFFFFFFFFFFFFFFFFFFFFFFFFFFF AND PUSH20 0xFFFFFFFFFFFFFFFFFFFFFFFFFFFFFFFFFFFFFFFF AND DUP2 MSTORE PUSH1 0x20 ADD SWAP1 DUP2 MSTORE PUSH1 0x20 ADD PUSH1 0x0 KECCAK256 SLOAD SWAP1 POP SWAP2 SWAP1 POP JUMP JUMPDEST PUSH1 0x60 PUSH1 0x4 DUP1 SLOAD PUSH2 0x638 SWAP1 PUSH2 0x1546 JUMP JUMPDEST DUP1 PUSH1 0x1F ADD PUSH1 0x20 DUP1 SWAP2 DIV MUL PUSH1 0x20 ADD PUSH1 0x40 MLOAD SWAP1 DUP2 ADD PUSH1 0x40 MSTORE DUP1 SWAP3 SWAP2 SWAP1 DUP2 DUP2 MSTORE PUSH1 0x20 ADD DUP3 DUP1 SLOAD PUSH2 0x664 SWAP1 PUSH2 0x1546 JUMP JUMPDEST DUP1 ISZERO PUSH2 0x6B1 JUMPI DUP1 PUSH1 0x1F LT PUSH2 0x686 JUMPI PUSH2 0x100 DUP1 DUP4 SLOAD DIV MUL DUP4 MSTORE SWAP2 PUSH1 0x20 ADD SWAP2 PUSH2 0x6B1 JUMP JUMPDEST DUP3 ADD SWAP2 SWAP1 PUSH1 0x0 MSTORE PUSH1 0x20 PUSH1 0x0 KECCAK256 SWAP1 JUMPDEST DUP2 SLOAD DUP2 MSTORE SWAP1 PUSH1 0x1 ADD SWAP1 PUSH1 0x20 ADD DUP1 DUP4 GT PUSH2 0x694 JUMPI DUP3 SWAP1 SUB PUSH1 0x1F AND DUP3 ADD SWAP2 JUMPDEST POP POP POP POP POP SWAP1 POP SWAP1 JUMP JUMPDEST PUSH1 0x0 DUP1 PUSH2 0x6C6 PUSH2 0x88E JUMP JUMPDEST SWAP1 POP PUSH1 0x0 PUSH2 0x6D4 DUP3 DUP7 PUSH2 0x77F JUMP JUMPDEST SWAP1 POP DUP4 DUP2 LT ISZERO PUSH2 0x719 JUMPI PUSH1 0x40 MLOAD PUSH32 0x8C379A000000000000000000000000000000000000000000000000000000000 DUP2 MSTORE PUSH1 0x4 ADD PUSH2 0x710 SWAP1 PUSH2 0x164C JUMP JUMPDEST PUSH1 0x40 MLOAD DUP1 SWAP2 SUB SWAP1 REVERT JUMPDEST PUSH2 0x726 DUP3 DUP7 DUP7 DUP5 SUB PUSH2 0x896 JUMP JUMPDEST PUSH1 0x1 SWAP3 POP POP POP SWAP3 SWAP2 POP POP JUMP JUMPDEST PUSH1 0x0 DUP1 PUSH2 0x73D PUSH2 0x88E JUMP JUMPDEST SWAP1 POP PUSH2 0x74A DUP2 DUP6 DUP6 PUSH2 0xAEB JUMP JUMPDEST PUSH1 0x1 SWAP2 POP POP SWAP3 SWAP2 POP POP JUMP JUMPDEST PUSH1 0x0 PUSH2 0x75F PUSH2 0x88E JUMP JUMPDEST SWAP1 POP PUSH2 0x76C DUP6 DUP3 DUP6 PUSH2 0xA5F JUMP JUMPDEST PUSH2 0x778 DUP6 DUP6 DUP6 DUP6 PUSH2 0xD6A JUMP JUMPDEST POP POP POP POP POP JUMP JUMPDEST PUSH1 0x0 PUSH1 0x1 PUSH1 0x0 DUP5 PUSH20 0xFFFFFFFFFFFFFFFFFFFFFFFFFFFFFFFFFFFFFFFF AND PUSH20 0xFFFFFFFFFFFFFFFFFFFFFFFFFFFFFFFFFFFFFFFF AND DUP2 MSTORE PUSH1 0x20 ADD SWAP1 DUP2 MSTORE PUSH1 0x20 ADD PUSH1 0x0 KECCAK256 PUSH1 0x0 DUP4 PUSH20 0xFFFFFFFFFFFFFFFFFFFFFFFFFFFFFFFFFFFFFFFF AND PUSH20 0xFFFFFFFFFFFFFFFFFFFFFFFFFFFFFFFFFFFFFFFF AND DUP2 MSTORE PUSH1 0x20 ADD SWAP1 DUP2 MSTORE PUSH1 0x20 ADD PUSH1 0x0 KECCAK256 SLOAD SWAP1 POP SWAP3 SWAP2 POP POP JUMP JUMPDEST PUSH1 0x0 PUSH2 0x810 PUSH2 0x88E JUMP JUMPDEST SWAP1 POP PUSH2 0x81E DUP2 DUP6 DUP6 DUP6 PUSH2 0xD6A JUMP JUMPDEST POP POP POP POP JUMP JUMPDEST PUSH1 0x0 PUSH32 0x1FFC9A700000000000000000000000000000000000000000000000000000000 PUSH28 0xFFFFFFFFFFFFFFFFFFFFFFFFFFFFFFFFFFFFFFFFFFFFFFFFFFFFFFFF NOT AND DUP3 PUSH28 0xFFFFFFFFFFFFFFFFFFFFFFFFFFFFFFFFFFFFFFFFFFFFFFFFFFFFFFFF NOT AND EQ SWAP1 POP SWAP2 SWAP1 POP JUMP JUMPDEST PUSH1 0x0 CALLER SWAP1 POP SWAP1 JUMP JUMPDEST PUSH1 0x0 PUSH20 0xFFFFFFFFFFFFFFFFFFFFFFFFFFFFFFFFFFFFFFFF AND DUP4 PUSH20 0xFFFFFFFFFFFFFFFFFFFFFFFFFFFFFFFFFFFFFFFF AND SUB PUSH2 0x905 JUMPI PUSH1 0x40 MLOAD PUSH32 0x8C379A000000000000000000000000000000000000000000000000000000000 DUP2 MSTORE PUSH1 0x4 ADD PUSH2 0x8FC SWAP1 PUSH2 0x16DE JUMP JUMPDEST PUSH1 0x40 MLOAD DUP1 SWAP2 SUB SWAP1 REVERT JUMPDEST PUSH1 0x0 PUSH20 0xFFFFFFFFFFFFFFFFFFFFFFFFFFFFFFFFFFFFFFFF AND DUP3 PUSH20 0xFFFFFFFFFFFFFFFFFFFFFFFFFFFFFFFFFFFFFFFF AND SUB PUSH2 0x974 JUMPI PUSH1 0x40 MLOAD PUSH32 0x8C379A000000000000000000000000000000000000000000000000000000000 DUP2 MSTORE PUSH1 0x4 ADD PUSH2 0x96B SWAP1 PUSH2 0x1770 JUMP JUMPDEST PUSH1 0x40 MLOAD DUP1 SWAP2 SUB SWAP1 REVERT JUMPDEST DUP1 PUSH1 0x1 PUSH1 0x0 DUP6 PUSH20 0xFFFFFFFFFFFFFFFFFFFFFFFFFFFFFFFFFFFFFFFF AND PUSH20 0xFFFFFFFFFFFFFFFFFFFFFFFFFFFFFFFFFFFFFFFF AND DUP2 MSTORE PUSH1 0x20 ADD SWAP1 DUP2 MSTORE PUSH1 0x20 ADD PUSH1 0x0 KECCAK256 PUSH1 0x0 DUP5 PUSH20 0xFFFFFFFFFFFFFFFFFFFFFFFFFFFFFFFFFFFFFFFF AND PUSH20 0xFFFFFFFFFFFFFFFFFFFFFFFFFFFFFFFFFFFFFFFF AND DUP2 MSTORE PUSH1 0x20 ADD SWAP1 DUP2 MSTORE PUSH1 0x20 ADD PUSH1 0x0 KECCAK256 DUP2 SWAP1 SSTORE POP DUP2 PUSH20 0xFFFFFFFFFFFFFFFFFFFFFFFFFFFFFFFFFFFFFFFF AND DUP4 PUSH20 0xFFFFFFFFFFFFFFFFFFFFFFFFFFFFFFFFFFFFFFFF AND PUSH32 0x8C5BE1E5EBEC7D5BD14F71427D1E84F3DD0314C0F7B2291E5B200AC8C7C3B925 DUP4 PUSH1 0x40 MLOAD PUSH2 0xA52 SWAP2 SWAP1 PUSH2 0x11DE JUMP JUMPDEST PUSH1 0x40 MLOAD DUP1 SWAP2 SUB SWAP1 LOG3 POP POP POP JUMP JUMPDEST PUSH1 0x0 PUSH2 0xA6B DUP5 DUP5 PUSH2 0x77F JUMP JUMPDEST SWAP1 POP PUSH32 0xFFFFFFFFFFFFFFFFFFFFFFFFFFFFFFFFFFFFFFFFFFFFFFFFFFFFFFFFFFFFFFFF DUP2 EQ PUSH2 0xAE5 JUMPI DUP2 DUP2 LT ISZERO PUSH2 0xAD7 JUMPI PUSH1 0x40 MLOAD PUSH32 0x8C379A000000000000000000000000000000000000000000000000000000000 DUP2 MSTORE PUSH1 0x4 ADD PUSH2 0xACE SWAP1 PUSH2 0x17DC JUMP JUMPDEST PUSH1 0x40 MLOAD DUP1 SWAP2 SUB SWAP1 REVERT JUMPDEST PUSH2 0xAE4 DUP5 DUP5 DUP5 DUP5 SUB PUSH2 0x896 JUMP JUMPDEST JUMPDEST POP POP POP POP JUMP JUMPDEST PUSH1 0x0 PUSH20 0xFFFFFFFFFFFFFFFFFFFFFFFFFFFFFFFFFFFFFFFF AND DUP4 PUSH20 0xFFFFFFFFFFFFFFFFFFFFFFFFFFFFFFFFFFFFFFFF AND SUB PUSH2 0xB5A JUMPI PUSH1 0x40 MLOAD PUSH32 0x8C379A000000000000000000000000000000000000000000000000000000000 DUP2 MSTORE PUSH1 0x4 ADD PUSH2 0xB51 SWAP1 PUSH2 0x186E JUMP JUMPDEST PUSH1 0x40 MLOAD DUP1 SWAP2 SUB SWAP1 REVERT JUMPDEST PUSH1 0x0 PUSH20 0xFFFFFFFFFFFFFFFFFFFFFFFFFFFFFFFFFFFFFFFF AND DUP3 PUSH20 0xFFFFFFFFFFFFFFFFFFFFFFFFFFFFFFFFFFFFFFFF AND SUB PUSH2 0xBC9 JUMPI PUSH1 0x40 MLOAD PUSH32 0x8C379A000000000000000000000000000000000000000000000000000000000 DUP2 MSTORE PUSH1 0x4 ADD PUSH2 0xBC0 SWAP1 PUSH2 0x1900 JUMP JUMPDEST PUSH1 0x40 MLOAD DUP1 SWAP2 SUB SWAP1 REVERT JUMPDEST PUSH2 0xBD4 DUP4 DUP4 DUP4 PUSH2 0xDC6 JUMP JUMPDEST PUSH1 0x0 DUP1 PUSH1 0x0 DUP6 PUSH20 0xFFFFFFFFFFFFFFFFFFFFFFFFFFFFFFFFFFFFFFFF AND PUSH20 0xFFFFFFFFFFFFFFFFFFFFFFFFFFFFFFFFFFFFFFFF AND DUP2 MSTORE PUSH1 0x20 ADD SWAP1 DUP2 MSTORE PUSH1 0x20 ADD PUSH1 0x0 KECCAK256 SLOAD SWAP1 POP DUP2 DUP2 LT ISZERO PUSH2 0xC5A JUMPI PUSH1 0x40 MLOAD PUSH32 0x8C379A000000000000000000000000000000000000000000000000000000000 DUP2 MSTORE PUSH1 0x4 ADD PUSH2 0xC51 SWAP1 PUSH2 0x1992 JUMP JUMPDEST PUSH1 0x40 MLOAD DUP1 SWAP2 SUB SWAP1 REVERT JUMPDEST DUP2 DUP2 SUB PUSH1 0x0 DUP1 DUP7 PUSH20 0xFFFFFFFFFFFFFFFFFFFFFFFFFFFFFFFFFFFFFFFF AND PUSH20 0xFFFFFFFFFFFFFFFFFFFFFFFFFFFFFFFFFFFFFFFF AND DUP2 MSTORE PUSH1 0x20 ADD SWAP1 DUP2 MSTORE PUSH1 0x20 ADD PUSH1 0x0 KECCAK256 DUP2 SWAP1 SSTORE POP DUP2 PUSH1 0x0 DUP1 DUP6 PUSH20 0xFFFFFFFFFFFFFFFFFFFFFFFFFFFFFFFFFFFFFFFF AND PUSH20 0xFFFFFFFFFFFFFFFFFFFFFFFFFFFFFFFFFFFFFFFF AND DUP2 MSTORE PUSH1 0x20 ADD SWAP1 DUP2 MSTORE PUSH1 0x20 ADD PUSH1 0x0 KECCAK256 PUSH1 0x0 DUP3 DUP3 SLOAD PUSH2 0xCED SWAP2 SWAP1 PUSH2 0x15A6 JUMP JUMPDEST SWAP3 POP POP DUP2 SWAP1 SSTORE POP DUP3 PUSH20 0xFFFFFFFFFFFFFFFFFFFFFFFFFFFFFFFFFFFFFFFF AND DUP5 PUSH20 0xFFFFFFFFFFFFFFFFFFFFFFFFFFFFFFFFFFFFFFFF AND PUSH32 0xDDF252AD1BE2C89B69C2B068FC378DAA952BA7F163C4A11628F55A4DF523B3EF DUP5 PUSH1 0x40 MLOAD PUSH2 0xD51 SWAP2 SWAP1 PUSH2 0x11DE JUMP JUMPDEST PUSH1 0x40 MLOAD DUP1 SWAP2 SUB SWAP1 LOG3 PUSH2 0xD64 DUP5 DUP5 DUP5 PUSH2 0xDCB JUMP JUMPDEST POP POP POP POP JUMP JUMPDEST PUSH2 0xD75 DUP5 DUP5 DUP5 PUSH2 0xAEB JUMP JUMPDEST PUSH2 0xD81 DUP5 DUP5 DUP5 DUP5 PUSH2 0xDD0 JUMP JUMPDEST PUSH2 0xDC0 JUMPI PUSH1 0x40 MLOAD PUSH32 0x8C379A000000000000000000000000000000000000000000000000000000000 DUP2 MSTORE PUSH1 0x4 ADD PUSH2 0xDB7 SWAP1 PUSH2 0x1A24 JUMP JUMPDEST PUSH1 0x40 MLOAD DUP1 SWAP2 SUB SWAP1 REVERT JUMPDEST POP POP POP POP JUMP JUMPDEST POP POP POP JUMP JUMPDEST POP POP POP JUMP JUMPDEST PUSH1 0x0 PUSH2 0xDF1 DUP5 PUSH20 0xFFFFFFFFFFFFFFFFFFFFFFFFFFFFFFFFFFFFFFFF AND PUSH2 0xF57 JUMP JUMPDEST ISZERO PUSH2 0xF4A JUMPI DUP4 PUSH20 0xFFFFFFFFFFFFFFFFFFFFFFFFFFFFFFFFFFFFFFFF AND PUSH4 0x9D188C22 PUSH2 0xE1A PUSH2 0x88E JUMP JUMPDEST DUP8 DUP7 DUP7 PUSH1 0x40 MLOAD DUP6 PUSH4 0xFFFFFFFF AND PUSH1 0xE0 SHL DUP2 MSTORE PUSH1 0x4 ADD PUSH2 0xE3C SWAP5 SWAP4 SWAP3 SWAP2 SWAP1 PUSH2 0x1AA8 JUMP JUMPDEST PUSH1 0x20 PUSH1 0x40 MLOAD DUP1 DUP4 SUB DUP2 PUSH1 0x0 DUP8 GAS CALL SWAP3 POP POP POP DUP1 ISZERO PUSH2 0xE78 JUMPI POP PUSH1 0x40 MLOAD RETURNDATASIZE PUSH1 0x1F NOT PUSH1 0x1F DUP3 ADD AND DUP3 ADD DUP1 PUSH1 0x40 MSTORE POP DUP2 ADD SWAP1 PUSH2 0xE75 SWAP2 SWAP1 PUSH2 0x1B09 JUMP JUMPDEST PUSH1 0x1 JUMPDEST PUSH2 0xEFA JUMPI RETURNDATASIZE DUP1 PUSH1 0x0 DUP2 EQ PUSH2 0xEA8 JUMPI PUSH1 0x40 MLOAD SWAP2 POP PUSH1 0x1F NOT PUSH1 0x3F RETURNDATASIZE ADD AND DUP3 ADD PUSH1 0x40 MSTORE RETURNDATASIZE DUP3 MSTORE RETURNDATASIZE PUSH1 0x0 PUSH1 0x20 DUP5 ADD RETURNDATACOPY PUSH2 0xEAD JUMP JUMPDEST PUSH1 0x60 SWAP2 POP JUMPDEST POP PUSH1 0x0 DUP2 MLOAD SUB PUSH2 0xEF2 JUMPI PUSH1 0x40 MLOAD PUSH32 0x8C379A000000000000000000000000000000000000000000000000000000000 DUP2 MSTORE PUSH1 0x4 ADD PUSH2 0xEE9 SWAP1 PUSH2 0x1BA8 JUMP JUMPDEST PUSH1 0x40 MLOAD DUP1 SWAP2 SUB SWAP1 REVERT JUMPDEST DUP1 MLOAD DUP2 PUSH1 0x20 ADD REVERT JUMPDEST PUSH4 0x9D188C22 PUSH1 0xE0 SHL PUSH28 0xFFFFFFFFFFFFFFFFFFFFFFFFFFFFFFFFFFFFFFFFFFFFFFFFFFFFFFFF NOT AND DUP2 PUSH28 0xFFFFFFFFFFFFFFFFFFFFFFFFFFFFFFFFFFFFFFFFFFFFFFFFFFFFFFFF NOT AND EQ SWAP2 POP POP PUSH2 0xF4F JUMP JUMPDEST PUSH1 0x1 SWAP1 POP JUMPDEST SWAP5 SWAP4 POP POP POP POP JUMP JUMPDEST PUSH1 0x0 DUP1 DUP3 PUSH20 0xFFFFFFFFFFFFFFFFFFFFFFFFFFFFFFFFFFFFFFFF AND EXTCODESIZE GT SWAP1 POP SWAP2 SWAP1 POP JUMP JUMPDEST PUSH1 0x0 PUSH1 0x40 MLOAD SWAP1 POP SWAP1 JUMP JUMPDEST PUSH1 0x0 DUP1 REVERT JUMPDEST PUSH1 0x0 DUP1 REVERT JUMPDEST PUSH1 0x0 PUSH32 0xFFFFFFFF00000000000000000000000000000000000000000000000000000000 DUP3 AND SWAP1 POP SWAP2 SWAP1 POP JUMP JUMPDEST PUSH2 0xFC3 DUP2 PUSH2 0xF8E JUMP JUMPDEST DUP2 EQ PUSH2 0xFCE JUMPI PUSH1 0x0 DUP1 REVERT JUMPDEST POP JUMP JUMPDEST PUSH1 0x0 DUP2 CALLDATALOAD SWAP1 POP PUSH2 0xFE0 DUP2 PUSH2 0xFBA JUMP JUMPDEST SWAP3 SWAP2 POP POP JUMP JUMPDEST PUSH1 0x0 PUSH1 0x20 DUP3 DUP5 SUB SLT ISZERO PUSH2 0xFFC JUMPI PUSH2 0xFFB PUSH2 0xF84 JUMP JUMPDEST JUMPDEST PUSH1 0x0 PUSH2 0x100A DUP5 DUP3 DUP6 ADD PUSH2 0xFD1 JUMP JUMPDEST SWAP2 POP POP SWAP3 SWAP2 POP POP JUMP JUMPDEST PUSH1 0x0 DUP2 ISZERO ISZERO SWAP1 POP SWAP2 SWAP1 POP JUMP JUMPDEST PUSH2 0x1028 DUP2 PUSH2 0x1013 JUMP JUMPDEST DUP3 MSTORE POP POP JUMP JUMPDEST PUSH1 0x0 PUSH1 0x20 DUP3 ADD SWAP1 POP PUSH2 0x1043 PUSH1 0x0 DUP4 ADD DUP5 PUSH2 0x101F JUMP JUMPDEST SWAP3 SWAP2 POP POP JUMP JUMPDEST PUSH1 0x0 DUP2 MLOAD SWAP1 POP SWAP2 SWAP1 POP JUMP JUMPDEST PUSH1 0x0 DUP3 DUP3 MSTORE PUSH1 0x20 DUP3 ADD SWAP1 POP SWAP3 SWAP2 POP POP JUMP JUMPDEST PUSH1 0x0 JUMPDEST DUP4 DUP2 LT ISZERO PUSH2 0x1083 JUMPI DUP1 DUP3 ADD MLOAD DUP2 DUP5 ADD MSTORE PUSH1 0x20 DUP2 ADD SWAP1 POP PUSH2 0x1068 JUMP JUMPDEST PUSH1 0x0 DUP5 DUP5 ADD MSTORE POP POP POP POP JUMP JUMPDEST PUSH1 0x0 PUSH1 0x1F NOT PUSH1 0x1F DUP4 ADD AND SWAP1 POP SWAP2 SWAP1 POP JUMP JUMPDEST PUSH1 0x0 PUSH2 0x10AB DUP3 PUSH2 0x1049 JUMP JUMPDEST PUSH2 0x10B5 DUP2 DUP6 PUSH2 0x1054 JUMP JUMPDEST SWAP4 POP PUSH2 0x10C5 DUP2 DUP6 PUSH1 0x20 DUP7 ADD PUSH2 0x1065 JUMP JUMPDEST PUSH2 0x10CE DUP2 PUSH2 0x108F JUMP JUMPDEST DUP5 ADD SWAP2 POP POP SWAP3 SWAP2 POP POP JUMP JUMPDEST PUSH1 0x0 PUSH1 0x20 DUP3 ADD SWAP1 POP DUP2 DUP2 SUB PUSH1 0x0 DUP4 ADD MSTORE PUSH2 0x10F3 DUP2 DUP5 PUSH2 0x10A0 JUMP JUMPDEST SWAP1 POP SWAP3 SWAP2 POP POP JUMP JUMPDEST PUSH1 0x0 PUSH20 0xFFFFFFFFFFFFFFFFFFFFFFFFFFFFFFFFFFFFFFFF DUP3 AND SWAP1 POP SWAP2 SWAP1 POP JUMP JUMPDEST PUSH1 0x0 PUSH2 0x1126 DUP3 PUSH2 0x10FB JUMP JUMPDEST SWAP1 POP SWAP2 SWAP1 POP JUMP JUMPDEST PUSH2 0x1136 DUP2 PUSH2 0x111B JUMP JUMPDEST DUP2 EQ PUSH2 0x1141 JUMPI PUSH1 0x0 DUP1 REVERT JUMPDEST POP JUMP JUMPDEST PUSH1 0x0 DUP2 CALLDATALOAD SWAP1 POP PUSH2 0x1153 DUP2 PUSH2 0x112D JUMP JUMPDEST SWAP3 SWAP2 POP POP JUMP JUMPDEST PUSH1 0x0 DUP2 SWAP1 POP SWAP2 SWAP1 POP JUMP JUMPDEST PUSH2 0x116C DUP2 PUSH2 0x1159 JUMP JUMPDEST DUP2 EQ PUSH2 0x1177 JUMPI PUSH1 0x0 DUP1 REVERT JUMPDEST POP JUMP JUMPDEST PUSH1 0x0 DUP2 CALLDATALOAD SWAP1 POP PUSH2 0x1189 DUP2 PUSH2 0x1163 JUMP JUMPDEST SWAP3 SWAP2 POP POP JUMP JUMPDEST PUSH1 0x0 DUP1 PUSH1 0x40 DUP4 DUP6 SUB SLT ISZERO PUSH2 0x11A6 JUMPI PUSH2 0x11A5 PUSH2 0xF84 JUMP JUMPDEST JUMPDEST PUSH1 0x0 PUSH2 0x11B4 DUP6 DUP3 DUP7 ADD PUSH2 0x1144 JUMP JUMPDEST SWAP3 POP POP PUSH1 0x20 PUSH2 0x11C5 DUP6 DUP3 DUP7 ADD PUSH2 0x117A JUMP JUMPDEST SWAP2 POP POP SWAP3 POP SWAP3 SWAP1 POP JUMP JUMPDEST PUSH2 0x11D8 DUP2 PUSH2 0x1159 JUMP JUMPDEST DUP3 MSTORE POP POP JUMP JUMPDEST PUSH1 0x0 PUSH1 0x20 DUP3 ADD SWAP1 POP PUSH2 0x11F3 PUSH1 0x0 DUP4 ADD DUP5 PUSH2 0x11CF JUMP JUMPDEST SWAP3 SWAP2 POP POP JUMP JUMPDEST PUSH1 0x0 DUP1 PUSH1 0x0 PUSH1 0x60 DUP5 DUP7 SUB SLT ISZERO PUSH2 0x1212 JUMPI PUSH2 0x1211 PUSH2 0xF84 JUMP JUMPDEST JUMPDEST PUSH1 0x0 PUSH2 0x1220 DUP7 DUP3 DUP8 ADD PUSH2 0x1144 JUMP JUMPDEST SWAP4 POP POP PUSH1 0x20 PUSH2 0x1231 DUP7 DUP3 DUP8 ADD PUSH2 0x1144 JUMP JUMPDEST SWAP3 POP POP PUSH1 0x40 PUSH2 0x1242 DUP7 DUP3 DUP8 ADD PUSH2 0x117A JUMP JUMPDEST SWAP2 POP POP SWAP3 POP SWAP3 POP SWAP3 JUMP JUMPDEST PUSH1 0x0 PUSH1 0xFF DUP3 AND SWAP1 POP SWAP2 SWAP1 POP JUMP JUMPDEST PUSH2 0x1262 DUP2 PUSH2 0x124C JUMP JUMPDEST DUP3 MSTORE POP POP JUMP JUMPDEST PUSH1 0x0 PUSH1 0x20 DUP3 ADD SWAP1 POP PUSH2 0x127D PUSH1 0x0 DUP4 ADD DUP5 PUSH2 0x1259 JUMP JUMPDEST SWAP3 SWAP2 POP POP JUMP JUMPDEST PUSH1 0x0 PUSH1 0x20 DUP3 DUP5 SUB SLT ISZERO PUSH2 0x1299 JUMPI PUSH2 0x1298 PUSH2 0xF84 JUMP JUMPDEST JUMPDEST PUSH1 0x0 PUSH2 0x12A7 DUP5 DUP3 DUP6 ADD PUSH2 0x1144 JUMP JUMPDEST SWAP2 POP POP SWAP3 SWAP2 POP POP JUMP JUMPDEST PUSH1 0x0 DUP1 REVERT JUMPDEST PUSH1 0x0 DUP1 REVERT JUMPDEST PUSH32 0x4E487B7100000000000000000000000000000000000000000000000000000000 PUSH1 0x0 MSTORE PUSH1 0x41 PUSH1 0x4 MSTORE PUSH1 0x24 PUSH1 0x0 REVERT JUMPDEST PUSH2 0x12F2 DUP3 PUSH2 0x108F JUMP JUMPDEST DUP2 ADD DUP2 DUP2 LT PUSH8 0xFFFFFFFFFFFFFFFF DUP3 GT OR ISZERO PUSH2 0x1311 JUMPI PUSH2 0x1310 PUSH2 0x12BA JUMP JUMPDEST JUMPDEST DUP1 PUSH1 0x40 MSTORE POP POP POP JUMP JUMPDEST PUSH1 0x0 PUSH2 0x1324 PUSH2 0xF7A JUMP JUMPDEST SWAP1 POP PUSH2 0x1330 DUP3 DUP3 PUSH2 0x12E9 JUMP JUMPDEST SWAP2 SWAP1 POP JUMP JUMPDEST PUSH1 0x0 PUSH8 0xFFFFFFFFFFFFFFFF DUP3 GT ISZERO PUSH2 0x1350 JUMPI PUSH2 0x134F PUSH2 0x12BA JUMP JUMPDEST JUMPDEST PUSH2 0x1359 DUP3 PUSH2 0x108F JUMP JUMPDEST SWAP1 POP PUSH1 0x20 DUP2 ADD SWAP1 POP SWAP2 SWAP1 POP JUMP JUMPDEST DUP3 DUP2 DUP4 CALLDATACOPY PUSH1 0x0 DUP4 DUP4 ADD MSTORE POP POP POP JUMP JUMPDEST PUSH1 0x0 PUSH2 0x1388 PUSH2 0x1383 DUP5 PUSH2 0x1335 JUMP JUMPDEST PUSH2 0x131A JUMP JUMPDEST SWAP1 POP DUP3 DUP2 MSTORE PUSH1 0x20 DUP2 ADD DUP5 DUP5 DUP5 ADD GT ISZERO PUSH2 0x13A4 JUMPI PUSH2 0x13A3 PUSH2 0x12B5 JUMP JUMPDEST JUMPDEST PUSH2 0x13AF DUP5 DUP3 DUP6 PUSH2 0x1366 JUMP JUMPDEST POP SWAP4 SWAP3 POP POP POP JUMP JUMPDEST PUSH1 0x0 DUP3 PUSH1 0x1F DUP4 ADD SLT PUSH2 0x13CC JUMPI PUSH2 0x13CB PUSH2 0x12B0 JUMP JUMPDEST JUMPDEST DUP2 CALLDATALOAD PUSH2 0x13DC DUP5 DUP3 PUSH1 0x20 DUP7 ADD PUSH2 0x1375 JUMP JUMPDEST SWAP2 POP POP SWAP3 SWAP2 POP POP JUMP JUMPDEST PUSH1 0x0 DUP1 PUSH1 0x0 DUP1 PUSH1 0x80 DUP6 DUP8 SUB SLT ISZERO PUSH2 0x13FF JUMPI PUSH2 0x13FE PUSH2 0xF84 JUMP JUMPDEST JUMPDEST PUSH1 0x0 PUSH2 0x140D DUP8 DUP3 DUP9 ADD PUSH2 0x1144 JUMP JUMPDEST SWAP5 POP POP PUSH1 0x20 PUSH2 0x141E DUP8 DUP3 DUP9 ADD PUSH2 0x1144 JUMP JUMPDEST SWAP4 POP POP PUSH1 0x40 PUSH2 0x142F DUP8 DUP3 DUP9 ADD PUSH2 0x117A JUMP JUMPDEST SWAP3 POP POP PUSH1 0x60 DUP6 ADD CALLDATALOAD PUSH8 0xFFFFFFFFFFFFFFFF DUP2 GT ISZERO PUSH2 0x1450 JUMPI PUSH2 0x144F PUSH2 0xF89 JUMP JUMPDEST JUMPDEST PUSH2 0x145C DUP8 DUP3 DUP9 ADD PUSH2 0x13B7 JUMP JUMPDEST SWAP2 POP POP SWAP3 SWAP6 SWAP2 SWAP5 POP SWAP3 POP JUMP JUMPDEST PUSH1 0x0 DUP1 PUSH1 0x40 DUP4 DUP6 SUB SLT ISZERO PUSH2 0x147F JUMPI PUSH2 0x147E PUSH2 0xF84 JUMP JUMPDEST JUMPDEST PUSH1 0x0 PUSH2 0x148D DUP6 DUP3 DUP7 ADD PUSH2 0x1144 JUMP JUMPDEST SWAP3 POP POP PUSH1 0x20 PUSH2 0x149E DUP6 DUP3 DUP7 ADD PUSH2 0x1144 JUMP JUMPDEST SWAP2 POP POP SWAP3 POP SWAP3 SWAP1 POP JUMP JUMPDEST PUSH1 0x0 DUP1 PUSH1 0x0 PUSH1 0x60 DUP5 DUP7 SUB SLT ISZERO PUSH2 0x14C1 JUMPI PUSH2 0x14C0 PUSH2 0xF84 JUMP JUMPDEST JUMPDEST PUSH1 0x0 PUSH2 0x14CF DUP7 DUP3 DUP8 ADD PUSH2 0x1144 JUMP JUMPDEST SWAP4 POP POP PUSH1 0x20 PUSH2 0x14E0 DUP7 DUP3 DUP8 ADD PUSH2 0x117A JUMP JUMPDEST SWAP3 POP POP PUSH1 0x40 DUP5 ADD CALLDATALOAD PUSH8 0xFFFFFFFFFFFFFFFF DUP2 GT ISZERO PUSH2 0x1501 JUMPI PUSH2 0x1500 PUSH2 0xF89 JUMP JUMPDEST JUMPDEST PUSH2 0x150D DUP7 DUP3 DUP8 ADD PUSH2 0x13B7 JUMP JUMPDEST SWAP2 POP POP SWAP3 POP SWAP3 POP SWAP3 JUMP JUMPDEST PUSH32 0x4E487B7100000000000000000000000000000000000000000000000000000000 PUSH1 0x0 MSTORE PUSH1 0x22 PUSH1 0x4 MSTORE PUSH1 0x24 PUSH1 0x0 REVERT JUMPDEST PUSH1 0x0 PUSH1 0x2 DUP3 DIV SWAP1 POP PUSH1 0x1 DUP3 AND DUP1 PUSH2 0x155E JUMPI PUSH1 0x7F DUP3 AND SWAP2 POP JUMPDEST PUSH1 0x20 DUP3 LT DUP2 SUB PUSH2 0x1571 JUMPI PUSH2 0x1570 PUSH2 0x1517 JUMP JUMPDEST JUMPDEST POP SWAP2 SWAP1 POP JUMP JUMPDEST PUSH32 0x4E487B7100000000000000000000000000000000000000000000000000000000 PUSH1 0x0 MSTORE PUSH1 0x11 PUSH1 0x4 MSTORE PUSH1 0x24 PUSH1 0x0 REVERT JUMPDEST PUSH1 0x0 PUSH2 0x15B1 DUP3 PUSH2 0x1159 JUMP JUMPDEST SWAP2 POP PUSH2 0x15BC DUP4 PUSH2 0x1159 JUMP JUMPDEST SWAP3 POP DUP3 DUP3 ADD SWAP1 POP DUP1 DUP3 GT ISZERO PUSH2 0x15D4 JUMPI PUSH2 0x15D3 PUSH2 0x1577 JUMP JUMPDEST JUMPDEST SWAP3 SWAP2 POP POP JUMP JUMPDEST PUSH32 0x4B4950373A2064656372656173656420616C6C6F77616E63652062656C6F7720 PUSH1 0x0 DUP3 ADD MSTORE PUSH32 0x7A65726F00000000000000000000000000000000000000000000000000000000 PUSH1 0x20 DUP3 ADD MSTORE POP JUMP JUMPDEST PUSH1 0x0 PUSH2 0x1636 PUSH1 0x24 DUP4 PUSH2 0x1054 JUMP JUMPDEST SWAP2 POP PUSH2 0x1641 DUP3 PUSH2 0x15DA JUMP JUMPDEST PUSH1 0x40 DUP3 ADD SWAP1 POP SWAP2 SWAP1 POP JUMP JUMPDEST PUSH1 0x0 PUSH1 0x20 DUP3 ADD SWAP1 POP DUP2 DUP2 SUB PUSH1 0x0 DUP4 ADD MSTORE PUSH2 0x1665 DUP2 PUSH2 0x1629 JUMP JUMPDEST SWAP1 POP SWAP2 SWAP1 POP JUMP JUMPDEST PUSH32 0x4B4950373A20617070726F76652066726F6D20746865207A65726F2061646472 PUSH1 0x0 DUP3 ADD MSTORE PUSH32 0x6573730000000000000000000000000000000000000000000000000000000000 PUSH1 0x20 DUP3 ADD MSTORE POP JUMP JUMPDEST PUSH1 0x0 PUSH2 0x16C8 PUSH1 0x23 DUP4 PUSH2 0x1054 JUMP JUMPDEST SWAP2 POP PUSH2 0x16D3 DUP3 PUSH2 0x166C JUMP JUMPDEST PUSH1 0x40 DUP3 ADD SWAP1 POP SWAP2 SWAP1 POP JUMP JUMPDEST PUSH1 0x0 PUSH1 0x20 DUP3 ADD SWAP1 POP DUP2 DUP2 SUB PUSH1 0x0 DUP4 ADD MSTORE PUSH2 0x16F7 DUP2 PUSH2 0x16BB JUMP JUMPDEST SWAP1 POP SWAP2 SWAP1 POP JUMP JUMPDEST PUSH32 0x4B4950373A20617070726F766520746F20746865207A65726F20616464726573 PUSH1 0x0 DUP3 ADD MSTORE PUSH32 0x7300000000000000000000000000000000000000000000000000000000000000 PUSH1 0x20 DUP3 ADD MSTORE POP JUMP JUMPDEST PUSH1 0x0 PUSH2 0x175A PUSH1 0x21 DUP4 PUSH2 0x1054 JUMP JUMPDEST SWAP2 POP PUSH2 0x1765 DUP3 PUSH2 0x16FE JUMP JUMPDEST PUSH1 0x40 DUP3 ADD SWAP1 POP SWAP2 SWAP1 POP JUMP JUMPDEST PUSH1 0x0 PUSH1 0x20 DUP3 ADD SWAP1 POP DUP2 DUP2 SUB PUSH1 0x0 DUP4 ADD MSTORE PUSH2 0x1789 DUP2 PUSH2 0x174D JUMP JUMPDEST SWAP1 POP SWAP2 SWAP1 POP JUMP JUMPDEST PUSH32 0x4B4950373A20696E73756666696369656E7420616C6C6F77616E636500000000 PUSH1 0x0 DUP3 ADD MSTORE POP JUMP JUMPDEST PUSH1 0x0 PUSH2 0x17C6 PUSH1 0x1C DUP4 PUSH2 0x1054 JUMP JUMPDEST SWAP2 POP PUSH2 0x17D1 DUP3 PUSH2 0x1790 JUMP JUMPDEST PUSH1 0x20 DUP3 ADD SWAP1 POP SWAP2 SWAP1 POP JUMP JUMPDEST PUSH1 0x0 PUSH1 0x20 DUP3 ADD SWAP1 POP DUP2 DUP2 SUB PUSH1 0x0 DUP4 ADD MSTORE PUSH2 0x17F5 DUP2 PUSH2 0x17B9 JUMP JUMPDEST SWAP1 POP SWAP2 SWAP1 POP JUMP JUMPDEST PUSH32 0x4B4950373A207472616E736665722066726F6D20746865207A65726F20616464 PUSH1 0x0 DUP3 ADD MSTORE PUSH32 0x7265737300000000000000000000000000000000000000000000000000000000 PUSH1 0x20 DUP3 ADD MSTORE POP JUMP JUMPDEST PUSH1 0x0 PUSH2 0x1858 PUSH1 0x24 DUP4 PUSH2 0x1054 JUMP JUMPDEST SWAP2 POP PUSH2 0x1863 DUP3 PUSH2 0x17FC JUMP JUMPDEST PUSH1 0x40 DUP3 ADD SWAP1 POP SWAP2 SWAP1 POP JUMP JUMPDEST PUSH1 0x0 PUSH1 0x20 DUP3 ADD SWAP1 POP DUP2 DUP2 SUB PUSH1 0x0 DUP4 ADD MSTORE PUSH2 0x1887 DUP2 PUSH2 0x184B JUMP JUMPDEST SWAP1 POP SWAP2 SWAP1 POP JUMP JUMPDEST PUSH32 0x4B4950373A207472616E7366657220746F20746865207A65726F206164647265 PUSH1 0x0 DUP3 ADD MSTORE PUSH32 0x7373000000000000000000000000000000000000000000000000000000000000 PUSH1 0x20 DUP3 ADD MSTORE POP JUMP JUMPDEST PUSH1 0x0 PUSH2 0x18EA PUSH1 0x22 DUP4 PUSH2 0x1054 JUMP JUMPDEST SWAP2 POP PUSH2 0x18F5 DUP3 PUSH2 0x188E JUMP JUMPDEST PUSH1 0x40 DUP3 ADD SWAP1 POP SWAP2 SWAP1 POP JUMP JUMPDEST PUSH1 0x0 PUSH1 0x20 DUP3 ADD SWAP1 POP DUP2 DUP2 SUB PUSH1 0x0 DUP4 ADD MSTORE PUSH2 0x1919 DUP2 PUSH2 0x18DD JUMP JUMPDEST SWAP1 POP SWAP2 SWAP1 POP JUMP JUMPDEST PUSH32 0x4B4950373A207472616E7366657220616D6F756E742065786365656473206261 PUSH1 0x0 DUP3 ADD MSTORE PUSH32 0x6C616E6365000000000000000000000000000000000000000000000000000000 PUSH1 0x20 DUP3 ADD MSTORE POP JUMP JUMPDEST PUSH1 0x0 PUSH2 0x197C PUSH1 0x25 DUP4 PUSH2 0x1054 JUMP JUMPDEST SWAP2 POP PUSH2 0x1987 DUP3 PUSH2 0x1920 JUMP JUMPDEST PUSH1 0x40 DUP3 ADD SWAP1 POP SWAP2 SWAP1 POP JUMP JUMPDEST PUSH1 0x0 PUSH1 0x20 DUP3 ADD SWAP1 POP DUP2 DUP2 SUB PUSH1 0x0 DUP4 ADD MSTORE PUSH2 0x19AB DUP2 PUSH2 0x196F JUMP JUMPDEST SWAP1 POP SWAP2 SWAP1 POP JUMP JUMPDEST PUSH32 0x4B4950373A207472616E7366657220746F206E6F6E20494B4950375265636569 PUSH1 0x0 DUP3 ADD MSTORE PUSH32 0x76657220696D706C656D656E7465720000000000000000000000000000000000 PUSH1 0x20 DUP3 ADD MSTORE POP JUMP JUMPDEST PUSH1 0x0 PUSH2 0x1A0E PUSH1 0x2F DUP4 PUSH2 0x1054 JUMP JUMPDEST SWAP2 POP PUSH2 0x1A19 DUP3 PUSH2 0x19B2 JUMP JUMPDEST PUSH1 0x40 DUP3 ADD SWAP1 POP SWAP2 SWAP1 POP JUMP JUMPDEST PUSH1 0x0 PUSH1 0x20 DUP3 ADD SWAP1 POP DUP2 DUP2 SUB PUSH1 0x0 DUP4 ADD MSTORE PUSH2 0x1A3D DUP2 PUSH2 0x1A01 JUMP JUMPDEST SWAP1 POP SWAP2 SWAP1 POP JUMP JUMPDEST PUSH2 0x1A4D DUP2 PUSH2 0x111B JUMP JUMPDEST DUP3 MSTORE POP POP JUMP JUMPDEST PUSH1 0x0 DUP2 MLOAD SWAP1 POP SWAP2 SWAP1 POP JUMP JUMPDEST PUSH1 0x0 DUP3 DUP3 MSTORE PUSH1 0x20 DUP3 ADD SWAP1 POP SWAP3 SWAP2 POP POP JUMP JUMPDEST PUSH1 0x0 PUSH2 0x1A7A DUP3 PUSH2 0x1A53 JUMP JUMPDEST PUSH2 0x1A84 DUP2 DUP6 PUSH2 0x1A5E JUMP JUMPDEST SWAP4 POP PUSH2 0x1A94 DUP2 DUP6 PUSH1 0x20 DUP7 ADD PUSH2 0x1065 JUMP JUMPDEST PUSH2 0x1A9D DUP2 PUSH2 0x108F JUMP JUMPDEST DUP5 ADD SWAP2 POP POP SWAP3 SWAP2 POP POP JUMP JUMPDEST PUSH1 0x0 PUSH1 0x80 DUP3 ADD SWAP1 POP PUSH2 0x1ABD PUSH1 0x0 DUP4 ADD DUP8 PUSH2 0x1A44 JUMP JUMPDEST PUSH2 0x1ACA PUSH1 0x20 DUP4 ADD DUP7 PUSH2 0x1A44 JUMP JUMPDEST PUSH2 0x1AD7 PUSH1 0x40 DUP4 ADD DUP6 PUSH2 0x11CF JUMP JUMPDEST DUP2 DUP2 SUB PUSH1 0x60 DUP4 ADD MSTORE PUSH2 0x1AE9 DUP2 DUP5 PUSH2 0x1A6F JUMP JUMPDEST SWAP1 POP SWAP6 SWAP5 POP POP POP POP POP JUMP JUMPDEST PUSH1 0x0 DUP2 MLOAD SWAP1 POP PUSH2 0x1B03 DUP2 PUSH2 0xFBA JUMP JUMPDEST SWAP3 SWAP2 POP POP JUMP JUMPDEST PUSH1 0x0 PUSH1 0x20 DUP3 DUP5 SUB SLT ISZERO PUSH2 0x1B1F JUMPI PUSH2 0x1B1E PUSH2 0xF84 JUMP JUMPDEST JUMPDEST PUSH1 0x0 PUSH2 0x1B2D DUP5 DUP3 DUP6 ADD PUSH2 0x1AF4 JUMP JUMPDEST SWAP2 POP POP SWAP3 SWAP2 POP POP JUMP JUMPDEST PUSH32 0x4B4950373A207472616E7366657220746F206E6F6E204B495037526563656976 PUSH1 0x0 DUP3 ADD MSTORE PUSH32 0x657220696D706C656D656E746572000000000000000000000000000000000000 PUSH1 0x20 DUP3 ADD MSTORE POP JUMP JUMPDEST PUSH1 0x0 PUSH2 0x1B92 PUSH1 0x2E DUP4 PUSH2 0x1054 JUMP JUMPDEST SWAP2 POP PUSH2 0x1B9D DUP3 PUSH2 0x1B36 JUMP JUMPDEST PUSH1 0x40 DUP3 ADD SWAP1 POP SWAP2 SWAP1 POP JUMP JUMPDEST PUSH1 0x0 PUSH1 0x20 DUP3 ADD SWAP1 POP DUP2 DUP2 SUB PUSH1 0x0 DUP4 ADD MSTORE PUSH2 0x1BC1 DUP2 PUSH2 0x1B85 JUMP JUMPDEST SWAP1 POP SWAP2 SWAP1 POP JUMP INVALID LOG2 PUSH5 0x6970667358 0x22 SLT KECCAK256 0xB0 0xF9 GASPRICE SWAP6 ADDMOD PC 0xE1 0x21 0xD9 CALLCODE 0xD1 SIGNEXTEND 0xF6 GASLIMIT SWAP8 BYTE PUSH18 0xE6A0898A031EABD948544FE697FFC864736F PUSH13 0x63430008110033000000000000 "
				},
				"gasEstimates": {
					"creation": {
						"codeDepositCost": "1433200",
						"executionCost": "infinite",
						"totalCost": "infinite"
					},
					"external": {
						"allowance(address,address)": "infinite",
						"approve(address,uint256)": "infinite",
						"balanceOf(address)": "2886",
						"decimals()": "388",
						"decreaseAllowance(address,uint256)": "infinite",
						"increaseAllowance(address,uint256)": "infinite",
						"name()": "infinite",
						"safeTransfer(address,uint256)": "infinite",
						"safeTransfer(address,uint256,bytes)": "infinite",
						"safeTransferFrom(address,address,uint256)": "infinite",
						"safeTransferFrom(address,address,uint256,bytes)": "infinite",
						"supportsInterface(bytes4)": "797",
						"symbol()": "infinite",
						"totalSupply()": "2527",
						"transfer(address,uint256)": "infinite",
						"transferFrom(address,address,uint256)": "infinite"
					},
					"internal": {
						"_afterTokenTransfer(address,address,uint256)": "15",
						"_approve(address,address,uint256)": "infinite",
						"_beforeTokenTransfer(address,address,uint256)": "15",
						"_burn(address,uint256)": "infinite",
						"_checkOnKIP7Received(address,address,uint256,bytes memory)": "infinite",
						"_mint(address,uint256)": "infinite",
						"_safeMint(address,uint256)": "infinite",
						"_safeMint(address,uint256,bytes memory)": "infinite",
						"_safeTransfer(address,address,uint256,bytes memory)": "infinite",
						"_spendAllowance(address,address,uint256)": "infinite",
						"_transfer(address,address,uint256)": "infinite"
					}
				},
				"methodIdentifiers": {
					"allowance(address,address)": "dd62ed3e",
					"approve(address,uint256)": "095ea7b3",
					"balanceOf(address)": "70a08231",
					"decimals()": "313ce567",
					"decreaseAllowance(address,uint256)": "a457c2d7",
					"increaseAllowance(address,uint256)": "39509351",
					"name()": "06fdde03",
					"safeTransfer(address,uint256)": "423f6cef",
					"safeTransfer(address,uint256,bytes)": "eb795549",
					"safeTransferFrom(address,address,uint256)": "42842e0e",
					"safeTransferFrom(address,address,uint256,bytes)": "b88d4fde",
					"supportsInterface(bytes4)": "01ffc9a7",
					"symbol()": "95d89b41",
					"totalSupply()": "18160ddd",
					"transfer(address,uint256)": "a9059cbb",
					"transferFrom(address,address,uint256)": "23b872dd"
				}
			},
			"storageLayout": {
				"storage": [
					{
						"astId": 158,
						"contract": "contracts/KlaytnToken.sol:KIP7",
						"label": "_balances",
						"offset": 0,
						"slot": "0",
						"type": "t_mapping(t_address,t_uint256)"
					},
					{
						"astId": 164,
						"contract": "contracts/KlaytnToken.sol:KIP7",
						"label": "_allowances",
						"offset": 0,
						"slot": "1",
						"type": "t_mapping(t_address,t_mapping(t_address,t_uint256))"
					},
					{
						"astId": 166,
						"contract": "contracts/KlaytnToken.sol:KIP7",
						"label": "_totalSupply",
						"offset": 0,
						"slot": "2",
						"type": "t_uint256"
					},
					{
						"astId": 168,
						"contract": "contracts/KlaytnToken.sol:KIP7",
						"label": "_name",
						"offset": 0,
						"slot": "3",
						"type": "t_string_storage"
					},
					{
						"astId": 170,
						"contract": "contracts/KlaytnToken.sol:KIP7",
						"label": "_symbol",
						"offset": 0,
						"slot": "4",
						"type": "t_string_storage"
					}
				],
				"types": {
					"t_address": {
						"encoding": "inplace",
						"label": "address",
						"numberOfBytes": "20"
					},
					"t_mapping(t_address,t_mapping(t_address,t_uint256))": {
						"encoding": "mapping",
						"key": "t_address",
						"label": "mapping(address => mapping(address => uint256))",
						"numberOfBytes": "32",
						"value": "t_mapping(t_address,t_uint256)"
					},
					"t_mapping(t_address,t_uint256)": {
						"encoding": "mapping",
						"key": "t_address",
						"label": "mapping(address => uint256)",
						"numberOfBytes": "32",
						"value": "t_uint256"
					},
					"t_string_storage": {
						"encoding": "bytes",
						"label": "string",
						"numberOfBytes": "32"
					},
					"t_uint256": {
						"encoding": "inplace",
						"label": "uint256",
						"numberOfBytes": "32"
					}
				}
			},
			"userdoc": {
				"kind": "user",
				"methods": {},
				"version": 1
			}
		}
	}
}