{
	"contracts/KlaytnToken.sol": {
		"KIP7": {
			"abi": [
				{
					"inputs": [
						{
							"internalType": "string",
							"name": "name_",
							"type": "string"
						},
						{
							"internalType": "string",
							"name": "symbol_",
							"type": "string"
						}
					],
					"stateMutability": "nonpayable",
					"type": "constructor"
				},
				{
					"anonymous": false,
					"inputs": [
						{
							"indexed": true,
							"internalType": "address",
							"name": "owner",
							"type": "address"
						},
						{
							"indexed": true,
							"internalType": "address",
							"name": "spender",
							"type": "address"
						},
						{
							"indexed": false,
							"internalType": "uint256",
							"name": "value",
							"type": "uint256"
						}
					],
					"name": "Approval",
					"type": "event"
				},
				{
					"anonymous": false,
					"inputs": [
						{
							"indexed": true,
							"internalType": "address",
							"name": "from",
							"type": "address"
						},
						{
							"indexed": true,
							"internalType": "address",
							"name": "to",
							"type": "address"
						},
						{
							"indexed": false,
							"internalType": "uint256",
							"name": "value",
							"type": "uint256"
						}
					],
					"name": "Transfer",
					"type": "event"
				},
				{
					"inputs": [
						{
							"internalType": "address",
							"name": "owner",
							"type": "address"
						},
						{
							"internalType": "address",
							"name": "spender",
							"type": "address"
						}
					],
					"name": "allowance",
					"outputs": [
						{
							"internalType": "uint256",
							"name": "",
							"type": "uint256"
						}
					],
					"stateMutability": "view",
					"type": "function"
				},
				{
					"inputs": [
						{
							"internalType": "address",
							"name": "spender",
							"type": "address"
						},
						{
							"internalType": "uint256",
							"name": "amount",
							"type": "uint256"
						}
					],
					"name": "approve",
					"outputs": [
						{
							"internalType": "bool",
							"name": "",
							"type": "bool"
						}
					],
					"stateMutability": "nonpayable",
					"type": "function"
				},
				{
					"inputs": [
						{
							"internalType": "address",
							"name": "account",
							"type": "address"
						}
					],
					"name": "balanceOf",
					"outputs": [
						{
							"internalType": "uint256",
							"name": "",
							"type": "uint256"
						}
					],
					"stateMutability": "view",
					"type": "function"
				},
				{
					"inputs": [],
					"name": "decimals",
					"outputs": [
						{
							"internalType": "uint8",
							"name": "",
							"type": "uint8"
						}
					],
					"stateMutability": "view",
					"type": "function"
				},
				{
					"inputs": [
						{
							"internalType": "address",
							"name": "spender",
							"type": "address"
						},
						{
							"internalType": "uint256",
							"name": "subtractedValue",
							"type": "uint256"
						}
					],
					"name": "decreaseAllowance",
					"outputs": [
						{
							"internalType": "bool",
							"name": "",
							"type": "bool"
						}
					],
					"stateMutability": "nonpayable",
					"type": "function"
				},
				{
					"inputs": [
						{
							"internalType": "address",
							"name": "spender",
							"type": "address"
						},
						{
							"internalType": "uint256",
							"name": "addedValue",
							"type": "uint256"
						}
					],
					"name": "increaseAllowance",
					"outputs": [
						{
							"internalType": "bool",
							"name": "",
							"type": "bool"
						}
					],
					"stateMutability": "nonpayable",
					"type": "function"
				},
				{
					"inputs": [
						{
							"internalType": "uint256",
							"name": "amount",
							"type": "uint256"
						}
					],
					"name": "mint",
					"outputs": [],
					"stateMutability": "nonpayable",
					"type": "function"
				},
				{
					"inputs": [],
					"name": "name",
					"outputs": [
						{
							"internalType": "string",
							"name": "",
							"type": "string"
						}
					],
					"stateMutability": "view",
					"type": "function"
				},
				{
					"inputs": [
						{
							"internalType": "address",
							"name": "recipient",
							"type": "address"
						},
						{
							"internalType": "uint256",
							"name": "amount",
							"type": "uint256"
						}
					],
					"name": "safeTransfer",
					"outputs": [],
					"stateMutability": "nonpayable",
					"type": "function"
				},
				{
					"inputs": [
						{
							"internalType": "address",
							"name": "recipient",
							"type": "address"
						},
						{
							"internalType": "uint256",
							"name": "amount",
							"type": "uint256"
						},
						{
							"internalType": "bytes",
							"name": "_data",
							"type": "bytes"
						}
					],
					"name": "safeTransfer",
					"outputs": [],
					"stateMutability": "nonpayable",
					"type": "function"
				},
				{
					"inputs": [
						{
							"internalType": "address",
							"name": "sender",
							"type": "address"
						},
						{
							"internalType": "address",
							"name": "recipient",
							"type": "address"
						},
						{
							"internalType": "uint256",
							"name": "amount",
							"type": "uint256"
						}
					],
					"name": "safeTransferFrom",
					"outputs": [],
					"stateMutability": "nonpayable",
					"type": "function"
				},
				{
					"inputs": [
						{
							"internalType": "address",
							"name": "sender",
							"type": "address"
						},
						{
							"internalType": "address",
							"name": "recipient",
							"type": "address"
						},
						{
							"internalType": "uint256",
							"name": "amount",
							"type": "uint256"
						},
						{
							"internalType": "bytes",
							"name": "_data",
							"type": "bytes"
						}
					],
					"name": "safeTransferFrom",
					"outputs": [],
					"stateMutability": "nonpayable",
					"type": "function"
				},
				{
					"inputs": [
						{
							"internalType": "bytes4",
							"name": "interfaceId",
							"type": "bytes4"
						}
					],
					"name": "supportsInterface",
					"outputs": [
						{
							"internalType": "bool",
							"name": "",
							"type": "bool"
						}
					],
					"stateMutability": "view",
					"type": "function"
				},
				{
					"inputs": [],
					"name": "symbol",
					"outputs": [
						{
							"internalType": "string",
							"name": "",
							"type": "string"
						}
					],
					"stateMutability": "view",
					"type": "function"
				},
				{
					"inputs": [],
					"name": "totalSupply",
					"outputs": [
						{
							"internalType": "uint256",
							"name": "",
							"type": "uint256"
						}
					],
					"stateMutability": "view",
					"type": "function"
				},
				{
					"inputs": [
						{
							"internalType": "address",
							"name": "to",
							"type": "address"
						},
						{
							"internalType": "uint256",
							"name": "amount",
							"type": "uint256"
						}
					],
					"name": "transfer",
					"outputs": [
						{
							"internalType": "bool",
							"name": "",
							"type": "bool"
						}
					],
					"stateMutability": "nonpayable",
					"type": "function"
				},
				{
					"inputs": [
						{
							"internalType": "address",
							"name": "from",
							"type": "address"
						},
						{
							"internalType": "address",
							"name": "to",
							"type": "address"
						},
						{
							"internalType": "uint256",
							"name": "amount",
							"type": "uint256"
						}
					],
					"name": "transferFrom",
					"outputs": [
						{
							"internalType": "bool",
							"name": "",
							"type": "bool"
						}
					],
					"stateMutability": "nonpayable",
					"type": "function"
				}
			],
			"devdoc": {
				"details": "Implementation of the {IKIP7} interface. This implementation is agnostic to the way tokens are created. This means that a supply mechanism has to be added in a derived contract using {_mint}. For a generic mechanism see {KIP7PresetMinterPauser}. We have followed general OpenZeppelin Contracts guidelines: functions revert instead returning `false` on failure. This behavior is nonetheless conventional and does not conflict with the expectations of KIP7 applications. Additionally, an {Approval} event is emitted on calls to {transferFrom}. This allows applications to reconstruct the allowance for all accounts just by listening to said events. Other implementations of the EIP may not emit these events, as it isn't required by the specification. Finally, the non-standard {decreaseAllowance} and {increaseAllowance} functions have been added to mitigate the well-known issues around setting allowances. See {IKIP7-approve}. See http://kips.klaytn.com/KIPs/kip-7-fungible_token",
				"kind": "dev",
				"methods": {
					"allowance(address,address)": {
						"details": "See {IKIP7-allowance}."
					},
					"approve(address,uint256)": {
						"details": "See {IKIP7-approve}. NOTE: If `amount` is the maximum `uint256`, the allowance is not updated on `transferFrom`. This is semantically equivalent to an infinite approval. Requirements: - `spender` cannot be the zero address."
					},
					"balanceOf(address)": {
						"details": "See {IKIP7-balanceOf}."
					},
					"constructor": {
						"details": "Sets the values for {name} and {symbol}. The default value of {decimals} is 18. To select a different value for {decimals} you should overload it. All two of these values are immutable: they can only be set once during construction."
					},
					"decimals()": {
						"details": "Returns the number of decimals used to get its user representation. For example, if `decimals` equals `2`, a balance of `505` tokens should be displayed to a user as `5.05` (`505 / 10 ** 2`). Tokens usually opt for a value of 18, imitating the relationship between Ether and Wei. This is the value {KIP7} uses, unless this function is overridden; NOTE: This information is only used for _display_ purposes: it in no way affects any of the arithmetic of the contract, including {IKIP7-balanceOf} and {IKIP7-transfer}."
					},
					"decreaseAllowance(address,uint256)": {
						"details": "Atomically decreases the allowance granted to `spender` by the caller. This is an alternative to {approve} that can be used as a mitigation for problems described in {IKIP7-approve}. Emits an {Approval} event indicating the updated allowance. Requirements: - `spender` cannot be the zero address. - `spender` must have allowance for the caller of at least `subtractedValue`."
					},
					"increaseAllowance(address,uint256)": {
						"details": "Atomically increases the allowance granted to `spender` by the caller. This is an alternative to {approve} that can be used as a mitigation for problems described in {IKIP7-approve}. Emits an {Approval} event indicating the updated allowance. Requirements: - `spender` cannot be the zero address."
					},
					"name()": {
						"details": "Returns the name of the token."
					},
					"safeTransfer(address,uint256)": {
						"details": "See {IKIP7-safeTransfer}. Emits a {Transfer} event Requirements: - `recipient` cannot be the zero address. - the caller must have a balance of at least `amount`. - if `recipient` is a smart contract, it must implement {IKIP7Receiver}"
					},
					"safeTransfer(address,uint256,bytes)": {
						"details": "Same as {xref-KIP7-safeTransfer-address-uint256-}[`safeTransfer`], with an additional `_data` parameter which is forwarded in {IKIP7Receiver-onKIP7Received} to contract recipients. Emits a {Transfer} event"
					},
					"safeTransferFrom(address,address,uint256)": {
						"details": "See {IKIP7-safeTransferFrom}. Emits a {Transfer} event Emits an {Approval} event indicating the updated allowance. This is not required by the KIP. See the note at the beginning of {KIP7}. NOTE: Does not update the allowance if the current allowance is the maximum `uint256`. Requirements: - `sender` and `recipient` cannot be the zero address. - `sender` must have a balance of at least `amount`. - the caller must have allowance for ``sender``'s tokens of at least `amount`. - if `recipient` is a smart contract, it must implement {IKIP7Receiver}"
					},
					"safeTransferFrom(address,address,uint256,bytes)": {
						"details": "Same as {xref-KIP7-safeTransferFrom-address-uint256-}[`safeTransferFrom`], with an additional `_data` parameter which is forwarded in {IKIP7Receiver-onKIP7Received} to contract recipients. Emits a {Transfer} event Emits an {Approval} event indicating the updated allowance."
					},
					"supportsInterface(bytes4)": {
						"details": "See {IKIP13-supportsInterface}."
					},
					"symbol()": {
						"details": "Returns the symbol of the token, usually a shorter version of the name."
					},
					"totalSupply()": {
						"details": "See {IKIP7-totalSupply}."
					},
					"transfer(address,uint256)": {
						"details": "See {IKIP7-transfer}. Requirements: - `to` cannot be the zero address. - the caller must have a balance of at least `amount`."
					},
					"transferFrom(address,address,uint256)": {
						"details": "See {IKIP7-transferFrom}. Emits an {Approval} event indicating the updated allowance. This is not required by the EIP. See the note at the beginning of {KIP7}. NOTE: Does not update the allowance if the current allowance is the maximum `uint256`. Requirements: - `from` and `to` cannot be the zero address. - `from` must have a balance of at least `amount`. - the caller must have allowance for ``from``'s tokens of at least `amount`."
					}
				},
				"version": 1
			},
			"evm": {
				"assembly": "    /* \"contracts/KlaytnToken.sol\":1515:19294  contract KIP7 is KIP13, Context, IKIP7, IKIP7Metadata {... */\n  mstore(0x40, 0x80)\n    /* \"contracts/KlaytnToken.sol\":2126:2239  constructor(string memory name_, string memory symbol_) {... */\n  callvalue\n  dup1\n  iszero\n  tag_1\n  jumpi\n  0x00\n  dup1\n  revert\ntag_1:\n  pop\n  mload(0x40)\n  sub(codesize, bytecodeSize)\n  dup1\n  bytecodeSize\n  dup4\n  codecopy\n  dup2\n  dup2\n  add\n  0x40\n  mstore\n  dup2\n  add\n  swap1\n  tag_2\n  swap2\n  swap1\n  tag_3\n  jump\t// in\ntag_2:\n    /* \"contracts/KlaytnToken.sol\":2200:2205  name_ */\n  dup2\n    /* \"contracts/KlaytnToken.sol\":2192:2197  _name */\n  0x03\n    /* \"contracts/KlaytnToken.sol\":2192:2205  _name = name_ */\n  swap1\n  dup2\n  tag_6\n  swap2\n  swap1\n  tag_7\n  jump\t// in\ntag_6:\n  pop\n    /* \"contracts/KlaytnToken.sol\":2225:2232  symbol_ */\n  dup1\n    /* \"contracts/KlaytnToken.sol\":2215:2222  _symbol */\n  0x04\n    /* \"contracts/KlaytnToken.sol\":2215:2232  _symbol = symbol_ */\n  swap1\n  dup2\n  tag_8\n  swap2\n  swap1\n  tag_7\n  jump\t// in\ntag_8:\n  pop\n    /* \"contracts/KlaytnToken.sol\":2126:2239  constructor(string memory name_, string memory symbol_) {... */\n  pop\n  pop\n    /* \"contracts/KlaytnToken.sol\":1515:19294  contract KIP7 is KIP13, Context, IKIP7, IKIP7Metadata {... */\n  jump(tag_9)\n    /* \"#utility.yul\":7:82   */\ntag_10:\n    /* \"#utility.yul\":40:46   */\n  0x00\n    /* \"#utility.yul\":73:75   */\n  0x40\n    /* \"#utility.yul\":67:76   */\n  mload\n    /* \"#utility.yul\":57:76   */\n  swap1\n  pop\n    /* \"#utility.yul\":7:82   */\n  swap1\n  jump\t// out\n    /* \"#utility.yul\":88:205   */\ntag_11:\n    /* \"#utility.yul\":197:198   */\n  0x00\n    /* \"#utility.yul\":194:195   */\n  dup1\n    /* \"#utility.yul\":187:199   */\n  revert\n    /* \"#utility.yul\":211:328   */\ntag_12:\n    /* \"#utility.yul\":320:321   */\n  0x00\n    /* \"#utility.yul\":317:318   */\n  dup1\n    /* \"#utility.yul\":310:322   */\n  revert\n    /* \"#utility.yul\":334:451   */\ntag_13:\n    /* \"#utility.yul\":443:444   */\n  0x00\n    /* \"#utility.yul\":440:441   */\n  dup1\n    /* \"#utility.yul\":433:445   */\n  revert\n    /* \"#utility.yul\":457:574   */\ntag_14:\n    /* \"#utility.yul\":566:567   */\n  0x00\n    /* \"#utility.yul\":563:564   */\n  dup1\n    /* \"#utility.yul\":556:568   */\n  revert\n    /* \"#utility.yul\":580:682   */\ntag_15:\n    /* \"#utility.yul\":621:627   */\n  0x00\n    /* \"#utility.yul\":672:674   */\n  0x1f\n    /* \"#utility.yul\":668:675   */\n  not\n    /* \"#utility.yul\":663:665   */\n  0x1f\n    /* \"#utility.yul\":656:661   */\n  dup4\n    /* \"#utility.yul\":652:666   */\n  add\n    /* \"#utility.yul\":648:676   */\n  and\n    /* \"#utility.yul\":638:676   */\n  swap1\n  pop\n    /* \"#utility.yul\":580:682   */\n  swap2\n  swap1\n  pop\n  jump\t// out\n    /* \"#utility.yul\":688:868   */\ntag_16:\n    /* \"#utility.yul\":736:813   */\n  0x4e487b7100000000000000000000000000000000000000000000000000000000\n    /* \"#utility.yul\":733:734   */\n  0x00\n    /* \"#utility.yul\":726:814   */\n  mstore\n    /* \"#utility.yul\":833:837   */\n  0x41\n    /* \"#utility.yul\":830:831   */\n  0x04\n    /* \"#utility.yul\":823:838   */\n  mstore\n    /* \"#utility.yul\":857:861   */\n  0x24\n    /* \"#utility.yul\":854:855   */\n  0x00\n    /* \"#utility.yul\":847:862   */\n  revert\n    /* \"#utility.yul\":874:1155   */\ntag_17:\n    /* \"#utility.yul\":957:984   */\n  tag_51\n    /* \"#utility.yul\":979:983   */\n  dup3\n    /* \"#utility.yul\":957:984   */\n  tag_15\n  jump\t// in\ntag_51:\n    /* \"#utility.yul\":949:955   */\n  dup2\n    /* \"#utility.yul\":945:985   */\n  add\n    /* \"#utility.yul\":1087:1093   */\n  dup2\n    /* \"#utility.yul\":1075:1085   */\n  dup2\n    /* \"#utility.yul\":1072:1094   */\n  lt\n    /* \"#utility.yul\":1051:1069   */\n  0xffffffffffffffff\n    /* \"#utility.yul\":1039:1049   */\n  dup3\n    /* \"#utility.yul\":1036:1070   */\n  gt\n    /* \"#utility.yul\":1033:1095   */\n  or\n    /* \"#utility.yul\":1030:1118   */\n  iszero\n  tag_52\n  jumpi\n    /* \"#utility.yul\":1098:1116   */\n  tag_53\n  tag_16\n  jump\t// in\ntag_53:\n    /* \"#utility.yul\":1030:1118   */\ntag_52:\n    /* \"#utility.yul\":1138:1148   */\n  dup1\n    /* \"#utility.yul\":1134:1136   */\n  0x40\n    /* \"#utility.yul\":1127:1149   */\n  mstore\n    /* \"#utility.yul\":917:1155   */\n  pop\n    /* \"#utility.yul\":874:1155   */\n  pop\n  pop\n  jump\t// out\n    /* \"#utility.yul\":1161:1290   */\ntag_18:\n    /* \"#utility.yul\":1195:1201   */\n  0x00\n    /* \"#utility.yul\":1222:1242   */\n  tag_55\n  tag_10\n  jump\t// in\ntag_55:\n    /* \"#utility.yul\":1212:1242   */\n  swap1\n  pop\n    /* \"#utility.yul\":1251:1284   */\n  tag_56\n    /* \"#utility.yul\":1279:1283   */\n  dup3\n    /* \"#utility.yul\":1271:1277   */\n  dup3\n    /* \"#utility.yul\":1251:1284   */\n  tag_17\n  jump\t// in\ntag_56:\n    /* \"#utility.yul\":1161:1290   */\n  swap2\n  swap1\n  pop\n  jump\t// out\n    /* \"#utility.yul\":1296:1604   */\ntag_19:\n    /* \"#utility.yul\":1358:1362   */\n  0x00\n    /* \"#utility.yul\":1448:1466   */\n  0xffffffffffffffff\n    /* \"#utility.yul\":1440:1446   */\n  dup3\n    /* \"#utility.yul\":1437:1467   */\n  gt\n    /* \"#utility.yul\":1434:1490   */\n  iszero\n  tag_58\n  jumpi\n    /* \"#utility.yul\":1470:1488   */\n  tag_59\n  tag_16\n  jump\t// in\ntag_59:\n    /* \"#utility.yul\":1434:1490   */\ntag_58:\n    /* \"#utility.yul\":1508:1537   */\n  tag_60\n    /* \"#utility.yul\":1530:1536   */\n  dup3\n    /* \"#utility.yul\":1508:1537   */\n  tag_15\n  jump\t// in\ntag_60:\n    /* \"#utility.yul\":1500:1537   */\n  swap1\n  pop\n    /* \"#utility.yul\":1592:1596   */\n  0x20\n    /* \"#utility.yul\":1586:1590   */\n  dup2\n    /* \"#utility.yul\":1582:1597   */\n  add\n    /* \"#utility.yul\":1574:1597   */\n  swap1\n  pop\n    /* \"#utility.yul\":1296:1604   */\n  swap2\n  swap1\n  pop\n  jump\t// out\n    /* \"#utility.yul\":1610:1856   */\ntag_20:\n    /* \"#utility.yul\":1691:1692   */\n  0x00\n    /* \"#utility.yul\":1701:1814   */\ntag_62:\n    /* \"#utility.yul\":1715:1721   */\n  dup4\n    /* \"#utility.yul\":1712:1713   */\n  dup2\n    /* \"#utility.yul\":1709:1722   */\n  lt\n    /* \"#utility.yul\":1701:1814   */\n  iszero\n  tag_64\n  jumpi\n    /* \"#utility.yul\":1800:1801   */\n  dup1\n    /* \"#utility.yul\":1795:1798   */\n  dup3\n    /* \"#utility.yul\":1791:1802   */\n  add\n    /* \"#utility.yul\":1785:1803   */\n  mload\n    /* \"#utility.yul\":1781:1782   */\n  dup2\n    /* \"#utility.yul\":1776:1779   */\n  dup5\n    /* \"#utility.yul\":1772:1783   */\n  add\n    /* \"#utility.yul\":1765:1804   */\n  mstore\n    /* \"#utility.yul\":1737:1739   */\n  0x20\n    /* \"#utility.yul\":1734:1735   */\n  dup2\n    /* \"#utility.yul\":1730:1740   */\n  add\n    /* \"#utility.yul\":1725:1740   */\n  swap1\n  pop\n    /* \"#utility.yul\":1701:1814   */\n  jump(tag_62)\ntag_64:\n    /* \"#utility.yul\":1848:1849   */\n  0x00\n    /* \"#utility.yul\":1839:1845   */\n  dup5\n    /* \"#utility.yul\":1834:1837   */\n  dup5\n    /* \"#utility.yul\":1830:1846   */\n  add\n    /* \"#utility.yul\":1823:1850   */\n  mstore\n    /* \"#utility.yul\":1672:1856   */\n  pop\n    /* \"#utility.yul\":1610:1856   */\n  pop\n  pop\n  pop\n  jump\t// out\n    /* \"#utility.yul\":1862:2296   */\ntag_21:\n    /* \"#utility.yul\":1951:1956   */\n  0x00\n    /* \"#utility.yul\":1976:2042   */\n  tag_66\n    /* \"#utility.yul\":1992:2041   */\n  tag_67\n    /* \"#utility.yul\":2034:2040   */\n  dup5\n    /* \"#utility.yul\":1992:2041   */\n  tag_19\n  jump\t// in\ntag_67:\n    /* \"#utility.yul\":1976:2042   */\n  tag_18\n  jump\t// in\ntag_66:\n    /* \"#utility.yul\":1967:2042   */\n  swap1\n  pop\n    /* \"#utility.yul\":2065:2071   */\n  dup3\n    /* \"#utility.yul\":2058:2063   */\n  dup2\n    /* \"#utility.yul\":2051:2072   */\n  mstore\n    /* \"#utility.yul\":2103:2107   */\n  0x20\n    /* \"#utility.yul\":2096:2101   */\n  dup2\n    /* \"#utility.yul\":2092:2108   */\n  add\n    /* \"#utility.yul\":2141:2144   */\n  dup5\n    /* \"#utility.yul\":2132:2138   */\n  dup5\n    /* \"#utility.yul\":2127:2130   */\n  dup5\n    /* \"#utility.yul\":2123:2139   */\n  add\n    /* \"#utility.yul\":2120:2145   */\n  gt\n    /* \"#utility.yul\":2117:2229   */\n  iszero\n  tag_68\n  jumpi\n    /* \"#utility.yul\":2148:2227   */\n  tag_69\n  tag_14\n  jump\t// in\ntag_69:\n    /* \"#utility.yul\":2117:2229   */\ntag_68:\n    /* \"#utility.yul\":2238:2290   */\n  tag_70\n    /* \"#utility.yul\":2283:2289   */\n  dup5\n    /* \"#utility.yul\":2278:2281   */\n  dup3\n    /* \"#utility.yul\":2273:2276   */\n  dup6\n    /* \"#utility.yul\":2238:2290   */\n  tag_20\n  jump\t// in\ntag_70:\n    /* \"#utility.yul\":1957:2296   */\n  pop\n    /* \"#utility.yul\":1862:2296   */\n  swap4\n  swap3\n  pop\n  pop\n  pop\n  jump\t// out\n    /* \"#utility.yul\":2316:2671   */\ntag_22:\n    /* \"#utility.yul\":2383:2388   */\n  0x00\n    /* \"#utility.yul\":2432:2435   */\n  dup3\n    /* \"#utility.yul\":2425:2429   */\n  0x1f\n    /* \"#utility.yul\":2417:2423   */\n  dup4\n    /* \"#utility.yul\":2413:2430   */\n  add\n    /* \"#utility.yul\":2409:2436   */\n  slt\n    /* \"#utility.yul\":2399:2521   */\n  tag_72\n  jumpi\n    /* \"#utility.yul\":2440:2519   */\n  tag_73\n  tag_13\n  jump\t// in\ntag_73:\n    /* \"#utility.yul\":2399:2521   */\ntag_72:\n    /* \"#utility.yul\":2550:2556   */\n  dup2\n    /* \"#utility.yul\":2544:2557   */\n  mload\n    /* \"#utility.yul\":2575:2665   */\n  tag_74\n    /* \"#utility.yul\":2661:2664   */\n  dup5\n    /* \"#utility.yul\":2653:2659   */\n  dup3\n    /* \"#utility.yul\":2646:2650   */\n  0x20\n    /* \"#utility.yul\":2638:2644   */\n  dup7\n    /* \"#utility.yul\":2634:2651   */\n  add\n    /* \"#utility.yul\":2575:2665   */\n  tag_21\n  jump\t// in\ntag_74:\n    /* \"#utility.yul\":2566:2665   */\n  swap2\n  pop\n    /* \"#utility.yul\":2389:2671   */\n  pop\n    /* \"#utility.yul\":2316:2671   */\n  swap3\n  swap2\n  pop\n  pop\n  jump\t// out\n    /* \"#utility.yul\":2677:3530   */\ntag_3:\n    /* \"#utility.yul\":2776:2782   */\n  0x00\n    /* \"#utility.yul\":2784:2790   */\n  dup1\n    /* \"#utility.yul\":2833:2835   */\n  0x40\n    /* \"#utility.yul\":2821:2830   */\n  dup4\n    /* \"#utility.yul\":2812:2819   */\n  dup6\n    /* \"#utility.yul\":2808:2831   */\n  sub\n    /* \"#utility.yul\":2804:2836   */\n  slt\n    /* \"#utility.yul\":2801:2920   */\n  iszero\n  tag_76\n  jumpi\n    /* \"#utility.yul\":2839:2918   */\n  tag_77\n  tag_11\n  jump\t// in\ntag_77:\n    /* \"#utility.yul\":2801:2920   */\ntag_76:\n    /* \"#utility.yul\":2980:2981   */\n  0x00\n    /* \"#utility.yul\":2969:2978   */\n  dup4\n    /* \"#utility.yul\":2965:2982   */\n  add\n    /* \"#utility.yul\":2959:2983   */\n  mload\n    /* \"#utility.yul\":3010:3028   */\n  0xffffffffffffffff\n    /* \"#utility.yul\":3002:3008   */\n  dup2\n    /* \"#utility.yul\":2999:3029   */\n  gt\n    /* \"#utility.yul\":2996:3113   */\n  iszero\n  tag_78\n  jumpi\n    /* \"#utility.yul\":3032:3111   */\n  tag_79\n  tag_12\n  jump\t// in\ntag_79:\n    /* \"#utility.yul\":2996:3113   */\ntag_78:\n    /* \"#utility.yul\":3137:3211   */\n  tag_80\n    /* \"#utility.yul\":3203:3210   */\n  dup6\n    /* \"#utility.yul\":3194:3200   */\n  dup3\n    /* \"#utility.yul\":3183:3192   */\n  dup7\n    /* \"#utility.yul\":3179:3201   */\n  add\n    /* \"#utility.yul\":3137:3211   */\n  tag_22\n  jump\t// in\ntag_80:\n    /* \"#utility.yul\":3127:3211   */\n  swap3\n  pop\n    /* \"#utility.yul\":2930:3221   */\n  pop\n    /* \"#utility.yul\":3281:3283   */\n  0x20\n    /* \"#utility.yul\":3270:3279   */\n  dup4\n    /* \"#utility.yul\":3266:3284   */\n  add\n    /* \"#utility.yul\":3260:3285   */\n  mload\n    /* \"#utility.yul\":3312:3330   */\n  0xffffffffffffffff\n    /* \"#utility.yul\":3304:3310   */\n  dup2\n    /* \"#utility.yul\":3301:3331   */\n  gt\n    /* \"#utility.yul\":3298:3415   */\n  iszero\n  tag_81\n  jumpi\n    /* \"#utility.yul\":3334:3413   */\n  tag_82\n  tag_12\n  jump\t// in\ntag_82:\n    /* \"#utility.yul\":3298:3415   */\ntag_81:\n    /* \"#utility.yul\":3439:3513   */\n  tag_83\n    /* \"#utility.yul\":3505:3512   */\n  dup6\n    /* \"#utility.yul\":3496:3502   */\n  dup3\n    /* \"#utility.yul\":3485:3494   */\n  dup7\n    /* \"#utility.yul\":3481:3503   */\n  add\n    /* \"#utility.yul\":3439:3513   */\n  tag_22\n  jump\t// in\ntag_83:\n    /* \"#utility.yul\":3429:3513   */\n  swap2\n  pop\n    /* \"#utility.yul\":3231:3523   */\n  pop\n    /* \"#utility.yul\":2677:3530   */\n  swap3\n  pop\n  swap3\n  swap1\n  pop\n  jump\t// out\n    /* \"#utility.yul\":3536:3635   */\ntag_23:\n    /* \"#utility.yul\":3588:3594   */\n  0x00\n    /* \"#utility.yul\":3622:3627   */\n  dup2\n    /* \"#utility.yul\":3616:3628   */\n  mload\n    /* \"#utility.yul\":3606:3628   */\n  swap1\n  pop\n    /* \"#utility.yul\":3536:3635   */\n  swap2\n  swap1\n  pop\n  jump\t// out\n    /* \"#utility.yul\":3641:3821   */\ntag_24:\n    /* \"#utility.yul\":3689:3766   */\n  0x4e487b7100000000000000000000000000000000000000000000000000000000\n    /* \"#utility.yul\":3686:3687   */\n  0x00\n    /* \"#utility.yul\":3679:3767   */\n  mstore\n    /* \"#utility.yul\":3786:3790   */\n  0x22\n    /* \"#utility.yul\":3783:3784   */\n  0x04\n    /* \"#utility.yul\":3776:3791   */\n  mstore\n    /* \"#utility.yul\":3810:3814   */\n  0x24\n    /* \"#utility.yul\":3807:3808   */\n  0x00\n    /* \"#utility.yul\":3800:3815   */\n  revert\n    /* \"#utility.yul\":3827:4147   */\ntag_25:\n    /* \"#utility.yul\":3871:3877   */\n  0x00\n    /* \"#utility.yul\":3908:3909   */\n  0x02\n    /* \"#utility.yul\":3902:3906   */\n  dup3\n    /* \"#utility.yul\":3898:3910   */\n  div\n    /* \"#utility.yul\":3888:3910   */\n  swap1\n  pop\n    /* \"#utility.yul\":3955:3956   */\n  0x01\n    /* \"#utility.yul\":3949:3953   */\n  dup3\n    /* \"#utility.yul\":3945:3957   */\n  and\n    /* \"#utility.yul\":3976:3994   */\n  dup1\n    /* \"#utility.yul\":3966:4047   */\n  tag_87\n  jumpi\n    /* \"#utility.yul\":4032:4036   */\n  0x7f\n    /* \"#utility.yul\":4024:4030   */\n  dup3\n    /* \"#utility.yul\":4020:4037   */\n  and\n    /* \"#utility.yul\":4010:4037   */\n  swap2\n  pop\n    /* \"#utility.yul\":3966:4047   */\ntag_87:\n    /* \"#utility.yul\":4094:4096   */\n  0x20\n    /* \"#utility.yul\":4086:4092   */\n  dup3\n    /* \"#utility.yul\":4083:4097   */\n  lt\n    /* \"#utility.yul\":4063:4081   */\n  dup2\n    /* \"#utility.yul\":4060:4098   */\n  sub\n    /* \"#utility.yul\":4057:4141   */\n  tag_88\n  jumpi\n    /* \"#utility.yul\":4113:4131   */\n  tag_89\n  tag_24\n  jump\t// in\ntag_89:\n    /* \"#utility.yul\":4057:4141   */\ntag_88:\n    /* \"#utility.yul\":3878:4147   */\n  pop\n    /* \"#utility.yul\":3827:4147   */\n  swap2\n  swap1\n  pop\n  jump\t// out\n    /* \"#utility.yul\":4153:4294   */\ntag_26:\n    /* \"#utility.yul\":4202:4206   */\n  0x00\n    /* \"#utility.yul\":4225:4228   */\n  dup2\n    /* \"#utility.yul\":4217:4228   */\n  swap1\n  pop\n    /* \"#utility.yul\":4248:4251   */\n  dup2\n    /* \"#utility.yul\":4245:4246   */\n  0x00\n    /* \"#utility.yul\":4238:4252   */\n  mstore\n    /* \"#utility.yul\":4282:4286   */\n  0x20\n    /* \"#utility.yul\":4279:4280   */\n  0x00\n    /* \"#utility.yul\":4269:4287   */\n  keccak256\n    /* \"#utility.yul\":4261:4287   */\n  swap1\n  pop\n    /* \"#utility.yul\":4153:4294   */\n  swap2\n  swap1\n  pop\n  jump\t// out\n    /* \"#utility.yul\":4300:4393   */\ntag_27:\n    /* \"#utility.yul\":4337:4343   */\n  0x00\n    /* \"#utility.yul\":4384:4386   */\n  0x20\n    /* \"#utility.yul\":4379:4381   */\n  0x1f\n    /* \"#utility.yul\":4372:4377   */\n  dup4\n    /* \"#utility.yul\":4368:4382   */\n  add\n    /* \"#utility.yul\":4364:4387   */\n  div\n    /* \"#utility.yul\":4354:4387   */\n  swap1\n  pop\n    /* \"#utility.yul\":4300:4393   */\n  swap2\n  swap1\n  pop\n  jump\t// out\n    /* \"#utility.yul\":4399:4506   */\ntag_28:\n    /* \"#utility.yul\":4443:4451   */\n  0x00\n    /* \"#utility.yul\":4493:4498   */\n  dup3\n    /* \"#utility.yul\":4487:4491   */\n  dup3\n    /* \"#utility.yul\":4483:4499   */\n  shl\n    /* \"#utility.yul\":4462:4499   */\n  swap1\n  pop\n    /* \"#utility.yul\":4399:4506   */\n  swap3\n  swap2\n  pop\n  pop\n  jump\t// out\n    /* \"#utility.yul\":4512:4905   */\ntag_29:\n    /* \"#utility.yul\":4581:4587   */\n  0x00\n    /* \"#utility.yul\":4631:4632   */\n  0x08\n    /* \"#utility.yul\":4619:4629   */\n  dup4\n    /* \"#utility.yul\":4615:4633   */\n  mul\n    /* \"#utility.yul\":4654:4751   */\n  tag_94\n    /* \"#utility.yul\":4684:4750   */\n  0xffffffffffffffffffffffffffffffffffffffffffffffffffffffffffffffff\n    /* \"#utility.yul\":4673:4682   */\n  dup3\n    /* \"#utility.yul\":4654:4751   */\n  tag_28\n  jump\t// in\ntag_94:\n    /* \"#utility.yul\":4772:4811   */\n  tag_95\n    /* \"#utility.yul\":4802:4810   */\n  dup7\n    /* \"#utility.yul\":4791:4800   */\n  dup4\n    /* \"#utility.yul\":4772:4811   */\n  tag_28\n  jump\t// in\ntag_95:\n    /* \"#utility.yul\":4760:4811   */\n  swap6\n  pop\n    /* \"#utility.yul\":4844:4848   */\n  dup1\n    /* \"#utility.yul\":4840:4849   */\n  not\n    /* \"#utility.yul\":4833:4838   */\n  dup5\n    /* \"#utility.yul\":4829:4850   */\n  and\n    /* \"#utility.yul\":4820:4850   */\n  swap4\n  pop\n    /* \"#utility.yul\":4893:4897   */\n  dup1\n    /* \"#utility.yul\":4883:4891   */\n  dup7\n    /* \"#utility.yul\":4879:4898   */\n  and\n    /* \"#utility.yul\":4872:4877   */\n  dup5\n    /* \"#utility.yul\":4869:4899   */\n  or\n    /* \"#utility.yul\":4859:4899   */\n  swap3\n  pop\n    /* \"#utility.yul\":4588:4905   */\n  pop\n  pop\n    /* \"#utility.yul\":4512:4905   */\n  swap4\n  swap3\n  pop\n  pop\n  pop\n  jump\t// out\n    /* \"#utility.yul\":4911:4988   */\ntag_30:\n    /* \"#utility.yul\":4948:4955   */\n  0x00\n    /* \"#utility.yul\":4977:4982   */\n  dup2\n    /* \"#utility.yul\":4966:4982   */\n  swap1\n  pop\n    /* \"#utility.yul\":4911:4988   */\n  swap2\n  swap1\n  pop\n  jump\t// out\n    /* \"#utility.yul\":4994:5054   */\ntag_31:\n    /* \"#utility.yul\":5022:5025   */\n  0x00\n    /* \"#utility.yul\":5043:5048   */\n  dup2\n    /* \"#utility.yul\":5036:5048   */\n  swap1\n  pop\n    /* \"#utility.yul\":4994:5054   */\n  swap2\n  swap1\n  pop\n  jump\t// out\n    /* \"#utility.yul\":5060:5202   */\ntag_32:\n    /* \"#utility.yul\":5110:5119   */\n  0x00\n    /* \"#utility.yul\":5143:5196   */\n  tag_99\n    /* \"#utility.yul\":5161:5195   */\n  tag_100\n    /* \"#utility.yul\":5170:5194   */\n  tag_101\n    /* \"#utility.yul\":5188:5193   */\n  dup5\n    /* \"#utility.yul\":5170:5194   */\n  tag_30\n  jump\t// in\ntag_101:\n    /* \"#utility.yul\":5161:5195   */\n  tag_31\n  jump\t// in\ntag_100:\n    /* \"#utility.yul\":5143:5196   */\n  tag_30\n  jump\t// in\ntag_99:\n    /* \"#utility.yul\":5130:5196   */\n  swap1\n  pop\n    /* \"#utility.yul\":5060:5202   */\n  swap2\n  swap1\n  pop\n  jump\t// out\n    /* \"#utility.yul\":5208:5283   */\ntag_33:\n    /* \"#utility.yul\":5251:5254   */\n  0x00\n    /* \"#utility.yul\":5272:5277   */\n  dup2\n    /* \"#utility.yul\":5265:5277   */\n  swap1\n  pop\n    /* \"#utility.yul\":5208:5283   */\n  swap2\n  swap1\n  pop\n  jump\t// out\n    /* \"#utility.yul\":5289:5558   */\ntag_34:\n    /* \"#utility.yul\":5399:5438   */\n  tag_104\n    /* \"#utility.yul\":5430:5437   */\n  dup4\n    /* \"#utility.yul\":5399:5438   */\n  tag_32\n  jump\t// in\ntag_104:\n    /* \"#utility.yul\":5460:5551   */\n  tag_105\n    /* \"#utility.yul\":5509:5550   */\n  tag_106\n    /* \"#utility.yul\":5533:5549   */\n  dup3\n    /* \"#utility.yul\":5509:5550   */\n  tag_33\n  jump\t// in\ntag_106:\n    /* \"#utility.yul\":5501:5507   */\n  dup5\n    /* \"#utility.yul\":5494:5498   */\n  dup5\n    /* \"#utility.yul\":5488:5499   */\n  sload\n    /* \"#utility.yul\":5460:5551   */\n  tag_29\n  jump\t// in\ntag_105:\n    /* \"#utility.yul\":5454:5458   */\n  dup3\n    /* \"#utility.yul\":5447:5552   */\n  sstore\n    /* \"#utility.yul\":5365:5558   */\n  pop\n    /* \"#utility.yul\":5289:5558   */\n  pop\n  pop\n  pop\n  jump\t// out\n    /* \"#utility.yul\":5564:5637   */\ntag_35:\n    /* \"#utility.yul\":5609:5612   */\n  0x00\n    /* \"#utility.yul\":5564:5637   */\n  swap1\n  jump\t// out\n    /* \"#utility.yul\":5643:5832   */\ntag_36:\n    /* \"#utility.yul\":5720:5752   */\n  tag_109\n  tag_35\n  jump\t// in\ntag_109:\n    /* \"#utility.yul\":5761:5826   */\n  tag_110\n    /* \"#utility.yul\":5819:5825   */\n  dup2\n    /* \"#utility.yul\":5811:5817   */\n  dup5\n    /* \"#utility.yul\":5805:5809   */\n  dup5\n    /* \"#utility.yul\":5761:5826   */\n  tag_34\n  jump\t// in\ntag_110:\n    /* \"#utility.yul\":5696:5832   */\n  pop\n    /* \"#utility.yul\":5643:5832   */\n  pop\n  pop\n  jump\t// out\n    /* \"#utility.yul\":5838:6024   */\ntag_37:\n    /* \"#utility.yul\":5898:6018   */\ntag_112:\n    /* \"#utility.yul\":5915:5918   */\n  dup2\n    /* \"#utility.yul\":5908:5913   */\n  dup2\n    /* \"#utility.yul\":5905:5919   */\n  lt\n    /* \"#utility.yul\":5898:6018   */\n  iszero\n  tag_114\n  jumpi\n    /* \"#utility.yul\":5969:6008   */\n  tag_115\n    /* \"#utility.yul\":6006:6007   */\n  0x00\n    /* \"#utility.yul\":5999:6004   */\n  dup3\n    /* \"#utility.yul\":5969:6008   */\n  tag_36\n  jump\t// in\ntag_115:\n    /* \"#utility.yul\":5942:5943   */\n  0x01\n    /* \"#utility.yul\":5935:5940   */\n  dup2\n    /* \"#utility.yul\":5931:5944   */\n  add\n    /* \"#utility.yul\":5922:5944   */\n  swap1\n  pop\n    /* \"#utility.yul\":5898:6018   */\n  jump(tag_112)\ntag_114:\n    /* \"#utility.yul\":5838:6024   */\n  pop\n  pop\n  jump\t// out\n    /* \"#utility.yul\":6030:6573   */\ntag_38:\n    /* \"#utility.yul\":6131:6133   */\n  0x1f\n    /* \"#utility.yul\":6126:6129   */\n  dup3\n    /* \"#utility.yul\":6123:6134   */\n  gt\n    /* \"#utility.yul\":6120:6566   */\n  iszero\n  tag_117\n  jumpi\n    /* \"#utility.yul\":6165:6203   */\n  tag_118\n    /* \"#utility.yul\":6197:6202   */\n  dup2\n    /* \"#utility.yul\":6165:6203   */\n  tag_26\n  jump\t// in\ntag_118:\n    /* \"#utility.yul\":6249:6278   */\n  tag_119\n    /* \"#utility.yul\":6267:6277   */\n  dup5\n    /* \"#utility.yul\":6249:6278   */\n  tag_27\n  jump\t// in\ntag_119:\n    /* \"#utility.yul\":6239:6247   */\n  dup2\n    /* \"#utility.yul\":6235:6279   */\n  add\n    /* \"#utility.yul\":6432:6434   */\n  0x20\n    /* \"#utility.yul\":6420:6430   */\n  dup6\n    /* \"#utility.yul\":6417:6435   */\n  lt\n    /* \"#utility.yul\":6414:6463   */\n  iszero\n  tag_120\n  jumpi\n    /* \"#utility.yul\":6453:6461   */\n  dup2\n    /* \"#utility.yul\":6438:6461   */\n  swap1\n  pop\n    /* \"#utility.yul\":6414:6463   */\ntag_120:\n    /* \"#utility.yul\":6476:6556   */\n  tag_121\n    /* \"#utility.yul\":6532:6554   */\n  tag_122\n    /* \"#utility.yul\":6550:6553   */\n  dup6\n    /* \"#utility.yul\":6532:6554   */\n  tag_27\n  jump\t// in\ntag_122:\n    /* \"#utility.yul\":6522:6530   */\n  dup4\n    /* \"#utility.yul\":6518:6555   */\n  add\n    /* \"#utility.yul\":6505:6516   */\n  dup3\n    /* \"#utility.yul\":6476:6556   */\n  tag_37\n  jump\t// in\ntag_121:\n    /* \"#utility.yul\":6135:6566   */\n  pop\n  pop\n    /* \"#utility.yul\":6120:6566   */\ntag_117:\n    /* \"#utility.yul\":6030:6573   */\n  pop\n  pop\n  pop\n  jump\t// out\n    /* \"#utility.yul\":6579:6696   */\ntag_39:\n    /* \"#utility.yul\":6633:6641   */\n  0x00\n    /* \"#utility.yul\":6683:6688   */\n  dup3\n    /* \"#utility.yul\":6677:6681   */\n  dup3\n    /* \"#utility.yul\":6673:6689   */\n  shr\n    /* \"#utility.yul\":6652:6689   */\n  swap1\n  pop\n    /* \"#utility.yul\":6579:6696   */\n  swap3\n  swap2\n  pop\n  pop\n  jump\t// out\n    /* \"#utility.yul\":6702:6871   */\ntag_40:\n    /* \"#utility.yul\":6746:6752   */\n  0x00\n    /* \"#utility.yul\":6779:6830   */\n  tag_125\n    /* \"#utility.yul\":6827:6828   */\n  0x00\n    /* \"#utility.yul\":6823:6829   */\n  not\n    /* \"#utility.yul\":6815:6820   */\n  dup5\n    /* \"#utility.yul\":6812:6813   */\n  0x08\n    /* \"#utility.yul\":6808:6821   */\n  mul\n    /* \"#utility.yul\":6779:6830   */\n  tag_39\n  jump\t// in\ntag_125:\n    /* \"#utility.yul\":6775:6831   */\n  not\n    /* \"#utility.yul\":6860:6864   */\n  dup1\n    /* \"#utility.yul\":6854:6858   */\n  dup4\n    /* \"#utility.yul\":6850:6865   */\n  and\n    /* \"#utility.yul\":6840:6865   */\n  swap2\n  pop\n    /* \"#utility.yul\":6753:6871   */\n  pop\n    /* \"#utility.yul\":6702:6871   */\n  swap3\n  swap2\n  pop\n  pop\n  jump\t// out\n    /* \"#utility.yul\":6876:7171   */\ntag_41:\n    /* \"#utility.yul\":6952:6956   */\n  0x00\n    /* \"#utility.yul\":7098:7127   */\n  tag_127\n    /* \"#utility.yul\":7123:7126   */\n  dup4\n    /* \"#utility.yul\":7117:7121   */\n  dup4\n    /* \"#utility.yul\":7098:7127   */\n  tag_40\n  jump\t// in\ntag_127:\n    /* \"#utility.yul\":7090:7127   */\n  swap2\n  pop\n    /* \"#utility.yul\":7160:7163   */\n  dup3\n    /* \"#utility.yul\":7157:7158   */\n  0x02\n    /* \"#utility.yul\":7153:7164   */\n  mul\n    /* \"#utility.yul\":7147:7151   */\n  dup3\n    /* \"#utility.yul\":7144:7165   */\n  or\n    /* \"#utility.yul\":7136:7165   */\n  swap1\n  pop\n    /* \"#utility.yul\":6876:7171   */\n  swap3\n  swap2\n  pop\n  pop\n  jump\t// out\n    /* \"#utility.yul\":7176:8571   */\ntag_7:\n    /* \"#utility.yul\":7293:7330   */\n  tag_129\n    /* \"#utility.yul\":7326:7329   */\n  dup3\n    /* \"#utility.yul\":7293:7330   */\n  tag_23\n  jump\t// in\ntag_129:\n    /* \"#utility.yul\":7395:7413   */\n  0xffffffffffffffff\n    /* \"#utility.yul\":7387:7393   */\n  dup2\n    /* \"#utility.yul\":7384:7414   */\n  gt\n    /* \"#utility.yul\":7381:7437   */\n  iszero\n  tag_130\n  jumpi\n    /* \"#utility.yul\":7417:7435   */\n  tag_131\n  tag_16\n  jump\t// in\ntag_131:\n    /* \"#utility.yul\":7381:7437   */\ntag_130:\n    /* \"#utility.yul\":7461:7499   */\n  tag_132\n    /* \"#utility.yul\":7493:7497   */\n  dup3\n    /* \"#utility.yul\":7487:7498   */\n  sload\n    /* \"#utility.yul\":7461:7499   */\n  tag_25\n  jump\t// in\ntag_132:\n    /* \"#utility.yul\":7546:7613   */\n  tag_133\n    /* \"#utility.yul\":7606:7612   */\n  dup3\n    /* \"#utility.yul\":7598:7604   */\n  dup3\n    /* \"#utility.yul\":7592:7596   */\n  dup6\n    /* \"#utility.yul\":7546:7613   */\n  tag_38\n  jump\t// in\ntag_133:\n    /* \"#utility.yul\":7640:7641   */\n  0x00\n    /* \"#utility.yul\":7664:7668   */\n  0x20\n    /* \"#utility.yul\":7651:7668   */\n  swap1\n  pop\n    /* \"#utility.yul\":7696:7698   */\n  0x1f\n    /* \"#utility.yul\":7688:7694   */\n  dup4\n    /* \"#utility.yul\":7685:7699   */\n  gt\n    /* \"#utility.yul\":7713:7714   */\n  0x01\n    /* \"#utility.yul\":7708:8326   */\n  dup2\n  eq\n  tag_135\n  jumpi\n    /* \"#utility.yul\":8370:8371   */\n  0x00\n    /* \"#utility.yul\":8387:8393   */\n  dup5\n    /* \"#utility.yul\":8384:8461   */\n  iszero\n  tag_136\n  jumpi\n    /* \"#utility.yul\":8436:8445   */\n  dup3\n    /* \"#utility.yul\":8431:8434   */\n  dup8\n    /* \"#utility.yul\":8427:8446   */\n  add\n    /* \"#utility.yul\":8421:8447   */\n  mload\n    /* \"#utility.yul\":8412:8447   */\n  swap1\n  pop\n    /* \"#utility.yul\":8384:8461   */\ntag_136:\n    /* \"#utility.yul\":8487:8554   */\n  tag_137\n    /* \"#utility.yul\":8547:8553   */\n  dup6\n    /* \"#utility.yul\":8540:8545   */\n  dup3\n    /* \"#utility.yul\":8487:8554   */\n  tag_41\n  jump\t// in\ntag_137:\n    /* \"#utility.yul\":8481:8485   */\n  dup7\n    /* \"#utility.yul\":8474:8555   */\n  sstore\n    /* \"#utility.yul\":8343:8565   */\n  pop\n    /* \"#utility.yul\":7678:8565   */\n  jump(tag_134)\n    /* \"#utility.yul\":7708:8326   */\ntag_135:\n    /* \"#utility.yul\":7760:7764   */\n  0x1f\n    /* \"#utility.yul\":7756:7765   */\n  not\n    /* \"#utility.yul\":7748:7754   */\n  dup5\n    /* \"#utility.yul\":7744:7766   */\n  and\n    /* \"#utility.yul\":7794:7831   */\n  tag_138\n    /* \"#utility.yul\":7826:7830   */\n  dup7\n    /* \"#utility.yul\":7794:7831   */\n  tag_26\n  jump\t// in\ntag_138:\n    /* \"#utility.yul\":7853:7854   */\n  0x00\n    /* \"#utility.yul\":7867:8075   */\ntag_139:\n    /* \"#utility.yul\":7881:7888   */\n  dup3\n    /* \"#utility.yul\":7878:7879   */\n  dup2\n    /* \"#utility.yul\":7875:7889   */\n  lt\n    /* \"#utility.yul\":7867:8075   */\n  iszero\n  tag_141\n  jumpi\n    /* \"#utility.yul\":7960:7969   */\n  dup5\n    /* \"#utility.yul\":7955:7958   */\n  dup10\n    /* \"#utility.yul\":7951:7970   */\n  add\n    /* \"#utility.yul\":7945:7971   */\n  mload\n    /* \"#utility.yul\":7937:7943   */\n  dup3\n    /* \"#utility.yul\":7930:7972   */\n  sstore\n    /* \"#utility.yul\":8011:8012   */\n  0x01\n    /* \"#utility.yul\":8003:8009   */\n  dup3\n    /* \"#utility.yul\":7999:8013   */\n  add\n    /* \"#utility.yul\":7989:8013   */\n  swap2\n  pop\n    /* \"#utility.yul\":8058:8060   */\n  0x20\n    /* \"#utility.yul\":8047:8056   */\n  dup6\n    /* \"#utility.yul\":8043:8061   */\n  add\n    /* \"#utility.yul\":8030:8061   */\n  swap5\n  pop\n    /* \"#utility.yul\":7904:7908   */\n  0x20\n    /* \"#utility.yul\":7901:7902   */\n  dup2\n    /* \"#utility.yul\":7897:7909   */\n  add\n    /* \"#utility.yul\":7892:7909   */\n  swap1\n  pop\n    /* \"#utility.yul\":7867:8075   */\n  jump(tag_139)\ntag_141:\n    /* \"#utility.yul\":8103:8109   */\n  dup7\n    /* \"#utility.yul\":8094:8101   */\n  dup4\n    /* \"#utility.yul\":8091:8110   */\n  lt\n    /* \"#utility.yul\":8088:8267   */\n  iszero\n  tag_142\n  jumpi\n    /* \"#utility.yul\":8161:8170   */\n  dup5\n    /* \"#utility.yul\":8156:8159   */\n  dup10\n    /* \"#utility.yul\":8152:8171   */\n  add\n    /* \"#utility.yul\":8146:8172   */\n  mload\n    /* \"#utility.yul\":8204:8252   */\n  tag_143\n    /* \"#utility.yul\":8246:8250   */\n  0x1f\n    /* \"#utility.yul\":8238:8244   */\n  dup10\n    /* \"#utility.yul\":8234:8251   */\n  and\n    /* \"#utility.yul\":8223:8232   */\n  dup3\n    /* \"#utility.yul\":8204:8252   */\n  tag_40\n  jump\t// in\ntag_143:\n    /* \"#utility.yul\":8196:8202   */\n  dup4\n    /* \"#utility.yul\":8189:8253   */\n  sstore\n    /* \"#utility.yul\":8111:8267   */\n  pop\n    /* \"#utility.yul\":8088:8267   */\ntag_142:\n    /* \"#utility.yul\":8313:8314   */\n  0x01\n    /* \"#utility.yul\":8309:8310   */\n  0x02\n    /* \"#utility.yul\":8301:8307   */\n  dup9\n    /* \"#utility.yul\":8297:8311   */\n  mul\n    /* \"#utility.yul\":8293:8315   */\n  add\n    /* \"#utility.yul\":8287:8291   */\n  dup9\n    /* \"#utility.yul\":8280:8316   */\n  sstore\n    /* \"#utility.yul\":7715:8326   */\n  pop\n  pop\n  pop\n    /* \"#utility.yul\":7678:8565   */\ntag_134:\n  pop\n    /* \"#utility.yul\":7268:8571   */\n  pop\n  pop\n  pop\n    /* \"#utility.yul\":7176:8571   */\n  pop\n  pop\n  jump\t// out\n    /* \"contracts/KlaytnToken.sol\":1515:19294  contract KIP7 is KIP13, Context, IKIP7, IKIP7Metadata {... */\ntag_9:\n  dataSize(sub_0)\n  dup1\n  dataOffset(sub_0)\n  0x00\n  codecopy\n  0x00\n  return\nstop\n\nsub_0: assembly {\n        /* \"contracts/KlaytnToken.sol\":1515:19294  contract KIP7 is KIP13, Context, IKIP7, IKIP7Metadata {... */\n      mstore(0x40, 0x80)\n      callvalue\n      dup1\n      iszero\n      tag_1\n      jumpi\n      0x00\n      dup1\n      revert\n    tag_1:\n      pop\n      jumpi(tag_2, lt(calldatasize, 0x04))\n      shr(0xe0, calldataload(0x00))\n      dup1\n      0x42842e0e\n      gt\n      tag_20\n      jumpi\n      dup1\n      0xa457c2d7\n      gt\n      tag_21\n      jumpi\n      dup1\n      0xa457c2d7\n      eq\n      tag_15\n      jumpi\n      dup1\n      0xa9059cbb\n      eq\n      tag_16\n      jumpi\n      dup1\n      0xb88d4fde\n      eq\n      tag_17\n      jumpi\n      dup1\n      0xdd62ed3e\n      eq\n      tag_18\n      jumpi\n      dup1\n      0xeb795549\n      eq\n      tag_19\n      jumpi\n      jump(tag_2)\n    tag_21:\n      dup1\n      0x42842e0e\n      eq\n      tag_11\n      jumpi\n      dup1\n      0x70a08231\n      eq\n      tag_12\n      jumpi\n      dup1\n      0x95d89b41\n      eq\n      tag_13\n      jumpi\n      dup1\n      0xa0712d68\n      eq\n      tag_14\n      jumpi\n      jump(tag_2)\n    tag_20:\n      dup1\n      0x23b872dd\n      gt\n      tag_22\n      jumpi\n      dup1\n      0x23b872dd\n      eq\n      tag_7\n      jumpi\n      dup1\n      0x313ce567\n      eq\n      tag_8\n      jumpi\n      dup1\n      0x39509351\n      eq\n      tag_9\n      jumpi\n      dup1\n      0x423f6cef\n      eq\n      tag_10\n      jumpi\n      jump(tag_2)\n    tag_22:\n      dup1\n      0x01ffc9a7\n      eq\n      tag_3\n      jumpi\n      dup1\n      0x06fdde03\n      eq\n      tag_4\n      jumpi\n      dup1\n      0x095ea7b3\n      eq\n      tag_5\n      jumpi\n      dup1\n      0x18160ddd\n      eq\n      tag_6\n      jumpi\n    tag_2:\n      0x00\n      dup1\n      revert\n        /* \"contracts/KlaytnToken.sol\":2305:2591  function supportsInterface(bytes4 interfaceId) public view virtual override(KIP13) returns (bool) {... */\n    tag_3:\n      tag_23\n      0x04\n      dup1\n      calldatasize\n      sub\n      dup2\n      add\n      swap1\n      tag_24\n      swap2\n      swap1\n      tag_25\n      jump\t// in\n    tag_24:\n      tag_26\n      jump\t// in\n    tag_23:\n      mload(0x40)\n      tag_27\n      swap2\n      swap1\n      tag_28\n      jump\t// in\n    tag_27:\n      mload(0x40)\n      dup1\n      swap2\n      sub\n      swap1\n      return\n        /* \"contracts/KlaytnToken.sol\":2656:2754  function name() public view virtual override returns (string memory) {... */\n    tag_4:\n      tag_29\n      tag_30\n      jump\t// in\n    tag_29:\n      mload(0x40)\n      tag_31\n      swap2\n      swap1\n      tag_32\n      jump\t// in\n    tag_31:\n      mload(0x40)\n      dup1\n      swap2\n      sub\n      swap1\n      return\n        /* \"contracts/KlaytnToken.sol\":4925:5122  function approve(address spender, uint256 amount) public virtual override returns (bool) {... */\n    tag_5:\n      tag_33\n      0x04\n      dup1\n      calldatasize\n      sub\n      dup2\n      add\n      swap1\n      tag_34\n      swap2\n      swap1\n      tag_35\n      jump\t// in\n    tag_34:\n      tag_36\n      jump\t// in\n    tag_33:\n      mload(0x40)\n      tag_37\n      swap2\n      swap1\n      tag_28\n      jump\t// in\n    tag_37:\n      mload(0x40)\n      dup1\n      swap2\n      sub\n      swap1\n      return\n        /* \"contracts/KlaytnToken.sol\":3740:3846  function totalSupply() public view virtual override returns (uint256) {... */\n    tag_6:\n      tag_38\n      tag_39\n      jump\t// in\n    tag_38:\n      mload(0x40)\n      tag_40\n      swap2\n      swap1\n      tag_41\n      jump\t// in\n    tag_40:\n      mload(0x40)\n      dup1\n      swap2\n      sub\n      swap1\n      return\n        /* \"contracts/KlaytnToken.sol\":5682:5968  function transferFrom(... */\n    tag_7:\n      tag_42\n      0x04\n      dup1\n      calldatasize\n      sub\n      dup2\n      add\n      swap1\n      tag_43\n      swap2\n      swap1\n      tag_44\n      jump\t// in\n    tag_43:\n      tag_45\n      jump\t// in\n    tag_42:\n      mload(0x40)\n      tag_46\n      swap2\n      swap1\n      tag_28\n      jump\t// in\n    tag_46:\n      mload(0x40)\n      dup1\n      swap2\n      sub\n      swap1\n      return\n        /* \"contracts/KlaytnToken.sol\":3590:3681  function decimals() public view virtual override returns (uint8) {... */\n    tag_8:\n      tag_47\n      tag_48\n      jump\t// in\n    tag_47:\n      mload(0x40)\n      tag_49\n      swap2\n      swap1\n      tag_50\n      jump\t// in\n    tag_49:\n      mload(0x40)\n      dup1\n      swap2\n      sub\n      swap1\n      return\n        /* \"contracts/KlaytnToken.sol\":6362:6596  function increaseAllowance(address spender, uint256 addedValue) public virtual returns (bool) {... */\n    tag_9:\n      tag_51\n      0x04\n      dup1\n      calldatasize\n      sub\n      dup2\n      add\n      swap1\n      tag_52\n      swap2\n      swap1\n      tag_35\n      jump\t// in\n    tag_52:\n      tag_53\n      jump\t// in\n    tag_51:\n      mload(0x40)\n      tag_54\n      swap2\n      swap1\n      tag_28\n      jump\t// in\n    tag_54:\n      mload(0x40)\n      dup1\n      swap2\n      sub\n      swap1\n      return\n        /* \"contracts/KlaytnToken.sol\":7832:8011  function safeTransfer(address recipient, uint256 amount) public virtual override {... */\n    tag_10:\n      tag_55\n      0x04\n      dup1\n      calldatasize\n      sub\n      dup2\n      add\n      swap1\n      tag_56\n      swap2\n      swap1\n      tag_35\n      jump\t// in\n    tag_56:\n      tag_57\n      jump\t// in\n    tag_55:\n      stop\n        /* \"contracts/KlaytnToken.sol\":9192:9474  function safeTransferFrom(... */\n    tag_11:\n      tag_58\n      0x04\n      dup1\n      calldatasize\n      sub\n      dup2\n      add\n      swap1\n      tag_59\n      swap2\n      swap1\n      tag_44\n      jump\t// in\n    tag_59:\n      tag_60\n      jump\t// in\n    tag_58:\n      stop\n        /* \"contracts/KlaytnToken.sol\":3903:4028  function balanceOf(address account) public view virtual override returns (uint256) {... */\n    tag_12:\n      tag_61\n      0x04\n      dup1\n      calldatasize\n      sub\n      dup2\n      add\n      swap1\n      tag_62\n      swap2\n      swap1\n      tag_63\n      jump\t// in\n    tag_62:\n      tag_64\n      jump\t// in\n    tag_61:\n      mload(0x40)\n      tag_65\n      swap2\n      swap1\n      tag_41\n      jump\t// in\n    tag_65:\n      mload(0x40)\n      dup1\n      swap2\n      sub\n      swap1\n      return\n        /* \"contracts/KlaytnToken.sol\":2867:2969  function symbol() public view virtual override returns (string memory) {... */\n    tag_13:\n      tag_66\n      tag_67\n      jump\t// in\n    tag_66:\n      mload(0x40)\n      tag_68\n      swap2\n      swap1\n      tag_32\n      jump\t// in\n    tag_68:\n      mload(0x40)\n      dup1\n      swap2\n      sub\n      swap1\n      return\n        /* \"contracts/KlaytnToken.sol\":19213:19292  function mint(uint256 amount) public {... */\n    tag_14:\n      tag_69\n      0x04\n      dup1\n      calldatasize\n      sub\n      dup2\n      add\n      swap1\n      tag_70\n      swap2\n      swap1\n      tag_71\n      jump\t// in\n    tag_70:\n      tag_72\n      jump\t// in\n    tag_69:\n      stop\n        /* \"contracts/KlaytnToken.sol\":7082:7508  function decreaseAllowance(address spender, uint256 subtractedValue) public virtual returns (bool) {... */\n    tag_15:\n      tag_73\n      0x04\n      dup1\n      calldatasize\n      sub\n      dup2\n      add\n      swap1\n      tag_74\n      swap2\n      swap1\n      tag_35\n      jump\t// in\n    tag_74:\n      tag_75\n      jump\t// in\n    tag_73:\n      mload(0x40)\n      tag_76\n      swap2\n      swap1\n      tag_28\n      jump\t// in\n    tag_76:\n      mload(0x40)\n      dup1\n      swap2\n      sub\n      swap1\n      return\n        /* \"contracts/KlaytnToken.sol\":4223:4412  function transfer(address to, uint256 amount) public virtual override returns (bool) {... */\n    tag_16:\n      tag_77\n      0x04\n      dup1\n      calldatasize\n      sub\n      dup2\n      add\n      swap1\n      tag_78\n      swap2\n      swap1\n      tag_35\n      jump\t// in\n    tag_78:\n      tag_79\n      jump\t// in\n    tag_77:\n      mload(0x40)\n      tag_80\n      swap2\n      swap1\n      tag_28\n      jump\t// in\n    tag_80:\n      mload(0x40)\n      dup1\n      swap2\n      sub\n      swap1\n      return\n        /* \"contracts/KlaytnToken.sol\":9817:10130  function safeTransferFrom(... */\n    tag_17:\n      tag_81\n      0x04\n      dup1\n      calldatasize\n      sub\n      dup2\n      add\n      swap1\n      tag_82\n      swap2\n      swap1\n      tag_83\n      jump\t// in\n    tag_82:\n      tag_84\n      jump\t// in\n    tag_81:\n      stop\n        /* \"contracts/KlaytnToken.sol\":4469:4618  function allowance(address owner, address spender) public view virtual override returns (uint256) {... */\n    tag_18:\n      tag_85\n      0x04\n      dup1\n      calldatasize\n      sub\n      dup2\n      add\n      swap1\n      tag_86\n      swap2\n      swap1\n      tag_87\n      jump\t// in\n    tag_86:\n      tag_88\n      jump\t// in\n    tag_85:\n      mload(0x40)\n      tag_89\n      swap2\n      swap1\n      tag_41\n      jump\t// in\n    tag_89:\n      mload(0x40)\n      dup1\n      swap2\n      sub\n      swap1\n      return\n        /* \"contracts/KlaytnToken.sol\":8272:8504  function safeTransfer(... */\n    tag_19:\n      tag_90\n      0x04\n      dup1\n      calldatasize\n      sub\n      dup2\n      add\n      swap1\n      tag_91\n      swap2\n      swap1\n      tag_92\n      jump\t// in\n    tag_91:\n      tag_93\n      jump\t// in\n    tag_90:\n      stop\n        /* \"contracts/KlaytnToken.sol\":2305:2591  function supportsInterface(bytes4 interfaceId) public view virtual override(KIP13) returns (bool) {... */\n    tag_26:\n        /* \"contracts/KlaytnToken.sol\":2397:2401  bool */\n      0x00\n        /* \"contracts/KlaytnToken.sol\":2447:2470  type(IKIP7).interfaceId */\n      0x6578737100000000000000000000000000000000000000000000000000000000\n        /* \"contracts/KlaytnToken.sol\":2432:2470  interfaceId == type(IKIP7).interfaceId */\n      not(0xffffffffffffffffffffffffffffffffffffffffffffffffffffffff)\n      and\n        /* \"contracts/KlaytnToken.sol\":2432:2443  interfaceId */\n      dup3\n        /* \"contracts/KlaytnToken.sol\":2432:2470  interfaceId == type(IKIP7).interfaceId */\n      not(0xffffffffffffffffffffffffffffffffffffffffffffffffffffffff)\n      and\n      eq\n        /* \"contracts/KlaytnToken.sol\":2432:2532  interfaceId == type(IKIP7).interfaceId ||... */\n      dup1\n      tag_95\n      jumpi\n      pop\n        /* \"contracts/KlaytnToken.sol\":2501:2532  type(IKIP7Metadata).interfaceId */\n      0xa219a02500000000000000000000000000000000000000000000000000000000\n        /* \"contracts/KlaytnToken.sol\":2486:2532  interfaceId == type(IKIP7Metadata).interfaceId */\n      not(0xffffffffffffffffffffffffffffffffffffffffffffffffffffffff)\n      and\n        /* \"contracts/KlaytnToken.sol\":2486:2497  interfaceId */\n      dup3\n        /* \"contracts/KlaytnToken.sol\":2486:2532  interfaceId == type(IKIP7Metadata).interfaceId */\n      not(0xffffffffffffffffffffffffffffffffffffffffffffffffffffffff)\n      and\n      eq\n        /* \"contracts/KlaytnToken.sol\":2432:2532  interfaceId == type(IKIP7).interfaceId ||... */\n    tag_95:\n        /* \"contracts/KlaytnToken.sol\":2432:2584  interfaceId == type(IKIP7).interfaceId ||... */\n      dup1\n      tag_96\n      jumpi\n      pop\n        /* \"contracts/KlaytnToken.sol\":2548:2584  KIP13.supportsInterface(interfaceId) */\n      tag_97\n        /* \"contracts/KlaytnToken.sol\":2572:2583  interfaceId */\n      dup3\n        /* \"contracts/KlaytnToken.sol\":2548:2571  KIP13.supportsInterface */\n      tag_98\n        /* \"contracts/KlaytnToken.sol\":2548:2584  KIP13.supportsInterface(interfaceId) */\n      jump\t// in\n    tag_97:\n        /* \"contracts/KlaytnToken.sol\":2432:2584  interfaceId == type(IKIP7).interfaceId ||... */\n    tag_96:\n        /* \"contracts/KlaytnToken.sol\":2413:2584  return... */\n      swap1\n      pop\n        /* \"contracts/KlaytnToken.sol\":2305:2591  function supportsInterface(bytes4 interfaceId) public view virtual override(KIP13) returns (bool) {... */\n      swap2\n      swap1\n      pop\n      jump\t// out\n        /* \"contracts/KlaytnToken.sol\":2656:2754  function name() public view virtual override returns (string memory) {... */\n    tag_30:\n        /* \"contracts/KlaytnToken.sol\":2710:2723  string memory */\n      0x60\n        /* \"contracts/KlaytnToken.sol\":2742:2747  _name */\n      0x03\n        /* \"contracts/KlaytnToken.sol\":2735:2747  return _name */\n      dup1\n      sload\n      tag_100\n      swap1\n      tag_101\n      jump\t// in\n    tag_100:\n      dup1\n      0x1f\n      add\n      0x20\n      dup1\n      swap2\n      div\n      mul\n      0x20\n      add\n      mload(0x40)\n      swap1\n      dup2\n      add\n      0x40\n      mstore\n      dup1\n      swap3\n      swap2\n      swap1\n      dup2\n      dup2\n      mstore\n      0x20\n      add\n      dup3\n      dup1\n      sload\n      tag_102\n      swap1\n      tag_101\n      jump\t// in\n    tag_102:\n      dup1\n      iszero\n      tag_103\n      jumpi\n      dup1\n      0x1f\n      lt\n      tag_104\n      jumpi\n      0x0100\n      dup1\n      dup4\n      sload\n      div\n      mul\n      dup4\n      mstore\n      swap2\n      0x20\n      add\n      swap2\n      jump(tag_103)\n    tag_104:\n      dup3\n      add\n      swap2\n      swap1\n      0x00\n      mstore\n      keccak256(0x00, 0x20)\n      swap1\n    tag_105:\n      dup2\n      sload\n      dup2\n      mstore\n      swap1\n      0x01\n      add\n      swap1\n      0x20\n      add\n      dup1\n      dup4\n      gt\n      tag_105\n      jumpi\n      dup3\n      swap1\n      sub\n      0x1f\n      and\n      dup3\n      add\n      swap2\n    tag_103:\n      pop\n      pop\n      pop\n      pop\n      pop\n      swap1\n      pop\n        /* \"contracts/KlaytnToken.sol\":2656:2754  function name() public view virtual override returns (string memory) {... */\n      swap1\n      jump\t// out\n        /* \"contracts/KlaytnToken.sol\":4925:5122  function approve(address spender, uint256 amount) public virtual override returns (bool) {... */\n    tag_36:\n        /* \"contracts/KlaytnToken.sol\":5008:5012  bool */\n      0x00\n        /* \"contracts/KlaytnToken.sol\":5024:5037  address owner */\n      dup1\n        /* \"contracts/KlaytnToken.sol\":5040:5052  _msgSender() */\n      tag_107\n        /* \"contracts/KlaytnToken.sol\":5040:5050  _msgSender */\n      tag_108\n        /* \"contracts/KlaytnToken.sol\":5040:5052  _msgSender() */\n      jump\t// in\n    tag_107:\n        /* \"contracts/KlaytnToken.sol\":5024:5052  address owner = _msgSender() */\n      swap1\n      pop\n        /* \"contracts/KlaytnToken.sol\":5062:5094  _approve(owner, spender, amount) */\n      tag_109\n        /* \"contracts/KlaytnToken.sol\":5071:5076  owner */\n      dup2\n        /* \"contracts/KlaytnToken.sol\":5078:5085  spender */\n      dup6\n        /* \"contracts/KlaytnToken.sol\":5087:5093  amount */\n      dup6\n        /* \"contracts/KlaytnToken.sol\":5062:5070  _approve */\n      tag_110\n        /* \"contracts/KlaytnToken.sol\":5062:5094  _approve(owner, spender, amount) */\n      jump\t// in\n    tag_109:\n        /* \"contracts/KlaytnToken.sol\":5111:5115  true */\n      0x01\n        /* \"contracts/KlaytnToken.sol\":5104:5115  return true */\n      swap2\n      pop\n      pop\n        /* \"contracts/KlaytnToken.sol\":4925:5122  function approve(address spender, uint256 amount) public virtual override returns (bool) {... */\n      swap3\n      swap2\n      pop\n      pop\n      jump\t// out\n        /* \"contracts/KlaytnToken.sol\":3740:3846  function totalSupply() public view virtual override returns (uint256) {... */\n    tag_39:\n        /* \"contracts/KlaytnToken.sol\":3801:3808  uint256 */\n      0x00\n        /* \"contracts/KlaytnToken.sol\":3827:3839  _totalSupply */\n      sload(0x02)\n        /* \"contracts/KlaytnToken.sol\":3820:3839  return _totalSupply */\n      swap1\n      pop\n        /* \"contracts/KlaytnToken.sol\":3740:3846  function totalSupply() public view virtual override returns (uint256) {... */\n      swap1\n      jump\t// out\n        /* \"contracts/KlaytnToken.sol\":5682:5968  function transferFrom(... */\n    tag_45:\n        /* \"contracts/KlaytnToken.sol\":5809:5813  bool */\n      0x00\n        /* \"contracts/KlaytnToken.sol\":5825:5840  address spender */\n      dup1\n        /* \"contracts/KlaytnToken.sol\":5843:5855  _msgSender() */\n      tag_113\n        /* \"contracts/KlaytnToken.sol\":5843:5853  _msgSender */\n      tag_108\n        /* \"contracts/KlaytnToken.sol\":5843:5855  _msgSender() */\n      jump\t// in\n    tag_113:\n        /* \"contracts/KlaytnToken.sol\":5825:5855  address spender = _msgSender() */\n      swap1\n      pop\n        /* \"contracts/KlaytnToken.sol\":5865:5903  _spendAllowance(from, spender, amount) */\n      tag_114\n        /* \"contracts/KlaytnToken.sol\":5881:5885  from */\n      dup6\n        /* \"contracts/KlaytnToken.sol\":5887:5894  spender */\n      dup3\n        /* \"contracts/KlaytnToken.sol\":5896:5902  amount */\n      dup6\n        /* \"contracts/KlaytnToken.sol\":5865:5880  _spendAllowance */\n      tag_115\n        /* \"contracts/KlaytnToken.sol\":5865:5903  _spendAllowance(from, spender, amount) */\n      jump\t// in\n    tag_114:\n        /* \"contracts/KlaytnToken.sol\":5913:5940  _transfer(from, to, amount) */\n      tag_116\n        /* \"contracts/KlaytnToken.sol\":5923:5927  from */\n      dup6\n        /* \"contracts/KlaytnToken.sol\":5929:5931  to */\n      dup6\n        /* \"contracts/KlaytnToken.sol\":5933:5939  amount */\n      dup6\n        /* \"contracts/KlaytnToken.sol\":5913:5922  _transfer */\n      tag_117\n        /* \"contracts/KlaytnToken.sol\":5913:5940  _transfer(from, to, amount) */\n      jump\t// in\n    tag_116:\n        /* \"contracts/KlaytnToken.sol\":5957:5961  true */\n      0x01\n        /* \"contracts/KlaytnToken.sol\":5950:5961  return true */\n      swap2\n      pop\n      pop\n        /* \"contracts/KlaytnToken.sol\":5682:5968  function transferFrom(... */\n      swap4\n      swap3\n      pop\n      pop\n      pop\n      jump\t// out\n        /* \"contracts/KlaytnToken.sol\":3590:3681  function decimals() public view virtual override returns (uint8) {... */\n    tag_48:\n        /* \"contracts/KlaytnToken.sol\":3648:3653  uint8 */\n      0x00\n        /* \"contracts/KlaytnToken.sol\":3672:3674  18 */\n      0x12\n        /* \"contracts/KlaytnToken.sol\":3665:3674  return 18 */\n      swap1\n      pop\n        /* \"contracts/KlaytnToken.sol\":3590:3681  function decimals() public view virtual override returns (uint8) {... */\n      swap1\n      jump\t// out\n        /* \"contracts/KlaytnToken.sol\":6362:6596  function increaseAllowance(address spender, uint256 addedValue) public virtual returns (bool) {... */\n    tag_53:\n        /* \"contracts/KlaytnToken.sol\":6450:6454  bool */\n      0x00\n        /* \"contracts/KlaytnToken.sol\":6466:6479  address owner */\n      dup1\n        /* \"contracts/KlaytnToken.sol\":6482:6494  _msgSender() */\n      tag_120\n        /* \"contracts/KlaytnToken.sol\":6482:6492  _msgSender */\n      tag_108\n        /* \"contracts/KlaytnToken.sol\":6482:6494  _msgSender() */\n      jump\t// in\n    tag_120:\n        /* \"contracts/KlaytnToken.sol\":6466:6494  address owner = _msgSender() */\n      swap1\n      pop\n        /* \"contracts/KlaytnToken.sol\":6504:6568  _approve(owner, spender, allowance(owner, spender) + addedValue) */\n      tag_121\n        /* \"contracts/KlaytnToken.sol\":6513:6518  owner */\n      dup2\n        /* \"contracts/KlaytnToken.sol\":6520:6527  spender */\n      dup6\n        /* \"contracts/KlaytnToken.sol\":6557:6567  addedValue */\n      dup6\n        /* \"contracts/KlaytnToken.sol\":6529:6554  allowance(owner, spender) */\n      tag_122\n        /* \"contracts/KlaytnToken.sol\":6539:6544  owner */\n      dup6\n        /* \"contracts/KlaytnToken.sol\":6546:6553  spender */\n      dup10\n        /* \"contracts/KlaytnToken.sol\":6529:6538  allowance */\n      tag_88\n        /* \"contracts/KlaytnToken.sol\":6529:6554  allowance(owner, spender) */\n      jump\t// in\n    tag_122:\n        /* \"contracts/KlaytnToken.sol\":6529:6567  allowance(owner, spender) + addedValue */\n      tag_123\n      swap2\n      swap1\n      tag_124\n      jump\t// in\n    tag_123:\n        /* \"contracts/KlaytnToken.sol\":6504:6512  _approve */\n      tag_110\n        /* \"contracts/KlaytnToken.sol\":6504:6568  _approve(owner, spender, allowance(owner, spender) + addedValue) */\n      jump\t// in\n    tag_121:\n        /* \"contracts/KlaytnToken.sol\":6585:6589  true */\n      0x01\n        /* \"contracts/KlaytnToken.sol\":6578:6589  return true */\n      swap2\n      pop\n      pop\n        /* \"contracts/KlaytnToken.sol\":6362:6596  function increaseAllowance(address spender, uint256 addedValue) public virtual returns (bool) {... */\n      swap3\n      swap2\n      pop\n      pop\n      jump\t// out\n        /* \"contracts/KlaytnToken.sol\":7832:8011  function safeTransfer(address recipient, uint256 amount) public virtual override {... */\n    tag_57:\n        /* \"contracts/KlaytnToken.sol\":7923:7936  address owner */\n      0x00\n        /* \"contracts/KlaytnToken.sol\":7939:7951  _msgSender() */\n      tag_126\n        /* \"contracts/KlaytnToken.sol\":7939:7949  _msgSender */\n      tag_108\n        /* \"contracts/KlaytnToken.sol\":7939:7951  _msgSender() */\n      jump\t// in\n    tag_126:\n        /* \"contracts/KlaytnToken.sol\":7923:7951  address owner = _msgSender() */\n      swap1\n      pop\n        /* \"contracts/KlaytnToken.sol\":7961:8004  _safeTransfer(owner, recipient, amount, \"\") */\n      tag_127\n        /* \"contracts/KlaytnToken.sol\":7975:7980  owner */\n      dup2\n        /* \"contracts/KlaytnToken.sol\":7982:7991  recipient */\n      dup5\n        /* \"contracts/KlaytnToken.sol\":7993:7999  amount */\n      dup5\n        /* \"contracts/KlaytnToken.sol\":7961:8004  _safeTransfer(owner, recipient, amount, \"\") */\n      mload(0x40)\n      dup1\n      0x20\n      add\n      0x40\n      mstore\n      dup1\n      0x00\n      dup2\n      mstore\n      pop\n        /* \"contracts/KlaytnToken.sol\":7961:7974  _safeTransfer */\n      tag_128\n        /* \"contracts/KlaytnToken.sol\":7961:8004  _safeTransfer(owner, recipient, amount, \"\") */\n      jump\t// in\n    tag_127:\n        /* \"contracts/KlaytnToken.sol\":7913:8011  {... */\n      pop\n        /* \"contracts/KlaytnToken.sol\":7832:8011  function safeTransfer(address recipient, uint256 amount) public virtual override {... */\n      pop\n      pop\n      jump\t// out\n        /* \"contracts/KlaytnToken.sol\":9192:9474  function safeTransferFrom(... */\n    tag_60:\n        /* \"contracts/KlaytnToken.sol\":9333:9348  address spender */\n      0x00\n        /* \"contracts/KlaytnToken.sol\":9351:9363  _msgSender() */\n      tag_130\n        /* \"contracts/KlaytnToken.sol\":9351:9361  _msgSender */\n      tag_108\n        /* \"contracts/KlaytnToken.sol\":9351:9363  _msgSender() */\n      jump\t// in\n    tag_130:\n        /* \"contracts/KlaytnToken.sol\":9333:9363  address spender = _msgSender() */\n      swap1\n      pop\n        /* \"contracts/KlaytnToken.sol\":9373:9413  _spendAllowance(sender, spender, amount) */\n      tag_131\n        /* \"contracts/KlaytnToken.sol\":9389:9395  sender */\n      dup5\n        /* \"contracts/KlaytnToken.sol\":9397:9404  spender */\n      dup3\n        /* \"contracts/KlaytnToken.sol\":9406:9412  amount */\n      dup5\n        /* \"contracts/KlaytnToken.sol\":9373:9388  _spendAllowance */\n      tag_115\n        /* \"contracts/KlaytnToken.sol\":9373:9413  _spendAllowance(sender, spender, amount) */\n      jump\t// in\n    tag_131:\n        /* \"contracts/KlaytnToken.sol\":9423:9467  _safeTransfer(sender, recipient, amount, \"\") */\n      tag_132\n        /* \"contracts/KlaytnToken.sol\":9437:9443  sender */\n      dup5\n        /* \"contracts/KlaytnToken.sol\":9445:9454  recipient */\n      dup5\n        /* \"contracts/KlaytnToken.sol\":9456:9462  amount */\n      dup5\n        /* \"contracts/KlaytnToken.sol\":9423:9467  _safeTransfer(sender, recipient, amount, \"\") */\n      mload(0x40)\n      dup1\n      0x20\n      add\n      0x40\n      mstore\n      dup1\n      0x00\n      dup2\n      mstore\n      pop\n        /* \"contracts/KlaytnToken.sol\":9423:9436  _safeTransfer */\n      tag_128\n        /* \"contracts/KlaytnToken.sol\":9423:9467  _safeTransfer(sender, recipient, amount, \"\") */\n      jump\t// in\n    tag_132:\n        /* \"contracts/KlaytnToken.sol\":9323:9474  {... */\n      pop\n        /* \"contracts/KlaytnToken.sol\":9192:9474  function safeTransferFrom(... */\n      pop\n      pop\n      pop\n      jump\t// out\n        /* \"contracts/KlaytnToken.sol\":3903:4028  function balanceOf(address account) public view virtual override returns (uint256) {... */\n    tag_64:\n        /* \"contracts/KlaytnToken.sol\":3977:3984  uint256 */\n      0x00\n        /* \"contracts/KlaytnToken.sol\":4003:4012  _balances */\n      dup1\n        /* \"contracts/KlaytnToken.sol\":4003:4021  _balances[account] */\n      0x00\n        /* \"contracts/KlaytnToken.sol\":4013:4020  account */\n      dup4\n        /* \"contracts/KlaytnToken.sol\":4003:4021  _balances[account] */\n      0xffffffffffffffffffffffffffffffffffffffff\n      and\n      0xffffffffffffffffffffffffffffffffffffffff\n      and\n      dup2\n      mstore\n      0x20\n      add\n      swap1\n      dup2\n      mstore\n      0x20\n      add\n      0x00\n      keccak256\n      sload\n        /* \"contracts/KlaytnToken.sol\":3996:4021  return _balances[account] */\n      swap1\n      pop\n        /* \"contracts/KlaytnToken.sol\":3903:4028  function balanceOf(address account) public view virtual override returns (uint256) {... */\n      swap2\n      swap1\n      pop\n      jump\t// out\n        /* \"contracts/KlaytnToken.sol\":2867:2969  function symbol() public view virtual override returns (string memory) {... */\n    tag_67:\n        /* \"contracts/KlaytnToken.sol\":2923:2936  string memory */\n      0x60\n        /* \"contracts/KlaytnToken.sol\":2955:2962  _symbol */\n      0x04\n        /* \"contracts/KlaytnToken.sol\":2948:2962  return _symbol */\n      dup1\n      sload\n      tag_135\n      swap1\n      tag_101\n      jump\t// in\n    tag_135:\n      dup1\n      0x1f\n      add\n      0x20\n      dup1\n      swap2\n      div\n      mul\n      0x20\n      add\n      mload(0x40)\n      swap1\n      dup2\n      add\n      0x40\n      mstore\n      dup1\n      swap3\n      swap2\n      swap1\n      dup2\n      dup2\n      mstore\n      0x20\n      add\n      dup3\n      dup1\n      sload\n      tag_136\n      swap1\n      tag_101\n      jump\t// in\n    tag_136:\n      dup1\n      iszero\n      tag_137\n      jumpi\n      dup1\n      0x1f\n      lt\n      tag_138\n      jumpi\n      0x0100\n      dup1\n      dup4\n      sload\n      div\n      mul\n      dup4\n      mstore\n      swap2\n      0x20\n      add\n      swap2\n      jump(tag_137)\n    tag_138:\n      dup3\n      add\n      swap2\n      swap1\n      0x00\n      mstore\n      keccak256(0x00, 0x20)\n      swap1\n    tag_139:\n      dup2\n      sload\n      dup2\n      mstore\n      swap1\n      0x01\n      add\n      swap1\n      0x20\n      add\n      dup1\n      dup4\n      gt\n      tag_139\n      jumpi\n      dup3\n      swap1\n      sub\n      0x1f\n      and\n      dup3\n      add\n      swap2\n    tag_137:\n      pop\n      pop\n      pop\n      pop\n      pop\n      swap1\n      pop\n        /* \"contracts/KlaytnToken.sol\":2867:2969  function symbol() public view virtual override returns (string memory) {... */\n      swap1\n      jump\t// out\n        /* \"contracts/KlaytnToken.sol\":19213:19292  function mint(uint256 amount) public {... */\n    tag_72:\n        /* \"contracts/KlaytnToken.sol\":19260:19285  _mint(msg.sender, amount) */\n      tag_141\n        /* \"contracts/KlaytnToken.sol\":19266:19276  msg.sender */\n      caller\n        /* \"contracts/KlaytnToken.sol\":19278:19284  amount */\n      dup3\n        /* \"contracts/KlaytnToken.sol\":19260:19265  _mint */\n      tag_142\n        /* \"contracts/KlaytnToken.sol\":19260:19285  _mint(msg.sender, amount) */\n      jump\t// in\n    tag_141:\n        /* \"contracts/KlaytnToken.sol\":19213:19292  function mint(uint256 amount) public {... */\n      pop\n      jump\t// out\n        /* \"contracts/KlaytnToken.sol\":7082:7508  function decreaseAllowance(address spender, uint256 subtractedValue) public virtual returns (bool) {... */\n    tag_75:\n        /* \"contracts/KlaytnToken.sol\":7175:7179  bool */\n      0x00\n        /* \"contracts/KlaytnToken.sol\":7191:7204  address owner */\n      dup1\n        /* \"contracts/KlaytnToken.sol\":7207:7219  _msgSender() */\n      tag_144\n        /* \"contracts/KlaytnToken.sol\":7207:7217  _msgSender */\n      tag_108\n        /* \"contracts/KlaytnToken.sol\":7207:7219  _msgSender() */\n      jump\t// in\n    tag_144:\n        /* \"contracts/KlaytnToken.sol\":7191:7219  address owner = _msgSender() */\n      swap1\n      pop\n        /* \"contracts/KlaytnToken.sol\":7229:7253  uint256 currentAllowance */\n      0x00\n        /* \"contracts/KlaytnToken.sol\":7256:7281  allowance(owner, spender) */\n      tag_145\n        /* \"contracts/KlaytnToken.sol\":7266:7271  owner */\n      dup3\n        /* \"contracts/KlaytnToken.sol\":7273:7280  spender */\n      dup7\n        /* \"contracts/KlaytnToken.sol\":7256:7265  allowance */\n      tag_88\n        /* \"contracts/KlaytnToken.sol\":7256:7281  allowance(owner, spender) */\n      jump\t// in\n    tag_145:\n        /* \"contracts/KlaytnToken.sol\":7229:7281  uint256 currentAllowance = allowance(owner, spender) */\n      swap1\n      pop\n        /* \"contracts/KlaytnToken.sol\":7319:7334  subtractedValue */\n      dup4\n        /* \"contracts/KlaytnToken.sol\":7299:7315  currentAllowance */\n      dup2\n        /* \"contracts/KlaytnToken.sol\":7299:7334  currentAllowance >= subtractedValue */\n      lt\n      iszero\n        /* \"contracts/KlaytnToken.sol\":7291:7375  require(currentAllowance >= subtractedValue, \"KIP7: decreased allowance below zero\") */\n      tag_146\n      jumpi\n      mload(0x40)\n      0x08c379a000000000000000000000000000000000000000000000000000000000\n      dup2\n      mstore\n      0x04\n      add\n      tag_147\n      swap1\n      tag_148\n      jump\t// in\n    tag_147:\n      mload(0x40)\n      dup1\n      swap2\n      sub\n      swap1\n      revert\n    tag_146:\n        /* \"contracts/KlaytnToken.sol\":7409:7469  _approve(owner, spender, currentAllowance - subtractedValue) */\n      tag_149\n        /* \"contracts/KlaytnToken.sol\":7418:7423  owner */\n      dup3\n        /* \"contracts/KlaytnToken.sol\":7425:7432  spender */\n      dup7\n        /* \"contracts/KlaytnToken.sol\":7453:7468  subtractedValue */\n      dup7\n        /* \"contracts/KlaytnToken.sol\":7434:7450  currentAllowance */\n      dup5\n        /* \"contracts/KlaytnToken.sol\":7434:7468  currentAllowance - subtractedValue */\n      sub\n        /* \"contracts/KlaytnToken.sol\":7409:7417  _approve */\n      tag_110\n        /* \"contracts/KlaytnToken.sol\":7409:7469  _approve(owner, spender, currentAllowance - subtractedValue) */\n      jump\t// in\n    tag_149:\n        /* \"contracts/KlaytnToken.sol\":7497:7501  true */\n      0x01\n        /* \"contracts/KlaytnToken.sol\":7490:7501  return true */\n      swap3\n      pop\n      pop\n      pop\n        /* \"contracts/KlaytnToken.sol\":7082:7508  function decreaseAllowance(address spender, uint256 subtractedValue) public virtual returns (bool) {... */\n      swap3\n      swap2\n      pop\n      pop\n      jump\t// out\n        /* \"contracts/KlaytnToken.sol\":4223:4412  function transfer(address to, uint256 amount) public virtual override returns (bool) {... */\n    tag_79:\n        /* \"contracts/KlaytnToken.sol\":4302:4306  bool */\n      0x00\n        /* \"contracts/KlaytnToken.sol\":4318:4331  address owner */\n      dup1\n        /* \"contracts/KlaytnToken.sol\":4334:4346  _msgSender() */\n      tag_151\n        /* \"contracts/KlaytnToken.sol\":4334:4344  _msgSender */\n      tag_108\n        /* \"contracts/KlaytnToken.sol\":4334:4346  _msgSender() */\n      jump\t// in\n    tag_151:\n        /* \"contracts/KlaytnToken.sol\":4318:4346  address owner = _msgSender() */\n      swap1\n      pop\n        /* \"contracts/KlaytnToken.sol\":4356:4384  _transfer(owner, to, amount) */\n      tag_152\n        /* \"contracts/KlaytnToken.sol\":4366:4371  owner */\n      dup2\n        /* \"contracts/KlaytnToken.sol\":4373:4375  to */\n      dup6\n        /* \"contracts/KlaytnToken.sol\":4377:4383  amount */\n      dup6\n        /* \"contracts/KlaytnToken.sol\":4356:4365  _transfer */\n      tag_117\n        /* \"contracts/KlaytnToken.sol\":4356:4384  _transfer(owner, to, amount) */\n      jump\t// in\n    tag_152:\n        /* \"contracts/KlaytnToken.sol\":4401:4405  true */\n      0x01\n        /* \"contracts/KlaytnToken.sol\":4394:4405  return true */\n      swap2\n      pop\n      pop\n        /* \"contracts/KlaytnToken.sol\":4223:4412  function transfer(address to, uint256 amount) public virtual override returns (bool) {... */\n      swap3\n      swap2\n      pop\n      pop\n      jump\t// out\n        /* \"contracts/KlaytnToken.sol\":9817:10130  function safeTransferFrom(... */\n    tag_84:\n        /* \"contracts/KlaytnToken.sol\":9986:10001  address spender */\n      0x00\n        /* \"contracts/KlaytnToken.sol\":10004:10016  _msgSender() */\n      tag_154\n        /* \"contracts/KlaytnToken.sol\":10004:10014  _msgSender */\n      tag_108\n        /* \"contracts/KlaytnToken.sol\":10004:10016  _msgSender() */\n      jump\t// in\n    tag_154:\n        /* \"contracts/KlaytnToken.sol\":9986:10016  address spender = _msgSender() */\n      swap1\n      pop\n        /* \"contracts/KlaytnToken.sol\":10026:10066  _spendAllowance(sender, spender, amount) */\n      tag_155\n        /* \"contracts/KlaytnToken.sol\":10042:10048  sender */\n      dup6\n        /* \"contracts/KlaytnToken.sol\":10050:10057  spender */\n      dup3\n        /* \"contracts/KlaytnToken.sol\":10059:10065  amount */\n      dup6\n        /* \"contracts/KlaytnToken.sol\":10026:10041  _spendAllowance */\n      tag_115\n        /* \"contracts/KlaytnToken.sol\":10026:10066  _spendAllowance(sender, spender, amount) */\n      jump\t// in\n    tag_155:\n        /* \"contracts/KlaytnToken.sol\":10076:10123  _safeTransfer(sender, recipient, amount, _data) */\n      tag_156\n        /* \"contracts/KlaytnToken.sol\":10090:10096  sender */\n      dup6\n        /* \"contracts/KlaytnToken.sol\":10098:10107  recipient */\n      dup6\n        /* \"contracts/KlaytnToken.sol\":10109:10115  amount */\n      dup6\n        /* \"contracts/KlaytnToken.sol\":10117:10122  _data */\n      dup6\n        /* \"contracts/KlaytnToken.sol\":10076:10089  _safeTransfer */\n      tag_128\n        /* \"contracts/KlaytnToken.sol\":10076:10123  _safeTransfer(sender, recipient, amount, _data) */\n      jump\t// in\n    tag_156:\n        /* \"contracts/KlaytnToken.sol\":9976:10130  {... */\n      pop\n        /* \"contracts/KlaytnToken.sol\":9817:10130  function safeTransferFrom(... */\n      pop\n      pop\n      pop\n      pop\n      jump\t// out\n        /* \"contracts/KlaytnToken.sol\":4469:4618  function allowance(address owner, address spender) public view virtual override returns (uint256) {... */\n    tag_88:\n        /* \"contracts/KlaytnToken.sol\":4558:4565  uint256 */\n      0x00\n        /* \"contracts/KlaytnToken.sol\":4584:4595  _allowances */\n      0x01\n        /* \"contracts/KlaytnToken.sol\":4584:4602  _allowances[owner] */\n      0x00\n        /* \"contracts/KlaytnToken.sol\":4596:4601  owner */\n      dup5\n        /* \"contracts/KlaytnToken.sol\":4584:4602  _allowances[owner] */\n      0xffffffffffffffffffffffffffffffffffffffff\n      and\n      0xffffffffffffffffffffffffffffffffffffffff\n      and\n      dup2\n      mstore\n      0x20\n      add\n      swap1\n      dup2\n      mstore\n      0x20\n      add\n      0x00\n      keccak256\n        /* \"contracts/KlaytnToken.sol\":4584:4611  _allowances[owner][spender] */\n      0x00\n        /* \"contracts/KlaytnToken.sol\":4603:4610  spender */\n      dup4\n        /* \"contracts/KlaytnToken.sol\":4584:4611  _allowances[owner][spender] */\n      0xffffffffffffffffffffffffffffffffffffffff\n      and\n      0xffffffffffffffffffffffffffffffffffffffff\n      and\n      dup2\n      mstore\n      0x20\n      add\n      swap1\n      dup2\n      mstore\n      0x20\n      add\n      0x00\n      keccak256\n      sload\n        /* \"contracts/KlaytnToken.sol\":4577:4611  return _allowances[owner][spender] */\n      swap1\n      pop\n        /* \"contracts/KlaytnToken.sol\":4469:4618  function allowance(address owner, address spender) public view virtual override returns (uint256) {... */\n      swap3\n      swap2\n      pop\n      pop\n      jump\t// out\n        /* \"contracts/KlaytnToken.sol\":8272:8504  function safeTransfer(... */\n    tag_93:\n        /* \"contracts/KlaytnToken.sol\":8413:8426  address owner */\n      0x00\n        /* \"contracts/KlaytnToken.sol\":8429:8441  _msgSender() */\n      tag_159\n        /* \"contracts/KlaytnToken.sol\":8429:8439  _msgSender */\n      tag_108\n        /* \"contracts/KlaytnToken.sol\":8429:8441  _msgSender() */\n      jump\t// in\n    tag_159:\n        /* \"contracts/KlaytnToken.sol\":8413:8441  address owner = _msgSender() */\n      swap1\n      pop\n        /* \"contracts/KlaytnToken.sol\":8451:8497  _safeTransfer(owner, recipient, amount, _data) */\n      tag_160\n        /* \"contracts/KlaytnToken.sol\":8465:8470  owner */\n      dup2\n        /* \"contracts/KlaytnToken.sol\":8472:8481  recipient */\n      dup6\n        /* \"contracts/KlaytnToken.sol\":8483:8489  amount */\n      dup6\n        /* \"contracts/KlaytnToken.sol\":8491:8496  _data */\n      dup6\n        /* \"contracts/KlaytnToken.sol\":8451:8464  _safeTransfer */\n      tag_128\n        /* \"contracts/KlaytnToken.sol\":8451:8497  _safeTransfer(owner, recipient, amount, _data) */\n      jump\t// in\n    tag_160:\n        /* \"contracts/KlaytnToken.sol\":8403:8504  {... */\n      pop\n        /* \"contracts/KlaytnToken.sol\":8272:8504  function safeTransfer(... */\n      pop\n      pop\n      pop\n      jump\t// out\n        /* \"contracts/utils/introspection/KIP13.sol\":979:1133  function supportsInterface(bytes4 interfaceId) public view virtual override returns (bool) {... */\n    tag_98:\n        /* \"contracts/utils/introspection/KIP13.sol\":1064:1068  bool */\n      0x00\n        /* \"contracts/utils/introspection/KIP13.sol\":1102:1126  type(IKIP13).interfaceId */\n      0x01ffc9a700000000000000000000000000000000000000000000000000000000\n        /* \"contracts/utils/introspection/KIP13.sol\":1087:1126  interfaceId == type(IKIP13).interfaceId */\n      not(0xffffffffffffffffffffffffffffffffffffffffffffffffffffffff)\n      and\n        /* \"contracts/utils/introspection/KIP13.sol\":1087:1098  interfaceId */\n      dup3\n        /* \"contracts/utils/introspection/KIP13.sol\":1087:1126  interfaceId == type(IKIP13).interfaceId */\n      not(0xffffffffffffffffffffffffffffffffffffffffffffffffffffffff)\n      and\n      eq\n        /* \"contracts/utils/introspection/KIP13.sol\":1080:1126  return interfaceId == type(IKIP13).interfaceId */\n      swap1\n      pop\n        /* \"contracts/utils/introspection/KIP13.sol\":979:1133  function supportsInterface(bytes4 interfaceId) public view virtual override returns (bool) {... */\n      swap2\n      swap1\n      pop\n      jump\t// out\n        /* \"contracts/utils/Context.sol\":640:736  function _msgSender() internal view virtual returns (address) {... */\n    tag_108:\n        /* \"contracts/utils/Context.sol\":693:700  address */\n      0x00\n        /* \"contracts/utils/Context.sol\":719:729  msg.sender */\n      caller\n        /* \"contracts/utils/Context.sol\":712:729  return msg.sender */\n      swap1\n      pop\n        /* \"contracts/utils/Context.sol\":640:736  function _msgSender() internal view virtual returns (address) {... */\n      swap1\n      jump\t// out\n        /* \"contracts/KlaytnToken.sol\":16705:17073  function _approve(... */\n    tag_110:\n        /* \"contracts/KlaytnToken.sol\":16853:16854  0 */\n      0x00\n        /* \"contracts/KlaytnToken.sol\":16836:16855  owner != address(0) */\n      0xffffffffffffffffffffffffffffffffffffffff\n      and\n        /* \"contracts/KlaytnToken.sol\":16836:16841  owner */\n      dup4\n        /* \"contracts/KlaytnToken.sol\":16836:16855  owner != address(0) */\n      0xffffffffffffffffffffffffffffffffffffffff\n      and\n      sub\n        /* \"contracts/KlaytnToken.sol\":16828:16895  require(owner != address(0), \"KIP7: approve from the zero address\") */\n      tag_164\n      jumpi\n      mload(0x40)\n      0x08c379a000000000000000000000000000000000000000000000000000000000\n      dup2\n      mstore\n      0x04\n      add\n      tag_165\n      swap1\n      tag_166\n      jump\t// in\n    tag_165:\n      mload(0x40)\n      dup1\n      swap2\n      sub\n      swap1\n      revert\n    tag_164:\n        /* \"contracts/KlaytnToken.sol\":16932:16933  0 */\n      0x00\n        /* \"contracts/KlaytnToken.sol\":16913:16934  spender != address(0) */\n      0xffffffffffffffffffffffffffffffffffffffff\n      and\n        /* \"contracts/KlaytnToken.sol\":16913:16920  spender */\n      dup3\n        /* \"contracts/KlaytnToken.sol\":16913:16934  spender != address(0) */\n      0xffffffffffffffffffffffffffffffffffffffff\n      and\n      sub\n        /* \"contracts/KlaytnToken.sol\":16905:16972  require(spender != address(0), \"KIP7: approve to the zero address\") */\n      tag_167\n      jumpi\n      mload(0x40)\n      0x08c379a000000000000000000000000000000000000000000000000000000000\n      dup2\n      mstore\n      0x04\n      add\n      tag_168\n      swap1\n      tag_169\n      jump\t// in\n    tag_168:\n      mload(0x40)\n      dup1\n      swap2\n      sub\n      swap1\n      revert\n    tag_167:\n        /* \"contracts/KlaytnToken.sol\":17013:17019  amount */\n      dup1\n        /* \"contracts/KlaytnToken.sol\":16983:16994  _allowances */\n      0x01\n        /* \"contracts/KlaytnToken.sol\":16983:17001  _allowances[owner] */\n      0x00\n        /* \"contracts/KlaytnToken.sol\":16995:17000  owner */\n      dup6\n        /* \"contracts/KlaytnToken.sol\":16983:17001  _allowances[owner] */\n      0xffffffffffffffffffffffffffffffffffffffff\n      and\n      0xffffffffffffffffffffffffffffffffffffffff\n      and\n      dup2\n      mstore\n      0x20\n      add\n      swap1\n      dup2\n      mstore\n      0x20\n      add\n      0x00\n      keccak256\n        /* \"contracts/KlaytnToken.sol\":16983:17010  _allowances[owner][spender] */\n      0x00\n        /* \"contracts/KlaytnToken.sol\":17002:17009  spender */\n      dup5\n        /* \"contracts/KlaytnToken.sol\":16983:17010  _allowances[owner][spender] */\n      0xffffffffffffffffffffffffffffffffffffffff\n      and\n      0xffffffffffffffffffffffffffffffffffffffff\n      and\n      dup2\n      mstore\n      0x20\n      add\n      swap1\n      dup2\n      mstore\n      0x20\n      add\n      0x00\n      keccak256\n        /* \"contracts/KlaytnToken.sol\":16983:17019  _allowances[owner][spender] = amount */\n      dup2\n      swap1\n      sstore\n      pop\n        /* \"contracts/KlaytnToken.sol\":17050:17057  spender */\n      dup2\n        /* \"contracts/KlaytnToken.sol\":17034:17066  Approval(owner, spender, amount) */\n      0xffffffffffffffffffffffffffffffffffffffff\n      and\n        /* \"contracts/KlaytnToken.sol\":17043:17048  owner */\n      dup4\n        /* \"contracts/KlaytnToken.sol\":17034:17066  Approval(owner, spender, amount) */\n      0xffffffffffffffffffffffffffffffffffffffff\n      and\n      0x8c5be1e5ebec7d5bd14f71427d1e84f3dd0314c0f7b2291e5b200ac8c7c3b925\n        /* \"contracts/KlaytnToken.sol\":17059:17065  amount */\n      dup4\n        /* \"contracts/KlaytnToken.sol\":17034:17066  Approval(owner, spender, amount) */\n      mload(0x40)\n      tag_170\n      swap2\n      swap1\n      tag_41\n      jump\t// in\n    tag_170:\n      mload(0x40)\n      dup1\n      swap2\n      sub\n      swap1\n      log3\n        /* \"contracts/KlaytnToken.sol\":16705:17073  function _approve(... */\n      pop\n      pop\n      pop\n      jump\t// out\n        /* \"contracts/KlaytnToken.sol\":17354:17794  function _spendAllowance(... */\n    tag_115:\n        /* \"contracts/KlaytnToken.sol\":17484:17508  uint256 currentAllowance */\n      0x00\n        /* \"contracts/KlaytnToken.sol\":17511:17536  allowance(owner, spender) */\n      tag_172\n        /* \"contracts/KlaytnToken.sol\":17521:17526  owner */\n      dup5\n        /* \"contracts/KlaytnToken.sol\":17528:17535  spender */\n      dup5\n        /* \"contracts/KlaytnToken.sol\":17511:17520  allowance */\n      tag_88\n        /* \"contracts/KlaytnToken.sol\":17511:17536  allowance(owner, spender) */\n      jump\t// in\n    tag_172:\n        /* \"contracts/KlaytnToken.sol\":17484:17536  uint256 currentAllowance = allowance(owner, spender) */\n      swap1\n      pop\n        /* \"contracts/KlaytnToken.sol\":17570:17587  type(uint256).max */\n      0xffffffffffffffffffffffffffffffffffffffffffffffffffffffffffffffff\n        /* \"contracts/KlaytnToken.sol\":17550:17566  currentAllowance */\n      dup2\n        /* \"contracts/KlaytnToken.sol\":17550:17587  currentAllowance != type(uint256).max */\n      eq\n        /* \"contracts/KlaytnToken.sol\":17546:17788  if (currentAllowance != type(uint256).max) {... */\n      tag_173\n      jumpi\n        /* \"contracts/KlaytnToken.sol\":17631:17637  amount */\n      dup2\n        /* \"contracts/KlaytnToken.sol\":17611:17627  currentAllowance */\n      dup2\n        /* \"contracts/KlaytnToken.sol\":17611:17637  currentAllowance >= amount */\n      lt\n      iszero\n        /* \"contracts/KlaytnToken.sol\":17603:17670  require(currentAllowance >= amount, \"KIP7: insufficient allowance\") */\n      tag_174\n      jumpi\n      mload(0x40)\n      0x08c379a000000000000000000000000000000000000000000000000000000000\n      dup2\n      mstore\n      0x04\n      add\n      tag_175\n      swap1\n      tag_176\n      jump\t// in\n    tag_175:\n      mload(0x40)\n      dup1\n      swap2\n      sub\n      swap1\n      revert\n    tag_174:\n        /* \"contracts/KlaytnToken.sol\":17712:17763  _approve(owner, spender, currentAllowance - amount) */\n      tag_177\n        /* \"contracts/KlaytnToken.sol\":17721:17726  owner */\n      dup5\n        /* \"contracts/KlaytnToken.sol\":17728:17735  spender */\n      dup5\n        /* \"contracts/KlaytnToken.sol\":17756:17762  amount */\n      dup5\n        /* \"contracts/KlaytnToken.sol\":17737:17753  currentAllowance */\n      dup5\n        /* \"contracts/KlaytnToken.sol\":17737:17762  currentAllowance - amount */\n      sub\n        /* \"contracts/KlaytnToken.sol\":17712:17720  _approve */\n      tag_110\n        /* \"contracts/KlaytnToken.sol\":17712:17763  _approve(owner, spender, currentAllowance - amount) */\n      jump\t// in\n    tag_177:\n        /* \"contracts/KlaytnToken.sol\":17546:17788  if (currentAllowance != type(uint256).max) {... */\n    tag_173:\n        /* \"contracts/KlaytnToken.sol\":17474:17794  {... */\n      pop\n        /* \"contracts/KlaytnToken.sol\":17354:17794  function _spendAllowance(... */\n      pop\n      pop\n      pop\n      jump\t// out\n        /* \"contracts/KlaytnToken.sol\":11677:12325  function _transfer(... */\n    tag_117:\n        /* \"contracts/KlaytnToken.sol\":11819:11820  0 */\n      0x00\n        /* \"contracts/KlaytnToken.sol\":11803:11821  from != address(0) */\n      0xffffffffffffffffffffffffffffffffffffffff\n      and\n        /* \"contracts/KlaytnToken.sol\":11803:11807  from */\n      dup4\n        /* \"contracts/KlaytnToken.sol\":11803:11821  from != address(0) */\n      0xffffffffffffffffffffffffffffffffffffffff\n      and\n      sub\n        /* \"contracts/KlaytnToken.sol\":11795:11862  require(from != address(0), \"KIP7: transfer from the zero address\") */\n      tag_179\n      jumpi\n      mload(0x40)\n      0x08c379a000000000000000000000000000000000000000000000000000000000\n      dup2\n      mstore\n      0x04\n      add\n      tag_180\n      swap1\n      tag_181\n      jump\t// in\n    tag_180:\n      mload(0x40)\n      dup1\n      swap2\n      sub\n      swap1\n      revert\n    tag_179:\n        /* \"contracts/KlaytnToken.sol\":11894:11895  0 */\n      0x00\n        /* \"contracts/KlaytnToken.sol\":11880:11896  to != address(0) */\n      0xffffffffffffffffffffffffffffffffffffffff\n      and\n        /* \"contracts/KlaytnToken.sol\":11880:11882  to */\n      dup3\n        /* \"contracts/KlaytnToken.sol\":11880:11896  to != address(0) */\n      0xffffffffffffffffffffffffffffffffffffffff\n      and\n      sub\n        /* \"contracts/KlaytnToken.sol\":11872:11935  require(to != address(0), \"KIP7: transfer to the zero address\") */\n      tag_182\n      jumpi\n      mload(0x40)\n      0x08c379a000000000000000000000000000000000000000000000000000000000\n      dup2\n      mstore\n      0x04\n      add\n      tag_183\n      swap1\n      tag_184\n      jump\t// in\n    tag_183:\n      mload(0x40)\n      dup1\n      swap2\n      sub\n      swap1\n      revert\n    tag_182:\n        /* \"contracts/KlaytnToken.sol\":11946:11984  _beforeTokenTransfer(from, to, amount) */\n      tag_185\n        /* \"contracts/KlaytnToken.sol\":11967:11971  from */\n      dup4\n        /* \"contracts/KlaytnToken.sol\":11973:11975  to */\n      dup4\n        /* \"contracts/KlaytnToken.sol\":11977:11983  amount */\n      dup4\n        /* \"contracts/KlaytnToken.sol\":11946:11966  _beforeTokenTransfer */\n      tag_186\n        /* \"contracts/KlaytnToken.sol\":11946:11984  _beforeTokenTransfer(from, to, amount) */\n      jump\t// in\n    tag_185:\n        /* \"contracts/KlaytnToken.sol\":11995:12014  uint256 fromBalance */\n      0x00\n        /* \"contracts/KlaytnToken.sol\":12017:12026  _balances */\n      dup1\n        /* \"contracts/KlaytnToken.sol\":12017:12032  _balances[from] */\n      0x00\n        /* \"contracts/KlaytnToken.sol\":12027:12031  from */\n      dup6\n        /* \"contracts/KlaytnToken.sol\":12017:12032  _balances[from] */\n      0xffffffffffffffffffffffffffffffffffffffff\n      and\n      0xffffffffffffffffffffffffffffffffffffffff\n      and\n      dup2\n      mstore\n      0x20\n      add\n      swap1\n      dup2\n      mstore\n      0x20\n      add\n      0x00\n      keccak256\n      sload\n        /* \"contracts/KlaytnToken.sol\":11995:12032  uint256 fromBalance = _balances[from] */\n      swap1\n      pop\n        /* \"contracts/KlaytnToken.sol\":12065:12071  amount */\n      dup2\n        /* \"contracts/KlaytnToken.sol\":12050:12061  fromBalance */\n      dup2\n        /* \"contracts/KlaytnToken.sol\":12050:12071  fromBalance >= amount */\n      lt\n      iszero\n        /* \"contracts/KlaytnToken.sol\":12042:12113  require(fromBalance >= amount, \"KIP7: transfer amount exceeds balance\") */\n      tag_187\n      jumpi\n      mload(0x40)\n      0x08c379a000000000000000000000000000000000000000000000000000000000\n      dup2\n      mstore\n      0x04\n      add\n      tag_188\n      swap1\n      tag_189\n      jump\t// in\n    tag_188:\n      mload(0x40)\n      dup1\n      swap2\n      sub\n      swap1\n      revert\n    tag_187:\n        /* \"contracts/KlaytnToken.sol\":12179:12185  amount */\n      dup2\n        /* \"contracts/KlaytnToken.sol\":12165:12176  fromBalance */\n      dup2\n        /* \"contracts/KlaytnToken.sol\":12165:12185  fromBalance - amount */\n      sub\n        /* \"contracts/KlaytnToken.sol\":12147:12156  _balances */\n      0x00\n        /* \"contracts/KlaytnToken.sol\":12147:12162  _balances[from] */\n      dup1\n        /* \"contracts/KlaytnToken.sol\":12157:12161  from */\n      dup7\n        /* \"contracts/KlaytnToken.sol\":12147:12162  _balances[from] */\n      0xffffffffffffffffffffffffffffffffffffffff\n      and\n      0xffffffffffffffffffffffffffffffffffffffff\n      and\n      dup2\n      mstore\n      0x20\n      add\n      swap1\n      dup2\n      mstore\n      0x20\n      add\n      0x00\n      keccak256\n        /* \"contracts/KlaytnToken.sol\":12147:12185  _balances[from] = fromBalance - amount */\n      dup2\n      swap1\n      sstore\n      pop\n        /* \"contracts/KlaytnToken.sol\":12222:12228  amount */\n      dup2\n        /* \"contracts/KlaytnToken.sol\":12205:12214  _balances */\n      0x00\n        /* \"contracts/KlaytnToken.sol\":12205:12218  _balances[to] */\n      dup1\n        /* \"contracts/KlaytnToken.sol\":12215:12217  to */\n      dup6\n        /* \"contracts/KlaytnToken.sol\":12205:12218  _balances[to] */\n      0xffffffffffffffffffffffffffffffffffffffff\n      and\n      0xffffffffffffffffffffffffffffffffffffffff\n      and\n      dup2\n      mstore\n      0x20\n      add\n      swap1\n      dup2\n      mstore\n      0x20\n      add\n      0x00\n      keccak256\n      0x00\n        /* \"contracts/KlaytnToken.sol\":12205:12228  _balances[to] += amount */\n      dup3\n      dup3\n      sload\n      tag_190\n      swap2\n      swap1\n      tag_124\n      jump\t// in\n    tag_190:\n      swap3\n      pop\n      pop\n      dup2\n      swap1\n      sstore\n      pop\n        /* \"contracts/KlaytnToken.sol\":12259:12261  to */\n      dup3\n        /* \"contracts/KlaytnToken.sol\":12244:12270  Transfer(from, to, amount) */\n      0xffffffffffffffffffffffffffffffffffffffff\n      and\n        /* \"contracts/KlaytnToken.sol\":12253:12257  from */\n      dup5\n        /* \"contracts/KlaytnToken.sol\":12244:12270  Transfer(from, to, amount) */\n      0xffffffffffffffffffffffffffffffffffffffff\n      and\n      0xddf252ad1be2c89b69c2b068fc378daa952ba7f163c4a11628f55a4df523b3ef\n        /* \"contracts/KlaytnToken.sol\":12263:12269  amount */\n      dup5\n        /* \"contracts/KlaytnToken.sol\":12244:12270  Transfer(from, to, amount) */\n      mload(0x40)\n      tag_191\n      swap2\n      swap1\n      tag_41\n      jump\t// in\n    tag_191:\n      mload(0x40)\n      dup1\n      swap2\n      sub\n      swap1\n      log3\n        /* \"contracts/KlaytnToken.sol\":12281:12318  _afterTokenTransfer(from, to, amount) */\n      tag_192\n        /* \"contracts/KlaytnToken.sol\":12301:12305  from */\n      dup5\n        /* \"contracts/KlaytnToken.sol\":12307:12309  to */\n      dup5\n        /* \"contracts/KlaytnToken.sol\":12311:12317  amount */\n      dup5\n        /* \"contracts/KlaytnToken.sol\":12281:12300  _afterTokenTransfer */\n      tag_193\n        /* \"contracts/KlaytnToken.sol\":12281:12318  _afterTokenTransfer(from, to, amount) */\n      jump\t// in\n    tag_192:\n        /* \"contracts/KlaytnToken.sol\":11785:12325  {... */\n      pop\n        /* \"contracts/KlaytnToken.sol\":11677:12325  function _transfer(... */\n      pop\n      pop\n      pop\n      jump\t// out\n        /* \"contracts/KlaytnToken.sol\":10915:11214  function _safeTransfer(... */\n    tag_128:\n        /* \"contracts/KlaytnToken.sol\":11065:11092  _transfer(from, to, amount) */\n      tag_195\n        /* \"contracts/KlaytnToken.sol\":11075:11079  from */\n      dup5\n        /* \"contracts/KlaytnToken.sol\":11081:11083  to */\n      dup5\n        /* \"contracts/KlaytnToken.sol\":11085:11091  amount */\n      dup5\n        /* \"contracts/KlaytnToken.sol\":11065:11074  _transfer */\n      tag_117\n        /* \"contracts/KlaytnToken.sol\":11065:11092  _transfer(from, to, amount) */\n      jump\t// in\n    tag_195:\n        /* \"contracts/KlaytnToken.sol\":11110:11155  _checkOnKIP7Received(from, to, amount, _data) */\n      tag_196\n        /* \"contracts/KlaytnToken.sol\":11131:11135  from */\n      dup5\n        /* \"contracts/KlaytnToken.sol\":11137:11139  to */\n      dup5\n        /* \"contracts/KlaytnToken.sol\":11141:11147  amount */\n      dup5\n        /* \"contracts/KlaytnToken.sol\":11149:11154  _data */\n      dup5\n        /* \"contracts/KlaytnToken.sol\":11110:11130  _checkOnKIP7Received */\n      tag_197\n        /* \"contracts/KlaytnToken.sol\":11110:11155  _checkOnKIP7Received(from, to, amount, _data) */\n      jump\t// in\n    tag_196:\n        /* \"contracts/KlaytnToken.sol\":11102:11207  require(_checkOnKIP7Received(from, to, amount, _data), \"KIP7: transfer to non IKIP7Receiver implementer\") */\n      tag_198\n      jumpi\n      mload(0x40)\n      0x08c379a000000000000000000000000000000000000000000000000000000000\n      dup2\n      mstore\n      0x04\n      add\n      tag_199\n      swap1\n      tag_200\n      jump\t// in\n    tag_199:\n      mload(0x40)\n      dup1\n      swap2\n      sub\n      swap1\n      revert\n    tag_198:\n        /* \"contracts/KlaytnToken.sol\":10915:11214  function _safeTransfer(... */\n      pop\n      pop\n      pop\n      pop\n      jump\t// out\n        /* \"contracts/KlaytnToken.sol\":13697:14085  function _mint(address account, uint256 amount) internal virtual {... */\n    tag_142:\n        /* \"contracts/KlaytnToken.sol\":13799:13800  0 */\n      0x00\n        /* \"contracts/KlaytnToken.sol\":13780:13801  account != address(0) */\n      0xffffffffffffffffffffffffffffffffffffffff\n      and\n        /* \"contracts/KlaytnToken.sol\":13780:13787  account */\n      dup3\n        /* \"contracts/KlaytnToken.sol\":13780:13801  account != address(0) */\n      0xffffffffffffffffffffffffffffffffffffffff\n      and\n      sub\n        /* \"contracts/KlaytnToken.sol\":13772:13836  require(account != address(0), \"KIP7: mint to the zero address\") */\n      tag_202\n      jumpi\n      mload(0x40)\n      0x08c379a000000000000000000000000000000000000000000000000000000000\n      dup2\n      mstore\n      0x04\n      add\n      tag_203\n      swap1\n      tag_204\n      jump\t// in\n    tag_203:\n      mload(0x40)\n      dup1\n      swap2\n      sub\n      swap1\n      revert\n    tag_202:\n        /* \"contracts/KlaytnToken.sol\":13847:13896  _beforeTokenTransfer(address(0), account, amount) */\n      tag_205\n        /* \"contracts/KlaytnToken.sol\":13876:13877  0 */\n      0x00\n        /* \"contracts/KlaytnToken.sol\":13880:13887  account */\n      dup4\n        /* \"contracts/KlaytnToken.sol\":13889:13895  amount */\n      dup4\n        /* \"contracts/KlaytnToken.sol\":13847:13867  _beforeTokenTransfer */\n      tag_186\n        /* \"contracts/KlaytnToken.sol\":13847:13896  _beforeTokenTransfer(address(0), account, amount) */\n      jump\t// in\n    tag_205:\n        /* \"contracts/KlaytnToken.sol\":13923:13929  amount */\n      dup1\n        /* \"contracts/KlaytnToken.sol\":13907:13919  _totalSupply */\n      0x02\n      0x00\n        /* \"contracts/KlaytnToken.sol\":13907:13929  _totalSupply += amount */\n      dup3\n      dup3\n      sload\n      tag_206\n      swap2\n      swap1\n      tag_124\n      jump\t// in\n    tag_206:\n      swap3\n      pop\n      pop\n      dup2\n      swap1\n      sstore\n      pop\n        /* \"contracts/KlaytnToken.sol\":13961:13967  amount */\n      dup1\n        /* \"contracts/KlaytnToken.sol\":13939:13948  _balances */\n      0x00\n        /* \"contracts/KlaytnToken.sol\":13939:13957  _balances[account] */\n      dup1\n        /* \"contracts/KlaytnToken.sol\":13949:13956  account */\n      dup5\n        /* \"contracts/KlaytnToken.sol\":13939:13957  _balances[account] */\n      0xffffffffffffffffffffffffffffffffffffffff\n      and\n      0xffffffffffffffffffffffffffffffffffffffff\n      and\n      dup2\n      mstore\n      0x20\n      add\n      swap1\n      dup2\n      mstore\n      0x20\n      add\n      0x00\n      keccak256\n      0x00\n        /* \"contracts/KlaytnToken.sol\":13939:13967  _balances[account] += amount */\n      dup3\n      dup3\n      sload\n      tag_207\n      swap2\n      swap1\n      tag_124\n      jump\t// in\n    tag_207:\n      swap3\n      pop\n      pop\n      dup2\n      swap1\n      sstore\n      pop\n        /* \"contracts/KlaytnToken.sol\":14003:14010  account */\n      dup2\n        /* \"contracts/KlaytnToken.sol\":13982:14019  Transfer(address(0), account, amount) */\n      0xffffffffffffffffffffffffffffffffffffffff\n      and\n        /* \"contracts/KlaytnToken.sol\":13999:14000  0 */\n      0x00\n        /* \"contracts/KlaytnToken.sol\":13982:14019  Transfer(address(0), account, amount) */\n      0xffffffffffffffffffffffffffffffffffffffff\n      and\n      0xddf252ad1be2c89b69c2b068fc378daa952ba7f163c4a11628f55a4df523b3ef\n        /* \"contracts/KlaytnToken.sol\":14012:14018  amount */\n      dup4\n        /* \"contracts/KlaytnToken.sol\":13982:14019  Transfer(address(0), account, amount) */\n      mload(0x40)\n      tag_208\n      swap2\n      swap1\n      tag_41\n      jump\t// in\n    tag_208:\n      mload(0x40)\n      dup1\n      swap2\n      sub\n      swap1\n      log3\n        /* \"contracts/KlaytnToken.sol\":14030:14078  _afterTokenTransfer(address(0), account, amount) */\n      tag_209\n        /* \"contracts/KlaytnToken.sol\":14058:14059  0 */\n      0x00\n        /* \"contracts/KlaytnToken.sol\":14062:14069  account */\n      dup4\n        /* \"contracts/KlaytnToken.sol\":14071:14077  amount */\n      dup4\n        /* \"contracts/KlaytnToken.sol\":14030:14049  _afterTokenTransfer */\n      tag_193\n        /* \"contracts/KlaytnToken.sol\":14030:14078  _afterTokenTransfer(address(0), account, amount) */\n      jump\t// in\n    tag_209:\n        /* \"contracts/KlaytnToken.sol\":13697:14085  function _mint(address account, uint256 amount) internal virtual {... */\n      pop\n      pop\n      jump\t// out\n        /* \"contracts/KlaytnToken.sol\":18378:18499  function _beforeTokenTransfer(... */\n    tag_186:\n      pop\n      pop\n      pop\n      jump\t// out\n        /* \"contracts/KlaytnToken.sol\":19087:19207  function _afterTokenTransfer(... */\n    tag_193:\n      pop\n      pop\n      pop\n      jump\t// out\n        /* \"contracts/KlaytnToken.sol\":14626:15388  function _checkOnKIP7Received(... */\n    tag_197:\n        /* \"contracts/KlaytnToken.sol\":14773:14777  bool */\n      0x00\n        /* \"contracts/KlaytnToken.sol\":14793:14808  to.isContract() */\n      tag_213\n        /* \"contracts/KlaytnToken.sol\":14793:14795  to */\n      dup5\n        /* \"contracts/KlaytnToken.sol\":14793:14806  to.isContract */\n      0xffffffffffffffffffffffffffffffffffffffff\n      and\n      tag_214\n        /* \"contracts/KlaytnToken.sol\":14793:14808  to.isContract() */\n      jump\t// in\n    tag_213:\n        /* \"contracts/KlaytnToken.sol\":14789:15382  if (to.isContract()) {... */\n      iszero\n      tag_215\n      jumpi\n        /* \"contracts/KlaytnToken.sol\":14842:14844  to */\n      dup4\n        /* \"contracts/KlaytnToken.sol\":14828:14860  IKIP7Receiver(to).onKIP7Received */\n      0xffffffffffffffffffffffffffffffffffffffff\n      and\n      0x9d188c22\n        /* \"contracts/KlaytnToken.sol\":14861:14873  _msgSender() */\n      tag_216\n        /* \"contracts/KlaytnToken.sol\":14861:14871  _msgSender */\n      tag_108\n        /* \"contracts/KlaytnToken.sol\":14861:14873  _msgSender() */\n      jump\t// in\n    tag_216:\n        /* \"contracts/KlaytnToken.sol\":14875:14879  from */\n      dup8\n        /* \"contracts/KlaytnToken.sol\":14881:14887  amount */\n      dup7\n        /* \"contracts/KlaytnToken.sol\":14889:14894  _data */\n      dup7\n        /* \"contracts/KlaytnToken.sol\":14828:14895  IKIP7Receiver(to).onKIP7Received(_msgSender(), from, amount, _data) */\n      mload(0x40)\n      dup6\n      0xffffffff\n      and\n      0xe0\n      shl\n      dup2\n      mstore\n      0x04\n      add\n      tag_217\n      swap5\n      swap4\n      swap3\n      swap2\n      swap1\n      tag_218\n      jump\t// in\n    tag_217:\n      0x20\n      mload(0x40)\n      dup1\n      dup4\n      sub\n      dup2\n      0x00\n      dup8\n      gas\n      call\n      swap3\n      pop\n      pop\n      pop\n      dup1\n      iszero\n      tag_219\n      jumpi\n      pop\n      mload(0x40)\n      returndatasize\n      not(0x1f)\n      0x1f\n      dup3\n      add\n      and\n      dup3\n      add\n      dup1\n      0x40\n      mstore\n      pop\n      dup2\n      add\n      swap1\n      tag_220\n      swap2\n      swap1\n      tag_221\n      jump\t// in\n    tag_220:\n      0x01\n    tag_219:\n        /* \"contracts/KlaytnToken.sol\":14824:15330  try IKIP7Receiver(to).onKIP7Received(_msgSender(), from, amount, _data) returns (bytes4 retval) {... */\n      tag_222\n      jumpi\n      returndatasize\n      dup1\n      0x00\n      dup2\n      eq\n      tag_227\n      jumpi\n      mload(0x40)\n      swap2\n      pop\n      and(add(returndatasize, 0x3f), not(0x1f))\n      dup3\n      add\n      0x40\n      mstore\n      returndatasize\n      dup3\n      mstore\n      returndatasize\n      0x00\n      0x20\n      dup5\n      add\n      returndatacopy\n      jump(tag_226)\n    tag_227:\n      0x60\n      swap2\n      pop\n    tag_226:\n      pop\n        /* \"contracts/KlaytnToken.sol\":15075:15076  0 */\n      0x00\n        /* \"contracts/KlaytnToken.sol\":15058:15064  reason */\n      dup2\n        /* \"contracts/KlaytnToken.sol\":15058:15071  reason.length */\n      mload\n        /* \"contracts/KlaytnToken.sol\":15058:15076  reason.length == 0 */\n      sub\n        /* \"contracts/KlaytnToken.sol\":15054:15316  if (reason.length == 0) {... */\n      tag_228\n      jumpi\n        /* \"contracts/KlaytnToken.sol\":15100:15156  revert(\"KIP7: transfer to non KIP7Receiver implementer\") */\n      mload(0x40)\n      0x08c379a000000000000000000000000000000000000000000000000000000000\n      dup2\n      mstore\n      0x04\n      add\n      tag_229\n      swap1\n      tag_230\n      jump\t// in\n    tag_229:\n      mload(0x40)\n      dup1\n      swap2\n      sub\n      swap1\n      revert\n        /* \"contracts/KlaytnToken.sol\":15054:15316  if (reason.length == 0) {... */\n    tag_228:\n        /* \"contracts/KlaytnToken.sol\":15268:15274  reason */\n      dup1\n        /* \"contracts/KlaytnToken.sol\":15262:15275  mload(reason) */\n      mload\n        /* \"contracts/KlaytnToken.sol\":15253:15259  reason */\n      dup2\n        /* \"contracts/KlaytnToken.sol\":15249:15251  32 */\n      0x20\n        /* \"contracts/KlaytnToken.sol\":15245:15260  add(32, reason) */\n      add\n        /* \"contracts/KlaytnToken.sol\":15238:15276  revert(add(32, reason), mload(reason)) */\n      revert\n        /* \"contracts/KlaytnToken.sol\":14824:15330  try IKIP7Receiver(to).onKIP7Received(_msgSender(), from, amount, _data) returns (bytes4 retval) {... */\n    tag_222:\n        /* \"contracts/KlaytnToken.sol\":14955:14992  IKIP7Receiver.onKIP7Received.selector */\n      shl(0xe0, 0x9d188c22)\n        /* \"contracts/KlaytnToken.sol\":14945:14992  retval == IKIP7Receiver.onKIP7Received.selector */\n      not(0xffffffffffffffffffffffffffffffffffffffffffffffffffffffff)\n      and\n        /* \"contracts/KlaytnToken.sol\":14945:14951  retval */\n      dup2\n        /* \"contracts/KlaytnToken.sol\":14945:14992  retval == IKIP7Receiver.onKIP7Received.selector */\n      not(0xffffffffffffffffffffffffffffffffffffffffffffffffffffffff)\n      and\n      eq\n        /* \"contracts/KlaytnToken.sol\":14938:14992  return retval == IKIP7Receiver.onKIP7Received.selector */\n      swap2\n      pop\n      pop\n      jump(tag_212)\n        /* \"contracts/KlaytnToken.sol\":14789:15382  if (to.isContract()) {... */\n    tag_215:\n        /* \"contracts/KlaytnToken.sol\":15367:15371  true */\n      0x01\n        /* \"contracts/KlaytnToken.sol\":15360:15371  return true */\n      swap1\n      pop\n        /* \"contracts/KlaytnToken.sol\":14626:15388  function _checkOnKIP7Received(... */\n    tag_212:\n      swap5\n      swap4\n      pop\n      pop\n      pop\n      pop\n      jump\t// out\n        /* \"contracts/utils/Address.sol\":1175:1495  function isContract(address account) internal view returns (bool) {... */\n    tag_214:\n        /* \"contracts/utils/Address.sol\":1235:1239  bool */\n      0x00\n        /* \"contracts/utils/Address.sol\":1487:1488  0 */\n      dup1\n        /* \"contracts/utils/Address.sol\":1465:1472  account */\n      dup3\n        /* \"contracts/utils/Address.sol\":1465:1484  account.code.length */\n      0xffffffffffffffffffffffffffffffffffffffff\n      and\n      extcodesize\n        /* \"contracts/utils/Address.sol\":1465:1488  account.code.length > 0 */\n      gt\n        /* \"contracts/utils/Address.sol\":1458:1488  return account.code.length > 0 */\n      swap1\n      pop\n        /* \"contracts/utils/Address.sol\":1175:1495  function isContract(address account) internal view returns (bool) {... */\n      swap2\n      swap1\n      pop\n      jump\t// out\n        /* \"#utility.yul\":7:82   */\n    tag_235:\n        /* \"#utility.yul\":40:46   */\n      0x00\n        /* \"#utility.yul\":73:75   */\n      0x40\n        /* \"#utility.yul\":67:76   */\n      mload\n        /* \"#utility.yul\":57:76   */\n      swap1\n      pop\n        /* \"#utility.yul\":7:82   */\n      swap1\n      jump\t// out\n        /* \"#utility.yul\":88:205   */\n    tag_236:\n        /* \"#utility.yul\":197:198   */\n      0x00\n        /* \"#utility.yul\":194:195   */\n      dup1\n        /* \"#utility.yul\":187:199   */\n      revert\n        /* \"#utility.yul\":211:328   */\n    tag_237:\n        /* \"#utility.yul\":320:321   */\n      0x00\n        /* \"#utility.yul\":317:318   */\n      dup1\n        /* \"#utility.yul\":310:322   */\n      revert\n        /* \"#utility.yul\":334:483   */\n    tag_238:\n        /* \"#utility.yul\":370:377   */\n      0x00\n        /* \"#utility.yul\":410:476   */\n      0xffffffff00000000000000000000000000000000000000000000000000000000\n        /* \"#utility.yul\":403:408   */\n      dup3\n        /* \"#utility.yul\":399:477   */\n      and\n        /* \"#utility.yul\":388:477   */\n      swap1\n      pop\n        /* \"#utility.yul\":334:483   */\n      swap2\n      swap1\n      pop\n      jump\t// out\n        /* \"#utility.yul\":489:609   */\n    tag_239:\n        /* \"#utility.yul\":561:584   */\n      tag_300\n        /* \"#utility.yul\":578:583   */\n      dup2\n        /* \"#utility.yul\":561:584   */\n      tag_238\n      jump\t// in\n    tag_300:\n        /* \"#utility.yul\":554:559   */\n      dup2\n        /* \"#utility.yul\":551:585   */\n      eq\n        /* \"#utility.yul\":541:603   */\n      tag_301\n      jumpi\n        /* \"#utility.yul\":599:600   */\n      0x00\n        /* \"#utility.yul\":596:597   */\n      dup1\n        /* \"#utility.yul\":589:601   */\n      revert\n        /* \"#utility.yul\":541:603   */\n    tag_301:\n        /* \"#utility.yul\":489:609   */\n      pop\n      jump\t// out\n        /* \"#utility.yul\":615:752   */\n    tag_240:\n        /* \"#utility.yul\":660:665   */\n      0x00\n        /* \"#utility.yul\":698:704   */\n      dup2\n        /* \"#utility.yul\":685:705   */\n      calldataload\n        /* \"#utility.yul\":676:705   */\n      swap1\n      pop\n        /* \"#utility.yul\":714:746   */\n      tag_303\n        /* \"#utility.yul\":740:745   */\n      dup2\n        /* \"#utility.yul\":714:746   */\n      tag_239\n      jump\t// in\n    tag_303:\n        /* \"#utility.yul\":615:752   */\n      swap3\n      swap2\n      pop\n      pop\n      jump\t// out\n        /* \"#utility.yul\":758:1085   */\n    tag_25:\n        /* \"#utility.yul\":816:822   */\n      0x00\n        /* \"#utility.yul\":865:867   */\n      0x20\n        /* \"#utility.yul\":853:862   */\n      dup3\n        /* \"#utility.yul\":844:851   */\n      dup5\n        /* \"#utility.yul\":840:863   */\n      sub\n        /* \"#utility.yul\":836:868   */\n      slt\n        /* \"#utility.yul\":833:952   */\n      iszero\n      tag_305\n      jumpi\n        /* \"#utility.yul\":871:950   */\n      tag_306\n      tag_236\n      jump\t// in\n    tag_306:\n        /* \"#utility.yul\":833:952   */\n    tag_305:\n        /* \"#utility.yul\":991:992   */\n      0x00\n        /* \"#utility.yul\":1016:1068   */\n      tag_307\n        /* \"#utility.yul\":1060:1067   */\n      dup5\n        /* \"#utility.yul\":1051:1057   */\n      dup3\n        /* \"#utility.yul\":1040:1049   */\n      dup6\n        /* \"#utility.yul\":1036:1058   */\n      add\n        /* \"#utility.yul\":1016:1068   */\n      tag_240\n      jump\t// in\n    tag_307:\n        /* \"#utility.yul\":1006:1068   */\n      swap2\n      pop\n        /* \"#utility.yul\":962:1078   */\n      pop\n        /* \"#utility.yul\":758:1085   */\n      swap3\n      swap2\n      pop\n      pop\n      jump\t// out\n        /* \"#utility.yul\":1091:1181   */\n    tag_241:\n        /* \"#utility.yul\":1125:1132   */\n      0x00\n        /* \"#utility.yul\":1168:1173   */\n      dup2\n        /* \"#utility.yul\":1161:1174   */\n      iszero\n        /* \"#utility.yul\":1154:1175   */\n      iszero\n        /* \"#utility.yul\":1143:1175   */\n      swap1\n      pop\n        /* \"#utility.yul\":1091:1181   */\n      swap2\n      swap1\n      pop\n      jump\t// out\n        /* \"#utility.yul\":1187:1296   */\n    tag_242:\n        /* \"#utility.yul\":1268:1289   */\n      tag_310\n        /* \"#utility.yul\":1283:1288   */\n      dup2\n        /* \"#utility.yul\":1268:1289   */\n      tag_241\n      jump\t// in\n    tag_310:\n        /* \"#utility.yul\":1263:1266   */\n      dup3\n        /* \"#utility.yul\":1256:1290   */\n      mstore\n        /* \"#utility.yul\":1187:1296   */\n      pop\n      pop\n      jump\t// out\n        /* \"#utility.yul\":1302:1512   */\n    tag_28:\n        /* \"#utility.yul\":1389:1393   */\n      0x00\n        /* \"#utility.yul\":1427:1429   */\n      0x20\n        /* \"#utility.yul\":1416:1425   */\n      dup3\n        /* \"#utility.yul\":1412:1430   */\n      add\n        /* \"#utility.yul\":1404:1430   */\n      swap1\n      pop\n        /* \"#utility.yul\":1440:1505   */\n      tag_312\n        /* \"#utility.yul\":1502:1503   */\n      0x00\n        /* \"#utility.yul\":1491:1500   */\n      dup4\n        /* \"#utility.yul\":1487:1504   */\n      add\n        /* \"#utility.yul\":1478:1484   */\n      dup5\n        /* \"#utility.yul\":1440:1505   */\n      tag_242\n      jump\t// in\n    tag_312:\n        /* \"#utility.yul\":1302:1512   */\n      swap3\n      swap2\n      pop\n      pop\n      jump\t// out\n        /* \"#utility.yul\":1518:1617   */\n    tag_243:\n        /* \"#utility.yul\":1570:1576   */\n      0x00\n        /* \"#utility.yul\":1604:1609   */\n      dup2\n        /* \"#utility.yul\":1598:1610   */\n      mload\n        /* \"#utility.yul\":1588:1610   */\n      swap1\n      pop\n        /* \"#utility.yul\":1518:1617   */\n      swap2\n      swap1\n      pop\n      jump\t// out\n        /* \"#utility.yul\":1623:1792   */\n    tag_244:\n        /* \"#utility.yul\":1707:1718   */\n      0x00\n        /* \"#utility.yul\":1741:1747   */\n      dup3\n        /* \"#utility.yul\":1736:1739   */\n      dup3\n        /* \"#utility.yul\":1729:1748   */\n      mstore\n        /* \"#utility.yul\":1781:1785   */\n      0x20\n        /* \"#utility.yul\":1776:1779   */\n      dup3\n        /* \"#utility.yul\":1772:1786   */\n      add\n        /* \"#utility.yul\":1757:1786   */\n      swap1\n      pop\n        /* \"#utility.yul\":1623:1792   */\n      swap3\n      swap2\n      pop\n      pop\n      jump\t// out\n        /* \"#utility.yul\":1798:2044   */\n    tag_245:\n        /* \"#utility.yul\":1879:1880   */\n      0x00\n        /* \"#utility.yul\":1889:2002   */\n    tag_316:\n        /* \"#utility.yul\":1903:1909   */\n      dup4\n        /* \"#utility.yul\":1900:1901   */\n      dup2\n        /* \"#utility.yul\":1897:1910   */\n      lt\n        /* \"#utility.yul\":1889:2002   */\n      iszero\n      tag_318\n      jumpi\n        /* \"#utility.yul\":1988:1989   */\n      dup1\n        /* \"#utility.yul\":1983:1986   */\n      dup3\n        /* \"#utility.yul\":1979:1990   */\n      add\n        /* \"#utility.yul\":1973:1991   */\n      mload\n        /* \"#utility.yul\":1969:1970   */\n      dup2\n        /* \"#utility.yul\":1964:1967   */\n      dup5\n        /* \"#utility.yul\":1960:1971   */\n      add\n        /* \"#utility.yul\":1953:1992   */\n      mstore\n        /* \"#utility.yul\":1925:1927   */\n      0x20\n        /* \"#utility.yul\":1922:1923   */\n      dup2\n        /* \"#utility.yul\":1918:1928   */\n      add\n        /* \"#utility.yul\":1913:1928   */\n      swap1\n      pop\n        /* \"#utility.yul\":1889:2002   */\n      jump(tag_316)\n    tag_318:\n        /* \"#utility.yul\":2036:2037   */\n      0x00\n        /* \"#utility.yul\":2027:2033   */\n      dup5\n        /* \"#utility.yul\":2022:2025   */\n      dup5\n        /* \"#utility.yul\":2018:2034   */\n      add\n        /* \"#utility.yul\":2011:2038   */\n      mstore\n        /* \"#utility.yul\":1860:2044   */\n      pop\n        /* \"#utility.yul\":1798:2044   */\n      pop\n      pop\n      pop\n      jump\t// out\n        /* \"#utility.yul\":2050:2152   */\n    tag_246:\n        /* \"#utility.yul\":2091:2097   */\n      0x00\n        /* \"#utility.yul\":2142:2144   */\n      0x1f\n        /* \"#utility.yul\":2138:2145   */\n      not\n        /* \"#utility.yul\":2133:2135   */\n      0x1f\n        /* \"#utility.yul\":2126:2131   */\n      dup4\n        /* \"#utility.yul\":2122:2136   */\n      add\n        /* \"#utility.yul\":2118:2146   */\n      and\n        /* \"#utility.yul\":2108:2146   */\n      swap1\n      pop\n        /* \"#utility.yul\":2050:2152   */\n      swap2\n      swap1\n      pop\n      jump\t// out\n        /* \"#utility.yul\":2158:2535   */\n    tag_247:\n        /* \"#utility.yul\":2246:2249   */\n      0x00\n        /* \"#utility.yul\":2274:2313   */\n      tag_321\n        /* \"#utility.yul\":2307:2312   */\n      dup3\n        /* \"#utility.yul\":2274:2313   */\n      tag_243\n      jump\t// in\n    tag_321:\n        /* \"#utility.yul\":2329:2400   */\n      tag_322\n        /* \"#utility.yul\":2393:2399   */\n      dup2\n        /* \"#utility.yul\":2388:2391   */\n      dup6\n        /* \"#utility.yul\":2329:2400   */\n      tag_244\n      jump\t// in\n    tag_322:\n        /* \"#utility.yul\":2322:2400   */\n      swap4\n      pop\n        /* \"#utility.yul\":2409:2474   */\n      tag_323\n        /* \"#utility.yul\":2467:2473   */\n      dup2\n        /* \"#utility.yul\":2462:2465   */\n      dup6\n        /* \"#utility.yul\":2455:2459   */\n      0x20\n        /* \"#utility.yul\":2448:2453   */\n      dup7\n        /* \"#utility.yul\":2444:2460   */\n      add\n        /* \"#utility.yul\":2409:2474   */\n      tag_245\n      jump\t// in\n    tag_323:\n        /* \"#utility.yul\":2499:2528   */\n      tag_324\n        /* \"#utility.yul\":2521:2527   */\n      dup2\n        /* \"#utility.yul\":2499:2528   */\n      tag_246\n      jump\t// in\n    tag_324:\n        /* \"#utility.yul\":2494:2497   */\n      dup5\n        /* \"#utility.yul\":2490:2529   */\n      add\n        /* \"#utility.yul\":2483:2529   */\n      swap2\n      pop\n        /* \"#utility.yul\":2250:2535   */\n      pop\n        /* \"#utility.yul\":2158:2535   */\n      swap3\n      swap2\n      pop\n      pop\n      jump\t// out\n        /* \"#utility.yul\":2541:2854   */\n    tag_32:\n        /* \"#utility.yul\":2654:2658   */\n      0x00\n        /* \"#utility.yul\":2692:2694   */\n      0x20\n        /* \"#utility.yul\":2681:2690   */\n      dup3\n        /* \"#utility.yul\":2677:2695   */\n      add\n        /* \"#utility.yul\":2669:2695   */\n      swap1\n      pop\n        /* \"#utility.yul\":2741:2750   */\n      dup2\n        /* \"#utility.yul\":2735:2739   */\n      dup2\n        /* \"#utility.yul\":2731:2751   */\n      sub\n        /* \"#utility.yul\":2727:2728   */\n      0x00\n        /* \"#utility.yul\":2716:2725   */\n      dup4\n        /* \"#utility.yul\":2712:2729   */\n      add\n        /* \"#utility.yul\":2705:2752   */\n      mstore\n        /* \"#utility.yul\":2769:2847   */\n      tag_326\n        /* \"#utility.yul\":2842:2846   */\n      dup2\n        /* \"#utility.yul\":2833:2839   */\n      dup5\n        /* \"#utility.yul\":2769:2847   */\n      tag_247\n      jump\t// in\n    tag_326:\n        /* \"#utility.yul\":2761:2847   */\n      swap1\n      pop\n        /* \"#utility.yul\":2541:2854   */\n      swap3\n      swap2\n      pop\n      pop\n      jump\t// out\n        /* \"#utility.yul\":2860:2986   */\n    tag_248:\n        /* \"#utility.yul\":2897:2904   */\n      0x00\n        /* \"#utility.yul\":2937:2979   */\n      0xffffffffffffffffffffffffffffffffffffffff\n        /* \"#utility.yul\":2930:2935   */\n      dup3\n        /* \"#utility.yul\":2926:2980   */\n      and\n        /* \"#utility.yul\":2915:2980   */\n      swap1\n      pop\n        /* \"#utility.yul\":2860:2986   */\n      swap2\n      swap1\n      pop\n      jump\t// out\n        /* \"#utility.yul\":2992:3088   */\n    tag_249:\n        /* \"#utility.yul\":3029:3036   */\n      0x00\n        /* \"#utility.yul\":3058:3082   */\n      tag_329\n        /* \"#utility.yul\":3076:3081   */\n      dup3\n        /* \"#utility.yul\":3058:3082   */\n      tag_248\n      jump\t// in\n    tag_329:\n        /* \"#utility.yul\":3047:3082   */\n      swap1\n      pop\n        /* \"#utility.yul\":2992:3088   */\n      swap2\n      swap1\n      pop\n      jump\t// out\n        /* \"#utility.yul\":3094:3216   */\n    tag_250:\n        /* \"#utility.yul\":3167:3191   */\n      tag_331\n        /* \"#utility.yul\":3185:3190   */\n      dup2\n        /* \"#utility.yul\":3167:3191   */\n      tag_249\n      jump\t// in\n    tag_331:\n        /* \"#utility.yul\":3160:3165   */\n      dup2\n        /* \"#utility.yul\":3157:3192   */\n      eq\n        /* \"#utility.yul\":3147:3210   */\n      tag_332\n      jumpi\n        /* \"#utility.yul\":3206:3207   */\n      0x00\n        /* \"#utility.yul\":3203:3204   */\n      dup1\n        /* \"#utility.yul\":3196:3208   */\n      revert\n        /* \"#utility.yul\":3147:3210   */\n    tag_332:\n        /* \"#utility.yul\":3094:3216   */\n      pop\n      jump\t// out\n        /* \"#utility.yul\":3222:3361   */\n    tag_251:\n        /* \"#utility.yul\":3268:3273   */\n      0x00\n        /* \"#utility.yul\":3306:3312   */\n      dup2\n        /* \"#utility.yul\":3293:3313   */\n      calldataload\n        /* \"#utility.yul\":3284:3313   */\n      swap1\n      pop\n        /* \"#utility.yul\":3322:3355   */\n      tag_334\n        /* \"#utility.yul\":3349:3354   */\n      dup2\n        /* \"#utility.yul\":3322:3355   */\n      tag_250\n      jump\t// in\n    tag_334:\n        /* \"#utility.yul\":3222:3361   */\n      swap3\n      swap2\n      pop\n      pop\n      jump\t// out\n        /* \"#utility.yul\":3367:3444   */\n    tag_252:\n        /* \"#utility.yul\":3404:3411   */\n      0x00\n        /* \"#utility.yul\":3433:3438   */\n      dup2\n        /* \"#utility.yul\":3422:3438   */\n      swap1\n      pop\n        /* \"#utility.yul\":3367:3444   */\n      swap2\n      swap1\n      pop\n      jump\t// out\n        /* \"#utility.yul\":3450:3572   */\n    tag_253:\n        /* \"#utility.yul\":3523:3547   */\n      tag_337\n        /* \"#utility.yul\":3541:3546   */\n      dup2\n        /* \"#utility.yul\":3523:3547   */\n      tag_252\n      jump\t// in\n    tag_337:\n        /* \"#utility.yul\":3516:3521   */\n      dup2\n        /* \"#utility.yul\":3513:3548   */\n      eq\n        /* \"#utility.yul\":3503:3566   */\n      tag_338\n      jumpi\n        /* \"#utility.yul\":3562:3563   */\n      0x00\n        /* \"#utility.yul\":3559:3560   */\n      dup1\n        /* \"#utility.yul\":3552:3564   */\n      revert\n        /* \"#utility.yul\":3503:3566   */\n    tag_338:\n        /* \"#utility.yul\":3450:3572   */\n      pop\n      jump\t// out\n        /* \"#utility.yul\":3578:3717   */\n    tag_254:\n        /* \"#utility.yul\":3624:3629   */\n      0x00\n        /* \"#utility.yul\":3662:3668   */\n      dup2\n        /* \"#utility.yul\":3649:3669   */\n      calldataload\n        /* \"#utility.yul\":3640:3669   */\n      swap1\n      pop\n        /* \"#utility.yul\":3678:3711   */\n      tag_340\n        /* \"#utility.yul\":3705:3710   */\n      dup2\n        /* \"#utility.yul\":3678:3711   */\n      tag_253\n      jump\t// in\n    tag_340:\n        /* \"#utility.yul\":3578:3717   */\n      swap3\n      swap2\n      pop\n      pop\n      jump\t// out\n        /* \"#utility.yul\":3723:4197   */\n    tag_35:\n        /* \"#utility.yul\":3791:3797   */\n      0x00\n        /* \"#utility.yul\":3799:3805   */\n      dup1\n        /* \"#utility.yul\":3848:3850   */\n      0x40\n        /* \"#utility.yul\":3836:3845   */\n      dup4\n        /* \"#utility.yul\":3827:3834   */\n      dup6\n        /* \"#utility.yul\":3823:3846   */\n      sub\n        /* \"#utility.yul\":3819:3851   */\n      slt\n        /* \"#utility.yul\":3816:3935   */\n      iszero\n      tag_342\n      jumpi\n        /* \"#utility.yul\":3854:3933   */\n      tag_343\n      tag_236\n      jump\t// in\n    tag_343:\n        /* \"#utility.yul\":3816:3935   */\n    tag_342:\n        /* \"#utility.yul\":3974:3975   */\n      0x00\n        /* \"#utility.yul\":3999:4052   */\n      tag_344\n        /* \"#utility.yul\":4044:4051   */\n      dup6\n        /* \"#utility.yul\":4035:4041   */\n      dup3\n        /* \"#utility.yul\":4024:4033   */\n      dup7\n        /* \"#utility.yul\":4020:4042   */\n      add\n        /* \"#utility.yul\":3999:4052   */\n      tag_251\n      jump\t// in\n    tag_344:\n        /* \"#utility.yul\":3989:4052   */\n      swap3\n      pop\n        /* \"#utility.yul\":3945:4062   */\n      pop\n        /* \"#utility.yul\":4101:4103   */\n      0x20\n        /* \"#utility.yul\":4127:4180   */\n      tag_345\n        /* \"#utility.yul\":4172:4179   */\n      dup6\n        /* \"#utility.yul\":4163:4169   */\n      dup3\n        /* \"#utility.yul\":4152:4161   */\n      dup7\n        /* \"#utility.yul\":4148:4170   */\n      add\n        /* \"#utility.yul\":4127:4180   */\n      tag_254\n      jump\t// in\n    tag_345:\n        /* \"#utility.yul\":4117:4180   */\n      swap2\n      pop\n        /* \"#utility.yul\":4072:4190   */\n      pop\n        /* \"#utility.yul\":3723:4197   */\n      swap3\n      pop\n      swap3\n      swap1\n      pop\n      jump\t// out\n        /* \"#utility.yul\":4203:4321   */\n    tag_255:\n        /* \"#utility.yul\":4290:4314   */\n      tag_347\n        /* \"#utility.yul\":4308:4313   */\n      dup2\n        /* \"#utility.yul\":4290:4314   */\n      tag_252\n      jump\t// in\n    tag_347:\n        /* \"#utility.yul\":4285:4288   */\n      dup3\n        /* \"#utility.yul\":4278:4315   */\n      mstore\n        /* \"#utility.yul\":4203:4321   */\n      pop\n      pop\n      jump\t// out\n        /* \"#utility.yul\":4327:4549   */\n    tag_41:\n        /* \"#utility.yul\":4420:4424   */\n      0x00\n        /* \"#utility.yul\":4458:4460   */\n      0x20\n        /* \"#utility.yul\":4447:4456   */\n      dup3\n        /* \"#utility.yul\":4443:4461   */\n      add\n        /* \"#utility.yul\":4435:4461   */\n      swap1\n      pop\n        /* \"#utility.yul\":4471:4542   */\n      tag_349\n        /* \"#utility.yul\":4539:4540   */\n      0x00\n        /* \"#utility.yul\":4528:4537   */\n      dup4\n        /* \"#utility.yul\":4524:4541   */\n      add\n        /* \"#utility.yul\":4515:4521   */\n      dup5\n        /* \"#utility.yul\":4471:4542   */\n      tag_255\n      jump\t// in\n    tag_349:\n        /* \"#utility.yul\":4327:4549   */\n      swap3\n      swap2\n      pop\n      pop\n      jump\t// out\n        /* \"#utility.yul\":4555:5174   */\n    tag_44:\n        /* \"#utility.yul\":4632:4638   */\n      0x00\n        /* \"#utility.yul\":4640:4646   */\n      dup1\n        /* \"#utility.yul\":4648:4654   */\n      0x00\n        /* \"#utility.yul\":4697:4699   */\n      0x60\n        /* \"#utility.yul\":4685:4694   */\n      dup5\n        /* \"#utility.yul\":4676:4683   */\n      dup7\n        /* \"#utility.yul\":4672:4695   */\n      sub\n        /* \"#utility.yul\":4668:4700   */\n      slt\n        /* \"#utility.yul\":4665:4784   */\n      iszero\n      tag_351\n      jumpi\n        /* \"#utility.yul\":4703:4782   */\n      tag_352\n      tag_236\n      jump\t// in\n    tag_352:\n        /* \"#utility.yul\":4665:4784   */\n    tag_351:\n        /* \"#utility.yul\":4823:4824   */\n      0x00\n        /* \"#utility.yul\":4848:4901   */\n      tag_353\n        /* \"#utility.yul\":4893:4900   */\n      dup7\n        /* \"#utility.yul\":4884:4890   */\n      dup3\n        /* \"#utility.yul\":4873:4882   */\n      dup8\n        /* \"#utility.yul\":4869:4891   */\n      add\n        /* \"#utility.yul\":4848:4901   */\n      tag_251\n      jump\t// in\n    tag_353:\n        /* \"#utility.yul\":4838:4901   */\n      swap4\n      pop\n        /* \"#utility.yul\":4794:4911   */\n      pop\n        /* \"#utility.yul\":4950:4952   */\n      0x20\n        /* \"#utility.yul\":4976:5029   */\n      tag_354\n        /* \"#utility.yul\":5021:5028   */\n      dup7\n        /* \"#utility.yul\":5012:5018   */\n      dup3\n        /* \"#utility.yul\":5001:5010   */\n      dup8\n        /* \"#utility.yul\":4997:5019   */\n      add\n        /* \"#utility.yul\":4976:5029   */\n      tag_251\n      jump\t// in\n    tag_354:\n        /* \"#utility.yul\":4966:5029   */\n      swap3\n      pop\n        /* \"#utility.yul\":4921:5039   */\n      pop\n        /* \"#utility.yul\":5078:5080   */\n      0x40\n        /* \"#utility.yul\":5104:5157   */\n      tag_355\n        /* \"#utility.yul\":5149:5156   */\n      dup7\n        /* \"#utility.yul\":5140:5146   */\n      dup3\n        /* \"#utility.yul\":5129:5138   */\n      dup8\n        /* \"#utility.yul\":5125:5147   */\n      add\n        /* \"#utility.yul\":5104:5157   */\n      tag_254\n      jump\t// in\n    tag_355:\n        /* \"#utility.yul\":5094:5157   */\n      swap2\n      pop\n        /* \"#utility.yul\":5049:5167   */\n      pop\n        /* \"#utility.yul\":4555:5174   */\n      swap3\n      pop\n      swap3\n      pop\n      swap3\n      jump\t// out\n        /* \"#utility.yul\":5180:5266   */\n    tag_256:\n        /* \"#utility.yul\":5215:5222   */\n      0x00\n        /* \"#utility.yul\":5255:5259   */\n      0xff\n        /* \"#utility.yul\":5248:5253   */\n      dup3\n        /* \"#utility.yul\":5244:5260   */\n      and\n        /* \"#utility.yul\":5233:5260   */\n      swap1\n      pop\n        /* \"#utility.yul\":5180:5266   */\n      swap2\n      swap1\n      pop\n      jump\t// out\n        /* \"#utility.yul\":5272:5384   */\n    tag_257:\n        /* \"#utility.yul\":5355:5377   */\n      tag_358\n        /* \"#utility.yul\":5371:5376   */\n      dup2\n        /* \"#utility.yul\":5355:5377   */\n      tag_256\n      jump\t// in\n    tag_358:\n        /* \"#utility.yul\":5350:5353   */\n      dup3\n        /* \"#utility.yul\":5343:5378   */\n      mstore\n        /* \"#utility.yul\":5272:5384   */\n      pop\n      pop\n      jump\t// out\n        /* \"#utility.yul\":5390:5604   */\n    tag_50:\n        /* \"#utility.yul\":5479:5483   */\n      0x00\n        /* \"#utility.yul\":5517:5519   */\n      0x20\n        /* \"#utility.yul\":5506:5515   */\n      dup3\n        /* \"#utility.yul\":5502:5520   */\n      add\n        /* \"#utility.yul\":5494:5520   */\n      swap1\n      pop\n        /* \"#utility.yul\":5530:5597   */\n      tag_360\n        /* \"#utility.yul\":5594:5595   */\n      0x00\n        /* \"#utility.yul\":5583:5592   */\n      dup4\n        /* \"#utility.yul\":5579:5596   */\n      add\n        /* \"#utility.yul\":5570:5576   */\n      dup5\n        /* \"#utility.yul\":5530:5597   */\n      tag_257\n      jump\t// in\n    tag_360:\n        /* \"#utility.yul\":5390:5604   */\n      swap3\n      swap2\n      pop\n      pop\n      jump\t// out\n        /* \"#utility.yul\":5610:5939   */\n    tag_63:\n        /* \"#utility.yul\":5669:5675   */\n      0x00\n        /* \"#utility.yul\":5718:5720   */\n      0x20\n        /* \"#utility.yul\":5706:5715   */\n      dup3\n        /* \"#utility.yul\":5697:5704   */\n      dup5\n        /* \"#utility.yul\":5693:5716   */\n      sub\n        /* \"#utility.yul\":5689:5721   */\n      slt\n        /* \"#utility.yul\":5686:5805   */\n      iszero\n      tag_362\n      jumpi\n        /* \"#utility.yul\":5724:5803   */\n      tag_363\n      tag_236\n      jump\t// in\n    tag_363:\n        /* \"#utility.yul\":5686:5805   */\n    tag_362:\n        /* \"#utility.yul\":5844:5845   */\n      0x00\n        /* \"#utility.yul\":5869:5922   */\n      tag_364\n        /* \"#utility.yul\":5914:5921   */\n      dup5\n        /* \"#utility.yul\":5905:5911   */\n      dup3\n        /* \"#utility.yul\":5894:5903   */\n      dup6\n        /* \"#utility.yul\":5890:5912   */\n      add\n        /* \"#utility.yul\":5869:5922   */\n      tag_251\n      jump\t// in\n    tag_364:\n        /* \"#utility.yul\":5859:5922   */\n      swap2\n      pop\n        /* \"#utility.yul\":5815:5932   */\n      pop\n        /* \"#utility.yul\":5610:5939   */\n      swap3\n      swap2\n      pop\n      pop\n      jump\t// out\n        /* \"#utility.yul\":5945:6274   */\n    tag_71:\n        /* \"#utility.yul\":6004:6010   */\n      0x00\n        /* \"#utility.yul\":6053:6055   */\n      0x20\n        /* \"#utility.yul\":6041:6050   */\n      dup3\n        /* \"#utility.yul\":6032:6039   */\n      dup5\n        /* \"#utility.yul\":6028:6051   */\n      sub\n        /* \"#utility.yul\":6024:6056   */\n      slt\n        /* \"#utility.yul\":6021:6140   */\n      iszero\n      tag_366\n      jumpi\n        /* \"#utility.yul\":6059:6138   */\n      tag_367\n      tag_236\n      jump\t// in\n    tag_367:\n        /* \"#utility.yul\":6021:6140   */\n    tag_366:\n        /* \"#utility.yul\":6179:6180   */\n      0x00\n        /* \"#utility.yul\":6204:6257   */\n      tag_368\n        /* \"#utility.yul\":6249:6256   */\n      dup5\n        /* \"#utility.yul\":6240:6246   */\n      dup3\n        /* \"#utility.yul\":6229:6238   */\n      dup6\n        /* \"#utility.yul\":6225:6247   */\n      add\n        /* \"#utility.yul\":6204:6257   */\n      tag_254\n      jump\t// in\n    tag_368:\n        /* \"#utility.yul\":6194:6257   */\n      swap2\n      pop\n        /* \"#utility.yul\":6150:6267   */\n      pop\n        /* \"#utility.yul\":5945:6274   */\n      swap3\n      swap2\n      pop\n      pop\n      jump\t// out\n        /* \"#utility.yul\":6280:6397   */\n    tag_258:\n        /* \"#utility.yul\":6389:6390   */\n      0x00\n        /* \"#utility.yul\":6386:6387   */\n      dup1\n        /* \"#utility.yul\":6379:6391   */\n      revert\n        /* \"#utility.yul\":6403:6520   */\n    tag_259:\n        /* \"#utility.yul\":6512:6513   */\n      0x00\n        /* \"#utility.yul\":6509:6510   */\n      dup1\n        /* \"#utility.yul\":6502:6514   */\n      revert\n        /* \"#utility.yul\":6526:6706   */\n    tag_260:\n        /* \"#utility.yul\":6574:6651   */\n      0x4e487b7100000000000000000000000000000000000000000000000000000000\n        /* \"#utility.yul\":6571:6572   */\n      0x00\n        /* \"#utility.yul\":6564:6652   */\n      mstore\n        /* \"#utility.yul\":6671:6675   */\n      0x41\n        /* \"#utility.yul\":6668:6669   */\n      0x04\n        /* \"#utility.yul\":6661:6676   */\n      mstore\n        /* \"#utility.yul\":6695:6699   */\n      0x24\n        /* \"#utility.yul\":6692:6693   */\n      0x00\n        /* \"#utility.yul\":6685:6700   */\n      revert\n        /* \"#utility.yul\":6712:6993   */\n    tag_261:\n        /* \"#utility.yul\":6795:6822   */\n      tag_373\n        /* \"#utility.yul\":6817:6821   */\n      dup3\n        /* \"#utility.yul\":6795:6822   */\n      tag_246\n      jump\t// in\n    tag_373:\n        /* \"#utility.yul\":6787:6793   */\n      dup2\n        /* \"#utility.yul\":6783:6823   */\n      add\n        /* \"#utility.yul\":6925:6931   */\n      dup2\n        /* \"#utility.yul\":6913:6923   */\n      dup2\n        /* \"#utility.yul\":6910:6932   */\n      lt\n        /* \"#utility.yul\":6889:6907   */\n      0xffffffffffffffff\n        /* \"#utility.yul\":6877:6887   */\n      dup3\n        /* \"#utility.yul\":6874:6908   */\n      gt\n        /* \"#utility.yul\":6871:6933   */\n      or\n        /* \"#utility.yul\":6868:6956   */\n      iszero\n      tag_374\n      jumpi\n        /* \"#utility.yul\":6936:6954   */\n      tag_375\n      tag_260\n      jump\t// in\n    tag_375:\n        /* \"#utility.yul\":6868:6956   */\n    tag_374:\n        /* \"#utility.yul\":6976:6986   */\n      dup1\n        /* \"#utility.yul\":6972:6974   */\n      0x40\n        /* \"#utility.yul\":6965:6987   */\n      mstore\n        /* \"#utility.yul\":6755:6993   */\n      pop\n        /* \"#utility.yul\":6712:6993   */\n      pop\n      pop\n      jump\t// out\n        /* \"#utility.yul\":6999:7128   */\n    tag_262:\n        /* \"#utility.yul\":7033:7039   */\n      0x00\n        /* \"#utility.yul\":7060:7080   */\n      tag_377\n      tag_235\n      jump\t// in\n    tag_377:\n        /* \"#utility.yul\":7050:7080   */\n      swap1\n      pop\n        /* \"#utility.yul\":7089:7122   */\n      tag_378\n        /* \"#utility.yul\":7117:7121   */\n      dup3\n        /* \"#utility.yul\":7109:7115   */\n      dup3\n        /* \"#utility.yul\":7089:7122   */\n      tag_261\n      jump\t// in\n    tag_378:\n        /* \"#utility.yul\":6999:7128   */\n      swap2\n      swap1\n      pop\n      jump\t// out\n        /* \"#utility.yul\":7134:7441   */\n    tag_263:\n        /* \"#utility.yul\":7195:7199   */\n      0x00\n        /* \"#utility.yul\":7285:7303   */\n      0xffffffffffffffff\n        /* \"#utility.yul\":7277:7283   */\n      dup3\n        /* \"#utility.yul\":7274:7304   */\n      gt\n        /* \"#utility.yul\":7271:7327   */\n      iszero\n      tag_380\n      jumpi\n        /* \"#utility.yul\":7307:7325   */\n      tag_381\n      tag_260\n      jump\t// in\n    tag_381:\n        /* \"#utility.yul\":7271:7327   */\n    tag_380:\n        /* \"#utility.yul\":7345:7374   */\n      tag_382\n        /* \"#utility.yul\":7367:7373   */\n      dup3\n        /* \"#utility.yul\":7345:7374   */\n      tag_246\n      jump\t// in\n    tag_382:\n        /* \"#utility.yul\":7337:7374   */\n      swap1\n      pop\n        /* \"#utility.yul\":7429:7433   */\n      0x20\n        /* \"#utility.yul\":7423:7427   */\n      dup2\n        /* \"#utility.yul\":7419:7434   */\n      add\n        /* \"#utility.yul\":7411:7434   */\n      swap1\n      pop\n        /* \"#utility.yul\":7134:7441   */\n      swap2\n      swap1\n      pop\n      jump\t// out\n        /* \"#utility.yul\":7447:7593   */\n    tag_264:\n        /* \"#utility.yul\":7544:7550   */\n      dup3\n        /* \"#utility.yul\":7539:7542   */\n      dup2\n        /* \"#utility.yul\":7534:7537   */\n      dup4\n        /* \"#utility.yul\":7521:7551   */\n      calldatacopy\n        /* \"#utility.yul\":7585:7586   */\n      0x00\n        /* \"#utility.yul\":7576:7582   */\n      dup4\n        /* \"#utility.yul\":7571:7574   */\n      dup4\n        /* \"#utility.yul\":7567:7583   */\n      add\n        /* \"#utility.yul\":7560:7587   */\n      mstore\n        /* \"#utility.yul\":7447:7593   */\n      pop\n      pop\n      pop\n      jump\t// out\n        /* \"#utility.yul\":7599:8022   */\n    tag_265:\n        /* \"#utility.yul\":7676:7681   */\n      0x00\n        /* \"#utility.yul\":7701:7766   */\n      tag_385\n        /* \"#utility.yul\":7717:7765   */\n      tag_386\n        /* \"#utility.yul\":7758:7764   */\n      dup5\n        /* \"#utility.yul\":7717:7765   */\n      tag_263\n      jump\t// in\n    tag_386:\n        /* \"#utility.yul\":7701:7766   */\n      tag_262\n      jump\t// in\n    tag_385:\n        /* \"#utility.yul\":7692:7766   */\n      swap1\n      pop\n        /* \"#utility.yul\":7789:7795   */\n      dup3\n        /* \"#utility.yul\":7782:7787   */\n      dup2\n        /* \"#utility.yul\":7775:7796   */\n      mstore\n        /* \"#utility.yul\":7827:7831   */\n      0x20\n        /* \"#utility.yul\":7820:7825   */\n      dup2\n        /* \"#utility.yul\":7816:7832   */\n      add\n        /* \"#utility.yul\":7865:7868   */\n      dup5\n        /* \"#utility.yul\":7856:7862   */\n      dup5\n        /* \"#utility.yul\":7851:7854   */\n      dup5\n        /* \"#utility.yul\":7847:7863   */\n      add\n        /* \"#utility.yul\":7844:7869   */\n      gt\n        /* \"#utility.yul\":7841:7953   */\n      iszero\n      tag_387\n      jumpi\n        /* \"#utility.yul\":7872:7951   */\n      tag_388\n      tag_259\n      jump\t// in\n    tag_388:\n        /* \"#utility.yul\":7841:7953   */\n    tag_387:\n        /* \"#utility.yul\":7962:8016   */\n      tag_389\n        /* \"#utility.yul\":8009:8015   */\n      dup5\n        /* \"#utility.yul\":8004:8007   */\n      dup3\n        /* \"#utility.yul\":7999:8002   */\n      dup6\n        /* \"#utility.yul\":7962:8016   */\n      tag_264\n      jump\t// in\n    tag_389:\n        /* \"#utility.yul\":7682:8022   */\n      pop\n        /* \"#utility.yul\":7599:8022   */\n      swap4\n      swap3\n      pop\n      pop\n      pop\n      jump\t// out\n        /* \"#utility.yul\":8041:8379   */\n    tag_266:\n        /* \"#utility.yul\":8096:8101   */\n      0x00\n        /* \"#utility.yul\":8145:8148   */\n      dup3\n        /* \"#utility.yul\":8138:8142   */\n      0x1f\n        /* \"#utility.yul\":8130:8136   */\n      dup4\n        /* \"#utility.yul\":8126:8143   */\n      add\n        /* \"#utility.yul\":8122:8149   */\n      slt\n        /* \"#utility.yul\":8112:8234   */\n      tag_391\n      jumpi\n        /* \"#utility.yul\":8153:8232   */\n      tag_392\n      tag_258\n      jump\t// in\n    tag_392:\n        /* \"#utility.yul\":8112:8234   */\n    tag_391:\n        /* \"#utility.yul\":8270:8276   */\n      dup2\n        /* \"#utility.yul\":8257:8277   */\n      calldataload\n        /* \"#utility.yul\":8295:8373   */\n      tag_393\n        /* \"#utility.yul\":8369:8372   */\n      dup5\n        /* \"#utility.yul\":8361:8367   */\n      dup3\n        /* \"#utility.yul\":8354:8358   */\n      0x20\n        /* \"#utility.yul\":8346:8352   */\n      dup7\n        /* \"#utility.yul\":8342:8359   */\n      add\n        /* \"#utility.yul\":8295:8373   */\n      tag_265\n      jump\t// in\n    tag_393:\n        /* \"#utility.yul\":8286:8373   */\n      swap2\n      pop\n        /* \"#utility.yul\":8102:8379   */\n      pop\n        /* \"#utility.yul\":8041:8379   */\n      swap3\n      swap2\n      pop\n      pop\n      jump\t// out\n        /* \"#utility.yul\":8385:9328   */\n    tag_83:\n        /* \"#utility.yul\":8480:8486   */\n      0x00\n        /* \"#utility.yul\":8488:8494   */\n      dup1\n        /* \"#utility.yul\":8496:8502   */\n      0x00\n        /* \"#utility.yul\":8504:8510   */\n      dup1\n        /* \"#utility.yul\":8553:8556   */\n      0x80\n        /* \"#utility.yul\":8541:8550   */\n      dup6\n        /* \"#utility.yul\":8532:8539   */\n      dup8\n        /* \"#utility.yul\":8528:8551   */\n      sub\n        /* \"#utility.yul\":8524:8557   */\n      slt\n        /* \"#utility.yul\":8521:8641   */\n      iszero\n      tag_395\n      jumpi\n        /* \"#utility.yul\":8560:8639   */\n      tag_396\n      tag_236\n      jump\t// in\n    tag_396:\n        /* \"#utility.yul\":8521:8641   */\n    tag_395:\n        /* \"#utility.yul\":8680:8681   */\n      0x00\n        /* \"#utility.yul\":8705:8758   */\n      tag_397\n        /* \"#utility.yul\":8750:8757   */\n      dup8\n        /* \"#utility.yul\":8741:8747   */\n      dup3\n        /* \"#utility.yul\":8730:8739   */\n      dup9\n        /* \"#utility.yul\":8726:8748   */\n      add\n        /* \"#utility.yul\":8705:8758   */\n      tag_251\n      jump\t// in\n    tag_397:\n        /* \"#utility.yul\":8695:8758   */\n      swap5\n      pop\n        /* \"#utility.yul\":8651:8768   */\n      pop\n        /* \"#utility.yul\":8807:8809   */\n      0x20\n        /* \"#utility.yul\":8833:8886   */\n      tag_398\n        /* \"#utility.yul\":8878:8885   */\n      dup8\n        /* \"#utility.yul\":8869:8875   */\n      dup3\n        /* \"#utility.yul\":8858:8867   */\n      dup9\n        /* \"#utility.yul\":8854:8876   */\n      add\n        /* \"#utility.yul\":8833:8886   */\n      tag_251\n      jump\t// in\n    tag_398:\n        /* \"#utility.yul\":8823:8886   */\n      swap4\n      pop\n        /* \"#utility.yul\":8778:8896   */\n      pop\n        /* \"#utility.yul\":8935:8937   */\n      0x40\n        /* \"#utility.yul\":8961:9014   */\n      tag_399\n        /* \"#utility.yul\":9006:9013   */\n      dup8\n        /* \"#utility.yul\":8997:9003   */\n      dup3\n        /* \"#utility.yul\":8986:8995   */\n      dup9\n        /* \"#utility.yul\":8982:9004   */\n      add\n        /* \"#utility.yul\":8961:9014   */\n      tag_254\n      jump\t// in\n    tag_399:\n        /* \"#utility.yul\":8951:9014   */\n      swap3\n      pop\n        /* \"#utility.yul\":8906:9024   */\n      pop\n        /* \"#utility.yul\":9091:9093   */\n      0x60\n        /* \"#utility.yul\":9080:9089   */\n      dup6\n        /* \"#utility.yul\":9076:9094   */\n      add\n        /* \"#utility.yul\":9063:9095   */\n      calldataload\n        /* \"#utility.yul\":9122:9140   */\n      0xffffffffffffffff\n        /* \"#utility.yul\":9114:9120   */\n      dup2\n        /* \"#utility.yul\":9111:9141   */\n      gt\n        /* \"#utility.yul\":9108:9225   */\n      iszero\n      tag_400\n      jumpi\n        /* \"#utility.yul\":9144:9223   */\n      tag_401\n      tag_237\n      jump\t// in\n    tag_401:\n        /* \"#utility.yul\":9108:9225   */\n    tag_400:\n        /* \"#utility.yul\":9249:9311   */\n      tag_402\n        /* \"#utility.yul\":9303:9310   */\n      dup8\n        /* \"#utility.yul\":9294:9300   */\n      dup3\n        /* \"#utility.yul\":9283:9292   */\n      dup9\n        /* \"#utility.yul\":9279:9301   */\n      add\n        /* \"#utility.yul\":9249:9311   */\n      tag_266\n      jump\t// in\n    tag_402:\n        /* \"#utility.yul\":9239:9311   */\n      swap2\n      pop\n        /* \"#utility.yul\":9034:9321   */\n      pop\n        /* \"#utility.yul\":8385:9328   */\n      swap3\n      swap6\n      swap2\n      swap5\n      pop\n      swap3\n      pop\n      jump\t// out\n        /* \"#utility.yul\":9334:9808   */\n    tag_87:\n        /* \"#utility.yul\":9402:9408   */\n      0x00\n        /* \"#utility.yul\":9410:9416   */\n      dup1\n        /* \"#utility.yul\":9459:9461   */\n      0x40\n        /* \"#utility.yul\":9447:9456   */\n      dup4\n        /* \"#utility.yul\":9438:9445   */\n      dup6\n        /* \"#utility.yul\":9434:9457   */\n      sub\n        /* \"#utility.yul\":9430:9462   */\n      slt\n        /* \"#utility.yul\":9427:9546   */\n      iszero\n      tag_404\n      jumpi\n        /* \"#utility.yul\":9465:9544   */\n      tag_405\n      tag_236\n      jump\t// in\n    tag_405:\n        /* \"#utility.yul\":9427:9546   */\n    tag_404:\n        /* \"#utility.yul\":9585:9586   */\n      0x00\n        /* \"#utility.yul\":9610:9663   */\n      tag_406\n        /* \"#utility.yul\":9655:9662   */\n      dup6\n        /* \"#utility.yul\":9646:9652   */\n      dup3\n        /* \"#utility.yul\":9635:9644   */\n      dup7\n        /* \"#utility.yul\":9631:9653   */\n      add\n        /* \"#utility.yul\":9610:9663   */\n      tag_251\n      jump\t// in\n    tag_406:\n        /* \"#utility.yul\":9600:9663   */\n      swap3\n      pop\n        /* \"#utility.yul\":9556:9673   */\n      pop\n        /* \"#utility.yul\":9712:9714   */\n      0x20\n        /* \"#utility.yul\":9738:9791   */\n      tag_407\n        /* \"#utility.yul\":9783:9790   */\n      dup6\n        /* \"#utility.yul\":9774:9780   */\n      dup3\n        /* \"#utility.yul\":9763:9772   */\n      dup7\n        /* \"#utility.yul\":9759:9781   */\n      add\n        /* \"#utility.yul\":9738:9791   */\n      tag_251\n      jump\t// in\n    tag_407:\n        /* \"#utility.yul\":9728:9791   */\n      swap2\n      pop\n        /* \"#utility.yul\":9683:9801   */\n      pop\n        /* \"#utility.yul\":9334:9808   */\n      swap3\n      pop\n      swap3\n      swap1\n      pop\n      jump\t// out\n        /* \"#utility.yul\":9814:10611   */\n    tag_92:\n        /* \"#utility.yul\":9900:9906   */\n      0x00\n        /* \"#utility.yul\":9908:9914   */\n      dup1\n        /* \"#utility.yul\":9916:9922   */\n      0x00\n        /* \"#utility.yul\":9965:9967   */\n      0x60\n        /* \"#utility.yul\":9953:9962   */\n      dup5\n        /* \"#utility.yul\":9944:9951   */\n      dup7\n        /* \"#utility.yul\":9940:9963   */\n      sub\n        /* \"#utility.yul\":9936:9968   */\n      slt\n        /* \"#utility.yul\":9933:10052   */\n      iszero\n      tag_409\n      jumpi\n        /* \"#utility.yul\":9971:10050   */\n      tag_410\n      tag_236\n      jump\t// in\n    tag_410:\n        /* \"#utility.yul\":9933:10052   */\n    tag_409:\n        /* \"#utility.yul\":10091:10092   */\n      0x00\n        /* \"#utility.yul\":10116:10169   */\n      tag_411\n        /* \"#utility.yul\":10161:10168   */\n      dup7\n        /* \"#utility.yul\":10152:10158   */\n      dup3\n        /* \"#utility.yul\":10141:10150   */\n      dup8\n        /* \"#utility.yul\":10137:10159   */\n      add\n        /* \"#utility.yul\":10116:10169   */\n      tag_251\n      jump\t// in\n    tag_411:\n        /* \"#utility.yul\":10106:10169   */\n      swap4\n      pop\n        /* \"#utility.yul\":10062:10179   */\n      pop\n        /* \"#utility.yul\":10218:10220   */\n      0x20\n        /* \"#utility.yul\":10244:10297   */\n      tag_412\n        /* \"#utility.yul\":10289:10296   */\n      dup7\n        /* \"#utility.yul\":10280:10286   */\n      dup3\n        /* \"#utility.yul\":10269:10278   */\n      dup8\n        /* \"#utility.yul\":10265:10287   */\n      add\n        /* \"#utility.yul\":10244:10297   */\n      tag_254\n      jump\t// in\n    tag_412:\n        /* \"#utility.yul\":10234:10297   */\n      swap3\n      pop\n        /* \"#utility.yul\":10189:10307   */\n      pop\n        /* \"#utility.yul\":10374:10376   */\n      0x40\n        /* \"#utility.yul\":10363:10372   */\n      dup5\n        /* \"#utility.yul\":10359:10377   */\n      add\n        /* \"#utility.yul\":10346:10378   */\n      calldataload\n        /* \"#utility.yul\":10405:10423   */\n      0xffffffffffffffff\n        /* \"#utility.yul\":10397:10403   */\n      dup2\n        /* \"#utility.yul\":10394:10424   */\n      gt\n        /* \"#utility.yul\":10391:10508   */\n      iszero\n      tag_413\n      jumpi\n        /* \"#utility.yul\":10427:10506   */\n      tag_414\n      tag_237\n      jump\t// in\n    tag_414:\n        /* \"#utility.yul\":10391:10508   */\n    tag_413:\n        /* \"#utility.yul\":10532:10594   */\n      tag_415\n        /* \"#utility.yul\":10586:10593   */\n      dup7\n        /* \"#utility.yul\":10577:10583   */\n      dup3\n        /* \"#utility.yul\":10566:10575   */\n      dup8\n        /* \"#utility.yul\":10562:10584   */\n      add\n        /* \"#utility.yul\":10532:10594   */\n      tag_266\n      jump\t// in\n    tag_415:\n        /* \"#utility.yul\":10522:10594   */\n      swap2\n      pop\n        /* \"#utility.yul\":10317:10604   */\n      pop\n        /* \"#utility.yul\":9814:10611   */\n      swap3\n      pop\n      swap3\n      pop\n      swap3\n      jump\t// out\n        /* \"#utility.yul\":10617:10797   */\n    tag_267:\n        /* \"#utility.yul\":10665:10742   */\n      0x4e487b7100000000000000000000000000000000000000000000000000000000\n        /* \"#utility.yul\":10662:10663   */\n      0x00\n        /* \"#utility.yul\":10655:10743   */\n      mstore\n        /* \"#utility.yul\":10762:10766   */\n      0x22\n        /* \"#utility.yul\":10759:10760   */\n      0x04\n        /* \"#utility.yul\":10752:10767   */\n      mstore\n        /* \"#utility.yul\":10786:10790   */\n      0x24\n        /* \"#utility.yul\":10783:10784   */\n      0x00\n        /* \"#utility.yul\":10776:10791   */\n      revert\n        /* \"#utility.yul\":10803:11123   */\n    tag_101:\n        /* \"#utility.yul\":10847:10853   */\n      0x00\n        /* \"#utility.yul\":10884:10885   */\n      0x02\n        /* \"#utility.yul\":10878:10882   */\n      dup3\n        /* \"#utility.yul\":10874:10886   */\n      div\n        /* \"#utility.yul\":10864:10886   */\n      swap1\n      pop\n        /* \"#utility.yul\":10931:10932   */\n      0x01\n        /* \"#utility.yul\":10925:10929   */\n      dup3\n        /* \"#utility.yul\":10921:10933   */\n      and\n        /* \"#utility.yul\":10952:10970   */\n      dup1\n        /* \"#utility.yul\":10942:11023   */\n      tag_418\n      jumpi\n        /* \"#utility.yul\":11008:11012   */\n      0x7f\n        /* \"#utility.yul\":11000:11006   */\n      dup3\n        /* \"#utility.yul\":10996:11013   */\n      and\n        /* \"#utility.yul\":10986:11013   */\n      swap2\n      pop\n        /* \"#utility.yul\":10942:11023   */\n    tag_418:\n        /* \"#utility.yul\":11070:11072   */\n      0x20\n        /* \"#utility.yul\":11062:11068   */\n      dup3\n        /* \"#utility.yul\":11059:11073   */\n      lt\n        /* \"#utility.yul\":11039:11057   */\n      dup2\n        /* \"#utility.yul\":11036:11074   */\n      sub\n        /* \"#utility.yul\":11033:11117   */\n      tag_419\n      jumpi\n        /* \"#utility.yul\":11089:11107   */\n      tag_420\n      tag_267\n      jump\t// in\n    tag_420:\n        /* \"#utility.yul\":11033:11117   */\n    tag_419:\n        /* \"#utility.yul\":10854:11123   */\n      pop\n        /* \"#utility.yul\":10803:11123   */\n      swap2\n      swap1\n      pop\n      jump\t// out\n        /* \"#utility.yul\":11129:11309   */\n    tag_268:\n        /* \"#utility.yul\":11177:11254   */\n      0x4e487b7100000000000000000000000000000000000000000000000000000000\n        /* \"#utility.yul\":11174:11175   */\n      0x00\n        /* \"#utility.yul\":11167:11255   */\n      mstore\n        /* \"#utility.yul\":11274:11278   */\n      0x11\n        /* \"#utility.yul\":11271:11272   */\n      0x04\n        /* \"#utility.yul\":11264:11279   */\n      mstore\n        /* \"#utility.yul\":11298:11302   */\n      0x24\n        /* \"#utility.yul\":11295:11296   */\n      0x00\n        /* \"#utility.yul\":11288:11303   */\n      revert\n        /* \"#utility.yul\":11315:11506   */\n    tag_124:\n        /* \"#utility.yul\":11355:11358   */\n      0x00\n        /* \"#utility.yul\":11374:11394   */\n      tag_423\n        /* \"#utility.yul\":11392:11393   */\n      dup3\n        /* \"#utility.yul\":11374:11394   */\n      tag_252\n      jump\t// in\n    tag_423:\n        /* \"#utility.yul\":11369:11394   */\n      swap2\n      pop\n        /* \"#utility.yul\":11408:11428   */\n      tag_424\n        /* \"#utility.yul\":11426:11427   */\n      dup4\n        /* \"#utility.yul\":11408:11428   */\n      tag_252\n      jump\t// in\n    tag_424:\n        /* \"#utility.yul\":11403:11428   */\n      swap3\n      pop\n        /* \"#utility.yul\":11451:11452   */\n      dup3\n        /* \"#utility.yul\":11448:11449   */\n      dup3\n        /* \"#utility.yul\":11444:11453   */\n      add\n        /* \"#utility.yul\":11437:11453   */\n      swap1\n      pop\n        /* \"#utility.yul\":11472:11475   */\n      dup1\n        /* \"#utility.yul\":11469:11470   */\n      dup3\n        /* \"#utility.yul\":11466:11476   */\n      gt\n        /* \"#utility.yul\":11463:11499   */\n      iszero\n      tag_425\n      jumpi\n        /* \"#utility.yul\":11479:11497   */\n      tag_426\n      tag_268\n      jump\t// in\n    tag_426:\n        /* \"#utility.yul\":11463:11499   */\n    tag_425:\n        /* \"#utility.yul\":11315:11506   */\n      swap3\n      swap2\n      pop\n      pop\n      jump\t// out\n        /* \"#utility.yul\":11512:11735   */\n    tag_269:\n        /* \"#utility.yul\":11652:11686   */\n      0x4b4950373a2064656372656173656420616c6c6f77616e63652062656c6f7720\n        /* \"#utility.yul\":11648:11649   */\n      0x00\n        /* \"#utility.yul\":11640:11646   */\n      dup3\n        /* \"#utility.yul\":11636:11650   */\n      add\n        /* \"#utility.yul\":11629:11687   */\n      mstore\n        /* \"#utility.yul\":11721:11727   */\n      0x7a65726f00000000000000000000000000000000000000000000000000000000\n        /* \"#utility.yul\":11716:11718   */\n      0x20\n        /* \"#utility.yul\":11708:11714   */\n      dup3\n        /* \"#utility.yul\":11704:11719   */\n      add\n        /* \"#utility.yul\":11697:11728   */\n      mstore\n        /* \"#utility.yul\":11512:11735   */\n      pop\n      jump\t// out\n        /* \"#utility.yul\":11741:12107   */\n    tag_270:\n        /* \"#utility.yul\":11883:11886   */\n      0x00\n        /* \"#utility.yul\":11904:11971   */\n      tag_429\n        /* \"#utility.yul\":11968:11970   */\n      0x24\n        /* \"#utility.yul\":11963:11966   */\n      dup4\n        /* \"#utility.yul\":11904:11971   */\n      tag_244\n      jump\t// in\n    tag_429:\n        /* \"#utility.yul\":11897:11971   */\n      swap2\n      pop\n        /* \"#utility.yul\":11980:12073   */\n      tag_430\n        /* \"#utility.yul\":12069:12072   */\n      dup3\n        /* \"#utility.yul\":11980:12073   */\n      tag_269\n      jump\t// in\n    tag_430:\n        /* \"#utility.yul\":12098:12100   */\n      0x40\n        /* \"#utility.yul\":12093:12096   */\n      dup3\n        /* \"#utility.yul\":12089:12101   */\n      add\n        /* \"#utility.yul\":12082:12101   */\n      swap1\n      pop\n        /* \"#utility.yul\":11741:12107   */\n      swap2\n      swap1\n      pop\n      jump\t// out\n        /* \"#utility.yul\":12113:12532   */\n    tag_148:\n        /* \"#utility.yul\":12279:12283   */\n      0x00\n        /* \"#utility.yul\":12317:12319   */\n      0x20\n        /* \"#utility.yul\":12306:12315   */\n      dup3\n        /* \"#utility.yul\":12302:12320   */\n      add\n        /* \"#utility.yul\":12294:12320   */\n      swap1\n      pop\n        /* \"#utility.yul\":12366:12375   */\n      dup2\n        /* \"#utility.yul\":12360:12364   */\n      dup2\n        /* \"#utility.yul\":12356:12376   */\n      sub\n        /* \"#utility.yul\":12352:12353   */\n      0x00\n        /* \"#utility.yul\":12341:12350   */\n      dup4\n        /* \"#utility.yul\":12337:12354   */\n      add\n        /* \"#utility.yul\":12330:12377   */\n      mstore\n        /* \"#utility.yul\":12394:12525   */\n      tag_432\n        /* \"#utility.yul\":12520:12524   */\n      dup2\n        /* \"#utility.yul\":12394:12525   */\n      tag_270\n      jump\t// in\n    tag_432:\n        /* \"#utility.yul\":12386:12525   */\n      swap1\n      pop\n        /* \"#utility.yul\":12113:12532   */\n      swap2\n      swap1\n      pop\n      jump\t// out\n        /* \"#utility.yul\":12538:12760   */\n    tag_271:\n        /* \"#utility.yul\":12678:12712   */\n      0x4b4950373a20617070726f76652066726f6d20746865207a65726f2061646472\n        /* \"#utility.yul\":12674:12675   */\n      0x00\n        /* \"#utility.yul\":12666:12672   */\n      dup3\n        /* \"#utility.yul\":12662:12676   */\n      add\n        /* \"#utility.yul\":12655:12713   */\n      mstore\n        /* \"#utility.yul\":12747:12752   */\n      0x6573730000000000000000000000000000000000000000000000000000000000\n        /* \"#utility.yul\":12742:12744   */\n      0x20\n        /* \"#utility.yul\":12734:12740   */\n      dup3\n        /* \"#utility.yul\":12730:12745   */\n      add\n        /* \"#utility.yul\":12723:12753   */\n      mstore\n        /* \"#utility.yul\":12538:12760   */\n      pop\n      jump\t// out\n        /* \"#utility.yul\":12766:13132   */\n    tag_272:\n        /* \"#utility.yul\":12908:12911   */\n      0x00\n        /* \"#utility.yul\":12929:12996   */\n      tag_435\n        /* \"#utility.yul\":12993:12995   */\n      0x23\n        /* \"#utility.yul\":12988:12991   */\n      dup4\n        /* \"#utility.yul\":12929:12996   */\n      tag_244\n      jump\t// in\n    tag_435:\n        /* \"#utility.yul\":12922:12996   */\n      swap2\n      pop\n        /* \"#utility.yul\":13005:13098   */\n      tag_436\n        /* \"#utility.yul\":13094:13097   */\n      dup3\n        /* \"#utility.yul\":13005:13098   */\n      tag_271\n      jump\t// in\n    tag_436:\n        /* \"#utility.yul\":13123:13125   */\n      0x40\n        /* \"#utility.yul\":13118:13121   */\n      dup3\n        /* \"#utility.yul\":13114:13126   */\n      add\n        /* \"#utility.yul\":13107:13126   */\n      swap1\n      pop\n        /* \"#utility.yul\":12766:13132   */\n      swap2\n      swap1\n      pop\n      jump\t// out\n        /* \"#utility.yul\":13138:13557   */\n    tag_166:\n        /* \"#utility.yul\":13304:13308   */\n      0x00\n        /* \"#utility.yul\":13342:13344   */\n      0x20\n        /* \"#utility.yul\":13331:13340   */\n      dup3\n        /* \"#utility.yul\":13327:13345   */\n      add\n        /* \"#utility.yul\":13319:13345   */\n      swap1\n      pop\n        /* \"#utility.yul\":13391:13400   */\n      dup2\n        /* \"#utility.yul\":13385:13389   */\n      dup2\n        /* \"#utility.yul\":13381:13401   */\n      sub\n        /* \"#utility.yul\":13377:13378   */\n      0x00\n        /* \"#utility.yul\":13366:13375   */\n      dup4\n        /* \"#utility.yul\":13362:13379   */\n      add\n        /* \"#utility.yul\":13355:13402   */\n      mstore\n        /* \"#utility.yul\":13419:13550   */\n      tag_438\n        /* \"#utility.yul\":13545:13549   */\n      dup2\n        /* \"#utility.yul\":13419:13550   */\n      tag_272\n      jump\t// in\n    tag_438:\n        /* \"#utility.yul\":13411:13550   */\n      swap1\n      pop\n        /* \"#utility.yul\":13138:13557   */\n      swap2\n      swap1\n      pop\n      jump\t// out\n        /* \"#utility.yul\":13563:13783   */\n    tag_273:\n        /* \"#utility.yul\":13703:13737   */\n      0x4b4950373a20617070726f766520746f20746865207a65726f20616464726573\n        /* \"#utility.yul\":13699:13700   */\n      0x00\n        /* \"#utility.yul\":13691:13697   */\n      dup3\n        /* \"#utility.yul\":13687:13701   */\n      add\n        /* \"#utility.yul\":13680:13738   */\n      mstore\n        /* \"#utility.yul\":13772:13775   */\n      0x7300000000000000000000000000000000000000000000000000000000000000\n        /* \"#utility.yul\":13767:13769   */\n      0x20\n        /* \"#utility.yul\":13759:13765   */\n      dup3\n        /* \"#utility.yul\":13755:13770   */\n      add\n        /* \"#utility.yul\":13748:13776   */\n      mstore\n        /* \"#utility.yul\":13563:13783   */\n      pop\n      jump\t// out\n        /* \"#utility.yul\":13789:14155   */\n    tag_274:\n        /* \"#utility.yul\":13931:13934   */\n      0x00\n        /* \"#utility.yul\":13952:14019   */\n      tag_441\n        /* \"#utility.yul\":14016:14018   */\n      0x21\n        /* \"#utility.yul\":14011:14014   */\n      dup4\n        /* \"#utility.yul\":13952:14019   */\n      tag_244\n      jump\t// in\n    tag_441:\n        /* \"#utility.yul\":13945:14019   */\n      swap2\n      pop\n        /* \"#utility.yul\":14028:14121   */\n      tag_442\n        /* \"#utility.yul\":14117:14120   */\n      dup3\n        /* \"#utility.yul\":14028:14121   */\n      tag_273\n      jump\t// in\n    tag_442:\n        /* \"#utility.yul\":14146:14148   */\n      0x40\n        /* \"#utility.yul\":14141:14144   */\n      dup3\n        /* \"#utility.yul\":14137:14149   */\n      add\n        /* \"#utility.yul\":14130:14149   */\n      swap1\n      pop\n        /* \"#utility.yul\":13789:14155   */\n      swap2\n      swap1\n      pop\n      jump\t// out\n        /* \"#utility.yul\":14161:14580   */\n    tag_169:\n        /* \"#utility.yul\":14327:14331   */\n      0x00\n        /* \"#utility.yul\":14365:14367   */\n      0x20\n        /* \"#utility.yul\":14354:14363   */\n      dup3\n        /* \"#utility.yul\":14350:14368   */\n      add\n        /* \"#utility.yul\":14342:14368   */\n      swap1\n      pop\n        /* \"#utility.yul\":14414:14423   */\n      dup2\n        /* \"#utility.yul\":14408:14412   */\n      dup2\n        /* \"#utility.yul\":14404:14424   */\n      sub\n        /* \"#utility.yul\":14400:14401   */\n      0x00\n        /* \"#utility.yul\":14389:14398   */\n      dup4\n        /* \"#utility.yul\":14385:14402   */\n      add\n        /* \"#utility.yul\":14378:14425   */\n      mstore\n        /* \"#utility.yul\":14442:14573   */\n      tag_444\n        /* \"#utility.yul\":14568:14572   */\n      dup2\n        /* \"#utility.yul\":14442:14573   */\n      tag_274\n      jump\t// in\n    tag_444:\n        /* \"#utility.yul\":14434:14573   */\n      swap1\n      pop\n        /* \"#utility.yul\":14161:14580   */\n      swap2\n      swap1\n      pop\n      jump\t// out\n        /* \"#utility.yul\":14586:14764   */\n    tag_275:\n        /* \"#utility.yul\":14726:14756   */\n      0x4b4950373a20696e73756666696369656e7420616c6c6f77616e636500000000\n        /* \"#utility.yul\":14722:14723   */\n      0x00\n        /* \"#utility.yul\":14714:14720   */\n      dup3\n        /* \"#utility.yul\":14710:14724   */\n      add\n        /* \"#utility.yul\":14703:14757   */\n      mstore\n        /* \"#utility.yul\":14586:14764   */\n      pop\n      jump\t// out\n        /* \"#utility.yul\":14770:15136   */\n    tag_276:\n        /* \"#utility.yul\":14912:14915   */\n      0x00\n        /* \"#utility.yul\":14933:15000   */\n      tag_447\n        /* \"#utility.yul\":14997:14999   */\n      0x1c\n        /* \"#utility.yul\":14992:14995   */\n      dup4\n        /* \"#utility.yul\":14933:15000   */\n      tag_244\n      jump\t// in\n    tag_447:\n        /* \"#utility.yul\":14926:15000   */\n      swap2\n      pop\n        /* \"#utility.yul\":15009:15102   */\n      tag_448\n        /* \"#utility.yul\":15098:15101   */\n      dup3\n        /* \"#utility.yul\":15009:15102   */\n      tag_275\n      jump\t// in\n    tag_448:\n        /* \"#utility.yul\":15127:15129   */\n      0x20\n        /* \"#utility.yul\":15122:15125   */\n      dup3\n        /* \"#utility.yul\":15118:15130   */\n      add\n        /* \"#utility.yul\":15111:15130   */\n      swap1\n      pop\n        /* \"#utility.yul\":14770:15136   */\n      swap2\n      swap1\n      pop\n      jump\t// out\n        /* \"#utility.yul\":15142:15561   */\n    tag_176:\n        /* \"#utility.yul\":15308:15312   */\n      0x00\n        /* \"#utility.yul\":15346:15348   */\n      0x20\n        /* \"#utility.yul\":15335:15344   */\n      dup3\n        /* \"#utility.yul\":15331:15349   */\n      add\n        /* \"#utility.yul\":15323:15349   */\n      swap1\n      pop\n        /* \"#utility.yul\":15395:15404   */\n      dup2\n        /* \"#utility.yul\":15389:15393   */\n      dup2\n        /* \"#utility.yul\":15385:15405   */\n      sub\n        /* \"#utility.yul\":15381:15382   */\n      0x00\n        /* \"#utility.yul\":15370:15379   */\n      dup4\n        /* \"#utility.yul\":15366:15383   */\n      add\n        /* \"#utility.yul\":15359:15406   */\n      mstore\n        /* \"#utility.yul\":15423:15554   */\n      tag_450\n        /* \"#utility.yul\":15549:15553   */\n      dup2\n        /* \"#utility.yul\":15423:15554   */\n      tag_276\n      jump\t// in\n    tag_450:\n        /* \"#utility.yul\":15415:15554   */\n      swap1\n      pop\n        /* \"#utility.yul\":15142:15561   */\n      swap2\n      swap1\n      pop\n      jump\t// out\n        /* \"#utility.yul\":15567:15790   */\n    tag_277:\n        /* \"#utility.yul\":15707:15741   */\n      0x4b4950373a207472616e736665722066726f6d20746865207a65726f20616464\n        /* \"#utility.yul\":15703:15704   */\n      0x00\n        /* \"#utility.yul\":15695:15701   */\n      dup3\n        /* \"#utility.yul\":15691:15705   */\n      add\n        /* \"#utility.yul\":15684:15742   */\n      mstore\n        /* \"#utility.yul\":15776:15782   */\n      0x7265737300000000000000000000000000000000000000000000000000000000\n        /* \"#utility.yul\":15771:15773   */\n      0x20\n        /* \"#utility.yul\":15763:15769   */\n      dup3\n        /* \"#utility.yul\":15759:15774   */\n      add\n        /* \"#utility.yul\":15752:15783   */\n      mstore\n        /* \"#utility.yul\":15567:15790   */\n      pop\n      jump\t// out\n        /* \"#utility.yul\":15796:16162   */\n    tag_278:\n        /* \"#utility.yul\":15938:15941   */\n      0x00\n        /* \"#utility.yul\":15959:16026   */\n      tag_453\n        /* \"#utility.yul\":16023:16025   */\n      0x24\n        /* \"#utility.yul\":16018:16021   */\n      dup4\n        /* \"#utility.yul\":15959:16026   */\n      tag_244\n      jump\t// in\n    tag_453:\n        /* \"#utility.yul\":15952:16026   */\n      swap2\n      pop\n        /* \"#utility.yul\":16035:16128   */\n      tag_454\n        /* \"#utility.yul\":16124:16127   */\n      dup3\n        /* \"#utility.yul\":16035:16128   */\n      tag_277\n      jump\t// in\n    tag_454:\n        /* \"#utility.yul\":16153:16155   */\n      0x40\n        /* \"#utility.yul\":16148:16151   */\n      dup3\n        /* \"#utility.yul\":16144:16156   */\n      add\n        /* \"#utility.yul\":16137:16156   */\n      swap1\n      pop\n        /* \"#utility.yul\":15796:16162   */\n      swap2\n      swap1\n      pop\n      jump\t// out\n        /* \"#utility.yul\":16168:16587   */\n    tag_181:\n        /* \"#utility.yul\":16334:16338   */\n      0x00\n        /* \"#utility.yul\":16372:16374   */\n      0x20\n        /* \"#utility.yul\":16361:16370   */\n      dup3\n        /* \"#utility.yul\":16357:16375   */\n      add\n        /* \"#utility.yul\":16349:16375   */\n      swap1\n      pop\n        /* \"#utility.yul\":16421:16430   */\n      dup2\n        /* \"#utility.yul\":16415:16419   */\n      dup2\n        /* \"#utility.yul\":16411:16431   */\n      sub\n        /* \"#utility.yul\":16407:16408   */\n      0x00\n        /* \"#utility.yul\":16396:16405   */\n      dup4\n        /* \"#utility.yul\":16392:16409   */\n      add\n        /* \"#utility.yul\":16385:16432   */\n      mstore\n        /* \"#utility.yul\":16449:16580   */\n      tag_456\n        /* \"#utility.yul\":16575:16579   */\n      dup2\n        /* \"#utility.yul\":16449:16580   */\n      tag_278\n      jump\t// in\n    tag_456:\n        /* \"#utility.yul\":16441:16580   */\n      swap1\n      pop\n        /* \"#utility.yul\":16168:16587   */\n      swap2\n      swap1\n      pop\n      jump\t// out\n        /* \"#utility.yul\":16593:16814   */\n    tag_279:\n        /* \"#utility.yul\":16733:16767   */\n      0x4b4950373a207472616e7366657220746f20746865207a65726f206164647265\n        /* \"#utility.yul\":16729:16730   */\n      0x00\n        /* \"#utility.yul\":16721:16727   */\n      dup3\n        /* \"#utility.yul\":16717:16731   */\n      add\n        /* \"#utility.yul\":16710:16768   */\n      mstore\n        /* \"#utility.yul\":16802:16806   */\n      0x7373000000000000000000000000000000000000000000000000000000000000\n        /* \"#utility.yul\":16797:16799   */\n      0x20\n        /* \"#utility.yul\":16789:16795   */\n      dup3\n        /* \"#utility.yul\":16785:16800   */\n      add\n        /* \"#utility.yul\":16778:16807   */\n      mstore\n        /* \"#utility.yul\":16593:16814   */\n      pop\n      jump\t// out\n        /* \"#utility.yul\":16820:17186   */\n    tag_280:\n        /* \"#utility.yul\":16962:16965   */\n      0x00\n        /* \"#utility.yul\":16983:17050   */\n      tag_459\n        /* \"#utility.yul\":17047:17049   */\n      0x22\n        /* \"#utility.yul\":17042:17045   */\n      dup4\n        /* \"#utility.yul\":16983:17050   */\n      tag_244\n      jump\t// in\n    tag_459:\n        /* \"#utility.yul\":16976:17050   */\n      swap2\n      pop\n        /* \"#utility.yul\":17059:17152   */\n      tag_460\n        /* \"#utility.yul\":17148:17151   */\n      dup3\n        /* \"#utility.yul\":17059:17152   */\n      tag_279\n      jump\t// in\n    tag_460:\n        /* \"#utility.yul\":17177:17179   */\n      0x40\n        /* \"#utility.yul\":17172:17175   */\n      dup3\n        /* \"#utility.yul\":17168:17180   */\n      add\n        /* \"#utility.yul\":17161:17180   */\n      swap1\n      pop\n        /* \"#utility.yul\":16820:17186   */\n      swap2\n      swap1\n      pop\n      jump\t// out\n        /* \"#utility.yul\":17192:17611   */\n    tag_184:\n        /* \"#utility.yul\":17358:17362   */\n      0x00\n        /* \"#utility.yul\":17396:17398   */\n      0x20\n        /* \"#utility.yul\":17385:17394   */\n      dup3\n        /* \"#utility.yul\":17381:17399   */\n      add\n        /* \"#utility.yul\":17373:17399   */\n      swap1\n      pop\n        /* \"#utility.yul\":17445:17454   */\n      dup2\n        /* \"#utility.yul\":17439:17443   */\n      dup2\n        /* \"#utility.yul\":17435:17455   */\n      sub\n        /* \"#utility.yul\":17431:17432   */\n      0x00\n        /* \"#utility.yul\":17420:17429   */\n      dup4\n        /* \"#utility.yul\":17416:17433   */\n      add\n        /* \"#utility.yul\":17409:17456   */\n      mstore\n        /* \"#utility.yul\":17473:17604   */\n      tag_462\n        /* \"#utility.yul\":17599:17603   */\n      dup2\n        /* \"#utility.yul\":17473:17604   */\n      tag_280\n      jump\t// in\n    tag_462:\n        /* \"#utility.yul\":17465:17604   */\n      swap1\n      pop\n        /* \"#utility.yul\":17192:17611   */\n      swap2\n      swap1\n      pop\n      jump\t// out\n        /* \"#utility.yul\":17617:17841   */\n    tag_281:\n        /* \"#utility.yul\":17757:17791   */\n      0x4b4950373a207472616e7366657220616d6f756e742065786365656473206261\n        /* \"#utility.yul\":17753:17754   */\n      0x00\n        /* \"#utility.yul\":17745:17751   */\n      dup3\n        /* \"#utility.yul\":17741:17755   */\n      add\n        /* \"#utility.yul\":17734:17792   */\n      mstore\n        /* \"#utility.yul\":17826:17833   */\n      0x6c616e6365000000000000000000000000000000000000000000000000000000\n        /* \"#utility.yul\":17821:17823   */\n      0x20\n        /* \"#utility.yul\":17813:17819   */\n      dup3\n        /* \"#utility.yul\":17809:17824   */\n      add\n        /* \"#utility.yul\":17802:17834   */\n      mstore\n        /* \"#utility.yul\":17617:17841   */\n      pop\n      jump\t// out\n        /* \"#utility.yul\":17847:18213   */\n    tag_282:\n        /* \"#utility.yul\":17989:17992   */\n      0x00\n        /* \"#utility.yul\":18010:18077   */\n      tag_465\n        /* \"#utility.yul\":18074:18076   */\n      0x25\n        /* \"#utility.yul\":18069:18072   */\n      dup4\n        /* \"#utility.yul\":18010:18077   */\n      tag_244\n      jump\t// in\n    tag_465:\n        /* \"#utility.yul\":18003:18077   */\n      swap2\n      pop\n        /* \"#utility.yul\":18086:18179   */\n      tag_466\n        /* \"#utility.yul\":18175:18178   */\n      dup3\n        /* \"#utility.yul\":18086:18179   */\n      tag_281\n      jump\t// in\n    tag_466:\n        /* \"#utility.yul\":18204:18206   */\n      0x40\n        /* \"#utility.yul\":18199:18202   */\n      dup3\n        /* \"#utility.yul\":18195:18207   */\n      add\n        /* \"#utility.yul\":18188:18207   */\n      swap1\n      pop\n        /* \"#utility.yul\":17847:18213   */\n      swap2\n      swap1\n      pop\n      jump\t// out\n        /* \"#utility.yul\":18219:18638   */\n    tag_189:\n        /* \"#utility.yul\":18385:18389   */\n      0x00\n        /* \"#utility.yul\":18423:18425   */\n      0x20\n        /* \"#utility.yul\":18412:18421   */\n      dup3\n        /* \"#utility.yul\":18408:18426   */\n      add\n        /* \"#utility.yul\":18400:18426   */\n      swap1\n      pop\n        /* \"#utility.yul\":18472:18481   */\n      dup2\n        /* \"#utility.yul\":18466:18470   */\n      dup2\n        /* \"#utility.yul\":18462:18482   */\n      sub\n        /* \"#utility.yul\":18458:18459   */\n      0x00\n        /* \"#utility.yul\":18447:18456   */\n      dup4\n        /* \"#utility.yul\":18443:18460   */\n      add\n        /* \"#utility.yul\":18436:18483   */\n      mstore\n        /* \"#utility.yul\":18500:18631   */\n      tag_468\n        /* \"#utility.yul\":18626:18630   */\n      dup2\n        /* \"#utility.yul\":18500:18631   */\n      tag_282\n      jump\t// in\n    tag_468:\n        /* \"#utility.yul\":18492:18631   */\n      swap1\n      pop\n        /* \"#utility.yul\":18219:18638   */\n      swap2\n      swap1\n      pop\n      jump\t// out\n        /* \"#utility.yul\":18644:18878   */\n    tag_283:\n        /* \"#utility.yul\":18784:18818   */\n      0x4b4950373a207472616e7366657220746f206e6f6e20494b4950375265636569\n        /* \"#utility.yul\":18780:18781   */\n      0x00\n        /* \"#utility.yul\":18772:18778   */\n      dup3\n        /* \"#utility.yul\":18768:18782   */\n      add\n        /* \"#utility.yul\":18761:18819   */\n      mstore\n        /* \"#utility.yul\":18853:18870   */\n      0x76657220696d706c656d656e7465720000000000000000000000000000000000\n        /* \"#utility.yul\":18848:18850   */\n      0x20\n        /* \"#utility.yul\":18840:18846   */\n      dup3\n        /* \"#utility.yul\":18836:18851   */\n      add\n        /* \"#utility.yul\":18829:18871   */\n      mstore\n        /* \"#utility.yul\":18644:18878   */\n      pop\n      jump\t// out\n        /* \"#utility.yul\":18884:19250   */\n    tag_284:\n        /* \"#utility.yul\":19026:19029   */\n      0x00\n        /* \"#utility.yul\":19047:19114   */\n      tag_471\n        /* \"#utility.yul\":19111:19113   */\n      0x2f\n        /* \"#utility.yul\":19106:19109   */\n      dup4\n        /* \"#utility.yul\":19047:19114   */\n      tag_244\n      jump\t// in\n    tag_471:\n        /* \"#utility.yul\":19040:19114   */\n      swap2\n      pop\n        /* \"#utility.yul\":19123:19216   */\n      tag_472\n        /* \"#utility.yul\":19212:19215   */\n      dup3\n        /* \"#utility.yul\":19123:19216   */\n      tag_283\n      jump\t// in\n    tag_472:\n        /* \"#utility.yul\":19241:19243   */\n      0x40\n        /* \"#utility.yul\":19236:19239   */\n      dup3\n        /* \"#utility.yul\":19232:19244   */\n      add\n        /* \"#utility.yul\":19225:19244   */\n      swap1\n      pop\n        /* \"#utility.yul\":18884:19250   */\n      swap2\n      swap1\n      pop\n      jump\t// out\n        /* \"#utility.yul\":19256:19675   */\n    tag_200:\n        /* \"#utility.yul\":19422:19426   */\n      0x00\n        /* \"#utility.yul\":19460:19462   */\n      0x20\n        /* \"#utility.yul\":19449:19458   */\n      dup3\n        /* \"#utility.yul\":19445:19463   */\n      add\n        /* \"#utility.yul\":19437:19463   */\n      swap1\n      pop\n        /* \"#utility.yul\":19509:19518   */\n      dup2\n        /* \"#utility.yul\":19503:19507   */\n      dup2\n        /* \"#utility.yul\":19499:19519   */\n      sub\n        /* \"#utility.yul\":19495:19496   */\n      0x00\n        /* \"#utility.yul\":19484:19493   */\n      dup4\n        /* \"#utility.yul\":19480:19497   */\n      add\n        /* \"#utility.yul\":19473:19520   */\n      mstore\n        /* \"#utility.yul\":19537:19668   */\n      tag_474\n        /* \"#utility.yul\":19663:19667   */\n      dup2\n        /* \"#utility.yul\":19537:19668   */\n      tag_284\n      jump\t// in\n    tag_474:\n        /* \"#utility.yul\":19529:19668   */\n      swap1\n      pop\n        /* \"#utility.yul\":19256:19675   */\n      swap2\n      swap1\n      pop\n      jump\t// out\n        /* \"#utility.yul\":19681:19861   */\n    tag_285:\n        /* \"#utility.yul\":19821:19853   */\n      0x4b4950373a206d696e7420746f20746865207a65726f20616464726573730000\n        /* \"#utility.yul\":19817:19818   */\n      0x00\n        /* \"#utility.yul\":19809:19815   */\n      dup3\n        /* \"#utility.yul\":19805:19819   */\n      add\n        /* \"#utility.yul\":19798:19854   */\n      mstore\n        /* \"#utility.yul\":19681:19861   */\n      pop\n      jump\t// out\n        /* \"#utility.yul\":19867:20233   */\n    tag_286:\n        /* \"#utility.yul\":20009:20012   */\n      0x00\n        /* \"#utility.yul\":20030:20097   */\n      tag_477\n        /* \"#utility.yul\":20094:20096   */\n      0x1e\n        /* \"#utility.yul\":20089:20092   */\n      dup4\n        /* \"#utility.yul\":20030:20097   */\n      tag_244\n      jump\t// in\n    tag_477:\n        /* \"#utility.yul\":20023:20097   */\n      swap2\n      pop\n        /* \"#utility.yul\":20106:20199   */\n      tag_478\n        /* \"#utility.yul\":20195:20198   */\n      dup3\n        /* \"#utility.yul\":20106:20199   */\n      tag_285\n      jump\t// in\n    tag_478:\n        /* \"#utility.yul\":20224:20226   */\n      0x20\n        /* \"#utility.yul\":20219:20222   */\n      dup3\n        /* \"#utility.yul\":20215:20227   */\n      add\n        /* \"#utility.yul\":20208:20227   */\n      swap1\n      pop\n        /* \"#utility.yul\":19867:20233   */\n      swap2\n      swap1\n      pop\n      jump\t// out\n        /* \"#utility.yul\":20239:20658   */\n    tag_204:\n        /* \"#utility.yul\":20405:20409   */\n      0x00\n        /* \"#utility.yul\":20443:20445   */\n      0x20\n        /* \"#utility.yul\":20432:20441   */\n      dup3\n        /* \"#utility.yul\":20428:20446   */\n      add\n        /* \"#utility.yul\":20420:20446   */\n      swap1\n      pop\n        /* \"#utility.yul\":20492:20501   */\n      dup2\n        /* \"#utility.yul\":20486:20490   */\n      dup2\n        /* \"#utility.yul\":20482:20502   */\n      sub\n        /* \"#utility.yul\":20478:20479   */\n      0x00\n        /* \"#utility.yul\":20467:20476   */\n      dup4\n        /* \"#utility.yul\":20463:20480   */\n      add\n        /* \"#utility.yul\":20456:20503   */\n      mstore\n        /* \"#utility.yul\":20520:20651   */\n      tag_480\n        /* \"#utility.yul\":20646:20650   */\n      dup2\n        /* \"#utility.yul\":20520:20651   */\n      tag_286\n      jump\t// in\n    tag_480:\n        /* \"#utility.yul\":20512:20651   */\n      swap1\n      pop\n        /* \"#utility.yul\":20239:20658   */\n      swap2\n      swap1\n      pop\n      jump\t// out\n        /* \"#utility.yul\":20664:20782   */\n    tag_287:\n        /* \"#utility.yul\":20751:20775   */\n      tag_482\n        /* \"#utility.yul\":20769:20774   */\n      dup2\n        /* \"#utility.yul\":20751:20775   */\n      tag_249\n      jump\t// in\n    tag_482:\n        /* \"#utility.yul\":20746:20749   */\n      dup3\n        /* \"#utility.yul\":20739:20776   */\n      mstore\n        /* \"#utility.yul\":20664:20782   */\n      pop\n      pop\n      jump\t// out\n        /* \"#utility.yul\":20788:20886   */\n    tag_288:\n        /* \"#utility.yul\":20839:20845   */\n      0x00\n        /* \"#utility.yul\":20873:20878   */\n      dup2\n        /* \"#utility.yul\":20867:20879   */\n      mload\n        /* \"#utility.yul\":20857:20879   */\n      swap1\n      pop\n        /* \"#utility.yul\":20788:20886   */\n      swap2\n      swap1\n      pop\n      jump\t// out\n        /* \"#utility.yul\":20892:21060   */\n    tag_289:\n        /* \"#utility.yul\":20975:20986   */\n      0x00\n        /* \"#utility.yul\":21009:21015   */\n      dup3\n        /* \"#utility.yul\":21004:21007   */\n      dup3\n        /* \"#utility.yul\":20997:21016   */\n      mstore\n        /* \"#utility.yul\":21049:21053   */\n      0x20\n        /* \"#utility.yul\":21044:21047   */\n      dup3\n        /* \"#utility.yul\":21040:21054   */\n      add\n        /* \"#utility.yul\":21025:21054   */\n      swap1\n      pop\n        /* \"#utility.yul\":20892:21060   */\n      swap3\n      swap2\n      pop\n      pop\n      jump\t// out\n        /* \"#utility.yul\":21066:21439   */\n    tag_290:\n        /* \"#utility.yul\":21152:21155   */\n      0x00\n        /* \"#utility.yul\":21180:21218   */\n      tag_486\n        /* \"#utility.yul\":21212:21217   */\n      dup3\n        /* \"#utility.yul\":21180:21218   */\n      tag_288\n      jump\t// in\n    tag_486:\n        /* \"#utility.yul\":21234:21304   */\n      tag_487\n        /* \"#utility.yul\":21297:21303   */\n      dup2\n        /* \"#utility.yul\":21292:21295   */\n      dup6\n        /* \"#utility.yul\":21234:21304   */\n      tag_289\n      jump\t// in\n    tag_487:\n        /* \"#utility.yul\":21227:21304   */\n      swap4\n      pop\n        /* \"#utility.yul\":21313:21378   */\n      tag_488\n        /* \"#utility.yul\":21371:21377   */\n      dup2\n        /* \"#utility.yul\":21366:21369   */\n      dup6\n        /* \"#utility.yul\":21359:21363   */\n      0x20\n        /* \"#utility.yul\":21352:21357   */\n      dup7\n        /* \"#utility.yul\":21348:21364   */\n      add\n        /* \"#utility.yul\":21313:21378   */\n      tag_245\n      jump\t// in\n    tag_488:\n        /* \"#utility.yul\":21403:21432   */\n      tag_489\n        /* \"#utility.yul\":21425:21431   */\n      dup2\n        /* \"#utility.yul\":21403:21432   */\n      tag_246\n      jump\t// in\n    tag_489:\n        /* \"#utility.yul\":21398:21401   */\n      dup5\n        /* \"#utility.yul\":21394:21433   */\n      add\n        /* \"#utility.yul\":21387:21433   */\n      swap2\n      pop\n        /* \"#utility.yul\":21156:21439   */\n      pop\n        /* \"#utility.yul\":21066:21439   */\n      swap3\n      swap2\n      pop\n      pop\n      jump\t// out\n        /* \"#utility.yul\":21445:22085   */\n    tag_218:\n        /* \"#utility.yul\":21640:21644   */\n      0x00\n        /* \"#utility.yul\":21678:21681   */\n      0x80\n        /* \"#utility.yul\":21667:21676   */\n      dup3\n        /* \"#utility.yul\":21663:21682   */\n      add\n        /* \"#utility.yul\":21655:21682   */\n      swap1\n      pop\n        /* \"#utility.yul\":21692:21763   */\n      tag_491\n        /* \"#utility.yul\":21760:21761   */\n      0x00\n        /* \"#utility.yul\":21749:21758   */\n      dup4\n        /* \"#utility.yul\":21745:21762   */\n      add\n        /* \"#utility.yul\":21736:21742   */\n      dup8\n        /* \"#utility.yul\":21692:21763   */\n      tag_287\n      jump\t// in\n    tag_491:\n        /* \"#utility.yul\":21773:21845   */\n      tag_492\n        /* \"#utility.yul\":21841:21843   */\n      0x20\n        /* \"#utility.yul\":21830:21839   */\n      dup4\n        /* \"#utility.yul\":21826:21844   */\n      add\n        /* \"#utility.yul\":21817:21823   */\n      dup7\n        /* \"#utility.yul\":21773:21845   */\n      tag_287\n      jump\t// in\n    tag_492:\n        /* \"#utility.yul\":21855:21927   */\n      tag_493\n        /* \"#utility.yul\":21923:21925   */\n      0x40\n        /* \"#utility.yul\":21912:21921   */\n      dup4\n        /* \"#utility.yul\":21908:21926   */\n      add\n        /* \"#utility.yul\":21899:21905   */\n      dup6\n        /* \"#utility.yul\":21855:21927   */\n      tag_255\n      jump\t// in\n    tag_493:\n        /* \"#utility.yul\":21974:21983   */\n      dup2\n        /* \"#utility.yul\":21968:21972   */\n      dup2\n        /* \"#utility.yul\":21964:21984   */\n      sub\n        /* \"#utility.yul\":21959:21961   */\n      0x60\n        /* \"#utility.yul\":21948:21957   */\n      dup4\n        /* \"#utility.yul\":21944:21962   */\n      add\n        /* \"#utility.yul\":21937:21985   */\n      mstore\n        /* \"#utility.yul\":22002:22078   */\n      tag_494\n        /* \"#utility.yul\":22073:22077   */\n      dup2\n        /* \"#utility.yul\":22064:22070   */\n      dup5\n        /* \"#utility.yul\":22002:22078   */\n      tag_290\n      jump\t// in\n    tag_494:\n        /* \"#utility.yul\":21994:22078   */\n      swap1\n      pop\n        /* \"#utility.yul\":21445:22085   */\n      swap6\n      swap5\n      pop\n      pop\n      pop\n      pop\n      pop\n      jump\t// out\n        /* \"#utility.yul\":22091:22232   */\n    tag_291:\n        /* \"#utility.yul\":22147:22152   */\n      0x00\n        /* \"#utility.yul\":22178:22184   */\n      dup2\n        /* \"#utility.yul\":22172:22185   */\n      mload\n        /* \"#utility.yul\":22163:22185   */\n      swap1\n      pop\n        /* \"#utility.yul\":22194:22226   */\n      tag_496\n        /* \"#utility.yul\":22220:22225   */\n      dup2\n        /* \"#utility.yul\":22194:22226   */\n      tag_239\n      jump\t// in\n    tag_496:\n        /* \"#utility.yul\":22091:22232   */\n      swap3\n      swap2\n      pop\n      pop\n      jump\t// out\n        /* \"#utility.yul\":22238:22587   */\n    tag_221:\n        /* \"#utility.yul\":22307:22313   */\n      0x00\n        /* \"#utility.yul\":22356:22358   */\n      0x20\n        /* \"#utility.yul\":22344:22353   */\n      dup3\n        /* \"#utility.yul\":22335:22342   */\n      dup5\n        /* \"#utility.yul\":22331:22354   */\n      sub\n        /* \"#utility.yul\":22327:22359   */\n      slt\n        /* \"#utility.yul\":22324:22443   */\n      iszero\n      tag_498\n      jumpi\n        /* \"#utility.yul\":22362:22441   */\n      tag_499\n      tag_236\n      jump\t// in\n    tag_499:\n        /* \"#utility.yul\":22324:22443   */\n    tag_498:\n        /* \"#utility.yul\":22482:22483   */\n      0x00\n        /* \"#utility.yul\":22507:22570   */\n      tag_500\n        /* \"#utility.yul\":22562:22569   */\n      dup5\n        /* \"#utility.yul\":22553:22559   */\n      dup3\n        /* \"#utility.yul\":22542:22551   */\n      dup6\n        /* \"#utility.yul\":22538:22560   */\n      add\n        /* \"#utility.yul\":22507:22570   */\n      tag_291\n      jump\t// in\n    tag_500:\n        /* \"#utility.yul\":22497:22570   */\n      swap2\n      pop\n        /* \"#utility.yul\":22453:22580   */\n      pop\n        /* \"#utility.yul\":22238:22587   */\n      swap3\n      swap2\n      pop\n      pop\n      jump\t// out\n        /* \"#utility.yul\":22593:22826   */\n    tag_292:\n        /* \"#utility.yul\":22733:22767   */\n      0x4b4950373a207472616e7366657220746f206e6f6e204b495037526563656976\n        /* \"#utility.yul\":22729:22730   */\n      0x00\n        /* \"#utility.yul\":22721:22727   */\n      dup3\n        /* \"#utility.yul\":22717:22731   */\n      add\n        /* \"#utility.yul\":22710:22768   */\n      mstore\n        /* \"#utility.yul\":22802:22818   */\n      0x657220696d706c656d656e746572000000000000000000000000000000000000\n        /* \"#utility.yul\":22797:22799   */\n      0x20\n        /* \"#utility.yul\":22789:22795   */\n      dup3\n        /* \"#utility.yul\":22785:22800   */\n      add\n        /* \"#utility.yul\":22778:22819   */\n      mstore\n        /* \"#utility.yul\":22593:22826   */\n      pop\n      jump\t// out\n        /* \"#utility.yul\":22832:23198   */\n    tag_293:\n        /* \"#utility.yul\":22974:22977   */\n      0x00\n        /* \"#utility.yul\":22995:23062   */\n      tag_503\n        /* \"#utility.yul\":23059:23061   */\n      0x2e\n        /* \"#utility.yul\":23054:23057   */\n      dup4\n        /* \"#utility.yul\":22995:23062   */\n      tag_244\n      jump\t// in\n    tag_503:\n        /* \"#utility.yul\":22988:23062   */\n      swap2\n      pop\n        /* \"#utility.yul\":23071:23164   */\n      tag_504\n        /* \"#utility.yul\":23160:23163   */\n      dup3\n        /* \"#utility.yul\":23071:23164   */\n      tag_292\n      jump\t// in\n    tag_504:\n        /* \"#utility.yul\":23189:23191   */\n      0x40\n        /* \"#utility.yul\":23184:23187   */\n      dup3\n        /* \"#utility.yul\":23180:23192   */\n      add\n        /* \"#utility.yul\":23173:23192   */\n      swap1\n      pop\n        /* \"#utility.yul\":22832:23198   */\n      swap2\n      swap1\n      pop\n      jump\t// out\n        /* \"#utility.yul\":23204:23623   */\n    tag_230:\n        /* \"#utility.yul\":23370:23374   */\n      0x00\n        /* \"#utility.yul\":23408:23410   */\n      0x20\n        /* \"#utility.yul\":23397:23406   */\n      dup3\n        /* \"#utility.yul\":23393:23411   */\n      add\n        /* \"#utility.yul\":23385:23411   */\n      swap1\n      pop\n        /* \"#utility.yul\":23457:23466   */\n      dup2\n        /* \"#utility.yul\":23451:23455   */\n      dup2\n        /* \"#utility.yul\":23447:23467   */\n      sub\n        /* \"#utility.yul\":23443:23444   */\n      0x00\n        /* \"#utility.yul\":23432:23441   */\n      dup4\n        /* \"#utility.yul\":23428:23445   */\n      add\n        /* \"#utility.yul\":23421:23468   */\n      mstore\n        /* \"#utility.yul\":23485:23616   */\n      tag_506\n        /* \"#utility.yul\":23611:23615   */\n      dup2\n        /* \"#utility.yul\":23485:23616   */\n      tag_293\n      jump\t// in\n    tag_506:\n        /* \"#utility.yul\":23477:23616   */\n      swap1\n      pop\n        /* \"#utility.yul\":23204:23623   */\n      swap2\n      swap1\n      pop\n      jump\t// out\n\n    auxdata: 0xa26469706673582212208412994b69fa621fac24425b81e1cc4871feb72e6b875e8b968b90969c8bbe5764736f6c63430008110033\n}\n",
				"bytecode": {
					"linkReferences": {},
					"object": "60806040523480156200001157600080fd5b50604051620023e7380380620023e78339818101604052810190620000379190620001f6565b8160039081620000489190620004c6565b5080600490816200005a9190620004c6565b505050620005ad565b6000604051905090565b600080fd5b600080fd5b600080fd5b600080fd5b6000601f19601f8301169050919050565b7f4e487b7100000000000000000000000000000000000000000000000000000000600052604160045260246000fd5b620000cc8262000081565b810181811067ffffffffffffffff82111715620000ee57620000ed62000092565b5b80604052505050565b60006200010362000063565b9050620001118282620000c1565b919050565b600067ffffffffffffffff82111562000134576200013362000092565b5b6200013f8262000081565b9050602081019050919050565b60005b838110156200016c5780820151818401526020810190506200014f565b60008484015250505050565b60006200018f620001898462000116565b620000f7565b905082815260208101848484011115620001ae57620001ad6200007c565b5b620001bb8482856200014c565b509392505050565b600082601f830112620001db57620001da62000077565b5b8151620001ed84826020860162000178565b91505092915050565b6000806040838503121562000210576200020f6200006d565b5b600083015167ffffffffffffffff81111562000231576200023062000072565b5b6200023f85828601620001c3565b925050602083015167ffffffffffffffff81111562000263576200026262000072565b5b6200027185828601620001c3565b9150509250929050565b600081519050919050565b7f4e487b7100000000000000000000000000000000000000000000000000000000600052602260045260246000fd5b60006002820490506001821680620002ce57607f821691505b602082108103620002e457620002e362000286565b5b50919050565b60008190508160005260206000209050919050565b60006020601f8301049050919050565b600082821b905092915050565b6000600883026200034e7fffffffffffffffffffffffffffffffffffffffffffffffffffffffffffffffff826200030f565b6200035a86836200030f565b95508019841693508086168417925050509392505050565b6000819050919050565b6000819050919050565b6000620003a7620003a16200039b8462000372565b6200037c565b62000372565b9050919050565b6000819050919050565b620003c38362000386565b620003db620003d282620003ae565b8484546200031c565b825550505050565b600090565b620003f2620003e3565b620003ff818484620003b8565b505050565b5b8181101562000427576200041b600082620003e8565b60018101905062000405565b5050565b601f82111562000476576200044081620002ea565b6200044b84620002ff565b810160208510156200045b578190505b620004736200046a85620002ff565b83018262000404565b50505b505050565b600082821c905092915050565b60006200049b600019846008026200047b565b1980831691505092915050565b6000620004b6838362000488565b9150826002028217905092915050565b620004d1826200027b565b67ffffffffffffffff811115620004ed57620004ec62000092565b5b620004f98254620002b5565b620005068282856200042b565b600060209050601f8311600181146200053e576000841562000529578287015190505b620005358582620004a8565b865550620005a5565b601f1984166200054e86620002ea565b60005b82811015620005785784890151825560018201915060208501945060208101905062000551565b8683101562000598578489015162000594601f89168262000488565b8355505b6001600288020188555050505b505050505050565b611e2a80620005bd6000396000f3fe608060405234801561001057600080fd5b506004361061010b5760003560e01c806342842e0e116100a2578063a457c2d711610071578063a457c2d7146102cc578063a9059cbb146102fc578063b88d4fde1461032c578063dd62ed3e14610348578063eb795549146103785761010b565b806342842e0e1461024657806370a082311461026257806395d89b4114610292578063a0712d68146102b05761010b565b806323b872dd116100de57806323b872dd146101ac578063313ce567146101dc57806339509351146101fa578063423f6cef1461022a5761010b565b806301ffc9a71461011057806306fdde0314610140578063095ea7b31461015e57806318160ddd1461018e575b600080fd5b61012a60048036038101906101259190611179565b610394565b60405161013791906111c1565b60405180910390f35b610148610476565b604051610155919061126c565b60405180910390f35b61017860048036038101906101739190611322565b610508565b60405161018591906111c1565b60405180910390f35b61019661052b565b6040516101a39190611371565b60405180910390f35b6101c660048036038101906101c1919061138c565b610535565b6040516101d391906111c1565b60405180910390f35b6101e4610564565b6040516101f191906113fb565b60405180910390f35b610214600480360381019061020f9190611322565b61056d565b60405161022191906111c1565b60405180910390f35b610244600480360381019061023f9190611322565b6105a4565b005b610260600480360381019061025b919061138c565b6105d0565b005b61027c60048036038101906102779190611416565b610608565b6040516102899190611371565b60405180910390f35b61029a610650565b6040516102a7919061126c565b60405180910390f35b6102ca60048036038101906102c59190611443565b6106e2565b005b6102e660048036038101906102e19190611322565b6106ef565b6040516102f391906111c1565b60405180910390f35b61031660048036038101906103119190611322565b610766565b60405161032391906111c1565b60405180910390f35b610346600480360381019061034191906115a5565b610789565b005b610362600480360381019061035d9190611628565b6107b3565b60405161036f9190611371565b60405180910390f35b610392600480360381019061038d9190611668565b61083a565b005b60007f65787371000000000000000000000000000000000000000000000000000000007bffffffffffffffffffffffffffffffffffffffffffffffffffffffff1916827bffffffffffffffffffffffffffffffffffffffffffffffffffffffff1916148061045f57507fa219a025000000000000000000000000000000000000000000000000000000007bffffffffffffffffffffffffffffffffffffffffffffffffffffffff1916827bffffffffffffffffffffffffffffffffffffffffffffffffffffffff1916145b8061046f575061046e82610858565b5b9050919050565b60606003805461048590611706565b80601f01602080910402602001604051908101604052809291908181526020018280546104b190611706565b80156104fe5780601f106104d3576101008083540402835291602001916104fe565b820191906000526020600020905b8154815290600101906020018083116104e157829003601f168201915b5050505050905090565b6000806105136108c2565b90506105208185856108ca565b600191505092915050565b6000600254905090565b6000806105406108c2565b905061054d858285610a93565b610558858585610b1f565b60019150509392505050565b60006012905090565b6000806105786108c2565b905061059981858561058a85896107b3565b6105949190611766565b6108ca565b600191505092915050565b60006105ae6108c2565b90506105cb81848460405180602001604052806000815250610d9e565b505050565b60006105da6108c2565b90506105e7848284610a93565b61060284848460405180602001604052806000815250610d9e565b50505050565b60008060008373ffffffffffffffffffffffffffffffffffffffff1673ffffffffffffffffffffffffffffffffffffffff168152602001908152602001600020549050919050565b60606004805461065f90611706565b80601f016020809104026020016040519081016040528092919081815260200182805461068b90611706565b80156106d85780601f106106ad576101008083540402835291602001916106d8565b820191906000526020600020905b8154815290600101906020018083116106bb57829003601f168201915b5050505050905090565b6106ec3382610dfa565b50565b6000806106fa6108c2565b9050600061070882866107b3565b90508381101561074d576040517f08c379a00000000000000000000000000000000000000000000000000000000081526004016107449061180c565b60405180910390fd5b61075a82868684036108ca565b60019250505092915050565b6000806107716108c2565b905061077e818585610b1f565b600191505092915050565b60006107936108c2565b90506107a0858285610a93565b6107ac85858585610d9e565b5050505050565b6000600160008473ffffffffffffffffffffffffffffffffffffffff1673ffffffffffffffffffffffffffffffffffffffff16815260200190815260200160002060008373ffffffffffffffffffffffffffffffffffffffff1673ffffffffffffffffffffffffffffffffffffffff16815260200190815260200160002054905092915050565b60006108446108c2565b905061085281858585610d9e565b50505050565b60007f01ffc9a7000000000000000000000000000000000000000000000000000000007bffffffffffffffffffffffffffffffffffffffffffffffffffffffff1916827bffffffffffffffffffffffffffffffffffffffffffffffffffffffff1916149050919050565b600033905090565b600073ffffffffffffffffffffffffffffffffffffffff168373ffffffffffffffffffffffffffffffffffffffff1603610939576040517f08c379a00000000000000000000000000000000000000000000000000000000081526004016109309061189e565b60405180910390fd5b600073ffffffffffffffffffffffffffffffffffffffff168273ffffffffffffffffffffffffffffffffffffffff16036109a8576040517f08c379a000000000000000000000000000000000000000000000000000000000815260040161099f90611930565b60405180910390fd5b80600160008573ffffffffffffffffffffffffffffffffffffffff1673ffffffffffffffffffffffffffffffffffffffff16815260200190815260200160002060008473ffffffffffffffffffffffffffffffffffffffff1673ffffffffffffffffffffffffffffffffffffffff168152602001908152602001600020819055508173ffffffffffffffffffffffffffffffffffffffff168373ffffffffffffffffffffffffffffffffffffffff167f8c5be1e5ebec7d5bd14f71427d1e84f3dd0314c0f7b2291e5b200ac8c7c3b92583604051610a869190611371565b60405180910390a3505050565b6000610a9f84846107b3565b90507fffffffffffffffffffffffffffffffffffffffffffffffffffffffffffffffff8114610b195781811015610b0b576040517f08c379a0000000000000000000000000000000000000000000000000000000008152600401610b029061199c565b60405180910390fd5b610b1884848484036108ca565b5b50505050565b600073ffffffffffffffffffffffffffffffffffffffff168373ffffffffffffffffffffffffffffffffffffffff1603610b8e576040517f08c379a0000000000000000000000000000000000000000000000000000000008152600401610b8590611a2e565b60405180910390fd5b600073ffffffffffffffffffffffffffffffffffffffff168273ffffffffffffffffffffffffffffffffffffffff1603610bfd576040517f08c379a0000000000000000000000000000000000000000000000000000000008152600401610bf490611ac0565b60405180910390fd5b610c08838383610f59565b60008060008573ffffffffffffffffffffffffffffffffffffffff1673ffffffffffffffffffffffffffffffffffffffff16815260200190815260200160002054905081811015610c8e576040517f08c379a0000000000000000000000000000000000000000000000000000000008152600401610c8590611b52565b60405180910390fd5b8181036000808673ffffffffffffffffffffffffffffffffffffffff1673ffffffffffffffffffffffffffffffffffffffff16815260200190815260200160002081905550816000808573ffffffffffffffffffffffffffffffffffffffff1673ffffffffffffffffffffffffffffffffffffffff1681526020019081526020016000206000828254610d219190611766565b925050819055508273ffffffffffffffffffffffffffffffffffffffff168473ffffffffffffffffffffffffffffffffffffffff167fddf252ad1be2c89b69c2b068fc378daa952ba7f163c4a11628f55a4df523b3ef84604051610d859190611371565b60405180910390a3610d98848484610f5e565b50505050565b610da9848484610b1f565b610db584848484610f63565b610df4576040517f08c379a0000000000000000000000000000000000000000000000000000000008152600401610deb90611be4565b60405180910390fd5b50505050565b600073ffffffffffffffffffffffffffffffffffffffff168273ffffffffffffffffffffffffffffffffffffffff1603610e69576040517f08c379a0000000000000000000000000000000000000000000000000000000008152600401610e6090611c50565b60405180910390fd5b610e7560008383610f59565b8060026000828254610e879190611766565b92505081905550806000808473ffffffffffffffffffffffffffffffffffffffff1673ffffffffffffffffffffffffffffffffffffffff1681526020019081526020016000206000828254610edc9190611766565b925050819055508173ffffffffffffffffffffffffffffffffffffffff16600073ffffffffffffffffffffffffffffffffffffffff167fddf252ad1be2c89b69c2b068fc378daa952ba7f163c4a11628f55a4df523b3ef83604051610f419190611371565b60405180910390a3610f5560008383610f5e565b5050565b505050565b505050565b6000610f848473ffffffffffffffffffffffffffffffffffffffff166110ea565b156110dd578373ffffffffffffffffffffffffffffffffffffffff16639d188c22610fad6108c2565b8786866040518563ffffffff1660e01b8152600401610fcf9493929190611cd4565b6020604051808303816000875af192505050801561100b57506040513d601f19601f820116820180604052508101906110089190611d35565b60015b61108d573d806000811461103b576040519150601f19603f3d011682016040523d82523d6000602084013e611040565b606091505b506000815103611085576040517f08c379a000000000000000000000000000000000000000000000000000000000815260040161107c90611dd4565b60405180910390fd5b805181602001fd5b639d188c2260e01b7bffffffffffffffffffffffffffffffffffffffffffffffffffffffff1916817bffffffffffffffffffffffffffffffffffffffffffffffffffffffff1916149150506110e2565b600190505b949350505050565b6000808273ffffffffffffffffffffffffffffffffffffffff163b119050919050565b6000604051905090565b600080fd5b600080fd5b60007fffffffff0000000000000000000000000000000000000000000000000000000082169050919050565b61115681611121565b811461116157600080fd5b50565b6000813590506111738161114d565b92915050565b60006020828403121561118f5761118e611117565b5b600061119d84828501611164565b91505092915050565b60008115159050919050565b6111bb816111a6565b82525050565b60006020820190506111d660008301846111b2565b92915050565b600081519050919050565b600082825260208201905092915050565b60005b838110156112165780820151818401526020810190506111fb565b60008484015250505050565b6000601f19601f8301169050919050565b600061123e826111dc565b61124881856111e7565b93506112588185602086016111f8565b61126181611222565b840191505092915050565b600060208201905081810360008301526112868184611233565b905092915050565b600073ffffffffffffffffffffffffffffffffffffffff82169050919050565b60006112b98261128e565b9050919050565b6112c9816112ae565b81146112d457600080fd5b50565b6000813590506112e6816112c0565b92915050565b6000819050919050565b6112ff816112ec565b811461130a57600080fd5b50565b60008135905061131c816112f6565b92915050565b6000806040838503121561133957611338611117565b5b6000611347858286016112d7565b92505060206113588582860161130d565b9150509250929050565b61136b816112ec565b82525050565b60006020820190506113866000830184611362565b92915050565b6000806000606084860312156113a5576113a4611117565b5b60006113b3868287016112d7565b93505060206113c4868287016112d7565b92505060406113d58682870161130d565b9150509250925092565b600060ff82169050919050565b6113f5816113df565b82525050565b600060208201905061141060008301846113ec565b92915050565b60006020828403121561142c5761142b611117565b5b600061143a848285016112d7565b91505092915050565b60006020828403121561145957611458611117565b5b60006114678482850161130d565b91505092915050565b600080fd5b600080fd5b7f4e487b7100000000000000000000000000000000000000000000000000000000600052604160045260246000fd5b6114b282611222565b810181811067ffffffffffffffff821117156114d1576114d061147a565b5b80604052505050565b60006114e461110d565b90506114f082826114a9565b919050565b600067ffffffffffffffff8211156115105761150f61147a565b5b61151982611222565b9050602081019050919050565b82818337600083830152505050565b6000611548611543846114f5565b6114da565b90508281526020810184848401111561156457611563611475565b5b61156f848285611526565b509392505050565b600082601f83011261158c5761158b611470565b5b813561159c848260208601611535565b91505092915050565b600080600080608085870312156115bf576115be611117565b5b60006115cd878288016112d7565b94505060206115de878288016112d7565b93505060406115ef8782880161130d565b925050606085013567ffffffffffffffff8111156116105761160f61111c565b5b61161c87828801611577565b91505092959194509250565b6000806040838503121561163f5761163e611117565b5b600061164d858286016112d7565b925050602061165e858286016112d7565b9150509250929050565b60008060006060848603121561168157611680611117565b5b600061168f868287016112d7565b93505060206116a08682870161130d565b925050604084013567ffffffffffffffff8111156116c1576116c061111c565b5b6116cd86828701611577565b9150509250925092565b7f4e487b7100000000000000000000000000000000000000000000000000000000600052602260045260246000fd5b6000600282049050600182168061171e57607f821691505b602082108103611731576117306116d7565b5b50919050565b7f4e487b7100000000000000000000000000000000000000000000000000000000600052601160045260246000fd5b6000611771826112ec565b915061177c836112ec565b925082820190508082111561179457611793611737565b5b92915050565b7f4b4950373a2064656372656173656420616c6c6f77616e63652062656c6f772060008201527f7a65726f00000000000000000000000000000000000000000000000000000000602082015250565b60006117f66024836111e7565b91506118018261179a565b604082019050919050565b60006020820190508181036000830152611825816117e9565b9050919050565b7f4b4950373a20617070726f76652066726f6d20746865207a65726f206164647260008201527f6573730000000000000000000000000000000000000000000000000000000000602082015250565b60006118886023836111e7565b91506118938261182c565b604082019050919050565b600060208201905081810360008301526118b78161187b565b9050919050565b7f4b4950373a20617070726f766520746f20746865207a65726f2061646472657360008201527f7300000000000000000000000000000000000000000000000000000000000000602082015250565b600061191a6021836111e7565b9150611925826118be565b604082019050919050565b600060208201905081810360008301526119498161190d565b9050919050565b7f4b4950373a20696e73756666696369656e7420616c6c6f77616e636500000000600082015250565b6000611986601c836111e7565b915061199182611950565b602082019050919050565b600060208201905081810360008301526119b581611979565b9050919050565b7f4b4950373a207472616e736665722066726f6d20746865207a65726f2061646460008201527f7265737300000000000000000000000000000000000000000000000000000000602082015250565b6000611a186024836111e7565b9150611a23826119bc565b604082019050919050565b60006020820190508181036000830152611a4781611a0b565b9050919050565b7f4b4950373a207472616e7366657220746f20746865207a65726f20616464726560008201527f7373000000000000000000000000000000000000000000000000000000000000602082015250565b6000611aaa6022836111e7565b9150611ab582611a4e565b604082019050919050565b60006020820190508181036000830152611ad981611a9d565b9050919050565b7f4b4950373a207472616e7366657220616d6f756e74206578636565647320626160008201527f6c616e6365000000000000000000000000000000000000000000000000000000602082015250565b6000611b3c6025836111e7565b9150611b4782611ae0565b604082019050919050565b60006020820190508181036000830152611b6b81611b2f565b9050919050565b7f4b4950373a207472616e7366657220746f206e6f6e20494b495037526563656960008201527f76657220696d706c656d656e7465720000000000000000000000000000000000602082015250565b6000611bce602f836111e7565b9150611bd982611b72565b604082019050919050565b60006020820190508181036000830152611bfd81611bc1565b9050919050565b7f4b4950373a206d696e7420746f20746865207a65726f20616464726573730000600082015250565b6000611c3a601e836111e7565b9150611c4582611c04565b602082019050919050565b60006020820190508181036000830152611c6981611c2d565b9050919050565b611c79816112ae565b82525050565b600081519050919050565b600082825260208201905092915050565b6000611ca682611c7f565b611cb08185611c8a565b9350611cc08185602086016111f8565b611cc981611222565b840191505092915050565b6000608082019050611ce96000830187611c70565b611cf66020830186611c70565b611d036040830185611362565b8181036060830152611d158184611c9b565b905095945050505050565b600081519050611d2f8161114d565b92915050565b600060208284031215611d4b57611d4a611117565b5b6000611d5984828501611d20565b91505092915050565b7f4b4950373a207472616e7366657220746f206e6f6e204b49503752656365697660008201527f657220696d706c656d656e746572000000000000000000000000000000000000602082015250565b6000611dbe602e836111e7565b9150611dc982611d62565b604082019050919050565b60006020820190508181036000830152611ded81611db1565b905091905056fea26469706673582212208412994b69fa621fac24425b81e1cc4871feb72e6b875e8b968b90969c8bbe5764736f6c63430008110033",
					"opcodes": "PUSH1 0x80 PUSH1 0x40 MSTORE CALLVALUE DUP1 ISZERO PUSH3 0x11 JUMPI PUSH1 0x0 DUP1 REVERT JUMPDEST POP PUSH1 0x40 MLOAD PUSH3 0x23E7 CODESIZE SUB DUP1 PUSH3 0x23E7 DUP4 CODECOPY DUP2 DUP2 ADD PUSH1 0x40 MSTORE DUP2 ADD SWAP1 PUSH3 0x37 SWAP2 SWAP1 PUSH3 0x1F6 JUMP JUMPDEST DUP2 PUSH1 0x3 SWAP1 DUP2 PUSH3 0x48 SWAP2 SWAP1 PUSH3 0x4C6 JUMP JUMPDEST POP DUP1 PUSH1 0x4 SWAP1 DUP2 PUSH3 0x5A SWAP2 SWAP1 PUSH3 0x4C6 JUMP JUMPDEST POP POP POP PUSH3 0x5AD JUMP JUMPDEST PUSH1 0x0 PUSH1 0x40 MLOAD SWAP1 POP SWAP1 JUMP JUMPDEST PUSH1 0x0 DUP1 REVERT JUMPDEST PUSH1 0x0 DUP1 REVERT JUMPDEST PUSH1 0x0 DUP1 REVERT JUMPDEST PUSH1 0x0 DUP1 REVERT JUMPDEST PUSH1 0x0 PUSH1 0x1F NOT PUSH1 0x1F DUP4 ADD AND SWAP1 POP SWAP2 SWAP1 POP JUMP JUMPDEST PUSH32 0x4E487B7100000000000000000000000000000000000000000000000000000000 PUSH1 0x0 MSTORE PUSH1 0x41 PUSH1 0x4 MSTORE PUSH1 0x24 PUSH1 0x0 REVERT JUMPDEST PUSH3 0xCC DUP3 PUSH3 0x81 JUMP JUMPDEST DUP2 ADD DUP2 DUP2 LT PUSH8 0xFFFFFFFFFFFFFFFF DUP3 GT OR ISZERO PUSH3 0xEE JUMPI PUSH3 0xED PUSH3 0x92 JUMP JUMPDEST JUMPDEST DUP1 PUSH1 0x40 MSTORE POP POP POP JUMP JUMPDEST PUSH1 0x0 PUSH3 0x103 PUSH3 0x63 JUMP JUMPDEST SWAP1 POP PUSH3 0x111 DUP3 DUP3 PUSH3 0xC1 JUMP JUMPDEST SWAP2 SWAP1 POP JUMP JUMPDEST PUSH1 0x0 PUSH8 0xFFFFFFFFFFFFFFFF DUP3 GT ISZERO PUSH3 0x134 JUMPI PUSH3 0x133 PUSH3 0x92 JUMP JUMPDEST JUMPDEST PUSH3 0x13F DUP3 PUSH3 0x81 JUMP JUMPDEST SWAP1 POP PUSH1 0x20 DUP2 ADD SWAP1 POP SWAP2 SWAP1 POP JUMP JUMPDEST PUSH1 0x0 JUMPDEST DUP4 DUP2 LT ISZERO PUSH3 0x16C JUMPI DUP1 DUP3 ADD MLOAD DUP2 DUP5 ADD MSTORE PUSH1 0x20 DUP2 ADD SWAP1 POP PUSH3 0x14F JUMP JUMPDEST PUSH1 0x0 DUP5 DUP5 ADD MSTORE POP POP POP POP JUMP JUMPDEST PUSH1 0x0 PUSH3 0x18F PUSH3 0x189 DUP5 PUSH3 0x116 JUMP JUMPDEST PUSH3 0xF7 JUMP JUMPDEST SWAP1 POP DUP3 DUP2 MSTORE PUSH1 0x20 DUP2 ADD DUP5 DUP5 DUP5 ADD GT ISZERO PUSH3 0x1AE JUMPI PUSH3 0x1AD PUSH3 0x7C JUMP JUMPDEST JUMPDEST PUSH3 0x1BB DUP5 DUP3 DUP6 PUSH3 0x14C JUMP JUMPDEST POP SWAP4 SWAP3 POP POP POP JUMP JUMPDEST PUSH1 0x0 DUP3 PUSH1 0x1F DUP4 ADD SLT PUSH3 0x1DB JUMPI PUSH3 0x1DA PUSH3 0x77 JUMP JUMPDEST JUMPDEST DUP2 MLOAD PUSH3 0x1ED DUP5 DUP3 PUSH1 0x20 DUP7 ADD PUSH3 0x178 JUMP JUMPDEST SWAP2 POP POP SWAP3 SWAP2 POP POP JUMP JUMPDEST PUSH1 0x0 DUP1 PUSH1 0x40 DUP4 DUP6 SUB SLT ISZERO PUSH3 0x210 JUMPI PUSH3 0x20F PUSH3 0x6D JUMP JUMPDEST JUMPDEST PUSH1 0x0 DUP4 ADD MLOAD PUSH8 0xFFFFFFFFFFFFFFFF DUP2 GT ISZERO PUSH3 0x231 JUMPI PUSH3 0x230 PUSH3 0x72 JUMP JUMPDEST JUMPDEST PUSH3 0x23F DUP6 DUP3 DUP7 ADD PUSH3 0x1C3 JUMP JUMPDEST SWAP3 POP POP PUSH1 0x20 DUP4 ADD MLOAD PUSH8 0xFFFFFFFFFFFFFFFF DUP2 GT ISZERO PUSH3 0x263 JUMPI PUSH3 0x262 PUSH3 0x72 JUMP JUMPDEST JUMPDEST PUSH3 0x271 DUP6 DUP3 DUP7 ADD PUSH3 0x1C3 JUMP JUMPDEST SWAP2 POP POP SWAP3 POP SWAP3 SWAP1 POP JUMP JUMPDEST PUSH1 0x0 DUP2 MLOAD SWAP1 POP SWAP2 SWAP1 POP JUMP JUMPDEST PUSH32 0x4E487B7100000000000000000000000000000000000000000000000000000000 PUSH1 0x0 MSTORE PUSH1 0x22 PUSH1 0x4 MSTORE PUSH1 0x24 PUSH1 0x0 REVERT JUMPDEST PUSH1 0x0 PUSH1 0x2 DUP3 DIV SWAP1 POP PUSH1 0x1 DUP3 AND DUP1 PUSH3 0x2CE JUMPI PUSH1 0x7F DUP3 AND SWAP2 POP JUMPDEST PUSH1 0x20 DUP3 LT DUP2 SUB PUSH3 0x2E4 JUMPI PUSH3 0x2E3 PUSH3 0x286 JUMP JUMPDEST JUMPDEST POP SWAP2 SWAP1 POP JUMP JUMPDEST PUSH1 0x0 DUP2 SWAP1 POP DUP2 PUSH1 0x0 MSTORE PUSH1 0x20 PUSH1 0x0 KECCAK256 SWAP1 POP SWAP2 SWAP1 POP JUMP JUMPDEST PUSH1 0x0 PUSH1 0x20 PUSH1 0x1F DUP4 ADD DIV SWAP1 POP SWAP2 SWAP1 POP JUMP JUMPDEST PUSH1 0x0 DUP3 DUP3 SHL SWAP1 POP SWAP3 SWAP2 POP POP JUMP JUMPDEST PUSH1 0x0 PUSH1 0x8 DUP4 MUL PUSH3 0x34E PUSH32 0xFFFFFFFFFFFFFFFFFFFFFFFFFFFFFFFFFFFFFFFFFFFFFFFFFFFFFFFFFFFFFFFF DUP3 PUSH3 0x30F JUMP JUMPDEST PUSH3 0x35A DUP7 DUP4 PUSH3 0x30F JUMP JUMPDEST SWAP6 POP DUP1 NOT DUP5 AND SWAP4 POP DUP1 DUP7 AND DUP5 OR SWAP3 POP POP POP SWAP4 SWAP3 POP POP POP JUMP JUMPDEST PUSH1 0x0 DUP2 SWAP1 POP SWAP2 SWAP1 POP JUMP JUMPDEST PUSH1 0x0 DUP2 SWAP1 POP SWAP2 SWAP1 POP JUMP JUMPDEST PUSH1 0x0 PUSH3 0x3A7 PUSH3 0x3A1 PUSH3 0x39B DUP5 PUSH3 0x372 JUMP JUMPDEST PUSH3 0x37C JUMP JUMPDEST PUSH3 0x372 JUMP JUMPDEST SWAP1 POP SWAP2 SWAP1 POP JUMP JUMPDEST PUSH1 0x0 DUP2 SWAP1 POP SWAP2 SWAP1 POP JUMP JUMPDEST PUSH3 0x3C3 DUP4 PUSH3 0x386 JUMP JUMPDEST PUSH3 0x3DB PUSH3 0x3D2 DUP3 PUSH3 0x3AE JUMP JUMPDEST DUP5 DUP5 SLOAD PUSH3 0x31C JUMP JUMPDEST DUP3 SSTORE POP POP POP POP JUMP JUMPDEST PUSH1 0x0 SWAP1 JUMP JUMPDEST PUSH3 0x3F2 PUSH3 0x3E3 JUMP JUMPDEST PUSH3 0x3FF DUP2 DUP5 DUP5 PUSH3 0x3B8 JUMP JUMPDEST POP POP POP JUMP JUMPDEST JUMPDEST DUP2 DUP2 LT ISZERO PUSH3 0x427 JUMPI PUSH3 0x41B PUSH1 0x0 DUP3 PUSH3 0x3E8 JUMP JUMPDEST PUSH1 0x1 DUP2 ADD SWAP1 POP PUSH3 0x405 JUMP JUMPDEST POP POP JUMP JUMPDEST PUSH1 0x1F DUP3 GT ISZERO PUSH3 0x476 JUMPI PUSH3 0x440 DUP2 PUSH3 0x2EA JUMP JUMPDEST PUSH3 0x44B DUP5 PUSH3 0x2FF JUMP JUMPDEST DUP2 ADD PUSH1 0x20 DUP6 LT ISZERO PUSH3 0x45B JUMPI DUP2 SWAP1 POP JUMPDEST PUSH3 0x473 PUSH3 0x46A DUP6 PUSH3 0x2FF JUMP JUMPDEST DUP4 ADD DUP3 PUSH3 0x404 JUMP JUMPDEST POP POP JUMPDEST POP POP POP JUMP JUMPDEST PUSH1 0x0 DUP3 DUP3 SHR SWAP1 POP SWAP3 SWAP2 POP POP JUMP JUMPDEST PUSH1 0x0 PUSH3 0x49B PUSH1 0x0 NOT DUP5 PUSH1 0x8 MUL PUSH3 0x47B JUMP JUMPDEST NOT DUP1 DUP4 AND SWAP2 POP POP SWAP3 SWAP2 POP POP JUMP JUMPDEST PUSH1 0x0 PUSH3 0x4B6 DUP4 DUP4 PUSH3 0x488 JUMP JUMPDEST SWAP2 POP DUP3 PUSH1 0x2 MUL DUP3 OR SWAP1 POP SWAP3 SWAP2 POP POP JUMP JUMPDEST PUSH3 0x4D1 DUP3 PUSH3 0x27B JUMP JUMPDEST PUSH8 0xFFFFFFFFFFFFFFFF DUP2 GT ISZERO PUSH3 0x4ED JUMPI PUSH3 0x4EC PUSH3 0x92 JUMP JUMPDEST JUMPDEST PUSH3 0x4F9 DUP3 SLOAD PUSH3 0x2B5 JUMP JUMPDEST PUSH3 0x506 DUP3 DUP3 DUP6 PUSH3 0x42B JUMP JUMPDEST PUSH1 0x0 PUSH1 0x20 SWAP1 POP PUSH1 0x1F DUP4 GT PUSH1 0x1 DUP2 EQ PUSH3 0x53E JUMPI PUSH1 0x0 DUP5 ISZERO PUSH3 0x529 JUMPI DUP3 DUP8 ADD MLOAD SWAP1 POP JUMPDEST PUSH3 0x535 DUP6 DUP3 PUSH3 0x4A8 JUMP JUMPDEST DUP7 SSTORE POP PUSH3 0x5A5 JUMP JUMPDEST PUSH1 0x1F NOT DUP5 AND PUSH3 0x54E DUP7 PUSH3 0x2EA JUMP JUMPDEST PUSH1 0x0 JUMPDEST DUP3 DUP2 LT ISZERO PUSH3 0x578 JUMPI DUP5 DUP10 ADD MLOAD DUP3 SSTORE PUSH1 0x1 DUP3 ADD SWAP2 POP PUSH1 0x20 DUP6 ADD SWAP5 POP PUSH1 0x20 DUP2 ADD SWAP1 POP PUSH3 0x551 JUMP JUMPDEST DUP7 DUP4 LT ISZERO PUSH3 0x598 JUMPI DUP5 DUP10 ADD MLOAD PUSH3 0x594 PUSH1 0x1F DUP10 AND DUP3 PUSH3 0x488 JUMP JUMPDEST DUP4 SSTORE POP JUMPDEST PUSH1 0x1 PUSH1 0x2 DUP9 MUL ADD DUP9 SSTORE POP POP POP JUMPDEST POP POP POP POP POP POP JUMP JUMPDEST PUSH2 0x1E2A DUP1 PUSH3 0x5BD PUSH1 0x0 CODECOPY PUSH1 0x0 RETURN INVALID PUSH1 0x80 PUSH1 0x40 MSTORE CALLVALUE DUP1 ISZERO PUSH2 0x10 JUMPI PUSH1 0x0 DUP1 REVERT JUMPDEST POP PUSH1 0x4 CALLDATASIZE LT PUSH2 0x10B JUMPI PUSH1 0x0 CALLDATALOAD PUSH1 0xE0 SHR DUP1 PUSH4 0x42842E0E GT PUSH2 0xA2 JUMPI DUP1 PUSH4 0xA457C2D7 GT PUSH2 0x71 JUMPI DUP1 PUSH4 0xA457C2D7 EQ PUSH2 0x2CC JUMPI DUP1 PUSH4 0xA9059CBB EQ PUSH2 0x2FC JUMPI DUP1 PUSH4 0xB88D4FDE EQ PUSH2 0x32C JUMPI DUP1 PUSH4 0xDD62ED3E EQ PUSH2 0x348 JUMPI DUP1 PUSH4 0xEB795549 EQ PUSH2 0x378 JUMPI PUSH2 0x10B JUMP JUMPDEST DUP1 PUSH4 0x42842E0E EQ PUSH2 0x246 JUMPI DUP1 PUSH4 0x70A08231 EQ PUSH2 0x262 JUMPI DUP1 PUSH4 0x95D89B41 EQ PUSH2 0x292 JUMPI DUP1 PUSH4 0xA0712D68 EQ PUSH2 0x2B0 JUMPI PUSH2 0x10B JUMP JUMPDEST DUP1 PUSH4 0x23B872DD GT PUSH2 0xDE JUMPI DUP1 PUSH4 0x23B872DD EQ PUSH2 0x1AC JUMPI DUP1 PUSH4 0x313CE567 EQ PUSH2 0x1DC JUMPI DUP1 PUSH4 0x39509351 EQ PUSH2 0x1FA JUMPI DUP1 PUSH4 0x423F6CEF EQ PUSH2 0x22A JUMPI PUSH2 0x10B JUMP JUMPDEST DUP1 PUSH4 0x1FFC9A7 EQ PUSH2 0x110 JUMPI DUP1 PUSH4 0x6FDDE03 EQ PUSH2 0x140 JUMPI DUP1 PUSH4 0x95EA7B3 EQ PUSH2 0x15E JUMPI DUP1 PUSH4 0x18160DDD EQ PUSH2 0x18E JUMPI JUMPDEST PUSH1 0x0 DUP1 REVERT JUMPDEST PUSH2 0x12A PUSH1 0x4 DUP1 CALLDATASIZE SUB DUP2 ADD SWAP1 PUSH2 0x125 SWAP2 SWAP1 PUSH2 0x1179 JUMP JUMPDEST PUSH2 0x394 JUMP JUMPDEST PUSH1 0x40 MLOAD PUSH2 0x137 SWAP2 SWAP1 PUSH2 0x11C1 JUMP JUMPDEST PUSH1 0x40 MLOAD DUP1 SWAP2 SUB SWAP1 RETURN JUMPDEST PUSH2 0x148 PUSH2 0x476 JUMP JUMPDEST PUSH1 0x40 MLOAD PUSH2 0x155 SWAP2 SWAP1 PUSH2 0x126C JUMP JUMPDEST PUSH1 0x40 MLOAD DUP1 SWAP2 SUB SWAP1 RETURN JUMPDEST PUSH2 0x178 PUSH1 0x4 DUP1 CALLDATASIZE SUB DUP2 ADD SWAP1 PUSH2 0x173 SWAP2 SWAP1 PUSH2 0x1322 JUMP JUMPDEST PUSH2 0x508 JUMP JUMPDEST PUSH1 0x40 MLOAD PUSH2 0x185 SWAP2 SWAP1 PUSH2 0x11C1 JUMP JUMPDEST PUSH1 0x40 MLOAD DUP1 SWAP2 SUB SWAP1 RETURN JUMPDEST PUSH2 0x196 PUSH2 0x52B JUMP JUMPDEST PUSH1 0x40 MLOAD PUSH2 0x1A3 SWAP2 SWAP1 PUSH2 0x1371 JUMP JUMPDEST PUSH1 0x40 MLOAD DUP1 SWAP2 SUB SWAP1 RETURN JUMPDEST PUSH2 0x1C6 PUSH1 0x4 DUP1 CALLDATASIZE SUB DUP2 ADD SWAP1 PUSH2 0x1C1 SWAP2 SWAP1 PUSH2 0x138C JUMP JUMPDEST PUSH2 0x535 JUMP JUMPDEST PUSH1 0x40 MLOAD PUSH2 0x1D3 SWAP2 SWAP1 PUSH2 0x11C1 JUMP JUMPDEST PUSH1 0x40 MLOAD DUP1 SWAP2 SUB SWAP1 RETURN JUMPDEST PUSH2 0x1E4 PUSH2 0x564 JUMP JUMPDEST PUSH1 0x40 MLOAD PUSH2 0x1F1 SWAP2 SWAP1 PUSH2 0x13FB JUMP JUMPDEST PUSH1 0x40 MLOAD DUP1 SWAP2 SUB SWAP1 RETURN JUMPDEST PUSH2 0x214 PUSH1 0x4 DUP1 CALLDATASIZE SUB DUP2 ADD SWAP1 PUSH2 0x20F SWAP2 SWAP1 PUSH2 0x1322 JUMP JUMPDEST PUSH2 0x56D JUMP JUMPDEST PUSH1 0x40 MLOAD PUSH2 0x221 SWAP2 SWAP1 PUSH2 0x11C1 JUMP JUMPDEST PUSH1 0x40 MLOAD DUP1 SWAP2 SUB SWAP1 RETURN JUMPDEST PUSH2 0x244 PUSH1 0x4 DUP1 CALLDATASIZE SUB DUP2 ADD SWAP1 PUSH2 0x23F SWAP2 SWAP1 PUSH2 0x1322 JUMP JUMPDEST PUSH2 0x5A4 JUMP JUMPDEST STOP JUMPDEST PUSH2 0x260 PUSH1 0x4 DUP1 CALLDATASIZE SUB DUP2 ADD SWAP1 PUSH2 0x25B SWAP2 SWAP1 PUSH2 0x138C JUMP JUMPDEST PUSH2 0x5D0 JUMP JUMPDEST STOP JUMPDEST PUSH2 0x27C PUSH1 0x4 DUP1 CALLDATASIZE SUB DUP2 ADD SWAP1 PUSH2 0x277 SWAP2 SWAP1 PUSH2 0x1416 JUMP JUMPDEST PUSH2 0x608 JUMP JUMPDEST PUSH1 0x40 MLOAD PUSH2 0x289 SWAP2 SWAP1 PUSH2 0x1371 JUMP JUMPDEST PUSH1 0x40 MLOAD DUP1 SWAP2 SUB SWAP1 RETURN JUMPDEST PUSH2 0x29A PUSH2 0x650 JUMP JUMPDEST PUSH1 0x40 MLOAD PUSH2 0x2A7 SWAP2 SWAP1 PUSH2 0x126C JUMP JUMPDEST PUSH1 0x40 MLOAD DUP1 SWAP2 SUB SWAP1 RETURN JUMPDEST PUSH2 0x2CA PUSH1 0x4 DUP1 CALLDATASIZE SUB DUP2 ADD SWAP1 PUSH2 0x2C5 SWAP2 SWAP1 PUSH2 0x1443 JUMP JUMPDEST PUSH2 0x6E2 JUMP JUMPDEST STOP JUMPDEST PUSH2 0x2E6 PUSH1 0x4 DUP1 CALLDATASIZE SUB DUP2 ADD SWAP1 PUSH2 0x2E1 SWAP2 SWAP1 PUSH2 0x1322 JUMP JUMPDEST PUSH2 0x6EF JUMP JUMPDEST PUSH1 0x40 MLOAD PUSH2 0x2F3 SWAP2 SWAP1 PUSH2 0x11C1 JUMP JUMPDEST PUSH1 0x40 MLOAD DUP1 SWAP2 SUB SWAP1 RETURN JUMPDEST PUSH2 0x316 PUSH1 0x4 DUP1 CALLDATASIZE SUB DUP2 ADD SWAP1 PUSH2 0x311 SWAP2 SWAP1 PUSH2 0x1322 JUMP JUMPDEST PUSH2 0x766 JUMP JUMPDEST PUSH1 0x40 MLOAD PUSH2 0x323 SWAP2 SWAP1 PUSH2 0x11C1 JUMP JUMPDEST PUSH1 0x40 MLOAD DUP1 SWAP2 SUB SWAP1 RETURN JUMPDEST PUSH2 0x346 PUSH1 0x4 DUP1 CALLDATASIZE SUB DUP2 ADD SWAP1 PUSH2 0x341 SWAP2 SWAP1 PUSH2 0x15A5 JUMP JUMPDEST PUSH2 0x789 JUMP JUMPDEST STOP JUMPDEST PUSH2 0x362 PUSH1 0x4 DUP1 CALLDATASIZE SUB DUP2 ADD SWAP1 PUSH2 0x35D SWAP2 SWAP1 PUSH2 0x1628 JUMP JUMPDEST PUSH2 0x7B3 JUMP JUMPDEST PUSH1 0x40 MLOAD PUSH2 0x36F SWAP2 SWAP1 PUSH2 0x1371 JUMP JUMPDEST PUSH1 0x40 MLOAD DUP1 SWAP2 SUB SWAP1 RETURN JUMPDEST PUSH2 0x392 PUSH1 0x4 DUP1 CALLDATASIZE SUB DUP2 ADD SWAP1 PUSH2 0x38D SWAP2 SWAP1 PUSH2 0x1668 JUMP JUMPDEST PUSH2 0x83A JUMP JUMPDEST STOP JUMPDEST PUSH1 0x0 PUSH32 0x6578737100000000000000000000000000000000000000000000000000000000 PUSH28 0xFFFFFFFFFFFFFFFFFFFFFFFFFFFFFFFFFFFFFFFFFFFFFFFFFFFFFFFF NOT AND DUP3 PUSH28 0xFFFFFFFFFFFFFFFFFFFFFFFFFFFFFFFFFFFFFFFFFFFFFFFFFFFFFFFF NOT AND EQ DUP1 PUSH2 0x45F JUMPI POP PUSH32 0xA219A02500000000000000000000000000000000000000000000000000000000 PUSH28 0xFFFFFFFFFFFFFFFFFFFFFFFFFFFFFFFFFFFFFFFFFFFFFFFFFFFFFFFF NOT AND DUP3 PUSH28 0xFFFFFFFFFFFFFFFFFFFFFFFFFFFFFFFFFFFFFFFFFFFFFFFFFFFFFFFF NOT AND EQ JUMPDEST DUP1 PUSH2 0x46F JUMPI POP PUSH2 0x46E DUP3 PUSH2 0x858 JUMP JUMPDEST JUMPDEST SWAP1 POP SWAP2 SWAP1 POP JUMP JUMPDEST PUSH1 0x60 PUSH1 0x3 DUP1 SLOAD PUSH2 0x485 SWAP1 PUSH2 0x1706 JUMP JUMPDEST DUP1 PUSH1 0x1F ADD PUSH1 0x20 DUP1 SWAP2 DIV MUL PUSH1 0x20 ADD PUSH1 0x40 MLOAD SWAP1 DUP2 ADD PUSH1 0x40 MSTORE DUP1 SWAP3 SWAP2 SWAP1 DUP2 DUP2 MSTORE PUSH1 0x20 ADD DUP3 DUP1 SLOAD PUSH2 0x4B1 SWAP1 PUSH2 0x1706 JUMP JUMPDEST DUP1 ISZERO PUSH2 0x4FE JUMPI DUP1 PUSH1 0x1F LT PUSH2 0x4D3 JUMPI PUSH2 0x100 DUP1 DUP4 SLOAD DIV MUL DUP4 MSTORE SWAP2 PUSH1 0x20 ADD SWAP2 PUSH2 0x4FE JUMP JUMPDEST DUP3 ADD SWAP2 SWAP1 PUSH1 0x0 MSTORE PUSH1 0x20 PUSH1 0x0 KECCAK256 SWAP1 JUMPDEST DUP2 SLOAD DUP2 MSTORE SWAP1 PUSH1 0x1 ADD SWAP1 PUSH1 0x20 ADD DUP1 DUP4 GT PUSH2 0x4E1 JUMPI DUP3 SWAP1 SUB PUSH1 0x1F AND DUP3 ADD SWAP2 JUMPDEST POP POP POP POP POP SWAP1 POP SWAP1 JUMP JUMPDEST PUSH1 0x0 DUP1 PUSH2 0x513 PUSH2 0x8C2 JUMP JUMPDEST SWAP1 POP PUSH2 0x520 DUP2 DUP6 DUP6 PUSH2 0x8CA JUMP JUMPDEST PUSH1 0x1 SWAP2 POP POP SWAP3 SWAP2 POP POP JUMP JUMPDEST PUSH1 0x0 PUSH1 0x2 SLOAD SWAP1 POP SWAP1 JUMP JUMPDEST PUSH1 0x0 DUP1 PUSH2 0x540 PUSH2 0x8C2 JUMP JUMPDEST SWAP1 POP PUSH2 0x54D DUP6 DUP3 DUP6 PUSH2 0xA93 JUMP JUMPDEST PUSH2 0x558 DUP6 DUP6 DUP6 PUSH2 0xB1F JUMP JUMPDEST PUSH1 0x1 SWAP2 POP POP SWAP4 SWAP3 POP POP POP JUMP JUMPDEST PUSH1 0x0 PUSH1 0x12 SWAP1 POP SWAP1 JUMP JUMPDEST PUSH1 0x0 DUP1 PUSH2 0x578 PUSH2 0x8C2 JUMP JUMPDEST SWAP1 POP PUSH2 0x599 DUP2 DUP6 DUP6 PUSH2 0x58A DUP6 DUP10 PUSH2 0x7B3 JUMP JUMPDEST PUSH2 0x594 SWAP2 SWAP1 PUSH2 0x1766 JUMP JUMPDEST PUSH2 0x8CA JUMP JUMPDEST PUSH1 0x1 SWAP2 POP POP SWAP3 SWAP2 POP POP JUMP JUMPDEST PUSH1 0x0 PUSH2 0x5AE PUSH2 0x8C2 JUMP JUMPDEST SWAP1 POP PUSH2 0x5CB DUP2 DUP5 DUP5 PUSH1 0x40 MLOAD DUP1 PUSH1 0x20 ADD PUSH1 0x40 MSTORE DUP1 PUSH1 0x0 DUP2 MSTORE POP PUSH2 0xD9E JUMP JUMPDEST POP POP POP JUMP JUMPDEST PUSH1 0x0 PUSH2 0x5DA PUSH2 0x8C2 JUMP JUMPDEST SWAP1 POP PUSH2 0x5E7 DUP5 DUP3 DUP5 PUSH2 0xA93 JUMP JUMPDEST PUSH2 0x602 DUP5 DUP5 DUP5 PUSH1 0x40 MLOAD DUP1 PUSH1 0x20 ADD PUSH1 0x40 MSTORE DUP1 PUSH1 0x0 DUP2 MSTORE POP PUSH2 0xD9E JUMP JUMPDEST POP POP POP POP JUMP JUMPDEST PUSH1 0x0 DUP1 PUSH1 0x0 DUP4 PUSH20 0xFFFFFFFFFFFFFFFFFFFFFFFFFFFFFFFFFFFFFFFF AND PUSH20 0xFFFFFFFFFFFFFFFFFFFFFFFFFFFFFFFFFFFFFFFF AND DUP2 MSTORE PUSH1 0x20 ADD SWAP1 DUP2 MSTORE PUSH1 0x20 ADD PUSH1 0x0 KECCAK256 SLOAD SWAP1 POP SWAP2 SWAP1 POP JUMP JUMPDEST PUSH1 0x60 PUSH1 0x4 DUP1 SLOAD PUSH2 0x65F SWAP1 PUSH2 0x1706 JUMP JUMPDEST DUP1 PUSH1 0x1F ADD PUSH1 0x20 DUP1 SWAP2 DIV MUL PUSH1 0x20 ADD PUSH1 0x40 MLOAD SWAP1 DUP2 ADD PUSH1 0x40 MSTORE DUP1 SWAP3 SWAP2 SWAP1 DUP2 DUP2 MSTORE PUSH1 0x20 ADD DUP3 DUP1 SLOAD PUSH2 0x68B SWAP1 PUSH2 0x1706 JUMP JUMPDEST DUP1 ISZERO PUSH2 0x6D8 JUMPI DUP1 PUSH1 0x1F LT PUSH2 0x6AD JUMPI PUSH2 0x100 DUP1 DUP4 SLOAD DIV MUL DUP4 MSTORE SWAP2 PUSH1 0x20 ADD SWAP2 PUSH2 0x6D8 JUMP JUMPDEST DUP3 ADD SWAP2 SWAP1 PUSH1 0x0 MSTORE PUSH1 0x20 PUSH1 0x0 KECCAK256 SWAP1 JUMPDEST DUP2 SLOAD DUP2 MSTORE SWAP1 PUSH1 0x1 ADD SWAP1 PUSH1 0x20 ADD DUP1 DUP4 GT PUSH2 0x6BB JUMPI DUP3 SWAP1 SUB PUSH1 0x1F AND DUP3 ADD SWAP2 JUMPDEST POP POP POP POP POP SWAP1 POP SWAP1 JUMP JUMPDEST PUSH2 0x6EC CALLER DUP3 PUSH2 0xDFA JUMP JUMPDEST POP JUMP JUMPDEST PUSH1 0x0 DUP1 PUSH2 0x6FA PUSH2 0x8C2 JUMP JUMPDEST SWAP1 POP PUSH1 0x0 PUSH2 0x708 DUP3 DUP7 PUSH2 0x7B3 JUMP JUMPDEST SWAP1 POP DUP4 DUP2 LT ISZERO PUSH2 0x74D JUMPI PUSH1 0x40 MLOAD PUSH32 0x8C379A000000000000000000000000000000000000000000000000000000000 DUP2 MSTORE PUSH1 0x4 ADD PUSH2 0x744 SWAP1 PUSH2 0x180C JUMP JUMPDEST PUSH1 0x40 MLOAD DUP1 SWAP2 SUB SWAP1 REVERT JUMPDEST PUSH2 0x75A DUP3 DUP7 DUP7 DUP5 SUB PUSH2 0x8CA JUMP JUMPDEST PUSH1 0x1 SWAP3 POP POP POP SWAP3 SWAP2 POP POP JUMP JUMPDEST PUSH1 0x0 DUP1 PUSH2 0x771 PUSH2 0x8C2 JUMP JUMPDEST SWAP1 POP PUSH2 0x77E DUP2 DUP6 DUP6 PUSH2 0xB1F JUMP JUMPDEST PUSH1 0x1 SWAP2 POP POP SWAP3 SWAP2 POP POP JUMP JUMPDEST PUSH1 0x0 PUSH2 0x793 PUSH2 0x8C2 JUMP JUMPDEST SWAP1 POP PUSH2 0x7A0 DUP6 DUP3 DUP6 PUSH2 0xA93 JUMP JUMPDEST PUSH2 0x7AC DUP6 DUP6 DUP6 DUP6 PUSH2 0xD9E JUMP JUMPDEST POP POP POP POP POP JUMP JUMPDEST PUSH1 0x0 PUSH1 0x1 PUSH1 0x0 DUP5 PUSH20 0xFFFFFFFFFFFFFFFFFFFFFFFFFFFFFFFFFFFFFFFF AND PUSH20 0xFFFFFFFFFFFFFFFFFFFFFFFFFFFFFFFFFFFFFFFF AND DUP2 MSTORE PUSH1 0x20 ADD SWAP1 DUP2 MSTORE PUSH1 0x20 ADD PUSH1 0x0 KECCAK256 PUSH1 0x0 DUP4 PUSH20 0xFFFFFFFFFFFFFFFFFFFFFFFFFFFFFFFFFFFFFFFF AND PUSH20 0xFFFFFFFFFFFFFFFFFFFFFFFFFFFFFFFFFFFFFFFF AND DUP2 MSTORE PUSH1 0x20 ADD SWAP1 DUP2 MSTORE PUSH1 0x20 ADD PUSH1 0x0 KECCAK256 SLOAD SWAP1 POP SWAP3 SWAP2 POP POP JUMP JUMPDEST PUSH1 0x0 PUSH2 0x844 PUSH2 0x8C2 JUMP JUMPDEST SWAP1 POP PUSH2 0x852 DUP2 DUP6 DUP6 DUP6 PUSH2 0xD9E JUMP JUMPDEST POP POP POP POP JUMP JUMPDEST PUSH1 0x0 PUSH32 0x1FFC9A700000000000000000000000000000000000000000000000000000000 PUSH28 0xFFFFFFFFFFFFFFFFFFFFFFFFFFFFFFFFFFFFFFFFFFFFFFFFFFFFFFFF NOT AND DUP3 PUSH28 0xFFFFFFFFFFFFFFFFFFFFFFFFFFFFFFFFFFFFFFFFFFFFFFFFFFFFFFFF NOT AND EQ SWAP1 POP SWAP2 SWAP1 POP JUMP JUMPDEST PUSH1 0x0 CALLER SWAP1 POP SWAP1 JUMP JUMPDEST PUSH1 0x0 PUSH20 0xFFFFFFFFFFFFFFFFFFFFFFFFFFFFFFFFFFFFFFFF AND DUP4 PUSH20 0xFFFFFFFFFFFFFFFFFFFFFFFFFFFFFFFFFFFFFFFF AND SUB PUSH2 0x939 JUMPI PUSH1 0x40 MLOAD PUSH32 0x8C379A000000000000000000000000000000000000000000000000000000000 DUP2 MSTORE PUSH1 0x4 ADD PUSH2 0x930 SWAP1 PUSH2 0x189E JUMP JUMPDEST PUSH1 0x40 MLOAD DUP1 SWAP2 SUB SWAP1 REVERT JUMPDEST PUSH1 0x0 PUSH20 0xFFFFFFFFFFFFFFFFFFFFFFFFFFFFFFFFFFFFFFFF AND DUP3 PUSH20 0xFFFFFFFFFFFFFFFFFFFFFFFFFFFFFFFFFFFFFFFF AND SUB PUSH2 0x9A8 JUMPI PUSH1 0x40 MLOAD PUSH32 0x8C379A000000000000000000000000000000000000000000000000000000000 DUP2 MSTORE PUSH1 0x4 ADD PUSH2 0x99F SWAP1 PUSH2 0x1930 JUMP JUMPDEST PUSH1 0x40 MLOAD DUP1 SWAP2 SUB SWAP1 REVERT JUMPDEST DUP1 PUSH1 0x1 PUSH1 0x0 DUP6 PUSH20 0xFFFFFFFFFFFFFFFFFFFFFFFFFFFFFFFFFFFFFFFF AND PUSH20 0xFFFFFFFFFFFFFFFFFFFFFFFFFFFFFFFFFFFFFFFF AND DUP2 MSTORE PUSH1 0x20 ADD SWAP1 DUP2 MSTORE PUSH1 0x20 ADD PUSH1 0x0 KECCAK256 PUSH1 0x0 DUP5 PUSH20 0xFFFFFFFFFFFFFFFFFFFFFFFFFFFFFFFFFFFFFFFF AND PUSH20 0xFFFFFFFFFFFFFFFFFFFFFFFFFFFFFFFFFFFFFFFF AND DUP2 MSTORE PUSH1 0x20 ADD SWAP1 DUP2 MSTORE PUSH1 0x20 ADD PUSH1 0x0 KECCAK256 DUP2 SWAP1 SSTORE POP DUP2 PUSH20 0xFFFFFFFFFFFFFFFFFFFFFFFFFFFFFFFFFFFFFFFF AND DUP4 PUSH20 0xFFFFFFFFFFFFFFFFFFFFFFFFFFFFFFFFFFFFFFFF AND PUSH32 0x8C5BE1E5EBEC7D5BD14F71427D1E84F3DD0314C0F7B2291E5B200AC8C7C3B925 DUP4 PUSH1 0x40 MLOAD PUSH2 0xA86 SWAP2 SWAP1 PUSH2 0x1371 JUMP JUMPDEST PUSH1 0x40 MLOAD DUP1 SWAP2 SUB SWAP1 LOG3 POP POP POP JUMP JUMPDEST PUSH1 0x0 PUSH2 0xA9F DUP5 DUP5 PUSH2 0x7B3 JUMP JUMPDEST SWAP1 POP PUSH32 0xFFFFFFFFFFFFFFFFFFFFFFFFFFFFFFFFFFFFFFFFFFFFFFFFFFFFFFFFFFFFFFFF DUP2 EQ PUSH2 0xB19 JUMPI DUP2 DUP2 LT ISZERO PUSH2 0xB0B JUMPI PUSH1 0x40 MLOAD PUSH32 0x8C379A000000000000000000000000000000000000000000000000000000000 DUP2 MSTORE PUSH1 0x4 ADD PUSH2 0xB02 SWAP1 PUSH2 0x199C JUMP JUMPDEST PUSH1 0x40 MLOAD DUP1 SWAP2 SUB SWAP1 REVERT JUMPDEST PUSH2 0xB18 DUP5 DUP5 DUP5 DUP5 SUB PUSH2 0x8CA JUMP JUMPDEST JUMPDEST POP POP POP POP JUMP JUMPDEST PUSH1 0x0 PUSH20 0xFFFFFFFFFFFFFFFFFFFFFFFFFFFFFFFFFFFFFFFF AND DUP4 PUSH20 0xFFFFFFFFFFFFFFFFFFFFFFFFFFFFFFFFFFFFFFFF AND SUB PUSH2 0xB8E JUMPI PUSH1 0x40 MLOAD PUSH32 0x8C379A000000000000000000000000000000000000000000000000000000000 DUP2 MSTORE PUSH1 0x4 ADD PUSH2 0xB85 SWAP1 PUSH2 0x1A2E JUMP JUMPDEST PUSH1 0x40 MLOAD DUP1 SWAP2 SUB SWAP1 REVERT JUMPDEST PUSH1 0x0 PUSH20 0xFFFFFFFFFFFFFFFFFFFFFFFFFFFFFFFFFFFFFFFF AND DUP3 PUSH20 0xFFFFFFFFFFFFFFFFFFFFFFFFFFFFFFFFFFFFFFFF AND SUB PUSH2 0xBFD JUMPI PUSH1 0x40 MLOAD PUSH32 0x8C379A000000000000000000000000000000000000000000000000000000000 DUP2 MSTORE PUSH1 0x4 ADD PUSH2 0xBF4 SWAP1 PUSH2 0x1AC0 JUMP JUMPDEST PUSH1 0x40 MLOAD DUP1 SWAP2 SUB SWAP1 REVERT JUMPDEST PUSH2 0xC08 DUP4 DUP4 DUP4 PUSH2 0xF59 JUMP JUMPDEST PUSH1 0x0 DUP1 PUSH1 0x0 DUP6 PUSH20 0xFFFFFFFFFFFFFFFFFFFFFFFFFFFFFFFFFFFFFFFF AND PUSH20 0xFFFFFFFFFFFFFFFFFFFFFFFFFFFFFFFFFFFFFFFF AND DUP2 MSTORE PUSH1 0x20 ADD SWAP1 DUP2 MSTORE PUSH1 0x20 ADD PUSH1 0x0 KECCAK256 SLOAD SWAP1 POP DUP2 DUP2 LT ISZERO PUSH2 0xC8E JUMPI PUSH1 0x40 MLOAD PUSH32 0x8C379A000000000000000000000000000000000000000000000000000000000 DUP2 MSTORE PUSH1 0x4 ADD PUSH2 0xC85 SWAP1 PUSH2 0x1B52 JUMP JUMPDEST PUSH1 0x40 MLOAD DUP1 SWAP2 SUB SWAP1 REVERT JUMPDEST DUP2 DUP2 SUB PUSH1 0x0 DUP1 DUP7 PUSH20 0xFFFFFFFFFFFFFFFFFFFFFFFFFFFFFFFFFFFFFFFF AND PUSH20 0xFFFFFFFFFFFFFFFFFFFFFFFFFFFFFFFFFFFFFFFF AND DUP2 MSTORE PUSH1 0x20 ADD SWAP1 DUP2 MSTORE PUSH1 0x20 ADD PUSH1 0x0 KECCAK256 DUP2 SWAP1 SSTORE POP DUP2 PUSH1 0x0 DUP1 DUP6 PUSH20 0xFFFFFFFFFFFFFFFFFFFFFFFFFFFFFFFFFFFFFFFF AND PUSH20 0xFFFFFFFFFFFFFFFFFFFFFFFFFFFFFFFFFFFFFFFF AND DUP2 MSTORE PUSH1 0x20 ADD SWAP1 DUP2 MSTORE PUSH1 0x20 ADD PUSH1 0x0 KECCAK256 PUSH1 0x0 DUP3 DUP3 SLOAD PUSH2 0xD21 SWAP2 SWAP1 PUSH2 0x1766 JUMP JUMPDEST SWAP3 POP POP DUP2 SWAP1 SSTORE POP DUP3 PUSH20 0xFFFFFFFFFFFFFFFFFFFFFFFFFFFFFFFFFFFFFFFF AND DUP5 PUSH20 0xFFFFFFFFFFFFFFFFFFFFFFFFFFFFFFFFFFFFFFFF AND PUSH32 0xDDF252AD1BE2C89B69C2B068FC378DAA952BA7F163C4A11628F55A4DF523B3EF DUP5 PUSH1 0x40 MLOAD PUSH2 0xD85 SWAP2 SWAP1 PUSH2 0x1371 JUMP JUMPDEST PUSH1 0x40 MLOAD DUP1 SWAP2 SUB SWAP1 LOG3 PUSH2 0xD98 DUP5 DUP5 DUP5 PUSH2 0xF5E JUMP JUMPDEST POP POP POP POP JUMP JUMPDEST PUSH2 0xDA9 DUP5 DUP5 DUP5 PUSH2 0xB1F JUMP JUMPDEST PUSH2 0xDB5 DUP5 DUP5 DUP5 DUP5 PUSH2 0xF63 JUMP JUMPDEST PUSH2 0xDF4 JUMPI PUSH1 0x40 MLOAD PUSH32 0x8C379A000000000000000000000000000000000000000000000000000000000 DUP2 MSTORE PUSH1 0x4 ADD PUSH2 0xDEB SWAP1 PUSH2 0x1BE4 JUMP JUMPDEST PUSH1 0x40 MLOAD DUP1 SWAP2 SUB SWAP1 REVERT JUMPDEST POP POP POP POP JUMP JUMPDEST PUSH1 0x0 PUSH20 0xFFFFFFFFFFFFFFFFFFFFFFFFFFFFFFFFFFFFFFFF AND DUP3 PUSH20 0xFFFFFFFFFFFFFFFFFFFFFFFFFFFFFFFFFFFFFFFF AND SUB PUSH2 0xE69 JUMPI PUSH1 0x40 MLOAD PUSH32 0x8C379A000000000000000000000000000000000000000000000000000000000 DUP2 MSTORE PUSH1 0x4 ADD PUSH2 0xE60 SWAP1 PUSH2 0x1C50 JUMP JUMPDEST PUSH1 0x40 MLOAD DUP1 SWAP2 SUB SWAP1 REVERT JUMPDEST PUSH2 0xE75 PUSH1 0x0 DUP4 DUP4 PUSH2 0xF59 JUMP JUMPDEST DUP1 PUSH1 0x2 PUSH1 0x0 DUP3 DUP3 SLOAD PUSH2 0xE87 SWAP2 SWAP1 PUSH2 0x1766 JUMP JUMPDEST SWAP3 POP POP DUP2 SWAP1 SSTORE POP DUP1 PUSH1 0x0 DUP1 DUP5 PUSH20 0xFFFFFFFFFFFFFFFFFFFFFFFFFFFFFFFFFFFFFFFF AND PUSH20 0xFFFFFFFFFFFFFFFFFFFFFFFFFFFFFFFFFFFFFFFF AND DUP2 MSTORE PUSH1 0x20 ADD SWAP1 DUP2 MSTORE PUSH1 0x20 ADD PUSH1 0x0 KECCAK256 PUSH1 0x0 DUP3 DUP3 SLOAD PUSH2 0xEDC SWAP2 SWAP1 PUSH2 0x1766 JUMP JUMPDEST SWAP3 POP POP DUP2 SWAP1 SSTORE POP DUP2 PUSH20 0xFFFFFFFFFFFFFFFFFFFFFFFFFFFFFFFFFFFFFFFF AND PUSH1 0x0 PUSH20 0xFFFFFFFFFFFFFFFFFFFFFFFFFFFFFFFFFFFFFFFF AND PUSH32 0xDDF252AD1BE2C89B69C2B068FC378DAA952BA7F163C4A11628F55A4DF523B3EF DUP4 PUSH1 0x40 MLOAD PUSH2 0xF41 SWAP2 SWAP1 PUSH2 0x1371 JUMP JUMPDEST PUSH1 0x40 MLOAD DUP1 SWAP2 SUB SWAP1 LOG3 PUSH2 0xF55 PUSH1 0x0 DUP4 DUP4 PUSH2 0xF5E JUMP JUMPDEST POP POP JUMP JUMPDEST POP POP POP JUMP JUMPDEST POP POP POP JUMP JUMPDEST PUSH1 0x0 PUSH2 0xF84 DUP5 PUSH20 0xFFFFFFFFFFFFFFFFFFFFFFFFFFFFFFFFFFFFFFFF AND PUSH2 0x10EA JUMP JUMPDEST ISZERO PUSH2 0x10DD JUMPI DUP4 PUSH20 0xFFFFFFFFFFFFFFFFFFFFFFFFFFFFFFFFFFFFFFFF AND PUSH4 0x9D188C22 PUSH2 0xFAD PUSH2 0x8C2 JUMP JUMPDEST DUP8 DUP7 DUP7 PUSH1 0x40 MLOAD DUP6 PUSH4 0xFFFFFFFF AND PUSH1 0xE0 SHL DUP2 MSTORE PUSH1 0x4 ADD PUSH2 0xFCF SWAP5 SWAP4 SWAP3 SWAP2 SWAP1 PUSH2 0x1CD4 JUMP JUMPDEST PUSH1 0x20 PUSH1 0x40 MLOAD DUP1 DUP4 SUB DUP2 PUSH1 0x0 DUP8 GAS CALL SWAP3 POP POP POP DUP1 ISZERO PUSH2 0x100B JUMPI POP PUSH1 0x40 MLOAD RETURNDATASIZE PUSH1 0x1F NOT PUSH1 0x1F DUP3 ADD AND DUP3 ADD DUP1 PUSH1 0x40 MSTORE POP DUP2 ADD SWAP1 PUSH2 0x1008 SWAP2 SWAP1 PUSH2 0x1D35 JUMP JUMPDEST PUSH1 0x1 JUMPDEST PUSH2 0x108D JUMPI RETURNDATASIZE DUP1 PUSH1 0x0 DUP2 EQ PUSH2 0x103B JUMPI PUSH1 0x40 MLOAD SWAP2 POP PUSH1 0x1F NOT PUSH1 0x3F RETURNDATASIZE ADD AND DUP3 ADD PUSH1 0x40 MSTORE RETURNDATASIZE DUP3 MSTORE RETURNDATASIZE PUSH1 0x0 PUSH1 0x20 DUP5 ADD RETURNDATACOPY PUSH2 0x1040 JUMP JUMPDEST PUSH1 0x60 SWAP2 POP JUMPDEST POP PUSH1 0x0 DUP2 MLOAD SUB PUSH2 0x1085 JUMPI PUSH1 0x40 MLOAD PUSH32 0x8C379A000000000000000000000000000000000000000000000000000000000 DUP2 MSTORE PUSH1 0x4 ADD PUSH2 0x107C SWAP1 PUSH2 0x1DD4 JUMP JUMPDEST PUSH1 0x40 MLOAD DUP1 SWAP2 SUB SWAP1 REVERT JUMPDEST DUP1 MLOAD DUP2 PUSH1 0x20 ADD REVERT JUMPDEST PUSH4 0x9D188C22 PUSH1 0xE0 SHL PUSH28 0xFFFFFFFFFFFFFFFFFFFFFFFFFFFFFFFFFFFFFFFFFFFFFFFFFFFFFFFF NOT AND DUP2 PUSH28 0xFFFFFFFFFFFFFFFFFFFFFFFFFFFFFFFFFFFFFFFFFFFFFFFFFFFFFFFF NOT AND EQ SWAP2 POP POP PUSH2 0x10E2 JUMP JUMPDEST PUSH1 0x1 SWAP1 POP JUMPDEST SWAP5 SWAP4 POP POP POP POP JUMP JUMPDEST PUSH1 0x0 DUP1 DUP3 PUSH20 0xFFFFFFFFFFFFFFFFFFFFFFFFFFFFFFFFFFFFFFFF AND EXTCODESIZE GT SWAP1 POP SWAP2 SWAP1 POP JUMP JUMPDEST PUSH1 0x0 PUSH1 0x40 MLOAD SWAP1 POP SWAP1 JUMP JUMPDEST PUSH1 0x0 DUP1 REVERT JUMPDEST PUSH1 0x0 DUP1 REVERT JUMPDEST PUSH1 0x0 PUSH32 0xFFFFFFFF00000000000000000000000000000000000000000000000000000000 DUP3 AND SWAP1 POP SWAP2 SWAP1 POP JUMP JUMPDEST PUSH2 0x1156 DUP2 PUSH2 0x1121 JUMP JUMPDEST DUP2 EQ PUSH2 0x1161 JUMPI PUSH1 0x0 DUP1 REVERT JUMPDEST POP JUMP JUMPDEST PUSH1 0x0 DUP2 CALLDATALOAD SWAP1 POP PUSH2 0x1173 DUP2 PUSH2 0x114D JUMP JUMPDEST SWAP3 SWAP2 POP POP JUMP JUMPDEST PUSH1 0x0 PUSH1 0x20 DUP3 DUP5 SUB SLT ISZERO PUSH2 0x118F JUMPI PUSH2 0x118E PUSH2 0x1117 JUMP JUMPDEST JUMPDEST PUSH1 0x0 PUSH2 0x119D DUP5 DUP3 DUP6 ADD PUSH2 0x1164 JUMP JUMPDEST SWAP2 POP POP SWAP3 SWAP2 POP POP JUMP JUMPDEST PUSH1 0x0 DUP2 ISZERO ISZERO SWAP1 POP SWAP2 SWAP1 POP JUMP JUMPDEST PUSH2 0x11BB DUP2 PUSH2 0x11A6 JUMP JUMPDEST DUP3 MSTORE POP POP JUMP JUMPDEST PUSH1 0x0 PUSH1 0x20 DUP3 ADD SWAP1 POP PUSH2 0x11D6 PUSH1 0x0 DUP4 ADD DUP5 PUSH2 0x11B2 JUMP JUMPDEST SWAP3 SWAP2 POP POP JUMP JUMPDEST PUSH1 0x0 DUP2 MLOAD SWAP1 POP SWAP2 SWAP1 POP JUMP JUMPDEST PUSH1 0x0 DUP3 DUP3 MSTORE PUSH1 0x20 DUP3 ADD SWAP1 POP SWAP3 SWAP2 POP POP JUMP JUMPDEST PUSH1 0x0 JUMPDEST DUP4 DUP2 LT ISZERO PUSH2 0x1216 JUMPI DUP1 DUP3 ADD MLOAD DUP2 DUP5 ADD MSTORE PUSH1 0x20 DUP2 ADD SWAP1 POP PUSH2 0x11FB JUMP JUMPDEST PUSH1 0x0 DUP5 DUP5 ADD MSTORE POP POP POP POP JUMP JUMPDEST PUSH1 0x0 PUSH1 0x1F NOT PUSH1 0x1F DUP4 ADD AND SWAP1 POP SWAP2 SWAP1 POP JUMP JUMPDEST PUSH1 0x0 PUSH2 0x123E DUP3 PUSH2 0x11DC JUMP JUMPDEST PUSH2 0x1248 DUP2 DUP6 PUSH2 0x11E7 JUMP JUMPDEST SWAP4 POP PUSH2 0x1258 DUP2 DUP6 PUSH1 0x20 DUP7 ADD PUSH2 0x11F8 JUMP JUMPDEST PUSH2 0x1261 DUP2 PUSH2 0x1222 JUMP JUMPDEST DUP5 ADD SWAP2 POP POP SWAP3 SWAP2 POP POP JUMP JUMPDEST PUSH1 0x0 PUSH1 0x20 DUP3 ADD SWAP1 POP DUP2 DUP2 SUB PUSH1 0x0 DUP4 ADD MSTORE PUSH2 0x1286 DUP2 DUP5 PUSH2 0x1233 JUMP JUMPDEST SWAP1 POP SWAP3 SWAP2 POP POP JUMP JUMPDEST PUSH1 0x0 PUSH20 0xFFFFFFFFFFFFFFFFFFFFFFFFFFFFFFFFFFFFFFFF DUP3 AND SWAP1 POP SWAP2 SWAP1 POP JUMP JUMPDEST PUSH1 0x0 PUSH2 0x12B9 DUP3 PUSH2 0x128E JUMP JUMPDEST SWAP1 POP SWAP2 SWAP1 POP JUMP JUMPDEST PUSH2 0x12C9 DUP2 PUSH2 0x12AE JUMP JUMPDEST DUP2 EQ PUSH2 0x12D4 JUMPI PUSH1 0x0 DUP1 REVERT JUMPDEST POP JUMP JUMPDEST PUSH1 0x0 DUP2 CALLDATALOAD SWAP1 POP PUSH2 0x12E6 DUP2 PUSH2 0x12C0 JUMP JUMPDEST SWAP3 SWAP2 POP POP JUMP JUMPDEST PUSH1 0x0 DUP2 SWAP1 POP SWAP2 SWAP1 POP JUMP JUMPDEST PUSH2 0x12FF DUP2 PUSH2 0x12EC JUMP JUMPDEST DUP2 EQ PUSH2 0x130A JUMPI PUSH1 0x0 DUP1 REVERT JUMPDEST POP JUMP JUMPDEST PUSH1 0x0 DUP2 CALLDATALOAD SWAP1 POP PUSH2 0x131C DUP2 PUSH2 0x12F6 JUMP JUMPDEST SWAP3 SWAP2 POP POP JUMP JUMPDEST PUSH1 0x0 DUP1 PUSH1 0x40 DUP4 DUP6 SUB SLT ISZERO PUSH2 0x1339 JUMPI PUSH2 0x1338 PUSH2 0x1117 JUMP JUMPDEST JUMPDEST PUSH1 0x0 PUSH2 0x1347 DUP6 DUP3 DUP7 ADD PUSH2 0x12D7 JUMP JUMPDEST SWAP3 POP POP PUSH1 0x20 PUSH2 0x1358 DUP6 DUP3 DUP7 ADD PUSH2 0x130D JUMP JUMPDEST SWAP2 POP POP SWAP3 POP SWAP3 SWAP1 POP JUMP JUMPDEST PUSH2 0x136B DUP2 PUSH2 0x12EC JUMP JUMPDEST DUP3 MSTORE POP POP JUMP JUMPDEST PUSH1 0x0 PUSH1 0x20 DUP3 ADD SWAP1 POP PUSH2 0x1386 PUSH1 0x0 DUP4 ADD DUP5 PUSH2 0x1362 JUMP JUMPDEST SWAP3 SWAP2 POP POP JUMP JUMPDEST PUSH1 0x0 DUP1 PUSH1 0x0 PUSH1 0x60 DUP5 DUP7 SUB SLT ISZERO PUSH2 0x13A5 JUMPI PUSH2 0x13A4 PUSH2 0x1117 JUMP JUMPDEST JUMPDEST PUSH1 0x0 PUSH2 0x13B3 DUP7 DUP3 DUP8 ADD PUSH2 0x12D7 JUMP JUMPDEST SWAP4 POP POP PUSH1 0x20 PUSH2 0x13C4 DUP7 DUP3 DUP8 ADD PUSH2 0x12D7 JUMP JUMPDEST SWAP3 POP POP PUSH1 0x40 PUSH2 0x13D5 DUP7 DUP3 DUP8 ADD PUSH2 0x130D JUMP JUMPDEST SWAP2 POP POP SWAP3 POP SWAP3 POP SWAP3 JUMP JUMPDEST PUSH1 0x0 PUSH1 0xFF DUP3 AND SWAP1 POP SWAP2 SWAP1 POP JUMP JUMPDEST PUSH2 0x13F5 DUP2 PUSH2 0x13DF JUMP JUMPDEST DUP3 MSTORE POP POP JUMP JUMPDEST PUSH1 0x0 PUSH1 0x20 DUP3 ADD SWAP1 POP PUSH2 0x1410 PUSH1 0x0 DUP4 ADD DUP5 PUSH2 0x13EC JUMP JUMPDEST SWAP3 SWAP2 POP POP JUMP JUMPDEST PUSH1 0x0 PUSH1 0x20 DUP3 DUP5 SUB SLT ISZERO PUSH2 0x142C JUMPI PUSH2 0x142B PUSH2 0x1117 JUMP JUMPDEST JUMPDEST PUSH1 0x0 PUSH2 0x143A DUP5 DUP3 DUP6 ADD PUSH2 0x12D7 JUMP JUMPDEST SWAP2 POP POP SWAP3 SWAP2 POP POP JUMP JUMPDEST PUSH1 0x0 PUSH1 0x20 DUP3 DUP5 SUB SLT ISZERO PUSH2 0x1459 JUMPI PUSH2 0x1458 PUSH2 0x1117 JUMP JUMPDEST JUMPDEST PUSH1 0x0 PUSH2 0x1467 DUP5 DUP3 DUP6 ADD PUSH2 0x130D JUMP JUMPDEST SWAP2 POP POP SWAP3 SWAP2 POP POP JUMP JUMPDEST PUSH1 0x0 DUP1 REVERT JUMPDEST PUSH1 0x0 DUP1 REVERT JUMPDEST PUSH32 0x4E487B7100000000000000000000000000000000000000000000000000000000 PUSH1 0x0 MSTORE PUSH1 0x41 PUSH1 0x4 MSTORE PUSH1 0x24 PUSH1 0x0 REVERT JUMPDEST PUSH2 0x14B2 DUP3 PUSH2 0x1222 JUMP JUMPDEST DUP2 ADD DUP2 DUP2 LT PUSH8 0xFFFFFFFFFFFFFFFF DUP3 GT OR ISZERO PUSH2 0x14D1 JUMPI PUSH2 0x14D0 PUSH2 0x147A JUMP JUMPDEST JUMPDEST DUP1 PUSH1 0x40 MSTORE POP POP POP JUMP JUMPDEST PUSH1 0x0 PUSH2 0x14E4 PUSH2 0x110D JUMP JUMPDEST SWAP1 POP PUSH2 0x14F0 DUP3 DUP3 PUSH2 0x14A9 JUMP JUMPDEST SWAP2 SWAP1 POP JUMP JUMPDEST PUSH1 0x0 PUSH8 0xFFFFFFFFFFFFFFFF DUP3 GT ISZERO PUSH2 0x1510 JUMPI PUSH2 0x150F PUSH2 0x147A JUMP JUMPDEST JUMPDEST PUSH2 0x1519 DUP3 PUSH2 0x1222 JUMP JUMPDEST SWAP1 POP PUSH1 0x20 DUP2 ADD SWAP1 POP SWAP2 SWAP1 POP JUMP JUMPDEST DUP3 DUP2 DUP4 CALLDATACOPY PUSH1 0x0 DUP4 DUP4 ADD MSTORE POP POP POP JUMP JUMPDEST PUSH1 0x0 PUSH2 0x1548 PUSH2 0x1543 DUP5 PUSH2 0x14F5 JUMP JUMPDEST PUSH2 0x14DA JUMP JUMPDEST SWAP1 POP DUP3 DUP2 MSTORE PUSH1 0x20 DUP2 ADD DUP5 DUP5 DUP5 ADD GT ISZERO PUSH2 0x1564 JUMPI PUSH2 0x1563 PUSH2 0x1475 JUMP JUMPDEST JUMPDEST PUSH2 0x156F DUP5 DUP3 DUP6 PUSH2 0x1526 JUMP JUMPDEST POP SWAP4 SWAP3 POP POP POP JUMP JUMPDEST PUSH1 0x0 DUP3 PUSH1 0x1F DUP4 ADD SLT PUSH2 0x158C JUMPI PUSH2 0x158B PUSH2 0x1470 JUMP JUMPDEST JUMPDEST DUP2 CALLDATALOAD PUSH2 0x159C DUP5 DUP3 PUSH1 0x20 DUP7 ADD PUSH2 0x1535 JUMP JUMPDEST SWAP2 POP POP SWAP3 SWAP2 POP POP JUMP JUMPDEST PUSH1 0x0 DUP1 PUSH1 0x0 DUP1 PUSH1 0x80 DUP6 DUP8 SUB SLT ISZERO PUSH2 0x15BF JUMPI PUSH2 0x15BE PUSH2 0x1117 JUMP JUMPDEST JUMPDEST PUSH1 0x0 PUSH2 0x15CD DUP8 DUP3 DUP9 ADD PUSH2 0x12D7 JUMP JUMPDEST SWAP5 POP POP PUSH1 0x20 PUSH2 0x15DE DUP8 DUP3 DUP9 ADD PUSH2 0x12D7 JUMP JUMPDEST SWAP4 POP POP PUSH1 0x40 PUSH2 0x15EF DUP8 DUP3 DUP9 ADD PUSH2 0x130D JUMP JUMPDEST SWAP3 POP POP PUSH1 0x60 DUP6 ADD CALLDATALOAD PUSH8 0xFFFFFFFFFFFFFFFF DUP2 GT ISZERO PUSH2 0x1610 JUMPI PUSH2 0x160F PUSH2 0x111C JUMP JUMPDEST JUMPDEST PUSH2 0x161C DUP8 DUP3 DUP9 ADD PUSH2 0x1577 JUMP JUMPDEST SWAP2 POP POP SWAP3 SWAP6 SWAP2 SWAP5 POP SWAP3 POP JUMP JUMPDEST PUSH1 0x0 DUP1 PUSH1 0x40 DUP4 DUP6 SUB SLT ISZERO PUSH2 0x163F JUMPI PUSH2 0x163E PUSH2 0x1117 JUMP JUMPDEST JUMPDEST PUSH1 0x0 PUSH2 0x164D DUP6 DUP3 DUP7 ADD PUSH2 0x12D7 JUMP JUMPDEST SWAP3 POP POP PUSH1 0x20 PUSH2 0x165E DUP6 DUP3 DUP7 ADD PUSH2 0x12D7 JUMP JUMPDEST SWAP2 POP POP SWAP3 POP SWAP3 SWAP1 POP JUMP JUMPDEST PUSH1 0x0 DUP1 PUSH1 0x0 PUSH1 0x60 DUP5 DUP7 SUB SLT ISZERO PUSH2 0x1681 JUMPI PUSH2 0x1680 PUSH2 0x1117 JUMP JUMPDEST JUMPDEST PUSH1 0x0 PUSH2 0x168F DUP7 DUP3 DUP8 ADD PUSH2 0x12D7 JUMP JUMPDEST SWAP4 POP POP PUSH1 0x20 PUSH2 0x16A0 DUP7 DUP3 DUP8 ADD PUSH2 0x130D JUMP JUMPDEST SWAP3 POP POP PUSH1 0x40 DUP5 ADD CALLDATALOAD PUSH8 0xFFFFFFFFFFFFFFFF DUP2 GT ISZERO PUSH2 0x16C1 JUMPI PUSH2 0x16C0 PUSH2 0x111C JUMP JUMPDEST JUMPDEST PUSH2 0x16CD DUP7 DUP3 DUP8 ADD PUSH2 0x1577 JUMP JUMPDEST SWAP2 POP POP SWAP3 POP SWAP3 POP SWAP3 JUMP JUMPDEST PUSH32 0x4E487B7100000000000000000000000000000000000000000000000000000000 PUSH1 0x0 MSTORE PUSH1 0x22 PUSH1 0x4 MSTORE PUSH1 0x24 PUSH1 0x0 REVERT JUMPDEST PUSH1 0x0 PUSH1 0x2 DUP3 DIV SWAP1 POP PUSH1 0x1 DUP3 AND DUP1 PUSH2 0x171E JUMPI PUSH1 0x7F DUP3 AND SWAP2 POP JUMPDEST PUSH1 0x20 DUP3 LT DUP2 SUB PUSH2 0x1731 JUMPI PUSH2 0x1730 PUSH2 0x16D7 JUMP JUMPDEST JUMPDEST POP SWAP2 SWAP1 POP JUMP JUMPDEST PUSH32 0x4E487B7100000000000000000000000000000000000000000000000000000000 PUSH1 0x0 MSTORE PUSH1 0x11 PUSH1 0x4 MSTORE PUSH1 0x24 PUSH1 0x0 REVERT JUMPDEST PUSH1 0x0 PUSH2 0x1771 DUP3 PUSH2 0x12EC JUMP JUMPDEST SWAP2 POP PUSH2 0x177C DUP4 PUSH2 0x12EC JUMP JUMPDEST SWAP3 POP DUP3 DUP3 ADD SWAP1 POP DUP1 DUP3 GT ISZERO PUSH2 0x1794 JUMPI PUSH2 0x1793 PUSH2 0x1737 JUMP JUMPDEST JUMPDEST SWAP3 SWAP2 POP POP JUMP JUMPDEST PUSH32 0x4B4950373A2064656372656173656420616C6C6F77616E63652062656C6F7720 PUSH1 0x0 DUP3 ADD MSTORE PUSH32 0x7A65726F00000000000000000000000000000000000000000000000000000000 PUSH1 0x20 DUP3 ADD MSTORE POP JUMP JUMPDEST PUSH1 0x0 PUSH2 0x17F6 PUSH1 0x24 DUP4 PUSH2 0x11E7 JUMP JUMPDEST SWAP2 POP PUSH2 0x1801 DUP3 PUSH2 0x179A JUMP JUMPDEST PUSH1 0x40 DUP3 ADD SWAP1 POP SWAP2 SWAP1 POP JUMP JUMPDEST PUSH1 0x0 PUSH1 0x20 DUP3 ADD SWAP1 POP DUP2 DUP2 SUB PUSH1 0x0 DUP4 ADD MSTORE PUSH2 0x1825 DUP2 PUSH2 0x17E9 JUMP JUMPDEST SWAP1 POP SWAP2 SWAP1 POP JUMP JUMPDEST PUSH32 0x4B4950373A20617070726F76652066726F6D20746865207A65726F2061646472 PUSH1 0x0 DUP3 ADD MSTORE PUSH32 0x6573730000000000000000000000000000000000000000000000000000000000 PUSH1 0x20 DUP3 ADD MSTORE POP JUMP JUMPDEST PUSH1 0x0 PUSH2 0x1888 PUSH1 0x23 DUP4 PUSH2 0x11E7 JUMP JUMPDEST SWAP2 POP PUSH2 0x1893 DUP3 PUSH2 0x182C JUMP JUMPDEST PUSH1 0x40 DUP3 ADD SWAP1 POP SWAP2 SWAP1 POP JUMP JUMPDEST PUSH1 0x0 PUSH1 0x20 DUP3 ADD SWAP1 POP DUP2 DUP2 SUB PUSH1 0x0 DUP4 ADD MSTORE PUSH2 0x18B7 DUP2 PUSH2 0x187B JUMP JUMPDEST SWAP1 POP SWAP2 SWAP1 POP JUMP JUMPDEST PUSH32 0x4B4950373A20617070726F766520746F20746865207A65726F20616464726573 PUSH1 0x0 DUP3 ADD MSTORE PUSH32 0x7300000000000000000000000000000000000000000000000000000000000000 PUSH1 0x20 DUP3 ADD MSTORE POP JUMP JUMPDEST PUSH1 0x0 PUSH2 0x191A PUSH1 0x21 DUP4 PUSH2 0x11E7 JUMP JUMPDEST SWAP2 POP PUSH2 0x1925 DUP3 PUSH2 0x18BE JUMP JUMPDEST PUSH1 0x40 DUP3 ADD SWAP1 POP SWAP2 SWAP1 POP JUMP JUMPDEST PUSH1 0x0 PUSH1 0x20 DUP3 ADD SWAP1 POP DUP2 DUP2 SUB PUSH1 0x0 DUP4 ADD MSTORE PUSH2 0x1949 DUP2 PUSH2 0x190D JUMP JUMPDEST SWAP1 POP SWAP2 SWAP1 POP JUMP JUMPDEST PUSH32 0x4B4950373A20696E73756666696369656E7420616C6C6F77616E636500000000 PUSH1 0x0 DUP3 ADD MSTORE POP JUMP JUMPDEST PUSH1 0x0 PUSH2 0x1986 PUSH1 0x1C DUP4 PUSH2 0x11E7 JUMP JUMPDEST SWAP2 POP PUSH2 0x1991 DUP3 PUSH2 0x1950 JUMP JUMPDEST PUSH1 0x20 DUP3 ADD SWAP1 POP SWAP2 SWAP1 POP JUMP JUMPDEST PUSH1 0x0 PUSH1 0x20 DUP3 ADD SWAP1 POP DUP2 DUP2 SUB PUSH1 0x0 DUP4 ADD MSTORE PUSH2 0x19B5 DUP2 PUSH2 0x1979 JUMP JUMPDEST SWAP1 POP SWAP2 SWAP1 POP JUMP JUMPDEST PUSH32 0x4B4950373A207472616E736665722066726F6D20746865207A65726F20616464 PUSH1 0x0 DUP3 ADD MSTORE PUSH32 0x7265737300000000000000000000000000000000000000000000000000000000 PUSH1 0x20 DUP3 ADD MSTORE POP JUMP JUMPDEST PUSH1 0x0 PUSH2 0x1A18 PUSH1 0x24 DUP4 PUSH2 0x11E7 JUMP JUMPDEST SWAP2 POP PUSH2 0x1A23 DUP3 PUSH2 0x19BC JUMP JUMPDEST PUSH1 0x40 DUP3 ADD SWAP1 POP SWAP2 SWAP1 POP JUMP JUMPDEST PUSH1 0x0 PUSH1 0x20 DUP3 ADD SWAP1 POP DUP2 DUP2 SUB PUSH1 0x0 DUP4 ADD MSTORE PUSH2 0x1A47 DUP2 PUSH2 0x1A0B JUMP JUMPDEST SWAP1 POP SWAP2 SWAP1 POP JUMP JUMPDEST PUSH32 0x4B4950373A207472616E7366657220746F20746865207A65726F206164647265 PUSH1 0x0 DUP3 ADD MSTORE PUSH32 0x7373000000000000000000000000000000000000000000000000000000000000 PUSH1 0x20 DUP3 ADD MSTORE POP JUMP JUMPDEST PUSH1 0x0 PUSH2 0x1AAA PUSH1 0x22 DUP4 PUSH2 0x11E7 JUMP JUMPDEST SWAP2 POP PUSH2 0x1AB5 DUP3 PUSH2 0x1A4E JUMP JUMPDEST PUSH1 0x40 DUP3 ADD SWAP1 POP SWAP2 SWAP1 POP JUMP JUMPDEST PUSH1 0x0 PUSH1 0x20 DUP3 ADD SWAP1 POP DUP2 DUP2 SUB PUSH1 0x0 DUP4 ADD MSTORE PUSH2 0x1AD9 DUP2 PUSH2 0x1A9D JUMP JUMPDEST SWAP1 POP SWAP2 SWAP1 POP JUMP JUMPDEST PUSH32 0x4B4950373A207472616E7366657220616D6F756E742065786365656473206261 PUSH1 0x0 DUP3 ADD MSTORE PUSH32 0x6C616E6365000000000000000000000000000000000000000000000000000000 PUSH1 0x20 DUP3 ADD MSTORE POP JUMP JUMPDEST PUSH1 0x0 PUSH2 0x1B3C PUSH1 0x25 DUP4 PUSH2 0x11E7 JUMP JUMPDEST SWAP2 POP PUSH2 0x1B47 DUP3 PUSH2 0x1AE0 JUMP JUMPDEST PUSH1 0x40 DUP3 ADD SWAP1 POP SWAP2 SWAP1 POP JUMP JUMPDEST PUSH1 0x0 PUSH1 0x20 DUP3 ADD SWAP1 POP DUP2 DUP2 SUB PUSH1 0x0 DUP4 ADD MSTORE PUSH2 0x1B6B DUP2 PUSH2 0x1B2F JUMP JUMPDEST SWAP1 POP SWAP2 SWAP1 POP JUMP JUMPDEST PUSH32 0x4B4950373A207472616E7366657220746F206E6F6E20494B4950375265636569 PUSH1 0x0 DUP3 ADD MSTORE PUSH32 0x76657220696D706C656D656E7465720000000000000000000000000000000000 PUSH1 0x20 DUP3 ADD MSTORE POP JUMP JUMPDEST PUSH1 0x0 PUSH2 0x1BCE PUSH1 0x2F DUP4 PUSH2 0x11E7 JUMP JUMPDEST SWAP2 POP PUSH2 0x1BD9 DUP3 PUSH2 0x1B72 JUMP JUMPDEST PUSH1 0x40 DUP3 ADD SWAP1 POP SWAP2 SWAP1 POP JUMP JUMPDEST PUSH1 0x0 PUSH1 0x20 DUP3 ADD SWAP1 POP DUP2 DUP2 SUB PUSH1 0x0 DUP4 ADD MSTORE PUSH2 0x1BFD DUP2 PUSH2 0x1BC1 JUMP JUMPDEST SWAP1 POP SWAP2 SWAP1 POP JUMP JUMPDEST PUSH32 0x4B4950373A206D696E7420746F20746865207A65726F20616464726573730000 PUSH1 0x0 DUP3 ADD MSTORE POP JUMP JUMPDEST PUSH1 0x0 PUSH2 0x1C3A PUSH1 0x1E DUP4 PUSH2 0x11E7 JUMP JUMPDEST SWAP2 POP PUSH2 0x1C45 DUP3 PUSH2 0x1C04 JUMP JUMPDEST PUSH1 0x20 DUP3 ADD SWAP1 POP SWAP2 SWAP1 POP JUMP JUMPDEST PUSH1 0x0 PUSH1 0x20 DUP3 ADD SWAP1 POP DUP2 DUP2 SUB PUSH1 0x0 DUP4 ADD MSTORE PUSH2 0x1C69 DUP2 PUSH2 0x1C2D JUMP JUMPDEST SWAP1 POP SWAP2 SWAP1 POP JUMP JUMPDEST PUSH2 0x1C79 DUP2 PUSH2 0x12AE JUMP JUMPDEST DUP3 MSTORE POP POP JUMP JUMPDEST PUSH1 0x0 DUP2 MLOAD SWAP1 POP SWAP2 SWAP1 POP JUMP JUMPDEST PUSH1 0x0 DUP3 DUP3 MSTORE PUSH1 0x20 DUP3 ADD SWAP1 POP SWAP3 SWAP2 POP POP JUMP JUMPDEST PUSH1 0x0 PUSH2 0x1CA6 DUP3 PUSH2 0x1C7F JUMP JUMPDEST PUSH2 0x1CB0 DUP2 DUP6 PUSH2 0x1C8A JUMP JUMPDEST SWAP4 POP PUSH2 0x1CC0 DUP2 DUP6 PUSH1 0x20 DUP7 ADD PUSH2 0x11F8 JUMP JUMPDEST PUSH2 0x1CC9 DUP2 PUSH2 0x1222 JUMP JUMPDEST DUP5 ADD SWAP2 POP POP SWAP3 SWAP2 POP POP JUMP JUMPDEST PUSH1 0x0 PUSH1 0x80 DUP3 ADD SWAP1 POP PUSH2 0x1CE9 PUSH1 0x0 DUP4 ADD DUP8 PUSH2 0x1C70 JUMP JUMPDEST PUSH2 0x1CF6 PUSH1 0x20 DUP4 ADD DUP7 PUSH2 0x1C70 JUMP JUMPDEST PUSH2 0x1D03 PUSH1 0x40 DUP4 ADD DUP6 PUSH2 0x1362 JUMP JUMPDEST DUP2 DUP2 SUB PUSH1 0x60 DUP4 ADD MSTORE PUSH2 0x1D15 DUP2 DUP5 PUSH2 0x1C9B JUMP JUMPDEST SWAP1 POP SWAP6 SWAP5 POP POP POP POP POP JUMP JUMPDEST PUSH1 0x0 DUP2 MLOAD SWAP1 POP PUSH2 0x1D2F DUP2 PUSH2 0x114D JUMP JUMPDEST SWAP3 SWAP2 POP POP JUMP JUMPDEST PUSH1 0x0 PUSH1 0x20 DUP3 DUP5 SUB SLT ISZERO PUSH2 0x1D4B JUMPI PUSH2 0x1D4A PUSH2 0x1117 JUMP JUMPDEST JUMPDEST PUSH1 0x0 PUSH2 0x1D59 DUP5 DUP3 DUP6 ADD PUSH2 0x1D20 JUMP JUMPDEST SWAP2 POP POP SWAP3 SWAP2 POP POP JUMP JUMPDEST PUSH32 0x4B4950373A207472616E7366657220746F206E6F6E204B495037526563656976 PUSH1 0x0 DUP3 ADD MSTORE PUSH32 0x657220696D706C656D656E746572000000000000000000000000000000000000 PUSH1 0x20 DUP3 ADD MSTORE POP JUMP JUMPDEST PUSH1 0x0 PUSH2 0x1DBE PUSH1 0x2E DUP4 PUSH2 0x11E7 JUMP JUMPDEST SWAP2 POP PUSH2 0x1DC9 DUP3 PUSH2 0x1D62 JUMP JUMPDEST PUSH1 0x40 DUP3 ADD SWAP1 POP SWAP2 SWAP1 POP JUMP JUMPDEST PUSH1 0x0 PUSH1 0x20 DUP3 ADD SWAP1 POP DUP2 DUP2 SUB PUSH1 0x0 DUP4 ADD MSTORE PUSH2 0x1DED DUP2 PUSH2 0x1DB1 JUMP JUMPDEST SWAP1 POP SWAP2 SWAP1 POP JUMP INVALID LOG2 PUSH5 0x6970667358 0x22 SLT KECCAK256 DUP5 SLT SWAP10 0x4B PUSH10 0xFA621FAC24425B81E1CC BASEFEE PUSH18 0xFEB72E6B875E8B968B90969C8BBE5764736F PUSH13 0x63430008110033000000000000 "
				},
				"gasEstimates": {
					"creation": {
						"codeDepositCost": "1544400",
						"executionCost": "infinite",
						"totalCost": "infinite"
					},
					"external": {
						"allowance(address,address)": "infinite",
						"approve(address,uint256)": "infinite",
						"balanceOf(address)": "2886",
						"decimals()": "388",
						"decreaseAllowance(address,uint256)": "infinite",
						"increaseAllowance(address,uint256)": "infinite",
						"mint(uint256)": "infinite",
						"name()": "infinite",
						"safeTransfer(address,uint256)": "infinite",
						"safeTransfer(address,uint256,bytes)": "infinite",
						"safeTransferFrom(address,address,uint256)": "infinite",
						"safeTransferFrom(address,address,uint256,bytes)": "infinite",
						"supportsInterface(bytes4)": "797",
						"symbol()": "infinite",
						"totalSupply()": "2527",
						"transfer(address,uint256)": "infinite",
						"transferFrom(address,address,uint256)": "infinite"
					},
					"internal": {
						"_afterTokenTransfer(address,address,uint256)": "15",
						"_approve(address,address,uint256)": "infinite",
						"_beforeTokenTransfer(address,address,uint256)": "15",
						"_burn(address,uint256)": "infinite",
						"_checkOnKIP7Received(address,address,uint256,bytes memory)": "infinite",
						"_mint(address,uint256)": "infinite",
						"_safeMint(address,uint256)": "infinite",
						"_safeMint(address,uint256,bytes memory)": "infinite",
						"_safeTransfer(address,address,uint256,bytes memory)": "infinite",
						"_spendAllowance(address,address,uint256)": "infinite",
						"_transfer(address,address,uint256)": "infinite"
					}
				},
				"methodIdentifiers": {
					"allowance(address,address)": "dd62ed3e",
					"approve(address,uint256)": "095ea7b3",
					"balanceOf(address)": "70a08231",
					"decimals()": "313ce567",
					"decreaseAllowance(address,uint256)": "a457c2d7",
					"increaseAllowance(address,uint256)": "39509351",
					"mint(uint256)": "a0712d68",
					"name()": "06fdde03",
					"safeTransfer(address,uint256)": "423f6cef",
					"safeTransfer(address,uint256,bytes)": "eb795549",
					"safeTransferFrom(address,address,uint256)": "42842e0e",
					"safeTransferFrom(address,address,uint256,bytes)": "b88d4fde",
					"supportsInterface(bytes4)": "01ffc9a7",
					"symbol()": "95d89b41",
					"totalSupply()": "18160ddd",
					"transfer(address,uint256)": "a9059cbb",
					"transferFrom(address,address,uint256)": "23b872dd"
				}
			},
			"storageLayout": {
				"storage": [
					{
						"astId": 158,
						"contract": "contracts/KlaytnToken.sol:KIP7",
						"label": "_balances",
						"offset": 0,
						"slot": "0",
						"type": "t_mapping(t_address,t_uint256)"
					},
					{
						"astId": 164,
						"contract": "contracts/KlaytnToken.sol:KIP7",
						"label": "_allowances",
						"offset": 0,
						"slot": "1",
						"type": "t_mapping(t_address,t_mapping(t_address,t_uint256))"
					},
					{
						"astId": 166,
						"contract": "contracts/KlaytnToken.sol:KIP7",
						"label": "_totalSupply",
						"offset": 0,
						"slot": "2",
						"type": "t_uint256"
					},
					{
						"astId": 168,
						"contract": "contracts/KlaytnToken.sol:KIP7",
						"label": "_name",
						"offset": 0,
						"slot": "3",
						"type": "t_string_storage"
					},
					{
						"astId": 170,
						"contract": "contracts/KlaytnToken.sol:KIP7",
						"label": "_symbol",
						"offset": 0,
						"slot": "4",
						"type": "t_string_storage"
					}
				],
				"types": {
					"t_address": {
						"encoding": "inplace",
						"label": "address",
						"numberOfBytes": "20"
					},
					"t_mapping(t_address,t_mapping(t_address,t_uint256))": {
						"encoding": "mapping",
						"key": "t_address",
						"label": "mapping(address => mapping(address => uint256))",
						"numberOfBytes": "32",
						"value": "t_mapping(t_address,t_uint256)"
					},
					"t_mapping(t_address,t_uint256)": {
						"encoding": "mapping",
						"key": "t_address",
						"label": "mapping(address => uint256)",
						"numberOfBytes": "32",
						"value": "t_uint256"
					},
					"t_string_storage": {
						"encoding": "bytes",
						"label": "string",
						"numberOfBytes": "32"
					},
					"t_uint256": {
						"encoding": "inplace",
						"label": "uint256",
						"numberOfBytes": "32"
					}
				}
			},
			"userdoc": {
				"kind": "user",
				"methods": {},
				"version": 1
			}
		}
	}
}