{
	"contracts/TokenDistributer.sol": {
		"TokenDistributer": {
			"abi": [
				{
					"inputs": [
						{
							"internalType": "address",
							"name": "contractAddress",
							"type": "address"
						},
						{
							"internalType": "address[]",
							"name": "addresses",
							"type": "address[]"
						},
						{
							"internalType": "uint256[]",
							"name": "amounts",
							"type": "uint256[]"
						}
					],
					"name": "distributeERC20",
					"outputs": [],
					"stateMutability": "nonpayable",
					"type": "function"
				},
				{
					"inputs": [
						{
							"internalType": "address",
							"name": "contractAddress",
							"type": "address"
						},
						{
							"internalType": "address[]",
							"name": "addresses",
							"type": "address[]"
						},
						{
							"internalType": "uint256[]",
							"name": "tokenIds",
							"type": "uint256[]"
						}
					],
					"name": "distributeERC721",
					"outputs": [],
					"stateMutability": "nonpayable",
					"type": "function"
				}
			],
			"devdoc": {
				"kind": "dev",
				"methods": {},
				"version": 1
			},
			"evm": {
				"assembly": "    /* \"contracts/TokenDistributer.sol\":175:1098  contract TokenDistributer {... */\n  mstore(0x40, 0x80)\n  callvalue\n  dup1\n  iszero\n  tag_1\n  jumpi\n  0x00\n  dup1\n  revert\ntag_1:\n  pop\n  dataSize(sub_0)\n  dup1\n  dataOffset(sub_0)\n  0x00\n  codecopy\n  0x00\n  return\nstop\n\nsub_0: assembly {\n        /* \"contracts/TokenDistributer.sol\":175:1098  contract TokenDistributer {... */\n      mstore(0x40, 0x80)\n      callvalue\n      dup1\n      iszero\n      tag_1\n      jumpi\n      0x00\n      dup1\n      revert\n    tag_1:\n      pop\n      jumpi(tag_2, lt(calldatasize, 0x04))\n      shr(0xe0, calldataload(0x00))\n      dup1\n      0xb32d79dd\n      eq\n      tag_3\n      jumpi\n      dup1\n      0xfeeb9449\n      eq\n      tag_4\n      jumpi\n    tag_2:\n      0x00\n      dup1\n      revert\n        /* \"contracts/TokenDistributer.sol\":658:1096  function distributeERC20(address contractAddress, address[] memory addresses, uint256[] memory amounts) public {... */\n    tag_3:\n      tag_5\n      0x04\n      dup1\n      calldatasize\n      sub\n      dup2\n      add\n      swap1\n      tag_6\n      swap2\n      swap1\n      tag_7\n      jump\t// in\n    tag_6:\n      tag_8\n      jump\t// in\n    tag_5:\n      stop\n        /* \"contracts/TokenDistributer.sol\":205:654  function distributeERC721(address contractAddress, address[] memory addresses, uint256[] memory tokenIds) public {... */\n    tag_4:\n      tag_9\n      0x04\n      dup1\n      calldatasize\n      sub\n      dup2\n      add\n      swap1\n      tag_10\n      swap2\n      swap1\n      tag_7\n      jump\t// in\n    tag_10:\n      tag_11\n      jump\t// in\n    tag_9:\n      stop\n        /* \"contracts/TokenDistributer.sol\":658:1096  function distributeERC20(address contractAddress, address[] memory addresses, uint256[] memory amounts) public {... */\n    tag_8:\n        /* \"contracts/TokenDistributer.sol\":801:804  300 */\n      0x012c\n        /* \"contracts/TokenDistributer.sol\":783:792  addresses */\n      dup3\n        /* \"contracts/TokenDistributer.sol\":783:799  addresses.length */\n      mload\n        /* \"contracts/TokenDistributer.sol\":783:804  addresses.length<=300 */\n      gt\n      iszero\n        /* \"contracts/TokenDistributer.sol\":775:860  require(addresses.length<=300,\"you can distribute tokens to less than 300 addresses\") */\n      tag_13\n      jumpi\n      mload(0x40)\n      0x08c379a000000000000000000000000000000000000000000000000000000000\n      dup2\n      mstore\n      0x04\n      add\n      tag_14\n      swap1\n      tag_15\n      jump\t// in\n    tag_14:\n      mload(0x40)\n      dup1\n      swap2\n      sub\n      swap1\n      revert\n    tag_13:\n        /* \"contracts/TokenDistributer.sol\":894:901  amounts */\n      dup1\n        /* \"contracts/TokenDistributer.sol\":894:908  amounts.length */\n      mload\n        /* \"contracts/TokenDistributer.sol\":874:883  addresses */\n      dup3\n        /* \"contracts/TokenDistributer.sol\":874:890  addresses.length */\n      mload\n        /* \"contracts/TokenDistributer.sol\":874:908  addresses.length == amounts.length */\n      eq\n        /* \"contracts/TokenDistributer.sol\":866:959  require(addresses.length == amounts.length, \"length of addresses and tokenIds must be equal\") */\n      tag_16\n      jumpi\n      mload(0x40)\n      0x08c379a000000000000000000000000000000000000000000000000000000000\n      dup2\n      mstore\n      0x04\n      add\n      tag_17\n      swap1\n      tag_18\n      jump\t// in\n    tag_17:\n      mload(0x40)\n      dup1\n      swap2\n      sub\n      swap1\n      revert\n    tag_16:\n        /* \"contracts/TokenDistributer.sol\":970:979  uint256 i */\n      0x00\n        /* \"contracts/TokenDistributer.sol\":966:1092  for(uint256 i=0;i<addresses.length;i++){... */\n    tag_19:\n        /* \"contracts/TokenDistributer.sol\":984:993  addresses */\n      dup3\n        /* \"contracts/TokenDistributer.sol\":984:1000  addresses.length */\n      mload\n        /* \"contracts/TokenDistributer.sol\":982:983  i */\n      dup2\n        /* \"contracts/TokenDistributer.sol\":982:1000  i<addresses.length */\n      lt\n        /* \"contracts/TokenDistributer.sol\":966:1092  for(uint256 i=0;i<addresses.length;i++){... */\n      iszero\n      tag_20\n      jumpi\n        /* \"contracts/TokenDistributer.sol\":1020:1035  contractAddress */\n      dup4\n        /* \"contracts/TokenDistributer.sol\":1013:1049  IERC20(contractAddress).transferFrom */\n      0xffffffffffffffffffffffffffffffffffffffff\n      and\n      0x23b872dd\n        /* \"contracts/TokenDistributer.sol\":1050:1060  msg.sender */\n      caller\n        /* \"contracts/TokenDistributer.sol\":1061:1070  addresses */\n      dup6\n        /* \"contracts/TokenDistributer.sol\":1071:1072  i */\n      dup5\n        /* \"contracts/TokenDistributer.sol\":1061:1073  addresses[i] */\n      dup2\n      mload\n      dup2\n      lt\n      tag_22\n      jumpi\n      tag_23\n      tag_24\n      jump\t// in\n    tag_23:\n    tag_22:\n      0x20\n      mul\n      0x20\n      add\n      add\n      mload\n        /* \"contracts/TokenDistributer.sol\":1074:1081  amounts */\n      dup6\n        /* \"contracts/TokenDistributer.sol\":1082:1083  i */\n      dup6\n        /* \"contracts/TokenDistributer.sol\":1074:1084  amounts[i] */\n      dup2\n      mload\n      dup2\n      lt\n      tag_25\n      jumpi\n      tag_26\n      tag_24\n      jump\t// in\n    tag_26:\n    tag_25:\n      0x20\n      mul\n      0x20\n      add\n      add\n      mload\n        /* \"contracts/TokenDistributer.sol\":1013:1085  IERC20(contractAddress).transferFrom(msg.sender,addresses[i],amounts[i]) */\n      mload(0x40)\n      dup5\n      0xffffffff\n      and\n      0xe0\n      shl\n      dup2\n      mstore\n      0x04\n      add\n      tag_27\n      swap4\n      swap3\n      swap2\n      swap1\n      tag_28\n      jump\t// in\n    tag_27:\n      0x20\n      mload(0x40)\n      dup1\n      dup4\n      sub\n      dup2\n      0x00\n      dup8\n      gas\n      call\n      iszero\n      dup1\n      iszero\n      tag_30\n      jumpi\n      returndatasize\n      0x00\n      dup1\n      returndatacopy\n      revert(0x00, returndatasize)\n    tag_30:\n      pop\n      pop\n      pop\n      pop\n      mload(0x40)\n      returndatasize\n      not(0x1f)\n      0x1f\n      dup3\n      add\n      and\n      dup3\n      add\n      dup1\n      0x40\n      mstore\n      pop\n      dup2\n      add\n      swap1\n      tag_31\n      swap2\n      swap1\n      tag_32\n      jump\t// in\n    tag_31:\n      pop\n        /* \"contracts/TokenDistributer.sol\":1001:1004  i++ */\n      dup1\n      dup1\n      tag_33\n      swap1\n      tag_34\n      jump\t// in\n    tag_33:\n      swap2\n      pop\n      pop\n        /* \"contracts/TokenDistributer.sol\":966:1092  for(uint256 i=0;i<addresses.length;i++){... */\n      jump(tag_19)\n    tag_20:\n      pop\n        /* \"contracts/TokenDistributer.sol\":658:1096  function distributeERC20(address contractAddress, address[] memory addresses, uint256[] memory amounts) public {... */\n      pop\n      pop\n      pop\n      jump\t// out\n        /* \"contracts/TokenDistributer.sol\":205:654  function distributeERC721(address contractAddress, address[] memory addresses, uint256[] memory tokenIds) public {... */\n    tag_11:\n        /* \"contracts/TokenDistributer.sol\":350:353  300 */\n      0x012c\n        /* \"contracts/TokenDistributer.sol\":332:341  addresses */\n      dup3\n        /* \"contracts/TokenDistributer.sol\":332:348  addresses.length */\n      mload\n        /* \"contracts/TokenDistributer.sol\":332:353  addresses.length<=300 */\n      gt\n      iszero\n        /* \"contracts/TokenDistributer.sol\":324:409  require(addresses.length<=300,\"you can distribute tokens to less than 300 addresses\") */\n      tag_36\n      jumpi\n      mload(0x40)\n      0x08c379a000000000000000000000000000000000000000000000000000000000\n      dup2\n      mstore\n      0x04\n      add\n      tag_37\n      swap1\n      tag_15\n      jump\t// in\n    tag_37:\n      mload(0x40)\n      dup1\n      swap2\n      sub\n      swap1\n      revert\n    tag_36:\n        /* \"contracts/TokenDistributer.sol\":443:451  tokenIds */\n      dup1\n        /* \"contracts/TokenDistributer.sol\":443:458  tokenIds.length */\n      mload\n        /* \"contracts/TokenDistributer.sol\":423:432  addresses */\n      dup3\n        /* \"contracts/TokenDistributer.sol\":423:439  addresses.length */\n      mload\n        /* \"contracts/TokenDistributer.sol\":423:458  addresses.length == tokenIds.length */\n      eq\n        /* \"contracts/TokenDistributer.sol\":415:509  require(addresses.length == tokenIds.length, \"length of addresses and tokenIds must be equal\") */\n      tag_38\n      jumpi\n      mload(0x40)\n      0x08c379a000000000000000000000000000000000000000000000000000000000\n      dup2\n      mstore\n      0x04\n      add\n      tag_39\n      swap1\n      tag_18\n      jump\t// in\n    tag_39:\n      mload(0x40)\n      dup1\n      swap2\n      sub\n      swap1\n      revert\n    tag_38:\n        /* \"contracts/TokenDistributer.sol\":520:529  uint256 i */\n      0x00\n        /* \"contracts/TokenDistributer.sol\":516:650  for(uint256 i=0;i<addresses.length;i++){... */\n    tag_40:\n        /* \"contracts/TokenDistributer.sol\":534:543  addresses */\n      dup3\n        /* \"contracts/TokenDistributer.sol\":534:550  addresses.length */\n      mload\n        /* \"contracts/TokenDistributer.sol\":532:533  i */\n      dup2\n        /* \"contracts/TokenDistributer.sol\":532:550  i<addresses.length */\n      lt\n        /* \"contracts/TokenDistributer.sol\":516:650  for(uint256 i=0;i<addresses.length;i++){... */\n      iszero\n      tag_41\n      jumpi\n        /* \"contracts/TokenDistributer.sol\":571:586  contractAddress */\n      dup4\n        /* \"contracts/TokenDistributer.sol\":563:604  IERC721(contractAddress).safeTransferFrom */\n      0xffffffffffffffffffffffffffffffffffffffff\n      and\n      0x42842e0e\n        /* \"contracts/TokenDistributer.sol\":605:615  msg.sender */\n      caller\n        /* \"contracts/TokenDistributer.sol\":617:626  addresses */\n      dup6\n        /* \"contracts/TokenDistributer.sol\":627:628  i */\n      dup5\n        /* \"contracts/TokenDistributer.sol\":617:629  addresses[i] */\n      dup2\n      mload\n      dup2\n      lt\n      tag_43\n      jumpi\n      tag_44\n      tag_24\n      jump\t// in\n    tag_44:\n    tag_43:\n      0x20\n      mul\n      0x20\n      add\n      add\n      mload\n        /* \"contracts/TokenDistributer.sol\":631:639  tokenIds */\n      dup6\n        /* \"contracts/TokenDistributer.sol\":640:641  i */\n      dup6\n        /* \"contracts/TokenDistributer.sol\":631:642  tokenIds[i] */\n      dup2\n      mload\n      dup2\n      lt\n      tag_45\n      jumpi\n      tag_46\n      tag_24\n      jump\t// in\n    tag_46:\n    tag_45:\n      0x20\n      mul\n      0x20\n      add\n      add\n      mload\n        /* \"contracts/TokenDistributer.sol\":563:643  IERC721(contractAddress).safeTransferFrom(msg.sender, addresses[i], tokenIds[i]) */\n      mload(0x40)\n      dup5\n      0xffffffff\n      and\n      0xe0\n      shl\n      dup2\n      mstore\n      0x04\n      add\n      tag_47\n      swap4\n      swap3\n      swap2\n      swap1\n      tag_28\n      jump\t// in\n    tag_47:\n      0x00\n      mload(0x40)\n      dup1\n      dup4\n      sub\n      dup2\n      0x00\n      dup8\n      dup1\n      extcodesize\n      iszero\n      dup1\n      iszero\n      tag_48\n      jumpi\n      0x00\n      dup1\n      revert\n    tag_48:\n      pop\n      gas\n      call\n      iszero\n      dup1\n      iszero\n      tag_50\n      jumpi\n      returndatasize\n      0x00\n      dup1\n      returndatacopy\n      revert(0x00, returndatasize)\n    tag_50:\n      pop\n      pop\n      pop\n      pop\n        /* \"contracts/TokenDistributer.sol\":551:554  i++ */\n      dup1\n      dup1\n      tag_51\n      swap1\n      tag_34\n      jump\t// in\n    tag_51:\n      swap2\n      pop\n      pop\n        /* \"contracts/TokenDistributer.sol\":516:650  for(uint256 i=0;i<addresses.length;i++){... */\n      jump(tag_40)\n    tag_41:\n      pop\n        /* \"contracts/TokenDistributer.sol\":205:654  function distributeERC721(address contractAddress, address[] memory addresses, uint256[] memory tokenIds) public {... */\n      pop\n      pop\n      pop\n      jump\t// out\n        /* \"#utility.yul\":7:82   */\n    tag_52:\n        /* \"#utility.yul\":40:46   */\n      0x00\n        /* \"#utility.yul\":73:75   */\n      0x40\n        /* \"#utility.yul\":67:76   */\n      mload\n        /* \"#utility.yul\":57:76   */\n      swap1\n      pop\n        /* \"#utility.yul\":7:82   */\n      swap1\n      jump\t// out\n        /* \"#utility.yul\":88:205   */\n    tag_53:\n        /* \"#utility.yul\":197:198   */\n      0x00\n        /* \"#utility.yul\":194:195   */\n      dup1\n        /* \"#utility.yul\":187:199   */\n      revert\n        /* \"#utility.yul\":211:328   */\n    tag_54:\n        /* \"#utility.yul\":320:321   */\n      0x00\n        /* \"#utility.yul\":317:318   */\n      dup1\n        /* \"#utility.yul\":310:322   */\n      revert\n        /* \"#utility.yul\":334:460   */\n    tag_55:\n        /* \"#utility.yul\":371:378   */\n      0x00\n        /* \"#utility.yul\":411:453   */\n      0xffffffffffffffffffffffffffffffffffffffff\n        /* \"#utility.yul\":404:409   */\n      dup3\n        /* \"#utility.yul\":400:454   */\n      and\n        /* \"#utility.yul\":389:454   */\n      swap1\n      pop\n        /* \"#utility.yul\":334:460   */\n      swap2\n      swap1\n      pop\n      jump\t// out\n        /* \"#utility.yul\":466:562   */\n    tag_56:\n        /* \"#utility.yul\":503:510   */\n      0x00\n        /* \"#utility.yul\":532:556   */\n      tag_91\n        /* \"#utility.yul\":550:555   */\n      dup3\n        /* \"#utility.yul\":532:556   */\n      tag_55\n      jump\t// in\n    tag_91:\n        /* \"#utility.yul\":521:556   */\n      swap1\n      pop\n        /* \"#utility.yul\":466:562   */\n      swap2\n      swap1\n      pop\n      jump\t// out\n        /* \"#utility.yul\":568:690   */\n    tag_57:\n        /* \"#utility.yul\":641:665   */\n      tag_93\n        /* \"#utility.yul\":659:664   */\n      dup2\n        /* \"#utility.yul\":641:665   */\n      tag_56\n      jump\t// in\n    tag_93:\n        /* \"#utility.yul\":634:639   */\n      dup2\n        /* \"#utility.yul\":631:666   */\n      eq\n        /* \"#utility.yul\":621:684   */\n      tag_94\n      jumpi\n        /* \"#utility.yul\":680:681   */\n      0x00\n        /* \"#utility.yul\":677:678   */\n      dup1\n        /* \"#utility.yul\":670:682   */\n      revert\n        /* \"#utility.yul\":621:684   */\n    tag_94:\n        /* \"#utility.yul\":568:690   */\n      pop\n      jump\t// out\n        /* \"#utility.yul\":696:835   */\n    tag_58:\n        /* \"#utility.yul\":742:747   */\n      0x00\n        /* \"#utility.yul\":780:786   */\n      dup2\n        /* \"#utility.yul\":767:787   */\n      calldataload\n        /* \"#utility.yul\":758:787   */\n      swap1\n      pop\n        /* \"#utility.yul\":796:829   */\n      tag_96\n        /* \"#utility.yul\":823:828   */\n      dup2\n        /* \"#utility.yul\":796:829   */\n      tag_57\n      jump\t// in\n    tag_96:\n        /* \"#utility.yul\":696:835   */\n      swap3\n      swap2\n      pop\n      pop\n      jump\t// out\n        /* \"#utility.yul\":841:958   */\n    tag_59:\n        /* \"#utility.yul\":950:951   */\n      0x00\n        /* \"#utility.yul\":947:948   */\n      dup1\n        /* \"#utility.yul\":940:952   */\n      revert\n        /* \"#utility.yul\":964:1066   */\n    tag_60:\n        /* \"#utility.yul\":1005:1011   */\n      0x00\n        /* \"#utility.yul\":1056:1058   */\n      0x1f\n        /* \"#utility.yul\":1052:1059   */\n      not\n        /* \"#utility.yul\":1047:1049   */\n      0x1f\n        /* \"#utility.yul\":1040:1045   */\n      dup4\n        /* \"#utility.yul\":1036:1050   */\n      add\n        /* \"#utility.yul\":1032:1060   */\n      and\n        /* \"#utility.yul\":1022:1060   */\n      swap1\n      pop\n        /* \"#utility.yul\":964:1066   */\n      swap2\n      swap1\n      pop\n      jump\t// out\n        /* \"#utility.yul\":1072:1252   */\n    tag_61:\n        /* \"#utility.yul\":1120:1197   */\n      0x4e487b7100000000000000000000000000000000000000000000000000000000\n        /* \"#utility.yul\":1117:1118   */\n      0x00\n        /* \"#utility.yul\":1110:1198   */\n      mstore\n        /* \"#utility.yul\":1217:1221   */\n      0x41\n        /* \"#utility.yul\":1214:1215   */\n      0x04\n        /* \"#utility.yul\":1207:1222   */\n      mstore\n        /* \"#utility.yul\":1241:1245   */\n      0x24\n        /* \"#utility.yul\":1238:1239   */\n      0x00\n        /* \"#utility.yul\":1231:1246   */\n      revert\n        /* \"#utility.yul\":1258:1539   */\n    tag_62:\n        /* \"#utility.yul\":1341:1368   */\n      tag_101\n        /* \"#utility.yul\":1363:1367   */\n      dup3\n        /* \"#utility.yul\":1341:1368   */\n      tag_60\n      jump\t// in\n    tag_101:\n        /* \"#utility.yul\":1333:1339   */\n      dup2\n        /* \"#utility.yul\":1329:1369   */\n      add\n        /* \"#utility.yul\":1471:1477   */\n      dup2\n        /* \"#utility.yul\":1459:1469   */\n      dup2\n        /* \"#utility.yul\":1456:1478   */\n      lt\n        /* \"#utility.yul\":1435:1453   */\n      0xffffffffffffffff\n        /* \"#utility.yul\":1423:1433   */\n      dup3\n        /* \"#utility.yul\":1420:1454   */\n      gt\n        /* \"#utility.yul\":1417:1479   */\n      or\n        /* \"#utility.yul\":1414:1502   */\n      iszero\n      tag_102\n      jumpi\n        /* \"#utility.yul\":1482:1500   */\n      tag_103\n      tag_61\n      jump\t// in\n    tag_103:\n        /* \"#utility.yul\":1414:1502   */\n    tag_102:\n        /* \"#utility.yul\":1522:1532   */\n      dup1\n        /* \"#utility.yul\":1518:1520   */\n      0x40\n        /* \"#utility.yul\":1511:1533   */\n      mstore\n        /* \"#utility.yul\":1301:1539   */\n      pop\n        /* \"#utility.yul\":1258:1539   */\n      pop\n      pop\n      jump\t// out\n        /* \"#utility.yul\":1545:1674   */\n    tag_63:\n        /* \"#utility.yul\":1579:1585   */\n      0x00\n        /* \"#utility.yul\":1606:1626   */\n      tag_105\n      tag_52\n      jump\t// in\n    tag_105:\n        /* \"#utility.yul\":1596:1626   */\n      swap1\n      pop\n        /* \"#utility.yul\":1635:1668   */\n      tag_106\n        /* \"#utility.yul\":1663:1667   */\n      dup3\n        /* \"#utility.yul\":1655:1661   */\n      dup3\n        /* \"#utility.yul\":1635:1668   */\n      tag_62\n      jump\t// in\n    tag_106:\n        /* \"#utility.yul\":1545:1674   */\n      swap2\n      swap1\n      pop\n      jump\t// out\n        /* \"#utility.yul\":1680:1991   */\n    tag_64:\n        /* \"#utility.yul\":1757:1761   */\n      0x00\n        /* \"#utility.yul\":1847:1865   */\n      0xffffffffffffffff\n        /* \"#utility.yul\":1839:1845   */\n      dup3\n        /* \"#utility.yul\":1836:1866   */\n      gt\n        /* \"#utility.yul\":1833:1889   */\n      iszero\n      tag_108\n      jumpi\n        /* \"#utility.yul\":1869:1887   */\n      tag_109\n      tag_61\n      jump\t// in\n    tag_109:\n        /* \"#utility.yul\":1833:1889   */\n    tag_108:\n        /* \"#utility.yul\":1919:1923   */\n      0x20\n        /* \"#utility.yul\":1911:1917   */\n      dup3\n        /* \"#utility.yul\":1907:1924   */\n      mul\n        /* \"#utility.yul\":1899:1924   */\n      swap1\n      pop\n        /* \"#utility.yul\":1979:1983   */\n      0x20\n        /* \"#utility.yul\":1973:1977   */\n      dup2\n        /* \"#utility.yul\":1969:1984   */\n      add\n        /* \"#utility.yul\":1961:1984   */\n      swap1\n      pop\n        /* \"#utility.yul\":1680:1991   */\n      swap2\n      swap1\n      pop\n      jump\t// out\n        /* \"#utility.yul\":1997:2114   */\n    tag_65:\n        /* \"#utility.yul\":2106:2107   */\n      0x00\n        /* \"#utility.yul\":2103:2104   */\n      dup1\n        /* \"#utility.yul\":2096:2108   */\n      revert\n        /* \"#utility.yul\":2137:2847   */\n    tag_66:\n        /* \"#utility.yul\":2233:2238   */\n      0x00\n        /* \"#utility.yul\":2258:2339   */\n      tag_112\n        /* \"#utility.yul\":2274:2338   */\n      tag_113\n        /* \"#utility.yul\":2331:2337   */\n      dup5\n        /* \"#utility.yul\":2274:2338   */\n      tag_64\n      jump\t// in\n    tag_113:\n        /* \"#utility.yul\":2258:2339   */\n      tag_63\n      jump\t// in\n    tag_112:\n        /* \"#utility.yul\":2249:2339   */\n      swap1\n      pop\n        /* \"#utility.yul\":2359:2364   */\n      dup1\n        /* \"#utility.yul\":2388:2394   */\n      dup4\n        /* \"#utility.yul\":2381:2386   */\n      dup3\n        /* \"#utility.yul\":2374:2395   */\n      mstore\n        /* \"#utility.yul\":2422:2426   */\n      0x20\n        /* \"#utility.yul\":2415:2420   */\n      dup3\n        /* \"#utility.yul\":2411:2427   */\n      add\n        /* \"#utility.yul\":2404:2427   */\n      swap1\n      pop\n        /* \"#utility.yul\":2475:2479   */\n      0x20\n        /* \"#utility.yul\":2467:2473   */\n      dup5\n        /* \"#utility.yul\":2463:2480   */\n      mul\n        /* \"#utility.yul\":2455:2461   */\n      dup4\n        /* \"#utility.yul\":2451:2481   */\n      add\n        /* \"#utility.yul\":2504:2507   */\n      dup6\n        /* \"#utility.yul\":2496:2502   */\n      dup2\n        /* \"#utility.yul\":2493:2508   */\n      gt\n        /* \"#utility.yul\":2490:2612   */\n      iszero\n      tag_114\n      jumpi\n        /* \"#utility.yul\":2523:2602   */\n      tag_115\n      tag_65\n      jump\t// in\n    tag_115:\n        /* \"#utility.yul\":2490:2612   */\n    tag_114:\n        /* \"#utility.yul\":2638:2644   */\n      dup4\n        /* \"#utility.yul\":2621:2841   */\n    tag_116:\n        /* \"#utility.yul\":2655:2661   */\n      dup2\n        /* \"#utility.yul\":2650:2653   */\n      dup2\n        /* \"#utility.yul\":2647:2662   */\n      lt\n        /* \"#utility.yul\":2621:2841   */\n      iszero\n      tag_118\n      jumpi\n        /* \"#utility.yul\":2730:2733   */\n      dup1\n        /* \"#utility.yul\":2759:2796   */\n      tag_119\n        /* \"#utility.yul\":2792:2795   */\n      dup9\n        /* \"#utility.yul\":2780:2790   */\n      dup3\n        /* \"#utility.yul\":2759:2796   */\n      tag_58\n      jump\t// in\n    tag_119:\n        /* \"#utility.yul\":2754:2757   */\n      dup5\n        /* \"#utility.yul\":2747:2797   */\n      mstore\n        /* \"#utility.yul\":2826:2830   */\n      0x20\n        /* \"#utility.yul\":2821:2824   */\n      dup5\n        /* \"#utility.yul\":2817:2831   */\n      add\n        /* \"#utility.yul\":2810:2831   */\n      swap4\n      pop\n        /* \"#utility.yul\":2697:2841   */\n      pop\n        /* \"#utility.yul\":2681:2685   */\n      0x20\n        /* \"#utility.yul\":2676:2679   */\n      dup2\n        /* \"#utility.yul\":2672:2686   */\n      add\n        /* \"#utility.yul\":2665:2686   */\n      swap1\n      pop\n        /* \"#utility.yul\":2621:2841   */\n      jump(tag_116)\n    tag_118:\n        /* \"#utility.yul\":2625:2646   */\n      pop\n        /* \"#utility.yul\":2239:2847   */\n      pop\n      pop\n        /* \"#utility.yul\":2137:2847   */\n      swap4\n      swap3\n      pop\n      pop\n      pop\n      jump\t// out\n        /* \"#utility.yul\":2870:3240   */\n    tag_67:\n        /* \"#utility.yul\":2941:2946   */\n      0x00\n        /* \"#utility.yul\":2990:2993   */\n      dup3\n        /* \"#utility.yul\":2983:2987   */\n      0x1f\n        /* \"#utility.yul\":2975:2981   */\n      dup4\n        /* \"#utility.yul\":2971:2988   */\n      add\n        /* \"#utility.yul\":2967:2994   */\n      slt\n        /* \"#utility.yul\":2957:3079   */\n      tag_121\n      jumpi\n        /* \"#utility.yul\":2998:3077   */\n      tag_122\n      tag_59\n      jump\t// in\n    tag_122:\n        /* \"#utility.yul\":2957:3079   */\n    tag_121:\n        /* \"#utility.yul\":3115:3121   */\n      dup2\n        /* \"#utility.yul\":3102:3122   */\n      calldataload\n        /* \"#utility.yul\":3140:3234   */\n      tag_123\n        /* \"#utility.yul\":3230:3233   */\n      dup5\n        /* \"#utility.yul\":3222:3228   */\n      dup3\n        /* \"#utility.yul\":3215:3219   */\n      0x20\n        /* \"#utility.yul\":3207:3213   */\n      dup7\n        /* \"#utility.yul\":3203:3220   */\n      add\n        /* \"#utility.yul\":3140:3234   */\n      tag_66\n      jump\t// in\n    tag_123:\n        /* \"#utility.yul\":3131:3234   */\n      swap2\n      pop\n        /* \"#utility.yul\":2947:3240   */\n      pop\n        /* \"#utility.yul\":2870:3240   */\n      swap3\n      swap2\n      pop\n      pop\n      jump\t// out\n        /* \"#utility.yul\":3246:3557   */\n    tag_68:\n        /* \"#utility.yul\":3323:3327   */\n      0x00\n        /* \"#utility.yul\":3413:3431   */\n      0xffffffffffffffff\n        /* \"#utility.yul\":3405:3411   */\n      dup3\n        /* \"#utility.yul\":3402:3432   */\n      gt\n        /* \"#utility.yul\":3399:3455   */\n      iszero\n      tag_125\n      jumpi\n        /* \"#utility.yul\":3435:3453   */\n      tag_126\n      tag_61\n      jump\t// in\n    tag_126:\n        /* \"#utility.yul\":3399:3455   */\n    tag_125:\n        /* \"#utility.yul\":3485:3489   */\n      0x20\n        /* \"#utility.yul\":3477:3483   */\n      dup3\n        /* \"#utility.yul\":3473:3490   */\n      mul\n        /* \"#utility.yul\":3465:3490   */\n      swap1\n      pop\n        /* \"#utility.yul\":3545:3549   */\n      0x20\n        /* \"#utility.yul\":3539:3543   */\n      dup2\n        /* \"#utility.yul\":3535:3550   */\n      add\n        /* \"#utility.yul\":3527:3550   */\n      swap1\n      pop\n        /* \"#utility.yul\":3246:3557   */\n      swap2\n      swap1\n      pop\n      jump\t// out\n        /* \"#utility.yul\":3563:3640   */\n    tag_69:\n        /* \"#utility.yul\":3600:3607   */\n      0x00\n        /* \"#utility.yul\":3629:3634   */\n      dup2\n        /* \"#utility.yul\":3618:3634   */\n      swap1\n      pop\n        /* \"#utility.yul\":3563:3640   */\n      swap2\n      swap1\n      pop\n      jump\t// out\n        /* \"#utility.yul\":3646:3768   */\n    tag_70:\n        /* \"#utility.yul\":3719:3743   */\n      tag_129\n        /* \"#utility.yul\":3737:3742   */\n      dup2\n        /* \"#utility.yul\":3719:3743   */\n      tag_69\n      jump\t// in\n    tag_129:\n        /* \"#utility.yul\":3712:3717   */\n      dup2\n        /* \"#utility.yul\":3709:3744   */\n      eq\n        /* \"#utility.yul\":3699:3762   */\n      tag_130\n      jumpi\n        /* \"#utility.yul\":3758:3759   */\n      0x00\n        /* \"#utility.yul\":3755:3756   */\n      dup1\n        /* \"#utility.yul\":3748:3760   */\n      revert\n        /* \"#utility.yul\":3699:3762   */\n    tag_130:\n        /* \"#utility.yul\":3646:3768   */\n      pop\n      jump\t// out\n        /* \"#utility.yul\":3774:3913   */\n    tag_71:\n        /* \"#utility.yul\":3820:3825   */\n      0x00\n        /* \"#utility.yul\":3858:3864   */\n      dup2\n        /* \"#utility.yul\":3845:3865   */\n      calldataload\n        /* \"#utility.yul\":3836:3865   */\n      swap1\n      pop\n        /* \"#utility.yul\":3874:3907   */\n      tag_132\n        /* \"#utility.yul\":3901:3906   */\n      dup2\n        /* \"#utility.yul\":3874:3907   */\n      tag_70\n      jump\t// in\n    tag_132:\n        /* \"#utility.yul\":3774:3913   */\n      swap3\n      swap2\n      pop\n      pop\n      jump\t// out\n        /* \"#utility.yul\":3936:4646   */\n    tag_72:\n        /* \"#utility.yul\":4032:4037   */\n      0x00\n        /* \"#utility.yul\":4057:4138   */\n      tag_134\n        /* \"#utility.yul\":4073:4137   */\n      tag_135\n        /* \"#utility.yul\":4130:4136   */\n      dup5\n        /* \"#utility.yul\":4073:4137   */\n      tag_68\n      jump\t// in\n    tag_135:\n        /* \"#utility.yul\":4057:4138   */\n      tag_63\n      jump\t// in\n    tag_134:\n        /* \"#utility.yul\":4048:4138   */\n      swap1\n      pop\n        /* \"#utility.yul\":4158:4163   */\n      dup1\n        /* \"#utility.yul\":4187:4193   */\n      dup4\n        /* \"#utility.yul\":4180:4185   */\n      dup3\n        /* \"#utility.yul\":4173:4194   */\n      mstore\n        /* \"#utility.yul\":4221:4225   */\n      0x20\n        /* \"#utility.yul\":4214:4219   */\n      dup3\n        /* \"#utility.yul\":4210:4226   */\n      add\n        /* \"#utility.yul\":4203:4226   */\n      swap1\n      pop\n        /* \"#utility.yul\":4274:4278   */\n      0x20\n        /* \"#utility.yul\":4266:4272   */\n      dup5\n        /* \"#utility.yul\":4262:4279   */\n      mul\n        /* \"#utility.yul\":4254:4260   */\n      dup4\n        /* \"#utility.yul\":4250:4280   */\n      add\n        /* \"#utility.yul\":4303:4306   */\n      dup6\n        /* \"#utility.yul\":4295:4301   */\n      dup2\n        /* \"#utility.yul\":4292:4307   */\n      gt\n        /* \"#utility.yul\":4289:4411   */\n      iszero\n      tag_136\n      jumpi\n        /* \"#utility.yul\":4322:4401   */\n      tag_137\n      tag_65\n      jump\t// in\n    tag_137:\n        /* \"#utility.yul\":4289:4411   */\n    tag_136:\n        /* \"#utility.yul\":4437:4443   */\n      dup4\n        /* \"#utility.yul\":4420:4640   */\n    tag_138:\n        /* \"#utility.yul\":4454:4460   */\n      dup2\n        /* \"#utility.yul\":4449:4452   */\n      dup2\n        /* \"#utility.yul\":4446:4461   */\n      lt\n        /* \"#utility.yul\":4420:4640   */\n      iszero\n      tag_140\n      jumpi\n        /* \"#utility.yul\":4529:4532   */\n      dup1\n        /* \"#utility.yul\":4558:4595   */\n      tag_141\n        /* \"#utility.yul\":4591:4594   */\n      dup9\n        /* \"#utility.yul\":4579:4589   */\n      dup3\n        /* \"#utility.yul\":4558:4595   */\n      tag_71\n      jump\t// in\n    tag_141:\n        /* \"#utility.yul\":4553:4556   */\n      dup5\n        /* \"#utility.yul\":4546:4596   */\n      mstore\n        /* \"#utility.yul\":4625:4629   */\n      0x20\n        /* \"#utility.yul\":4620:4623   */\n      dup5\n        /* \"#utility.yul\":4616:4630   */\n      add\n        /* \"#utility.yul\":4609:4630   */\n      swap4\n      pop\n        /* \"#utility.yul\":4496:4640   */\n      pop\n        /* \"#utility.yul\":4480:4484   */\n      0x20\n        /* \"#utility.yul\":4475:4478   */\n      dup2\n        /* \"#utility.yul\":4471:4485   */\n      add\n        /* \"#utility.yul\":4464:4485   */\n      swap1\n      pop\n        /* \"#utility.yul\":4420:4640   */\n      jump(tag_138)\n    tag_140:\n        /* \"#utility.yul\":4424:4445   */\n      pop\n        /* \"#utility.yul\":4038:4646   */\n      pop\n      pop\n        /* \"#utility.yul\":3936:4646   */\n      swap4\n      swap3\n      pop\n      pop\n      pop\n      jump\t// out\n        /* \"#utility.yul\":4669:5039   */\n    tag_73:\n        /* \"#utility.yul\":4740:4745   */\n      0x00\n        /* \"#utility.yul\":4789:4792   */\n      dup3\n        /* \"#utility.yul\":4782:4786   */\n      0x1f\n        /* \"#utility.yul\":4774:4780   */\n      dup4\n        /* \"#utility.yul\":4770:4787   */\n      add\n        /* \"#utility.yul\":4766:4793   */\n      slt\n        /* \"#utility.yul\":4756:4878   */\n      tag_143\n      jumpi\n        /* \"#utility.yul\":4797:4876   */\n      tag_144\n      tag_59\n      jump\t// in\n    tag_144:\n        /* \"#utility.yul\":4756:4878   */\n    tag_143:\n        /* \"#utility.yul\":4914:4920   */\n      dup2\n        /* \"#utility.yul\":4901:4921   */\n      calldataload\n        /* \"#utility.yul\":4939:5033   */\n      tag_145\n        /* \"#utility.yul\":5029:5032   */\n      dup5\n        /* \"#utility.yul\":5021:5027   */\n      dup3\n        /* \"#utility.yul\":5014:5018   */\n      0x20\n        /* \"#utility.yul\":5006:5012   */\n      dup7\n        /* \"#utility.yul\":5002:5019   */\n      add\n        /* \"#utility.yul\":4939:5033   */\n      tag_72\n      jump\t// in\n    tag_145:\n        /* \"#utility.yul\":4930:5033   */\n      swap2\n      pop\n        /* \"#utility.yul\":4746:5039   */\n      pop\n        /* \"#utility.yul\":4669:5039   */\n      swap3\n      swap2\n      pop\n      pop\n      jump\t// out\n        /* \"#utility.yul\":5045:6084   */\n    tag_7:\n        /* \"#utility.yul\":5172:5178   */\n      0x00\n        /* \"#utility.yul\":5180:5186   */\n      dup1\n        /* \"#utility.yul\":5188:5194   */\n      0x00\n        /* \"#utility.yul\":5237:5239   */\n      0x60\n        /* \"#utility.yul\":5225:5234   */\n      dup5\n        /* \"#utility.yul\":5216:5223   */\n      dup7\n        /* \"#utility.yul\":5212:5235   */\n      sub\n        /* \"#utility.yul\":5208:5240   */\n      slt\n        /* \"#utility.yul\":5205:5324   */\n      iszero\n      tag_147\n      jumpi\n        /* \"#utility.yul\":5243:5322   */\n      tag_148\n      tag_53\n      jump\t// in\n    tag_148:\n        /* \"#utility.yul\":5205:5324   */\n    tag_147:\n        /* \"#utility.yul\":5363:5364   */\n      0x00\n        /* \"#utility.yul\":5388:5441   */\n      tag_149\n        /* \"#utility.yul\":5433:5440   */\n      dup7\n        /* \"#utility.yul\":5424:5430   */\n      dup3\n        /* \"#utility.yul\":5413:5422   */\n      dup8\n        /* \"#utility.yul\":5409:5431   */\n      add\n        /* \"#utility.yul\":5388:5441   */\n      tag_58\n      jump\t// in\n    tag_149:\n        /* \"#utility.yul\":5378:5441   */\n      swap4\n      pop\n        /* \"#utility.yul\":5334:5451   */\n      pop\n        /* \"#utility.yul\":5518:5520   */\n      0x20\n        /* \"#utility.yul\":5507:5516   */\n      dup5\n        /* \"#utility.yul\":5503:5521   */\n      add\n        /* \"#utility.yul\":5490:5522   */\n      calldataload\n        /* \"#utility.yul\":5549:5567   */\n      0xffffffffffffffff\n        /* \"#utility.yul\":5541:5547   */\n      dup2\n        /* \"#utility.yul\":5538:5568   */\n      gt\n        /* \"#utility.yul\":5535:5652   */\n      iszero\n      tag_150\n      jumpi\n        /* \"#utility.yul\":5571:5650   */\n      tag_151\n      tag_54\n      jump\t// in\n    tag_151:\n        /* \"#utility.yul\":5535:5652   */\n    tag_150:\n        /* \"#utility.yul\":5676:5754   */\n      tag_152\n        /* \"#utility.yul\":5746:5753   */\n      dup7\n        /* \"#utility.yul\":5737:5743   */\n      dup3\n        /* \"#utility.yul\":5726:5735   */\n      dup8\n        /* \"#utility.yul\":5722:5744   */\n      add\n        /* \"#utility.yul\":5676:5754   */\n      tag_67\n      jump\t// in\n    tag_152:\n        /* \"#utility.yul\":5666:5754   */\n      swap3\n      pop\n        /* \"#utility.yul\":5461:5764   */\n      pop\n        /* \"#utility.yul\":5831:5833   */\n      0x40\n        /* \"#utility.yul\":5820:5829   */\n      dup5\n        /* \"#utility.yul\":5816:5834   */\n      add\n        /* \"#utility.yul\":5803:5835   */\n      calldataload\n        /* \"#utility.yul\":5862:5880   */\n      0xffffffffffffffff\n        /* \"#utility.yul\":5854:5860   */\n      dup2\n        /* \"#utility.yul\":5851:5881   */\n      gt\n        /* \"#utility.yul\":5848:5965   */\n      iszero\n      tag_153\n      jumpi\n        /* \"#utility.yul\":5884:5963   */\n      tag_154\n      tag_54\n      jump\t// in\n    tag_154:\n        /* \"#utility.yul\":5848:5965   */\n    tag_153:\n        /* \"#utility.yul\":5989:6067   */\n      tag_155\n        /* \"#utility.yul\":6059:6066   */\n      dup7\n        /* \"#utility.yul\":6050:6056   */\n      dup3\n        /* \"#utility.yul\":6039:6048   */\n      dup8\n        /* \"#utility.yul\":6035:6057   */\n      add\n        /* \"#utility.yul\":5989:6067   */\n      tag_73\n      jump\t// in\n    tag_155:\n        /* \"#utility.yul\":5979:6067   */\n      swap2\n      pop\n        /* \"#utility.yul\":5774:6077   */\n      pop\n        /* \"#utility.yul\":5045:6084   */\n      swap3\n      pop\n      swap3\n      pop\n      swap3\n      jump\t// out\n        /* \"#utility.yul\":6090:6259   */\n    tag_74:\n        /* \"#utility.yul\":6174:6185   */\n      0x00\n        /* \"#utility.yul\":6208:6214   */\n      dup3\n        /* \"#utility.yul\":6203:6206   */\n      dup3\n        /* \"#utility.yul\":6196:6215   */\n      mstore\n        /* \"#utility.yul\":6248:6252   */\n      0x20\n        /* \"#utility.yul\":6243:6246   */\n      dup3\n        /* \"#utility.yul\":6239:6253   */\n      add\n        /* \"#utility.yul\":6224:6253   */\n      swap1\n      pop\n        /* \"#utility.yul\":6090:6259   */\n      swap3\n      swap2\n      pop\n      pop\n      jump\t// out\n        /* \"#utility.yul\":6265:6504   */\n    tag_75:\n        /* \"#utility.yul\":6405:6439   */\n      0x796f752063616e206469737472696275746520746f6b656e7320746f206c6573\n        /* \"#utility.yul\":6401:6402   */\n      0x00\n        /* \"#utility.yul\":6393:6399   */\n      dup3\n        /* \"#utility.yul\":6389:6403   */\n      add\n        /* \"#utility.yul\":6382:6440   */\n      mstore\n        /* \"#utility.yul\":6474:6496   */\n      0x73207468616e2033303020616464726573736573000000000000000000000000\n        /* \"#utility.yul\":6469:6471   */\n      0x20\n        /* \"#utility.yul\":6461:6467   */\n      dup3\n        /* \"#utility.yul\":6457:6472   */\n      add\n        /* \"#utility.yul\":6450:6497   */\n      mstore\n        /* \"#utility.yul\":6265:6504   */\n      pop\n      jump\t// out\n        /* \"#utility.yul\":6510:6876   */\n    tag_76:\n        /* \"#utility.yul\":6652:6655   */\n      0x00\n        /* \"#utility.yul\":6673:6740   */\n      tag_159\n        /* \"#utility.yul\":6737:6739   */\n      0x34\n        /* \"#utility.yul\":6732:6735   */\n      dup4\n        /* \"#utility.yul\":6673:6740   */\n      tag_74\n      jump\t// in\n    tag_159:\n        /* \"#utility.yul\":6666:6740   */\n      swap2\n      pop\n        /* \"#utility.yul\":6749:6842   */\n      tag_160\n        /* \"#utility.yul\":6838:6841   */\n      dup3\n        /* \"#utility.yul\":6749:6842   */\n      tag_75\n      jump\t// in\n    tag_160:\n        /* \"#utility.yul\":6867:6869   */\n      0x40\n        /* \"#utility.yul\":6862:6865   */\n      dup3\n        /* \"#utility.yul\":6858:6870   */\n      add\n        /* \"#utility.yul\":6851:6870   */\n      swap1\n      pop\n        /* \"#utility.yul\":6510:6876   */\n      swap2\n      swap1\n      pop\n      jump\t// out\n        /* \"#utility.yul\":6882:7301   */\n    tag_15:\n        /* \"#utility.yul\":7048:7052   */\n      0x00\n        /* \"#utility.yul\":7086:7088   */\n      0x20\n        /* \"#utility.yul\":7075:7084   */\n      dup3\n        /* \"#utility.yul\":7071:7089   */\n      add\n        /* \"#utility.yul\":7063:7089   */\n      swap1\n      pop\n        /* \"#utility.yul\":7135:7144   */\n      dup2\n        /* \"#utility.yul\":7129:7133   */\n      dup2\n        /* \"#utility.yul\":7125:7145   */\n      sub\n        /* \"#utility.yul\":7121:7122   */\n      0x00\n        /* \"#utility.yul\":7110:7119   */\n      dup4\n        /* \"#utility.yul\":7106:7123   */\n      add\n        /* \"#utility.yul\":7099:7146   */\n      mstore\n        /* \"#utility.yul\":7163:7294   */\n      tag_162\n        /* \"#utility.yul\":7289:7293   */\n      dup2\n        /* \"#utility.yul\":7163:7294   */\n      tag_76\n      jump\t// in\n    tag_162:\n        /* \"#utility.yul\":7155:7294   */\n      swap1\n      pop\n        /* \"#utility.yul\":6882:7301   */\n      swap2\n      swap1\n      pop\n      jump\t// out\n        /* \"#utility.yul\":7307:7540   */\n    tag_77:\n        /* \"#utility.yul\":7447:7481   */\n      0x6c656e677468206f662061646472657373657320616e6420746f6b656e496473\n        /* \"#utility.yul\":7443:7444   */\n      0x00\n        /* \"#utility.yul\":7435:7441   */\n      dup3\n        /* \"#utility.yul\":7431:7445   */\n      add\n        /* \"#utility.yul\":7424:7482   */\n      mstore\n        /* \"#utility.yul\":7516:7532   */\n      0x206d75737420626520657175616c000000000000000000000000000000000000\n        /* \"#utility.yul\":7511:7513   */\n      0x20\n        /* \"#utility.yul\":7503:7509   */\n      dup3\n        /* \"#utility.yul\":7499:7514   */\n      add\n        /* \"#utility.yul\":7492:7533   */\n      mstore\n        /* \"#utility.yul\":7307:7540   */\n      pop\n      jump\t// out\n        /* \"#utility.yul\":7546:7912   */\n    tag_78:\n        /* \"#utility.yul\":7688:7691   */\n      0x00\n        /* \"#utility.yul\":7709:7776   */\n      tag_165\n        /* \"#utility.yul\":7773:7775   */\n      0x2e\n        /* \"#utility.yul\":7768:7771   */\n      dup4\n        /* \"#utility.yul\":7709:7776   */\n      tag_74\n      jump\t// in\n    tag_165:\n        /* \"#utility.yul\":7702:7776   */\n      swap2\n      pop\n        /* \"#utility.yul\":7785:7878   */\n      tag_166\n        /* \"#utility.yul\":7874:7877   */\n      dup3\n        /* \"#utility.yul\":7785:7878   */\n      tag_77\n      jump\t// in\n    tag_166:\n        /* \"#utility.yul\":7903:7905   */\n      0x40\n        /* \"#utility.yul\":7898:7901   */\n      dup3\n        /* \"#utility.yul\":7894:7906   */\n      add\n        /* \"#utility.yul\":7887:7906   */\n      swap1\n      pop\n        /* \"#utility.yul\":7546:7912   */\n      swap2\n      swap1\n      pop\n      jump\t// out\n        /* \"#utility.yul\":7918:8337   */\n    tag_18:\n        /* \"#utility.yul\":8084:8088   */\n      0x00\n        /* \"#utility.yul\":8122:8124   */\n      0x20\n        /* \"#utility.yul\":8111:8120   */\n      dup3\n        /* \"#utility.yul\":8107:8125   */\n      add\n        /* \"#utility.yul\":8099:8125   */\n      swap1\n      pop\n        /* \"#utility.yul\":8171:8180   */\n      dup2\n        /* \"#utility.yul\":8165:8169   */\n      dup2\n        /* \"#utility.yul\":8161:8181   */\n      sub\n        /* \"#utility.yul\":8157:8158   */\n      0x00\n        /* \"#utility.yul\":8146:8155   */\n      dup4\n        /* \"#utility.yul\":8142:8159   */\n      add\n        /* \"#utility.yul\":8135:8182   */\n      mstore\n        /* \"#utility.yul\":8199:8330   */\n      tag_168\n        /* \"#utility.yul\":8325:8329   */\n      dup2\n        /* \"#utility.yul\":8199:8330   */\n      tag_78\n      jump\t// in\n    tag_168:\n        /* \"#utility.yul\":8191:8330   */\n      swap1\n      pop\n        /* \"#utility.yul\":7918:8337   */\n      swap2\n      swap1\n      pop\n      jump\t// out\n        /* \"#utility.yul\":8343:8523   */\n    tag_24:\n        /* \"#utility.yul\":8391:8468   */\n      0x4e487b7100000000000000000000000000000000000000000000000000000000\n        /* \"#utility.yul\":8388:8389   */\n      0x00\n        /* \"#utility.yul\":8381:8469   */\n      mstore\n        /* \"#utility.yul\":8488:8492   */\n      0x32\n        /* \"#utility.yul\":8485:8486   */\n      0x04\n        /* \"#utility.yul\":8478:8493   */\n      mstore\n        /* \"#utility.yul\":8512:8516   */\n      0x24\n        /* \"#utility.yul\":8509:8510   */\n      0x00\n        /* \"#utility.yul\":8502:8517   */\n      revert\n        /* \"#utility.yul\":8529:8647   */\n    tag_79:\n        /* \"#utility.yul\":8616:8640   */\n      tag_171\n        /* \"#utility.yul\":8634:8639   */\n      dup2\n        /* \"#utility.yul\":8616:8640   */\n      tag_56\n      jump\t// in\n    tag_171:\n        /* \"#utility.yul\":8611:8614   */\n      dup3\n        /* \"#utility.yul\":8604:8641   */\n      mstore\n        /* \"#utility.yul\":8529:8647   */\n      pop\n      pop\n      jump\t// out\n        /* \"#utility.yul\":8653:8771   */\n    tag_80:\n        /* \"#utility.yul\":8740:8764   */\n      tag_173\n        /* \"#utility.yul\":8758:8763   */\n      dup2\n        /* \"#utility.yul\":8740:8764   */\n      tag_69\n      jump\t// in\n    tag_173:\n        /* \"#utility.yul\":8735:8738   */\n      dup3\n        /* \"#utility.yul\":8728:8765   */\n      mstore\n        /* \"#utility.yul\":8653:8771   */\n      pop\n      pop\n      jump\t// out\n        /* \"#utility.yul\":8777:9219   */\n    tag_28:\n        /* \"#utility.yul\":8926:8930   */\n      0x00\n        /* \"#utility.yul\":8964:8966   */\n      0x60\n        /* \"#utility.yul\":8953:8962   */\n      dup3\n        /* \"#utility.yul\":8949:8967   */\n      add\n        /* \"#utility.yul\":8941:8967   */\n      swap1\n      pop\n        /* \"#utility.yul\":8977:9048   */\n      tag_175\n        /* \"#utility.yul\":9045:9046   */\n      0x00\n        /* \"#utility.yul\":9034:9043   */\n      dup4\n        /* \"#utility.yul\":9030:9047   */\n      add\n        /* \"#utility.yul\":9021:9027   */\n      dup7\n        /* \"#utility.yul\":8977:9048   */\n      tag_79\n      jump\t// in\n    tag_175:\n        /* \"#utility.yul\":9058:9130   */\n      tag_176\n        /* \"#utility.yul\":9126:9128   */\n      0x20\n        /* \"#utility.yul\":9115:9124   */\n      dup4\n        /* \"#utility.yul\":9111:9129   */\n      add\n        /* \"#utility.yul\":9102:9108   */\n      dup6\n        /* \"#utility.yul\":9058:9130   */\n      tag_79\n      jump\t// in\n    tag_176:\n        /* \"#utility.yul\":9140:9212   */\n      tag_177\n        /* \"#utility.yul\":9208:9210   */\n      0x40\n        /* \"#utility.yul\":9197:9206   */\n      dup4\n        /* \"#utility.yul\":9193:9211   */\n      add\n        /* \"#utility.yul\":9184:9190   */\n      dup5\n        /* \"#utility.yul\":9140:9212   */\n      tag_80\n      jump\t// in\n    tag_177:\n        /* \"#utility.yul\":8777:9219   */\n      swap5\n      swap4\n      pop\n      pop\n      pop\n      pop\n      jump\t// out\n        /* \"#utility.yul\":9225:9315   */\n    tag_81:\n        /* \"#utility.yul\":9259:9266   */\n      0x00\n        /* \"#utility.yul\":9302:9307   */\n      dup2\n        /* \"#utility.yul\":9295:9308   */\n      iszero\n        /* \"#utility.yul\":9288:9309   */\n      iszero\n        /* \"#utility.yul\":9277:9309   */\n      swap1\n      pop\n        /* \"#utility.yul\":9225:9315   */\n      swap2\n      swap1\n      pop\n      jump\t// out\n        /* \"#utility.yul\":9321:9437   */\n    tag_82:\n        /* \"#utility.yul\":9391:9412   */\n      tag_180\n        /* \"#utility.yul\":9406:9411   */\n      dup2\n        /* \"#utility.yul\":9391:9412   */\n      tag_81\n      jump\t// in\n    tag_180:\n        /* \"#utility.yul\":9384:9389   */\n      dup2\n        /* \"#utility.yul\":9381:9413   */\n      eq\n        /* \"#utility.yul\":9371:9431   */\n      tag_181\n      jumpi\n        /* \"#utility.yul\":9427:9428   */\n      0x00\n        /* \"#utility.yul\":9424:9425   */\n      dup1\n        /* \"#utility.yul\":9417:9429   */\n      revert\n        /* \"#utility.yul\":9371:9431   */\n    tag_181:\n        /* \"#utility.yul\":9321:9437   */\n      pop\n      jump\t// out\n        /* \"#utility.yul\":9443:9580   */\n    tag_83:\n        /* \"#utility.yul\":9497:9502   */\n      0x00\n        /* \"#utility.yul\":9528:9534   */\n      dup2\n        /* \"#utility.yul\":9522:9535   */\n      mload\n        /* \"#utility.yul\":9513:9535   */\n      swap1\n      pop\n        /* \"#utility.yul\":9544:9574   */\n      tag_183\n        /* \"#utility.yul\":9568:9573   */\n      dup2\n        /* \"#utility.yul\":9544:9574   */\n      tag_82\n      jump\t// in\n    tag_183:\n        /* \"#utility.yul\":9443:9580   */\n      swap3\n      swap2\n      pop\n      pop\n      jump\t// out\n        /* \"#utility.yul\":9586:9931   */\n    tag_32:\n        /* \"#utility.yul\":9653:9659   */\n      0x00\n        /* \"#utility.yul\":9702:9704   */\n      0x20\n        /* \"#utility.yul\":9690:9699   */\n      dup3\n        /* \"#utility.yul\":9681:9688   */\n      dup5\n        /* \"#utility.yul\":9677:9700   */\n      sub\n        /* \"#utility.yul\":9673:9705   */\n      slt\n        /* \"#utility.yul\":9670:9789   */\n      iszero\n      tag_185\n      jumpi\n        /* \"#utility.yul\":9708:9787   */\n      tag_186\n      tag_53\n      jump\t// in\n    tag_186:\n        /* \"#utility.yul\":9670:9789   */\n    tag_185:\n        /* \"#utility.yul\":9828:9829   */\n      0x00\n        /* \"#utility.yul\":9853:9914   */\n      tag_187\n        /* \"#utility.yul\":9906:9913   */\n      dup5\n        /* \"#utility.yul\":9897:9903   */\n      dup3\n        /* \"#utility.yul\":9886:9895   */\n      dup6\n        /* \"#utility.yul\":9882:9904   */\n      add\n        /* \"#utility.yul\":9853:9914   */\n      tag_83\n      jump\t// in\n    tag_187:\n        /* \"#utility.yul\":9843:9914   */\n      swap2\n      pop\n        /* \"#utility.yul\":9799:9924   */\n      pop\n        /* \"#utility.yul\":9586:9931   */\n      swap3\n      swap2\n      pop\n      pop\n      jump\t// out\n        /* \"#utility.yul\":9937:10117   */\n    tag_84:\n        /* \"#utility.yul\":9985:10062   */\n      0x4e487b7100000000000000000000000000000000000000000000000000000000\n        /* \"#utility.yul\":9982:9983   */\n      0x00\n        /* \"#utility.yul\":9975:10063   */\n      mstore\n        /* \"#utility.yul\":10082:10086   */\n      0x11\n        /* \"#utility.yul\":10079:10080   */\n      0x04\n        /* \"#utility.yul\":10072:10087   */\n      mstore\n        /* \"#utility.yul\":10106:10110   */\n      0x24\n        /* \"#utility.yul\":10103:10104   */\n      0x00\n        /* \"#utility.yul\":10096:10111   */\n      revert\n        /* \"#utility.yul\":10123:10356   */\n    tag_34:\n        /* \"#utility.yul\":10162:10165   */\n      0x00\n        /* \"#utility.yul\":10185:10209   */\n      tag_190\n        /* \"#utility.yul\":10203:10208   */\n      dup3\n        /* \"#utility.yul\":10185:10209   */\n      tag_69\n      jump\t// in\n    tag_190:\n        /* \"#utility.yul\":10176:10209   */\n      swap2\n      pop\n        /* \"#utility.yul\":10231:10297   */\n      0xffffffffffffffffffffffffffffffffffffffffffffffffffffffffffffffff\n        /* \"#utility.yul\":10224:10229   */\n      dup3\n        /* \"#utility.yul\":10221:10298   */\n      sub\n        /* \"#utility.yul\":10218:10321   */\n      tag_191\n      jumpi\n        /* \"#utility.yul\":10301:10319   */\n      tag_192\n      tag_84\n      jump\t// in\n    tag_192:\n        /* \"#utility.yul\":10218:10321   */\n    tag_191:\n        /* \"#utility.yul\":10348:10349   */\n      0x01\n        /* \"#utility.yul\":10341:10346   */\n      dup3\n        /* \"#utility.yul\":10337:10350   */\n      add\n        /* \"#utility.yul\":10330:10350   */\n      swap1\n      pop\n        /* \"#utility.yul\":10123:10356   */\n      swap2\n      swap1\n      pop\n      jump\t// out\n\n    auxdata: 0xa26469706673582212205e0ec6ae59836a7fe36ddecb18060844c361fecec0b325415c0b6faca0256aaf64736f6c63430008110033\n}\n",
				"bytecode": {
					"linkReferences": {},
					"object": "608060405234801561001057600080fd5b50610943806100206000396000f3fe608060405234801561001057600080fd5b50600436106100365760003560e01c8063b32d79dd1461003b578063feeb944914610057575b600080fd5b610055600480360381019061005091906105ed565b610073565b005b610071600480360381019061006c91906105ed565b6101d7565b005b61012c825111156100b9576040517f08c379a00000000000000000000000000000000000000000000000000000000081526004016100b0906106fb565b60405180910390fd5b80518251146100fd576040517f08c379a00000000000000000000000000000000000000000000000000000000081526004016100f49061078d565b60405180910390fd5b60005b82518110156101d1578373ffffffffffffffffffffffffffffffffffffffff166323b872dd33858481518110610139576101386107ad565b5b6020026020010151858581518110610154576101536107ad565b5b60200260200101516040518463ffffffff1660e01b815260040161017a939291906107fa565b6020604051808303816000875af1158015610199573d6000803e3d6000fd5b505050506040513d601f19601f820116820180604052508101906101bd9190610869565b5080806101c9906108c5565b915050610100565b50505050565b61012c8251111561021d576040517f08c379a0000000000000000000000000000000000000000000000000000000008152600401610214906106fb565b60405180910390fd5b8051825114610261576040517f08c379a00000000000000000000000000000000000000000000000000000000081526004016102589061078d565b60405180910390fd5b60005b8251811015610323578373ffffffffffffffffffffffffffffffffffffffff166342842e0e3385848151811061029d5761029c6107ad565b5b60200260200101518585815181106102b8576102b76107ad565b5b60200260200101516040518463ffffffff1660e01b81526004016102de939291906107fa565b600060405180830381600087803b1580156102f857600080fd5b505af115801561030c573d6000803e3d6000fd5b50505050808061031b906108c5565b915050610264565b50505050565b6000604051905090565b600080fd5b600080fd5b600073ffffffffffffffffffffffffffffffffffffffff82169050919050565b60006103688261033d565b9050919050565b6103788161035d565b811461038357600080fd5b50565b6000813590506103958161036f565b92915050565b600080fd5b6000601f19601f8301169050919050565b7f4e487b7100000000000000000000000000000000000000000000000000000000600052604160045260246000fd5b6103e9826103a0565b810181811067ffffffffffffffff82111715610408576104076103b1565b5b80604052505050565b600061041b610329565b905061042782826103e0565b919050565b600067ffffffffffffffff821115610447576104466103b1565b5b602082029050602081019050919050565b600080fd5b600061047061046b8461042c565b610411565b9050808382526020820190506020840283018581111561049357610492610458565b5b835b818110156104bc57806104a88882610386565b845260208401935050602081019050610495565b5050509392505050565b600082601f8301126104db576104da61039b565b5b81356104eb84826020860161045d565b91505092915050565b600067ffffffffffffffff82111561050f5761050e6103b1565b5b602082029050602081019050919050565b6000819050919050565b61053381610520565b811461053e57600080fd5b50565b6000813590506105508161052a565b92915050565b6000610569610564846104f4565b610411565b9050808382526020820190506020840283018581111561058c5761058b610458565b5b835b818110156105b557806105a18882610541565b84526020840193505060208101905061058e565b5050509392505050565b600082601f8301126105d4576105d361039b565b5b81356105e4848260208601610556565b91505092915050565b60008060006060848603121561060657610605610333565b5b600061061486828701610386565b935050602084013567ffffffffffffffff81111561063557610634610338565b5b610641868287016104c6565b925050604084013567ffffffffffffffff81111561066257610661610338565b5b61066e868287016105bf565b9150509250925092565b600082825260208201905092915050565b7f796f752063616e206469737472696275746520746f6b656e7320746f206c657360008201527f73207468616e2033303020616464726573736573000000000000000000000000602082015250565b60006106e5603483610678565b91506106f082610689565b604082019050919050565b60006020820190508181036000830152610714816106d8565b9050919050565b7f6c656e677468206f662061646472657373657320616e6420746f6b656e49647360008201527f206d75737420626520657175616c000000000000000000000000000000000000602082015250565b6000610777602e83610678565b91506107828261071b565b604082019050919050565b600060208201905081810360008301526107a68161076a565b9050919050565b7f4e487b7100000000000000000000000000000000000000000000000000000000600052603260045260246000fd5b6107e58161035d565b82525050565b6107f481610520565b82525050565b600060608201905061080f60008301866107dc565b61081c60208301856107dc565b61082960408301846107eb565b949350505050565b60008115159050919050565b61084681610831565b811461085157600080fd5b50565b6000815190506108638161083d565b92915050565b60006020828403121561087f5761087e610333565b5b600061088d84828501610854565b91505092915050565b7f4e487b7100000000000000000000000000000000000000000000000000000000600052601160045260246000fd5b60006108d082610520565b91507fffffffffffffffffffffffffffffffffffffffffffffffffffffffffffffffff820361090257610901610896565b5b60018201905091905056fea26469706673582212205e0ec6ae59836a7fe36ddecb18060844c361fecec0b325415c0b6faca0256aaf64736f6c63430008110033",
					"opcodes": "PUSH1 0x80 PUSH1 0x40 MSTORE CALLVALUE DUP1 ISZERO PUSH2 0x10 JUMPI PUSH1 0x0 DUP1 REVERT JUMPDEST POP PUSH2 0x943 DUP1 PUSH2 0x20 PUSH1 0x0 CODECOPY PUSH1 0x0 RETURN INVALID PUSH1 0x80 PUSH1 0x40 MSTORE CALLVALUE DUP1 ISZERO PUSH2 0x10 JUMPI PUSH1 0x0 DUP1 REVERT JUMPDEST POP PUSH1 0x4 CALLDATASIZE LT PUSH2 0x36 JUMPI PUSH1 0x0 CALLDATALOAD PUSH1 0xE0 SHR DUP1 PUSH4 0xB32D79DD EQ PUSH2 0x3B JUMPI DUP1 PUSH4 0xFEEB9449 EQ PUSH2 0x57 JUMPI JUMPDEST PUSH1 0x0 DUP1 REVERT JUMPDEST PUSH2 0x55 PUSH1 0x4 DUP1 CALLDATASIZE SUB DUP2 ADD SWAP1 PUSH2 0x50 SWAP2 SWAP1 PUSH2 0x5ED JUMP JUMPDEST PUSH2 0x73 JUMP JUMPDEST STOP JUMPDEST PUSH2 0x71 PUSH1 0x4 DUP1 CALLDATASIZE SUB DUP2 ADD SWAP1 PUSH2 0x6C SWAP2 SWAP1 PUSH2 0x5ED JUMP JUMPDEST PUSH2 0x1D7 JUMP JUMPDEST STOP JUMPDEST PUSH2 0x12C DUP3 MLOAD GT ISZERO PUSH2 0xB9 JUMPI PUSH1 0x40 MLOAD PUSH32 0x8C379A000000000000000000000000000000000000000000000000000000000 DUP2 MSTORE PUSH1 0x4 ADD PUSH2 0xB0 SWAP1 PUSH2 0x6FB JUMP JUMPDEST PUSH1 0x40 MLOAD DUP1 SWAP2 SUB SWAP1 REVERT JUMPDEST DUP1 MLOAD DUP3 MLOAD EQ PUSH2 0xFD JUMPI PUSH1 0x40 MLOAD PUSH32 0x8C379A000000000000000000000000000000000000000000000000000000000 DUP2 MSTORE PUSH1 0x4 ADD PUSH2 0xF4 SWAP1 PUSH2 0x78D JUMP JUMPDEST PUSH1 0x40 MLOAD DUP1 SWAP2 SUB SWAP1 REVERT JUMPDEST PUSH1 0x0 JUMPDEST DUP3 MLOAD DUP2 LT ISZERO PUSH2 0x1D1 JUMPI DUP4 PUSH20 0xFFFFFFFFFFFFFFFFFFFFFFFFFFFFFFFFFFFFFFFF AND PUSH4 0x23B872DD CALLER DUP6 DUP5 DUP2 MLOAD DUP2 LT PUSH2 0x139 JUMPI PUSH2 0x138 PUSH2 0x7AD JUMP JUMPDEST JUMPDEST PUSH1 0x20 MUL PUSH1 0x20 ADD ADD MLOAD DUP6 DUP6 DUP2 MLOAD DUP2 LT PUSH2 0x154 JUMPI PUSH2 0x153 PUSH2 0x7AD JUMP JUMPDEST JUMPDEST PUSH1 0x20 MUL PUSH1 0x20 ADD ADD MLOAD PUSH1 0x40 MLOAD DUP5 PUSH4 0xFFFFFFFF AND PUSH1 0xE0 SHL DUP2 MSTORE PUSH1 0x4 ADD PUSH2 0x17A SWAP4 SWAP3 SWAP2 SWAP1 PUSH2 0x7FA JUMP JUMPDEST PUSH1 0x20 PUSH1 0x40 MLOAD DUP1 DUP4 SUB DUP2 PUSH1 0x0 DUP8 GAS CALL ISZERO DUP1 ISZERO PUSH2 0x199 JUMPI RETURNDATASIZE PUSH1 0x0 DUP1 RETURNDATACOPY RETURNDATASIZE PUSH1 0x0 REVERT JUMPDEST POP POP POP POP PUSH1 0x40 MLOAD RETURNDATASIZE PUSH1 0x1F NOT PUSH1 0x1F DUP3 ADD AND DUP3 ADD DUP1 PUSH1 0x40 MSTORE POP DUP2 ADD SWAP1 PUSH2 0x1BD SWAP2 SWAP1 PUSH2 0x869 JUMP JUMPDEST POP DUP1 DUP1 PUSH2 0x1C9 SWAP1 PUSH2 0x8C5 JUMP JUMPDEST SWAP2 POP POP PUSH2 0x100 JUMP JUMPDEST POP POP POP POP JUMP JUMPDEST PUSH2 0x12C DUP3 MLOAD GT ISZERO PUSH2 0x21D JUMPI PUSH1 0x40 MLOAD PUSH32 0x8C379A000000000000000000000000000000000000000000000000000000000 DUP2 MSTORE PUSH1 0x4 ADD PUSH2 0x214 SWAP1 PUSH2 0x6FB JUMP JUMPDEST PUSH1 0x40 MLOAD DUP1 SWAP2 SUB SWAP1 REVERT JUMPDEST DUP1 MLOAD DUP3 MLOAD EQ PUSH2 0x261 JUMPI PUSH1 0x40 MLOAD PUSH32 0x8C379A000000000000000000000000000000000000000000000000000000000 DUP2 MSTORE PUSH1 0x4 ADD PUSH2 0x258 SWAP1 PUSH2 0x78D JUMP JUMPDEST PUSH1 0x40 MLOAD DUP1 SWAP2 SUB SWAP1 REVERT JUMPDEST PUSH1 0x0 JUMPDEST DUP3 MLOAD DUP2 LT ISZERO PUSH2 0x323 JUMPI DUP4 PUSH20 0xFFFFFFFFFFFFFFFFFFFFFFFFFFFFFFFFFFFFFFFF AND PUSH4 0x42842E0E CALLER DUP6 DUP5 DUP2 MLOAD DUP2 LT PUSH2 0x29D JUMPI PUSH2 0x29C PUSH2 0x7AD JUMP JUMPDEST JUMPDEST PUSH1 0x20 MUL PUSH1 0x20 ADD ADD MLOAD DUP6 DUP6 DUP2 MLOAD DUP2 LT PUSH2 0x2B8 JUMPI PUSH2 0x2B7 PUSH2 0x7AD JUMP JUMPDEST JUMPDEST PUSH1 0x20 MUL PUSH1 0x20 ADD ADD MLOAD PUSH1 0x40 MLOAD DUP5 PUSH4 0xFFFFFFFF AND PUSH1 0xE0 SHL DUP2 MSTORE PUSH1 0x4 ADD PUSH2 0x2DE SWAP4 SWAP3 SWAP2 SWAP1 PUSH2 0x7FA JUMP JUMPDEST PUSH1 0x0 PUSH1 0x40 MLOAD DUP1 DUP4 SUB DUP2 PUSH1 0x0 DUP8 DUP1 EXTCODESIZE ISZERO DUP1 ISZERO PUSH2 0x2F8 JUMPI PUSH1 0x0 DUP1 REVERT JUMPDEST POP GAS CALL ISZERO DUP1 ISZERO PUSH2 0x30C JUMPI RETURNDATASIZE PUSH1 0x0 DUP1 RETURNDATACOPY RETURNDATASIZE PUSH1 0x0 REVERT JUMPDEST POP POP POP POP DUP1 DUP1 PUSH2 0x31B SWAP1 PUSH2 0x8C5 JUMP JUMPDEST SWAP2 POP POP PUSH2 0x264 JUMP JUMPDEST POP POP POP POP JUMP JUMPDEST PUSH1 0x0 PUSH1 0x40 MLOAD SWAP1 POP SWAP1 JUMP JUMPDEST PUSH1 0x0 DUP1 REVERT JUMPDEST PUSH1 0x0 DUP1 REVERT JUMPDEST PUSH1 0x0 PUSH20 0xFFFFFFFFFFFFFFFFFFFFFFFFFFFFFFFFFFFFFFFF DUP3 AND SWAP1 POP SWAP2 SWAP1 POP JUMP JUMPDEST PUSH1 0x0 PUSH2 0x368 DUP3 PUSH2 0x33D JUMP JUMPDEST SWAP1 POP SWAP2 SWAP1 POP JUMP JUMPDEST PUSH2 0x378 DUP2 PUSH2 0x35D JUMP JUMPDEST DUP2 EQ PUSH2 0x383 JUMPI PUSH1 0x0 DUP1 REVERT JUMPDEST POP JUMP JUMPDEST PUSH1 0x0 DUP2 CALLDATALOAD SWAP1 POP PUSH2 0x395 DUP2 PUSH2 0x36F JUMP JUMPDEST SWAP3 SWAP2 POP POP JUMP JUMPDEST PUSH1 0x0 DUP1 REVERT JUMPDEST PUSH1 0x0 PUSH1 0x1F NOT PUSH1 0x1F DUP4 ADD AND SWAP1 POP SWAP2 SWAP1 POP JUMP JUMPDEST PUSH32 0x4E487B7100000000000000000000000000000000000000000000000000000000 PUSH1 0x0 MSTORE PUSH1 0x41 PUSH1 0x4 MSTORE PUSH1 0x24 PUSH1 0x0 REVERT JUMPDEST PUSH2 0x3E9 DUP3 PUSH2 0x3A0 JUMP JUMPDEST DUP2 ADD DUP2 DUP2 LT PUSH8 0xFFFFFFFFFFFFFFFF DUP3 GT OR ISZERO PUSH2 0x408 JUMPI PUSH2 0x407 PUSH2 0x3B1 JUMP JUMPDEST JUMPDEST DUP1 PUSH1 0x40 MSTORE POP POP POP JUMP JUMPDEST PUSH1 0x0 PUSH2 0x41B PUSH2 0x329 JUMP JUMPDEST SWAP1 POP PUSH2 0x427 DUP3 DUP3 PUSH2 0x3E0 JUMP JUMPDEST SWAP2 SWAP1 POP JUMP JUMPDEST PUSH1 0x0 PUSH8 0xFFFFFFFFFFFFFFFF DUP3 GT ISZERO PUSH2 0x447 JUMPI PUSH2 0x446 PUSH2 0x3B1 JUMP JUMPDEST JUMPDEST PUSH1 0x20 DUP3 MUL SWAP1 POP PUSH1 0x20 DUP2 ADD SWAP1 POP SWAP2 SWAP1 POP JUMP JUMPDEST PUSH1 0x0 DUP1 REVERT JUMPDEST PUSH1 0x0 PUSH2 0x470 PUSH2 0x46B DUP5 PUSH2 0x42C JUMP JUMPDEST PUSH2 0x411 JUMP JUMPDEST SWAP1 POP DUP1 DUP4 DUP3 MSTORE PUSH1 0x20 DUP3 ADD SWAP1 POP PUSH1 0x20 DUP5 MUL DUP4 ADD DUP6 DUP2 GT ISZERO PUSH2 0x493 JUMPI PUSH2 0x492 PUSH2 0x458 JUMP JUMPDEST JUMPDEST DUP4 JUMPDEST DUP2 DUP2 LT ISZERO PUSH2 0x4BC JUMPI DUP1 PUSH2 0x4A8 DUP9 DUP3 PUSH2 0x386 JUMP JUMPDEST DUP5 MSTORE PUSH1 0x20 DUP5 ADD SWAP4 POP POP PUSH1 0x20 DUP2 ADD SWAP1 POP PUSH2 0x495 JUMP JUMPDEST POP POP POP SWAP4 SWAP3 POP POP POP JUMP JUMPDEST PUSH1 0x0 DUP3 PUSH1 0x1F DUP4 ADD SLT PUSH2 0x4DB JUMPI PUSH2 0x4DA PUSH2 0x39B JUMP JUMPDEST JUMPDEST DUP2 CALLDATALOAD PUSH2 0x4EB DUP5 DUP3 PUSH1 0x20 DUP7 ADD PUSH2 0x45D JUMP JUMPDEST SWAP2 POP POP SWAP3 SWAP2 POP POP JUMP JUMPDEST PUSH1 0x0 PUSH8 0xFFFFFFFFFFFFFFFF DUP3 GT ISZERO PUSH2 0x50F JUMPI PUSH2 0x50E PUSH2 0x3B1 JUMP JUMPDEST JUMPDEST PUSH1 0x20 DUP3 MUL SWAP1 POP PUSH1 0x20 DUP2 ADD SWAP1 POP SWAP2 SWAP1 POP JUMP JUMPDEST PUSH1 0x0 DUP2 SWAP1 POP SWAP2 SWAP1 POP JUMP JUMPDEST PUSH2 0x533 DUP2 PUSH2 0x520 JUMP JUMPDEST DUP2 EQ PUSH2 0x53E JUMPI PUSH1 0x0 DUP1 REVERT JUMPDEST POP JUMP JUMPDEST PUSH1 0x0 DUP2 CALLDATALOAD SWAP1 POP PUSH2 0x550 DUP2 PUSH2 0x52A JUMP JUMPDEST SWAP3 SWAP2 POP POP JUMP JUMPDEST PUSH1 0x0 PUSH2 0x569 PUSH2 0x564 DUP5 PUSH2 0x4F4 JUMP JUMPDEST PUSH2 0x411 JUMP JUMPDEST SWAP1 POP DUP1 DUP4 DUP3 MSTORE PUSH1 0x20 DUP3 ADD SWAP1 POP PUSH1 0x20 DUP5 MUL DUP4 ADD DUP6 DUP2 GT ISZERO PUSH2 0x58C JUMPI PUSH2 0x58B PUSH2 0x458 JUMP JUMPDEST JUMPDEST DUP4 JUMPDEST DUP2 DUP2 LT ISZERO PUSH2 0x5B5 JUMPI DUP1 PUSH2 0x5A1 DUP9 DUP3 PUSH2 0x541 JUMP JUMPDEST DUP5 MSTORE PUSH1 0x20 DUP5 ADD SWAP4 POP POP PUSH1 0x20 DUP2 ADD SWAP1 POP PUSH2 0x58E JUMP JUMPDEST POP POP POP SWAP4 SWAP3 POP POP POP JUMP JUMPDEST PUSH1 0x0 DUP3 PUSH1 0x1F DUP4 ADD SLT PUSH2 0x5D4 JUMPI PUSH2 0x5D3 PUSH2 0x39B JUMP JUMPDEST JUMPDEST DUP2 CALLDATALOAD PUSH2 0x5E4 DUP5 DUP3 PUSH1 0x20 DUP7 ADD PUSH2 0x556 JUMP JUMPDEST SWAP2 POP POP SWAP3 SWAP2 POP POP JUMP JUMPDEST PUSH1 0x0 DUP1 PUSH1 0x0 PUSH1 0x60 DUP5 DUP7 SUB SLT ISZERO PUSH2 0x606 JUMPI PUSH2 0x605 PUSH2 0x333 JUMP JUMPDEST JUMPDEST PUSH1 0x0 PUSH2 0x614 DUP7 DUP3 DUP8 ADD PUSH2 0x386 JUMP JUMPDEST SWAP4 POP POP PUSH1 0x20 DUP5 ADD CALLDATALOAD PUSH8 0xFFFFFFFFFFFFFFFF DUP2 GT ISZERO PUSH2 0x635 JUMPI PUSH2 0x634 PUSH2 0x338 JUMP JUMPDEST JUMPDEST PUSH2 0x641 DUP7 DUP3 DUP8 ADD PUSH2 0x4C6 JUMP JUMPDEST SWAP3 POP POP PUSH1 0x40 DUP5 ADD CALLDATALOAD PUSH8 0xFFFFFFFFFFFFFFFF DUP2 GT ISZERO PUSH2 0x662 JUMPI PUSH2 0x661 PUSH2 0x338 JUMP JUMPDEST JUMPDEST PUSH2 0x66E DUP7 DUP3 DUP8 ADD PUSH2 0x5BF JUMP JUMPDEST SWAP2 POP POP SWAP3 POP SWAP3 POP SWAP3 JUMP JUMPDEST PUSH1 0x0 DUP3 DUP3 MSTORE PUSH1 0x20 DUP3 ADD SWAP1 POP SWAP3 SWAP2 POP POP JUMP JUMPDEST PUSH32 0x796F752063616E206469737472696275746520746F6B656E7320746F206C6573 PUSH1 0x0 DUP3 ADD MSTORE PUSH32 0x73207468616E2033303020616464726573736573000000000000000000000000 PUSH1 0x20 DUP3 ADD MSTORE POP JUMP JUMPDEST PUSH1 0x0 PUSH2 0x6E5 PUSH1 0x34 DUP4 PUSH2 0x678 JUMP JUMPDEST SWAP2 POP PUSH2 0x6F0 DUP3 PUSH2 0x689 JUMP JUMPDEST PUSH1 0x40 DUP3 ADD SWAP1 POP SWAP2 SWAP1 POP JUMP JUMPDEST PUSH1 0x0 PUSH1 0x20 DUP3 ADD SWAP1 POP DUP2 DUP2 SUB PUSH1 0x0 DUP4 ADD MSTORE PUSH2 0x714 DUP2 PUSH2 0x6D8 JUMP JUMPDEST SWAP1 POP SWAP2 SWAP1 POP JUMP JUMPDEST PUSH32 0x6C656E677468206F662061646472657373657320616E6420746F6B656E496473 PUSH1 0x0 DUP3 ADD MSTORE PUSH32 0x206D75737420626520657175616C000000000000000000000000000000000000 PUSH1 0x20 DUP3 ADD MSTORE POP JUMP JUMPDEST PUSH1 0x0 PUSH2 0x777 PUSH1 0x2E DUP4 PUSH2 0x678 JUMP JUMPDEST SWAP2 POP PUSH2 0x782 DUP3 PUSH2 0x71B JUMP JUMPDEST PUSH1 0x40 DUP3 ADD SWAP1 POP SWAP2 SWAP1 POP JUMP JUMPDEST PUSH1 0x0 PUSH1 0x20 DUP3 ADD SWAP1 POP DUP2 DUP2 SUB PUSH1 0x0 DUP4 ADD MSTORE PUSH2 0x7A6 DUP2 PUSH2 0x76A JUMP JUMPDEST SWAP1 POP SWAP2 SWAP1 POP JUMP JUMPDEST PUSH32 0x4E487B7100000000000000000000000000000000000000000000000000000000 PUSH1 0x0 MSTORE PUSH1 0x32 PUSH1 0x4 MSTORE PUSH1 0x24 PUSH1 0x0 REVERT JUMPDEST PUSH2 0x7E5 DUP2 PUSH2 0x35D JUMP JUMPDEST DUP3 MSTORE POP POP JUMP JUMPDEST PUSH2 0x7F4 DUP2 PUSH2 0x520 JUMP JUMPDEST DUP3 MSTORE POP POP JUMP JUMPDEST PUSH1 0x0 PUSH1 0x60 DUP3 ADD SWAP1 POP PUSH2 0x80F PUSH1 0x0 DUP4 ADD DUP7 PUSH2 0x7DC JUMP JUMPDEST PUSH2 0x81C PUSH1 0x20 DUP4 ADD DUP6 PUSH2 0x7DC JUMP JUMPDEST PUSH2 0x829 PUSH1 0x40 DUP4 ADD DUP5 PUSH2 0x7EB JUMP JUMPDEST SWAP5 SWAP4 POP POP POP POP JUMP JUMPDEST PUSH1 0x0 DUP2 ISZERO ISZERO SWAP1 POP SWAP2 SWAP1 POP JUMP JUMPDEST PUSH2 0x846 DUP2 PUSH2 0x831 JUMP JUMPDEST DUP2 EQ PUSH2 0x851 JUMPI PUSH1 0x0 DUP1 REVERT JUMPDEST POP JUMP JUMPDEST PUSH1 0x0 DUP2 MLOAD SWAP1 POP PUSH2 0x863 DUP2 PUSH2 0x83D JUMP JUMPDEST SWAP3 SWAP2 POP POP JUMP JUMPDEST PUSH1 0x0 PUSH1 0x20 DUP3 DUP5 SUB SLT ISZERO PUSH2 0x87F JUMPI PUSH2 0x87E PUSH2 0x333 JUMP JUMPDEST JUMPDEST PUSH1 0x0 PUSH2 0x88D DUP5 DUP3 DUP6 ADD PUSH2 0x854 JUMP JUMPDEST SWAP2 POP POP SWAP3 SWAP2 POP POP JUMP JUMPDEST PUSH32 0x4E487B7100000000000000000000000000000000000000000000000000000000 PUSH1 0x0 MSTORE PUSH1 0x11 PUSH1 0x4 MSTORE PUSH1 0x24 PUSH1 0x0 REVERT JUMPDEST PUSH1 0x0 PUSH2 0x8D0 DUP3 PUSH2 0x520 JUMP JUMPDEST SWAP2 POP PUSH32 0xFFFFFFFFFFFFFFFFFFFFFFFFFFFFFFFFFFFFFFFFFFFFFFFFFFFFFFFFFFFFFFFF DUP3 SUB PUSH2 0x902 JUMPI PUSH2 0x901 PUSH2 0x896 JUMP JUMPDEST JUMPDEST PUSH1 0x1 DUP3 ADD SWAP1 POP SWAP2 SWAP1 POP JUMP INVALID LOG2 PUSH5 0x6970667358 0x22 SLT KECCAK256 0x5E 0xE 0xC6 0xAE MSIZE DUP4 PUSH11 0x7FE36DDECB18060844C361 INVALID 0xCE 0xC0 0xB3 0x25 COINBASE 0x5C SIGNEXTEND PUSH16 0xACA0256AAF64736F6C63430008110033 "
				},
				"gasEstimates": {
					"creation": {
						"codeDepositCost": "474200",
						"executionCost": "511",
						"totalCost": "474711"
					},
					"external": {
						"distributeERC20(address,address[],uint256[])": "infinite",
						"distributeERC721(address,address[],uint256[])": "infinite"
					}
				},
				"methodIdentifiers": {
					"distributeERC20(address,address[],uint256[])": "b32d79dd",
					"distributeERC721(address,address[],uint256[])": "feeb9449"
				}
			},
			"storageLayout": {
				"storage": [],
				"types": null
			},
			"userdoc": {
				"kind": "user",
				"methods": {},
				"version": 1
			}
		}
	}
}